{
	"ERC1155.sol": {
		"ERC1155": {
			"abi": [
				{
					"inputs": [
						{
							"internalType": "string",
							"name": "uri_",
							"type": "string"
						},
						{
							"internalType": "string",
							"name": "_name",
							"type": "string"
						},
						{
							"internalType": "string",
							"name": "_symbol",
							"type": "string"
						}
					],
					"stateMutability": "nonpayable",
					"type": "constructor"
				},
				{
					"anonymous": false,
					"inputs": [
						{
							"indexed": true,
							"internalType": "address",
							"name": "account",
							"type": "address"
						},
						{
							"indexed": true,
							"internalType": "address",
							"name": "operator",
							"type": "address"
						},
						{
							"indexed": false,
							"internalType": "bool",
							"name": "approved",
							"type": "bool"
						}
					],
					"name": "ApprovalForAll",
					"type": "event"
				},
				{
					"anonymous": false,
					"inputs": [
						{
							"indexed": true,
							"internalType": "address",
							"name": "operator",
							"type": "address"
						},
						{
							"indexed": true,
							"internalType": "address",
							"name": "from",
							"type": "address"
						},
						{
							"indexed": true,
							"internalType": "address",
							"name": "to",
							"type": "address"
						},
						{
							"indexed": false,
							"internalType": "uint256[]",
							"name": "ids",
							"type": "uint256[]"
						},
						{
							"indexed": false,
							"internalType": "uint256[]",
							"name": "values",
							"type": "uint256[]"
						}
					],
					"name": "TransferBatch",
					"type": "event"
				},
				{
					"anonymous": false,
					"inputs": [
						{
							"indexed": true,
							"internalType": "address",
							"name": "operator",
							"type": "address"
						},
						{
							"indexed": true,
							"internalType": "address",
							"name": "from",
							"type": "address"
						},
						{
							"indexed": true,
							"internalType": "address",
							"name": "to",
							"type": "address"
						},
						{
							"indexed": false,
							"internalType": "uint256",
							"name": "id",
							"type": "uint256"
						},
						{
							"indexed": false,
							"internalType": "uint256",
							"name": "value",
							"type": "uint256"
						}
					],
					"name": "TransferSingle",
					"type": "event"
				},
				{
					"anonymous": false,
					"inputs": [
						{
							"indexed": false,
							"internalType": "string",
							"name": "value",
							"type": "string"
						},
						{
							"indexed": true,
							"internalType": "uint256",
							"name": "id",
							"type": "uint256"
						}
					],
					"name": "URI",
					"type": "event"
				},
				{
					"inputs": [
						{
							"internalType": "address",
							"name": "account",
							"type": "address"
						},
						{
							"internalType": "uint256",
							"name": "id",
							"type": "uint256"
						}
					],
					"name": "balanceOf",
					"outputs": [
						{
							"internalType": "uint256",
							"name": "",
							"type": "uint256"
						}
					],
					"stateMutability": "view",
					"type": "function"
				},
				{
					"inputs": [
						{
							"internalType": "address[]",
							"name": "accounts",
							"type": "address[]"
						},
						{
							"internalType": "uint256[]",
							"name": "ids",
							"type": "uint256[]"
						}
					],
					"name": "balanceOfBatch",
					"outputs": [
						{
							"internalType": "uint256[]",
							"name": "",
							"type": "uint256[]"
						}
					],
					"stateMutability": "view",
					"type": "function"
				},
				{
					"inputs": [
						{
							"internalType": "address",
							"name": "to",
							"type": "address"
						},
						{
							"internalType": "uint256",
							"name": "id",
							"type": "uint256"
						},
						{
							"internalType": "uint256",
							"name": "amount",
							"type": "uint256"
						}
					],
					"name": "burn",
					"outputs": [],
					"stateMutability": "nonpayable",
					"type": "function"
				},
				{
					"inputs": [
						{
							"internalType": "address",
							"name": "account",
							"type": "address"
						},
						{
							"internalType": "address",
							"name": "operator",
							"type": "address"
						}
					],
					"name": "isApprovedForAll",
					"outputs": [
						{
							"internalType": "bool",
							"name": "",
							"type": "bool"
						}
					],
					"stateMutability": "view",
					"type": "function"
				},
				{
					"inputs": [
						{
							"internalType": "address",
							"name": "to",
							"type": "address"
						},
						{
							"internalType": "uint256",
							"name": "id",
							"type": "uint256"
						},
						{
							"internalType": "uint256",
							"name": "amount",
							"type": "uint256"
						},
						{
							"internalType": "bytes",
							"name": "data",
							"type": "bytes"
						}
					],
					"name": "mint",
					"outputs": [],
					"stateMutability": "nonpayable",
					"type": "function"
				},
				{
					"inputs": [],
					"name": "name",
					"outputs": [
						{
							"internalType": "string",
							"name": "",
							"type": "string"
						}
					],
					"stateMutability": "view",
					"type": "function"
				},
				{
					"inputs": [
						{
							"internalType": "address",
							"name": "from",
							"type": "address"
						},
						{
							"internalType": "address",
							"name": "to",
							"type": "address"
						},
						{
							"internalType": "uint256[]",
							"name": "ids",
							"type": "uint256[]"
						},
						{
							"internalType": "uint256[]",
							"name": "amounts",
							"type": "uint256[]"
						},
						{
							"internalType": "bytes",
							"name": "data",
							"type": "bytes"
						}
					],
					"name": "safeBatchTransferFrom",
					"outputs": [],
					"stateMutability": "nonpayable",
					"type": "function"
				},
				{
					"inputs": [
						{
							"internalType": "address",
							"name": "from",
							"type": "address"
						},
						{
							"internalType": "address",
							"name": "to",
							"type": "address"
						},
						{
							"internalType": "uint256",
							"name": "id",
							"type": "uint256"
						},
						{
							"internalType": "uint256",
							"name": "amount",
							"type": "uint256"
						},
						{
							"internalType": "bytes",
							"name": "data",
							"type": "bytes"
						}
					],
					"name": "safeTransferFrom",
					"outputs": [],
					"stateMutability": "nonpayable",
					"type": "function"
				},
				{
					"inputs": [
						{
							"internalType": "address",
							"name": "operator",
							"type": "address"
						},
						{
							"internalType": "bool",
							"name": "approved",
							"type": "bool"
						}
					],
					"name": "setApprovalForAll",
					"outputs": [],
					"stateMutability": "nonpayable",
					"type": "function"
				},
				{
					"inputs": [
						{
							"internalType": "bytes4",
							"name": "interfaceId",
							"type": "bytes4"
						}
					],
					"name": "supportsInterface",
					"outputs": [
						{
							"internalType": "bool",
							"name": "",
							"type": "bool"
						}
					],
					"stateMutability": "view",
					"type": "function"
				},
				{
					"inputs": [],
					"name": "symbol",
					"outputs": [
						{
							"internalType": "string",
							"name": "",
							"type": "string"
						}
					],
					"stateMutability": "view",
					"type": "function"
				},
				{
					"inputs": [
						{
							"internalType": "uint256",
							"name": "id",
							"type": "uint256"
						}
					],
					"name": "uri",
					"outputs": [
						{
							"internalType": "string",
							"name": "",
							"type": "string"
						}
					],
					"stateMutability": "view",
					"type": "function"
				}
			],
			"devdoc": {
				"details": "Implementation of the basic standard multi-token. See https://eips.ethereum.org/EIPS/eip-1155 Originally based on code by Enjin: https://github.com/enjin/erc-1155 _Available since v3.1._",
				"kind": "dev",
				"methods": {
					"balanceOf(address,uint256)": {
						"details": "See {IERC1155-balanceOf}. Requirements: - `account` cannot be the zero address."
					},
					"balanceOfBatch(address[],uint256[])": {
						"details": "See {IERC1155-balanceOfBatch}. Requirements: - `accounts` and `ids` must have the same length."
					},
					"constructor": {
						"details": "See {_setURI}."
					},
					"isApprovedForAll(address,address)": {
						"details": "See {IERC1155-isApprovedForAll}."
					},
					"safeBatchTransferFrom(address,address,uint256[],uint256[],bytes)": {
						"details": "See {IERC1155-safeBatchTransferFrom}."
					},
					"safeTransferFrom(address,address,uint256,uint256,bytes)": {
						"details": "See {IERC1155-safeTransferFrom}."
					},
					"setApprovalForAll(address,bool)": {
						"details": "See {IERC1155-setApprovalForAll}."
					},
					"supportsInterface(bytes4)": {
						"details": "See {IERC165-supportsInterface}."
					},
					"uri(uint256)": {
						"details": "See {IERC1155MetadataURI-uri}. This implementation returns the same URI for *all* token types. It relies on the token type ID substitution mechanism https://eips.ethereum.org/EIPS/eip-1155#metadata[defined in the EIP]. Clients calling this function must replace the `\\{id\\}` substring with the actual token type ID."
					}
				},
				"version": 1
			},
			"evm": {
				"assembly": "    /* \"ERC1155.sol\":559:18270  contract ERC1155 is Context, ERC165, IERC1155, IERC1155MetadataURI {\r... */\n  mstore(0x40, 0x80)\n    /* \"ERC1155.sol\":1163:1321  constructor(string memory uri_, string memory _name, string memory _symbol) {\r... */\n  callvalue\n  dup1\n  iszero\n  tag_1\n  jumpi\n  0x00\n  dup1\n  revert\ntag_1:\n  pop\n  mload(0x40)\n  sub(codesize, bytecodeSize)\n  dup1\n  bytecodeSize\n  dup4\n  codecopy\n  dup2\n  dup2\n  add\n  0x40\n  mstore\n  dup2\n  add\n  swap1\n  tag_2\n  swap2\n  swap1\n  tag_3\n  jump\t// in\ntag_2:\n    /* \"ERC1155.sol\":1250:1263  _setURI(uri_) */\n  tag_6\n    /* \"ERC1155.sol\":1258:1262  uri_ */\n  dup4\n    /* \"ERC1155.sol\":1250:1257  _setURI */\n  shl(0x20, tag_7)\n    /* \"ERC1155.sol\":1250:1263  _setURI(uri_) */\n  0x20\n  shr\n  jump\t// in\ntag_6:\n    /* \"ERC1155.sol\":1281:1286  _name */\n  dup2\n    /* \"ERC1155.sol\":1274:1278  name */\n  0x00\n    /* \"ERC1155.sol\":1274:1286  name = _name */\n  swap1\n  dup1\n  mload\n  swap1\n  0x20\n  add\n  swap1\n  tag_8\n  swap3\n  swap2\n  swap1\n  tag_9\n  jump\t// in\ntag_8:\n  pop\n    /* \"ERC1155.sol\":1306:1313  _symbol */\n  dup1\n    /* \"ERC1155.sol\":1297:1303  symbol */\n  0x01\n    /* \"ERC1155.sol\":1297:1313  symbol = _symbol */\n  swap1\n  dup1\n  mload\n  swap1\n  0x20\n  add\n  swap1\n  tag_10\n  swap3\n  swap2\n  swap1\n  tag_9\n  jump\t// in\ntag_10:\n  pop\n    /* \"ERC1155.sol\":1163:1321  constructor(string memory uri_, string memory _name, string memory _symbol) {\r... */\n  pop\n  pop\n  pop\n    /* \"ERC1155.sol\":559:18270  contract ERC1155 is Context, ERC165, IERC1155, IERC1155MetadataURI {\r... */\n  jump(tag_11)\n    /* \"ERC1155.sol\":8910:8998  function _setURI(string memory newuri) internal virtual {\r... */\ntag_7:\n    /* \"ERC1155.sol\":8984:8990  newuri */\n  dup1\n    /* \"ERC1155.sol\":8977:8981  _uri */\n  0x04\n    /* \"ERC1155.sol\":8977:8990  _uri = newuri */\n  swap1\n  dup1\n  mload\n  swap1\n  0x20\n  add\n  swap1\n  tag_13\n  swap3\n  swap2\n  swap1\n  tag_9\n  jump\t// in\ntag_13:\n  pop\n    /* \"ERC1155.sol\":8910:8998  function _setURI(string memory newuri) internal virtual {\r... */\n  pop\n  jump\t// out\n    /* \"ERC1155.sol\":559:18270  contract ERC1155 is Context, ERC165, IERC1155, IERC1155MetadataURI {\r... */\ntag_9:\n  dup3\n  dup1\n  sload\n  tag_14\n  swap1\n  tag_15\n  jump\t// in\ntag_14:\n  swap1\n  0x00\n  mstore\n  keccak256(0x00, 0x20)\n  swap1\n  0x1f\n  add\n  0x20\n  swap1\n  div\n  dup2\n  add\n  swap3\n  dup3\n  tag_17\n  jumpi\n  0x00\n  dup6\n  sstore\n  jump(tag_16)\ntag_17:\n  dup3\n  0x1f\n  lt\n  tag_18\n  jumpi\n  dup1\n  mload\n  not(0xff)\n  and\n  dup4\n  dup1\n  add\n  or\n  dup6\n  sstore\n  jump(tag_16)\ntag_18:\n  dup3\n  dup1\n  add\n  0x01\n  add\n  dup6\n  sstore\n  dup3\n  iszero\n  tag_16\n  jumpi\n  swap2\n  dup3\n  add\ntag_19:\n  dup3\n  dup2\n  gt\n  iszero\n  tag_20\n  jumpi\n  dup3\n  mload\n  dup3\n  sstore\n  swap2\n  0x20\n  add\n  swap2\n  swap1\n  0x01\n  add\n  swap1\n  jump(tag_19)\ntag_20:\ntag_16:\n  pop\n  swap1\n  pop\n  tag_21\n  swap2\n  swap1\n  tag_22\n  jump\t// in\ntag_21:\n  pop\n  swap1\n  jump\t// out\ntag_22:\ntag_23:\n  dup1\n  dup3\n  gt\n  iszero\n  tag_24\n  jumpi\n  0x00\n  dup2\n  0x00\n  swap1\n  sstore\n  pop\n  0x01\n  add\n  jump(tag_23)\ntag_24:\n  pop\n  swap1\n  jump\t// out\n    /* \"#utility.yul\":7:428   */\ntag_26:\n    /* \"#utility.yul\":96:101   */\n  0x00\n    /* \"#utility.yul\":121:187   */\n  tag_28\n    /* \"#utility.yul\":137:186   */\n  tag_29\n    /* \"#utility.yul\":179:185   */\n  dup5\n    /* \"#utility.yul\":137:186   */\n  tag_30\n  jump\t// in\ntag_29:\n    /* \"#utility.yul\":121:187   */\n  tag_31\n  jump\t// in\ntag_28:\n    /* \"#utility.yul\":112:187   */\n  swap1\n  pop\n    /* \"#utility.yul\":210:216   */\n  dup3\n    /* \"#utility.yul\":203:208   */\n  dup2\n    /* \"#utility.yul\":196:217   */\n  mstore\n    /* \"#utility.yul\":248:252   */\n  0x20\n    /* \"#utility.yul\":241:246   */\n  dup2\n    /* \"#utility.yul\":237:253   */\n  add\n    /* \"#utility.yul\":286:289   */\n  dup5\n    /* \"#utility.yul\":277:283   */\n  dup5\n    /* \"#utility.yul\":272:275   */\n  dup5\n    /* \"#utility.yul\":268:284   */\n  add\n    /* \"#utility.yul\":265:290   */\n  gt\n    /* \"#utility.yul\":262:374   */\n  iszero\n  tag_32\n  jumpi\n    /* \"#utility.yul\":293:372   */\n  tag_33\n  tag_34\n  jump\t// in\ntag_33:\n    /* \"#utility.yul\":262:374   */\ntag_32:\n    /* \"#utility.yul\":383:422   */\n  tag_35\n    /* \"#utility.yul\":415:421   */\n  dup5\n    /* \"#utility.yul\":410:413   */\n  dup3\n    /* \"#utility.yul\":405:408   */\n  dup6\n    /* \"#utility.yul\":383:422   */\n  tag_36\n  jump\t// in\ntag_35:\n    /* \"#utility.yul\":102:428   */\n  pop\n    /* \"#utility.yul\":7:428   */\n  swap4\n  swap3\n  pop\n  pop\n  pop\n  jump\t// out\n    /* \"#utility.yul\":448:803   */\ntag_37:\n    /* \"#utility.yul\":515:520   */\n  0x00\n    /* \"#utility.yul\":564:567   */\n  dup3\n    /* \"#utility.yul\":557:561   */\n  0x1f\n    /* \"#utility.yul\":549:555   */\n  dup4\n    /* \"#utility.yul\":545:562   */\n  add\n    /* \"#utility.yul\":541:568   */\n  slt\n    /* \"#utility.yul\":531:653   */\n  tag_39\n  jumpi\n    /* \"#utility.yul\":572:651   */\n  tag_40\n  tag_41\n  jump\t// in\ntag_40:\n    /* \"#utility.yul\":531:653   */\ntag_39:\n    /* \"#utility.yul\":682:688   */\n  dup2\n    /* \"#utility.yul\":676:689   */\n  mload\n    /* \"#utility.yul\":707:797   */\n  tag_42\n    /* \"#utility.yul\":793:796   */\n  dup5\n    /* \"#utility.yul\":785:791   */\n  dup3\n    /* \"#utility.yul\":778:782   */\n  0x20\n    /* \"#utility.yul\":770:776   */\n  dup7\n    /* \"#utility.yul\":766:783   */\n  add\n    /* \"#utility.yul\":707:797   */\n  tag_26\n  jump\t// in\ntag_42:\n    /* \"#utility.yul\":698:797   */\n  swap2\n  pop\n    /* \"#utility.yul\":521:803   */\n  pop\n    /* \"#utility.yul\":448:803   */\n  swap3\n  swap2\n  pop\n  pop\n  jump\t// out\n    /* \"#utility.yul\":809:1991   */\ntag_3:\n    /* \"#utility.yul\":927:933   */\n  0x00\n    /* \"#utility.yul\":935:941   */\n  dup1\n    /* \"#utility.yul\":943:949   */\n  0x00\n    /* \"#utility.yul\":992:994   */\n  0x60\n    /* \"#utility.yul\":980:989   */\n  dup5\n    /* \"#utility.yul\":971:978   */\n  dup7\n    /* \"#utility.yul\":967:990   */\n  sub\n    /* \"#utility.yul\":963:995   */\n  slt\n    /* \"#utility.yul\":960:1079   */\n  iszero\n  tag_44\n  jumpi\n    /* \"#utility.yul\":998:1077   */\n  tag_45\n  tag_46\n  jump\t// in\ntag_45:\n    /* \"#utility.yul\":960:1079   */\ntag_44:\n    /* \"#utility.yul\":1139:1140   */\n  0x00\n    /* \"#utility.yul\":1128:1137   */\n  dup5\n    /* \"#utility.yul\":1124:1141   */\n  add\n    /* \"#utility.yul\":1118:1142   */\n  mload\n    /* \"#utility.yul\":1169:1187   */\n  0xffffffffffffffff\n    /* \"#utility.yul\":1161:1167   */\n  dup2\n    /* \"#utility.yul\":1158:1188   */\n  gt\n    /* \"#utility.yul\":1155:1272   */\n  iszero\n  tag_47\n  jumpi\n    /* \"#utility.yul\":1191:1270   */\n  tag_48\n  tag_49\n  jump\t// in\ntag_48:\n    /* \"#utility.yul\":1155:1272   */\ntag_47:\n    /* \"#utility.yul\":1296:1370   */\n  tag_50\n    /* \"#utility.yul\":1362:1369   */\n  dup7\n    /* \"#utility.yul\":1353:1359   */\n  dup3\n    /* \"#utility.yul\":1342:1351   */\n  dup8\n    /* \"#utility.yul\":1338:1360   */\n  add\n    /* \"#utility.yul\":1296:1370   */\n  tag_37\n  jump\t// in\ntag_50:\n    /* \"#utility.yul\":1286:1370   */\n  swap4\n  pop\n    /* \"#utility.yul\":1089:1380   */\n  pop\n    /* \"#utility.yul\":1440:1442   */\n  0x20\n    /* \"#utility.yul\":1429:1438   */\n  dup5\n    /* \"#utility.yul\":1425:1443   */\n  add\n    /* \"#utility.yul\":1419:1444   */\n  mload\n    /* \"#utility.yul\":1471:1489   */\n  0xffffffffffffffff\n    /* \"#utility.yul\":1463:1469   */\n  dup2\n    /* \"#utility.yul\":1460:1490   */\n  gt\n    /* \"#utility.yul\":1457:1574   */\n  iszero\n  tag_51\n  jumpi\n    /* \"#utility.yul\":1493:1572   */\n  tag_52\n  tag_49\n  jump\t// in\ntag_52:\n    /* \"#utility.yul\":1457:1574   */\ntag_51:\n    /* \"#utility.yul\":1598:1672   */\n  tag_53\n    /* \"#utility.yul\":1664:1671   */\n  dup7\n    /* \"#utility.yul\":1655:1661   */\n  dup3\n    /* \"#utility.yul\":1644:1653   */\n  dup8\n    /* \"#utility.yul\":1640:1662   */\n  add\n    /* \"#utility.yul\":1598:1672   */\n  tag_37\n  jump\t// in\ntag_53:\n    /* \"#utility.yul\":1588:1672   */\n  swap3\n  pop\n    /* \"#utility.yul\":1390:1682   */\n  pop\n    /* \"#utility.yul\":1742:1744   */\n  0x40\n    /* \"#utility.yul\":1731:1740   */\n  dup5\n    /* \"#utility.yul\":1727:1745   */\n  add\n    /* \"#utility.yul\":1721:1746   */\n  mload\n    /* \"#utility.yul\":1773:1791   */\n  0xffffffffffffffff\n    /* \"#utility.yul\":1765:1771   */\n  dup2\n    /* \"#utility.yul\":1762:1792   */\n  gt\n    /* \"#utility.yul\":1759:1876   */\n  iszero\n  tag_54\n  jumpi\n    /* \"#utility.yul\":1795:1874   */\n  tag_55\n  tag_49\n  jump\t// in\ntag_55:\n    /* \"#utility.yul\":1759:1876   */\ntag_54:\n    /* \"#utility.yul\":1900:1974   */\n  tag_56\n    /* \"#utility.yul\":1966:1973   */\n  dup7\n    /* \"#utility.yul\":1957:1963   */\n  dup3\n    /* \"#utility.yul\":1946:1955   */\n  dup8\n    /* \"#utility.yul\":1942:1964   */\n  add\n    /* \"#utility.yul\":1900:1974   */\n  tag_37\n  jump\t// in\ntag_56:\n    /* \"#utility.yul\":1890:1974   */\n  swap2\n  pop\n    /* \"#utility.yul\":1692:1984   */\n  pop\n    /* \"#utility.yul\":809:1991   */\n  swap3\n  pop\n  swap3\n  pop\n  swap3\n  jump\t// out\n    /* \"#utility.yul\":1997:2126   */\ntag_31:\n    /* \"#utility.yul\":2031:2037   */\n  0x00\n    /* \"#utility.yul\":2058:2078   */\n  tag_58\n  tag_59\n  jump\t// in\ntag_58:\n    /* \"#utility.yul\":2048:2078   */\n  swap1\n  pop\n    /* \"#utility.yul\":2087:2120   */\n  tag_60\n    /* \"#utility.yul\":2115:2119   */\n  dup3\n    /* \"#utility.yul\":2107:2113   */\n  dup3\n    /* \"#utility.yul\":2087:2120   */\n  tag_61\n  jump\t// in\ntag_60:\n    /* \"#utility.yul\":1997:2126   */\n  swap2\n  swap1\n  pop\n  jump\t// out\n    /* \"#utility.yul\":2132:2207   */\ntag_59:\n    /* \"#utility.yul\":2165:2171   */\n  0x00\n    /* \"#utility.yul\":2198:2200   */\n  0x40\n    /* \"#utility.yul\":2192:2201   */\n  mload\n    /* \"#utility.yul\":2182:2201   */\n  swap1\n  pop\n    /* \"#utility.yul\":2132:2207   */\n  swap1\n  jump\t// out\n    /* \"#utility.yul\":2213:2521   */\ntag_30:\n    /* \"#utility.yul\":2275:2279   */\n  0x00\n    /* \"#utility.yul\":2365:2383   */\n  0xffffffffffffffff\n    /* \"#utility.yul\":2357:2363   */\n  dup3\n    /* \"#utility.yul\":2354:2384   */\n  gt\n    /* \"#utility.yul\":2351:2407   */\n  iszero\n  tag_64\n  jumpi\n    /* \"#utility.yul\":2387:2405   */\n  tag_65\n  tag_66\n  jump\t// in\ntag_65:\n    /* \"#utility.yul\":2351:2407   */\ntag_64:\n    /* \"#utility.yul\":2425:2454   */\n  tag_67\n    /* \"#utility.yul\":2447:2453   */\n  dup3\n    /* \"#utility.yul\":2425:2454   */\n  tag_68\n  jump\t// in\ntag_67:\n    /* \"#utility.yul\":2417:2454   */\n  swap1\n  pop\n    /* \"#utility.yul\":2509:2513   */\n  0x20\n    /* \"#utility.yul\":2503:2507   */\n  dup2\n    /* \"#utility.yul\":2499:2514   */\n  add\n    /* \"#utility.yul\":2491:2514   */\n  swap1\n  pop\n    /* \"#utility.yul\":2213:2521   */\n  swap2\n  swap1\n  pop\n  jump\t// out\n    /* \"#utility.yul\":2527:2834   */\ntag_36:\n    /* \"#utility.yul\":2595:2596   */\n  0x00\n    /* \"#utility.yul\":2605:2718   */\ntag_70:\n    /* \"#utility.yul\":2619:2625   */\n  dup4\n    /* \"#utility.yul\":2616:2617   */\n  dup2\n    /* \"#utility.yul\":2613:2626   */\n  lt\n    /* \"#utility.yul\":2605:2718   */\n  iszero\n  tag_72\n  jumpi\n    /* \"#utility.yul\":2704:2705   */\n  dup1\n    /* \"#utility.yul\":2699:2702   */\n  dup3\n    /* \"#utility.yul\":2695:2706   */\n  add\n    /* \"#utility.yul\":2689:2707   */\n  mload\n    /* \"#utility.yul\":2685:2686   */\n  dup2\n    /* \"#utility.yul\":2680:2683   */\n  dup5\n    /* \"#utility.yul\":2676:2687   */\n  add\n    /* \"#utility.yul\":2669:2708   */\n  mstore\n    /* \"#utility.yul\":2641:2643   */\n  0x20\n    /* \"#utility.yul\":2638:2639   */\n  dup2\n    /* \"#utility.yul\":2634:2644   */\n  add\n    /* \"#utility.yul\":2629:2644   */\n  swap1\n  pop\n    /* \"#utility.yul\":2605:2718   */\n  jump(tag_70)\ntag_72:\n    /* \"#utility.yul\":2736:2742   */\n  dup4\n    /* \"#utility.yul\":2733:2734   */\n  dup2\n    /* \"#utility.yul\":2730:2743   */\n  gt\n    /* \"#utility.yul\":2727:2828   */\n  iszero\n  tag_73\n  jumpi\n    /* \"#utility.yul\":2816:2817   */\n  0x00\n    /* \"#utility.yul\":2807:2813   */\n  dup5\n    /* \"#utility.yul\":2802:2805   */\n  dup5\n    /* \"#utility.yul\":2798:2814   */\n  add\n    /* \"#utility.yul\":2791:2818   */\n  mstore\n    /* \"#utility.yul\":2727:2828   */\ntag_73:\n    /* \"#utility.yul\":2576:2834   */\n  pop\n    /* \"#utility.yul\":2527:2834   */\n  pop\n  pop\n  pop\n  jump\t// out\n    /* \"#utility.yul\":2840:3160   */\ntag_15:\n    /* \"#utility.yul\":2884:2890   */\n  0x00\n    /* \"#utility.yul\":2921:2922   */\n  0x02\n    /* \"#utility.yul\":2915:2919   */\n  dup3\n    /* \"#utility.yul\":2911:2923   */\n  div\n    /* \"#utility.yul\":2901:2923   */\n  swap1\n  pop\n    /* \"#utility.yul\":2968:2969   */\n  0x01\n    /* \"#utility.yul\":2962:2966   */\n  dup3\n    /* \"#utility.yul\":2958:2970   */\n  and\n    /* \"#utility.yul\":2989:3007   */\n  dup1\n    /* \"#utility.yul\":2979:3060   */\n  tag_75\n  jumpi\n    /* \"#utility.yul\":3045:3049   */\n  0x7f\n    /* \"#utility.yul\":3037:3043   */\n  dup3\n    /* \"#utility.yul\":3033:3050   */\n  and\n    /* \"#utility.yul\":3023:3050   */\n  swap2\n  pop\n    /* \"#utility.yul\":2979:3060   */\ntag_75:\n    /* \"#utility.yul\":3107:3109   */\n  0x20\n    /* \"#utility.yul\":3099:3105   */\n  dup3\n    /* \"#utility.yul\":3096:3110   */\n  lt\n    /* \"#utility.yul\":3076:3094   */\n  dup2\n    /* \"#utility.yul\":3073:3111   */\n  eq\n    /* \"#utility.yul\":3070:3154   */\n  iszero\n  tag_76\n  jumpi\n    /* \"#utility.yul\":3126:3144   */\n  tag_77\n  tag_78\n  jump\t// in\ntag_77:\n    /* \"#utility.yul\":3070:3154   */\ntag_76:\n    /* \"#utility.yul\":2891:3160   */\n  pop\n    /* \"#utility.yul\":2840:3160   */\n  swap2\n  swap1\n  pop\n  jump\t// out\n    /* \"#utility.yul\":3166:3447   */\ntag_61:\n    /* \"#utility.yul\":3249:3276   */\n  tag_80\n    /* \"#utility.yul\":3271:3275   */\n  dup3\n    /* \"#utility.yul\":3249:3276   */\n  tag_68\n  jump\t// in\ntag_80:\n    /* \"#utility.yul\":3241:3247   */\n  dup2\n    /* \"#utility.yul\":3237:3277   */\n  add\n    /* \"#utility.yul\":3379:3385   */\n  dup2\n    /* \"#utility.yul\":3367:3377   */\n  dup2\n    /* \"#utility.yul\":3364:3386   */\n  lt\n    /* \"#utility.yul\":3343:3361   */\n  0xffffffffffffffff\n    /* \"#utility.yul\":3331:3341   */\n  dup3\n    /* \"#utility.yul\":3328:3362   */\n  gt\n    /* \"#utility.yul\":3325:3387   */\n  or\n    /* \"#utility.yul\":3322:3410   */\n  iszero\n  tag_81\n  jumpi\n    /* \"#utility.yul\":3390:3408   */\n  tag_82\n  tag_66\n  jump\t// in\ntag_82:\n    /* \"#utility.yul\":3322:3410   */\ntag_81:\n    /* \"#utility.yul\":3430:3440   */\n  dup1\n    /* \"#utility.yul\":3426:3428   */\n  0x40\n    /* \"#utility.yul\":3419:3441   */\n  mstore\n    /* \"#utility.yul\":3209:3447   */\n  pop\n    /* \"#utility.yul\":3166:3447   */\n  pop\n  pop\n  jump\t// out\n    /* \"#utility.yul\":3453:3633   */\ntag_78:\n    /* \"#utility.yul\":3501:3578   */\n  0x4e487b7100000000000000000000000000000000000000000000000000000000\n    /* \"#utility.yul\":3498:3499   */\n  0x00\n    /* \"#utility.yul\":3491:3579   */\n  mstore\n    /* \"#utility.yul\":3598:3602   */\n  0x22\n    /* \"#utility.yul\":3595:3596   */\n  0x04\n    /* \"#utility.yul\":3588:3603   */\n  mstore\n    /* \"#utility.yul\":3622:3626   */\n  0x24\n    /* \"#utility.yul\":3619:3620   */\n  0x00\n    /* \"#utility.yul\":3612:3627   */\n  revert\n    /* \"#utility.yul\":3639:3819   */\ntag_66:\n    /* \"#utility.yul\":3687:3764   */\n  0x4e487b7100000000000000000000000000000000000000000000000000000000\n    /* \"#utility.yul\":3684:3685   */\n  0x00\n    /* \"#utility.yul\":3677:3765   */\n  mstore\n    /* \"#utility.yul\":3784:3788   */\n  0x41\n    /* \"#utility.yul\":3781:3782   */\n  0x04\n    /* \"#utility.yul\":3774:3789   */\n  mstore\n    /* \"#utility.yul\":3808:3812   */\n  0x24\n    /* \"#utility.yul\":3805:3806   */\n  0x00\n    /* \"#utility.yul\":3798:3813   */\n  revert\n    /* \"#utility.yul\":3825:3942   */\ntag_41:\n    /* \"#utility.yul\":3934:3935   */\n  0x00\n    /* \"#utility.yul\":3931:3932   */\n  dup1\n    /* \"#utility.yul\":3924:3936   */\n  revert\n    /* \"#utility.yul\":3948:4065   */\ntag_34:\n    /* \"#utility.yul\":4057:4058   */\n  0x00\n    /* \"#utility.yul\":4054:4055   */\n  dup1\n    /* \"#utility.yul\":4047:4059   */\n  revert\n    /* \"#utility.yul\":4071:4188   */\ntag_49:\n    /* \"#utility.yul\":4180:4181   */\n  0x00\n    /* \"#utility.yul\":4177:4178   */\n  dup1\n    /* \"#utility.yul\":4170:4182   */\n  revert\n    /* \"#utility.yul\":4194:4311   */\ntag_46:\n    /* \"#utility.yul\":4303:4304   */\n  0x00\n    /* \"#utility.yul\":4300:4301   */\n  dup1\n    /* \"#utility.yul\":4293:4305   */\n  revert\n    /* \"#utility.yul\":4317:4419   */\ntag_68:\n    /* \"#utility.yul\":4358:4364   */\n  0x00\n    /* \"#utility.yul\":4409:4411   */\n  0x1f\n    /* \"#utility.yul\":4405:4412   */\n  not\n    /* \"#utility.yul\":4400:4402   */\n  0x1f\n    /* \"#utility.yul\":4393:4398   */\n  dup4\n    /* \"#utility.yul\":4389:4403   */\n  add\n    /* \"#utility.yul\":4385:4413   */\n  and\n    /* \"#utility.yul\":4375:4413   */\n  swap1\n  pop\n    /* \"#utility.yul\":4317:4419   */\n  swap2\n  swap1\n  pop\n  jump\t// out\n    /* \"ERC1155.sol\":559:18270  contract ERC1155 is Context, ERC165, IERC1155, IERC1155MetadataURI {\r... */\ntag_11:\n  dataSize(sub_0)\n  dup1\n  dataOffset(sub_0)\n  0x00\n  codecopy\n  0x00\n  return\nstop\n\nsub_0: assembly {\n        /* \"ERC1155.sol\":559:18270  contract ERC1155 is Context, ERC165, IERC1155, IERC1155MetadataURI {\r... */\n      mstore(0x40, 0x80)\n      callvalue\n      dup1\n      iszero\n      tag_1\n      jumpi\n      0x00\n      dup1\n      revert\n    tag_1:\n      pop\n      jumpi(tag_2, lt(calldatasize, 0x04))\n      shr(0xe0, calldataload(0x00))\n      dup1\n      0x731133e9\n      gt\n      tag_15\n      jumpi\n      dup1\n      0x731133e9\n      eq\n      tag_9\n      jumpi\n      dup1\n      0x95d89b41\n      eq\n      tag_10\n      jumpi\n      dup1\n      0xa22cb465\n      eq\n      tag_11\n      jumpi\n      dup1\n      0xe985e9c5\n      eq\n      tag_12\n      jumpi\n      dup1\n      0xf242432a\n      eq\n      tag_13\n      jumpi\n      dup1\n      0xf5298aca\n      eq\n      tag_14\n      jumpi\n      jump(tag_2)\n    tag_15:\n      dup1\n      0xfdd58e\n      eq\n      tag_3\n      jumpi\n      dup1\n      0x01ffc9a7\n      eq\n      tag_4\n      jumpi\n      dup1\n      0x06fdde03\n      eq\n      tag_5\n      jumpi\n      dup1\n      0x0e89341c\n      eq\n      tag_6\n      jumpi\n      dup1\n      0x2eb2c2d6\n      eq\n      tag_7\n      jumpi\n      dup1\n      0x4e1273f4\n      eq\n      tag_8\n      jumpi\n    tag_2:\n      0x00\n      dup1\n      revert\n        /* \"ERC1155.sol\":2421:2651  function balanceOf(address account, uint256 id) public view virtual override returns (uint256) {\r... */\n    tag_3:\n      tag_16\n      0x04\n      dup1\n      calldatasize\n      sub\n      dup2\n      add\n      swap1\n      tag_17\n      swap2\n      swap1\n      tag_18\n      jump\t// in\n    tag_17:\n      tag_19\n      jump\t// in\n    tag_16:\n      mload(0x40)\n      tag_20\n      swap2\n      swap1\n      tag_21\n      jump\t// in\n    tag_20:\n      mload(0x40)\n      dup1\n      swap2\n      sub\n      swap1\n      return\n        /* \"ERC1155.sol\":1393:1703  function supportsInterface(bytes4 interfaceId) public view virtual override(ERC165, IERC165) returns (bool) {\r... */\n    tag_4:\n      tag_22\n      0x04\n      dup1\n      calldatasize\n      sub\n      dup2\n      add\n      swap1\n      tag_23\n      swap2\n      swap1\n      tag_24\n      jump\t// in\n    tag_23:\n      tag_25\n      jump\t// in\n    tag_22:\n      mload(0x40)\n      tag_26\n      swap2\n      swap1\n      tag_27\n      jump\t// in\n    tag_26:\n      mload(0x40)\n      dup1\n      swap2\n      sub\n      swap1\n      return\n        /* \"ERC1155.sol\":665:683  string public name */\n    tag_5:\n      tag_28\n      tag_29\n      jump\t// in\n    tag_28:\n      mload(0x40)\n      tag_30\n      swap2\n      swap1\n      tag_31\n      jump\t// in\n    tag_30:\n      mload(0x40)\n      dup1\n      swap2\n      sub\n      swap1\n      return\n        /* \"ERC1155.sol\":2114:2270  function uri(uint256 id) public view virtual override returns (string memory) {\r... */\n    tag_6:\n      tag_32\n      0x04\n      dup1\n      calldatasize\n      sub\n      dup2\n      add\n      swap1\n      tag_33\n      swap2\n      swap1\n      tag_34\n      jump\t// in\n    tag_33:\n      tag_35\n      jump\t// in\n    tag_32:\n      mload(0x40)\n      tag_36\n      swap2\n      swap1\n      tag_31\n      jump\t// in\n    tag_36:\n      mload(0x40)\n      dup1\n      swap2\n      sub\n      swap1\n      return\n        /* \"ERC1155.sol\":4365:4804  function safeBatchTransferFrom(\r... */\n    tag_7:\n      tag_37\n      0x04\n      dup1\n      calldatasize\n      sub\n      dup2\n      add\n      swap1\n      tag_38\n      swap2\n      swap1\n      tag_39\n      jump\t// in\n    tag_38:\n      tag_40\n      jump\t// in\n    tag_37:\n      stop\n        /* \"ERC1155.sol\":2817:3341  function balanceOfBatch(address[] memory accounts, uint256[] memory ids)\r... */\n    tag_8:\n      tag_41\n      0x04\n      dup1\n      calldatasize\n      sub\n      dup2\n      add\n      swap1\n      tag_42\n      swap2\n      swap1\n      tag_43\n      jump\t// in\n    tag_42:\n      tag_44\n      jump\t// in\n    tag_41:\n      mload(0x40)\n      tag_45\n      swap2\n      swap1\n      tag_46\n      jump\t// in\n    tag_45:\n      mload(0x40)\n      dup1\n      swap2\n      sub\n      swap1\n      return\n        /* \"ERC1155.sol\":4812:4981  function mint(\r... */\n    tag_9:\n      tag_47\n      0x04\n      dup1\n      calldatasize\n      sub\n      dup2\n      add\n      swap1\n      tag_48\n      swap2\n      swap1\n      tag_49\n      jump\t// in\n    tag_48:\n      tag_50\n      jump\t// in\n    tag_47:\n      stop\n        /* \"ERC1155.sol\":690:710  string public symbol */\n    tag_10:\n      tag_51\n      tag_52\n      jump\t// in\n    tag_51:\n      mload(0x40)\n      tag_53\n      swap2\n      swap1\n      tag_31\n      jump\t// in\n    tag_53:\n      mload(0x40)\n      dup1\n      swap2\n      sub\n      swap1\n      return\n        /* \"ERC1155.sol\":3414:3569  function setApprovalForAll(address operator, bool approved) public virtual override {\r... */\n    tag_11:\n      tag_54\n      0x04\n      dup1\n      calldatasize\n      sub\n      dup2\n      add\n      swap1\n      tag_55\n      swap2\n      swap1\n      tag_56\n      jump\t// in\n    tag_55:\n      tag_57\n      jump\t// in\n    tag_54:\n      stop\n        /* \"ERC1155.sol\":3641:3809  function isApprovedForAll(address account, address operator) public view virtual override returns (bool) {\r... */\n    tag_12:\n      tag_58\n      0x04\n      dup1\n      calldatasize\n      sub\n      dup2\n      add\n      swap1\n      tag_59\n      swap2\n      swap1\n      tag_60\n      jump\t// in\n    tag_59:\n      tag_61\n      jump\t// in\n    tag_58:\n      mload(0x40)\n      tag_62\n      swap2\n      swap1\n      tag_27\n      jump\t// in\n    tag_62:\n      mload(0x40)\n      dup1\n      swap2\n      sub\n      swap1\n      return\n        /* \"ERC1155.sol\":3881:4288  function safeTransferFrom(\r... */\n    tag_13:\n      tag_63\n      0x04\n      dup1\n      calldatasize\n      sub\n      dup2\n      add\n      swap1\n      tag_64\n      swap2\n      swap1\n      tag_65\n      jump\t// in\n    tag_64:\n      tag_66\n      jump\t// in\n    tag_63:\n      stop\n        /* \"ERC1155.sol\":4989:5124  function burn(\r... */\n    tag_14:\n      tag_67\n      0x04\n      dup1\n      calldatasize\n      sub\n      dup2\n      add\n      swap1\n      tag_68\n      swap2\n      swap1\n      tag_69\n      jump\t// in\n    tag_68:\n      tag_70\n      jump\t// in\n    tag_67:\n      stop\n        /* \"ERC1155.sol\":2421:2651  function balanceOf(address account, uint256 id) public view virtual override returns (uint256) {\r... */\n    tag_19:\n        /* \"ERC1155.sol\":2507:2514  uint256 */\n      0x00\n        /* \"ERC1155.sol\":2554:2555  0 */\n      dup1\n        /* \"ERC1155.sol\":2535:2556  account != address(0) */\n      0xffffffffffffffffffffffffffffffffffffffff\n      and\n        /* \"ERC1155.sol\":2535:2542  account */\n      dup4\n        /* \"ERC1155.sol\":2535:2556  account != address(0) */\n      0xffffffffffffffffffffffffffffffffffffffff\n      and\n      eq\n      iszero\n        /* \"ERC1155.sol\":2527:2603  require(account != address(0), \"ERC1155: address zero is not a valid owner\") */\n      tag_72\n      jumpi\n      mload(0x40)\n      0x08c379a000000000000000000000000000000000000000000000000000000000\n      dup2\n      mstore\n      0x04\n      add\n      tag_73\n      swap1\n      tag_74\n      jump\t// in\n    tag_73:\n      mload(0x40)\n      dup1\n      swap2\n      sub\n      swap1\n      revert\n    tag_72:\n        /* \"ERC1155.sol\":2621:2630  _balances */\n      0x02\n        /* \"ERC1155.sol\":2621:2634  _balances[id] */\n      0x00\n        /* \"ERC1155.sol\":2631:2633  id */\n      dup4\n        /* \"ERC1155.sol\":2621:2634  _balances[id] */\n      dup2\n      mstore\n      0x20\n      add\n      swap1\n      dup2\n      mstore\n      0x20\n      add\n      0x00\n      keccak256\n        /* \"ERC1155.sol\":2621:2643  _balances[id][account] */\n      0x00\n        /* \"ERC1155.sol\":2635:2642  account */\n      dup5\n        /* \"ERC1155.sol\":2621:2643  _balances[id][account] */\n      0xffffffffffffffffffffffffffffffffffffffff\n      and\n      0xffffffffffffffffffffffffffffffffffffffff\n      and\n      dup2\n      mstore\n      0x20\n      add\n      swap1\n      dup2\n      mstore\n      0x20\n      add\n      0x00\n      keccak256\n      sload\n        /* \"ERC1155.sol\":2614:2643  return _balances[id][account] */\n      swap1\n      pop\n        /* \"ERC1155.sol\":2421:2651  function balanceOf(address account, uint256 id) public view virtual override returns (uint256) {\r... */\n      swap3\n      swap2\n      pop\n      pop\n      jump\t// out\n        /* \"ERC1155.sol\":1393:1703  function supportsInterface(bytes4 interfaceId) public view virtual override(ERC165, IERC165) returns (bool) {\r... */\n    tag_25:\n        /* \"ERC1155.sol\":1495:1499  bool */\n      0x00\n        /* \"ERC1155.sol\":1547:1573  type(IERC1155).interfaceId */\n      0xd9b67a2600000000000000000000000000000000000000000000000000000000\n        /* \"ERC1155.sol\":1532:1573  interfaceId == type(IERC1155).interfaceId */\n      not(0xffffffffffffffffffffffffffffffffffffffffffffffffffffffff)\n      and\n        /* \"ERC1155.sol\":1532:1543  interfaceId */\n      dup3\n        /* \"ERC1155.sol\":1532:1573  interfaceId == type(IERC1155).interfaceId */\n      not(0xffffffffffffffffffffffffffffffffffffffffffffffffffffffff)\n      and\n      eq\n        /* \"ERC1155.sol\":1532:1642  interfaceId == type(IERC1155).interfaceId ||\r... */\n      dup1\n      tag_76\n      jumpi\n      pop\n        /* \"ERC1155.sol\":1605:1642  type(IERC1155MetadataURI).interfaceId */\n      0x0e89341c00000000000000000000000000000000000000000000000000000000\n        /* \"ERC1155.sol\":1590:1642  interfaceId == type(IERC1155MetadataURI).interfaceId */\n      not(0xffffffffffffffffffffffffffffffffffffffffffffffffffffffff)\n      and\n        /* \"ERC1155.sol\":1590:1601  interfaceId */\n      dup3\n        /* \"ERC1155.sol\":1590:1642  interfaceId == type(IERC1155MetadataURI).interfaceId */\n      not(0xffffffffffffffffffffffffffffffffffffffffffffffffffffffff)\n      and\n      eq\n        /* \"ERC1155.sol\":1532:1642  interfaceId == type(IERC1155).interfaceId ||\r... */\n    tag_76:\n        /* \"ERC1155.sol\":1532:1695  interfaceId == type(IERC1155).interfaceId ||\r... */\n      dup1\n      tag_77\n      jumpi\n      pop\n        /* \"ERC1155.sol\":1659:1695  super.supportsInterface(interfaceId) */\n      tag_78\n        /* \"ERC1155.sol\":1683:1694  interfaceId */\n      dup3\n        /* \"ERC1155.sol\":1659:1682  super.supportsInterface */\n      tag_79\n        /* \"ERC1155.sol\":1659:1695  super.supportsInterface(interfaceId) */\n      jump\t// in\n    tag_78:\n        /* \"ERC1155.sol\":1532:1695  interfaceId == type(IERC1155).interfaceId ||\r... */\n    tag_77:\n        /* \"ERC1155.sol\":1512:1695  return\r... */\n      swap1\n      pop\n        /* \"ERC1155.sol\":1393:1703  function supportsInterface(bytes4 interfaceId) public view virtual override(ERC165, IERC165) returns (bool) {\r... */\n      swap2\n      swap1\n      pop\n      jump\t// out\n        /* \"ERC1155.sol\":665:683  string public name */\n    tag_29:\n      0x00\n      dup1\n      sload\n      tag_80\n      swap1\n      tag_81\n      jump\t// in\n    tag_80:\n      dup1\n      0x1f\n      add\n      0x20\n      dup1\n      swap2\n      div\n      mul\n      0x20\n      add\n      mload(0x40)\n      swap1\n      dup2\n      add\n      0x40\n      mstore\n      dup1\n      swap3\n      swap2\n      swap1\n      dup2\n      dup2\n      mstore\n      0x20\n      add\n      dup3\n      dup1\n      sload\n      tag_82\n      swap1\n      tag_81\n      jump\t// in\n    tag_82:\n      dup1\n      iszero\n      tag_83\n      jumpi\n      dup1\n      0x1f\n      lt\n      tag_84\n      jumpi\n      0x0100\n      dup1\n      dup4\n      sload\n      div\n      mul\n      dup4\n      mstore\n      swap2\n      0x20\n      add\n      swap2\n      jump(tag_83)\n    tag_84:\n      dup3\n      add\n      swap2\n      swap1\n      0x00\n      mstore\n      keccak256(0x00, 0x20)\n      swap1\n    tag_85:\n      dup2\n      sload\n      dup2\n      mstore\n      swap1\n      0x01\n      add\n      swap1\n      0x20\n      add\n      dup1\n      dup4\n      gt\n      tag_85\n      jumpi\n      dup3\n      swap1\n      sub\n      0x1f\n      and\n      dup3\n      add\n      swap2\n    tag_83:\n      pop\n      pop\n      pop\n      pop\n      pop\n      dup2\n      jump\t// out\n        /* \"ERC1155.sol\":2114:2270  function uri(uint256 id) public view virtual override returns (string memory) {\r... */\n    tag_35:\n        /* \"ERC1155.sol\":2177:2190  string memory */\n      0x60\n        /* \"ERC1155.sol\":2234:2238  _uri */\n      0x04\n        /* \"ERC1155.sol\":2240:2260  Strings.toString(id) */\n      tag_87\n        /* \"ERC1155.sol\":2257:2259  id */\n      dup4\n        /* \"ERC1155.sol\":2240:2256  Strings.toString */\n      tag_88\n        /* \"ERC1155.sol\":2240:2260  Strings.toString(id) */\n      jump\t// in\n    tag_87:\n        /* \"ERC1155.sol\":2217:2261  abi.encodePacked(_uri, Strings.toString(id)) */\n      add(0x20, mload(0x40))\n      tag_89\n      swap3\n      swap2\n      swap1\n      tag_90\n      jump\t// in\n    tag_89:\n      mload(0x40)\n      0x20\n      dup2\n      dup4\n      sub\n      sub\n      dup2\n      mstore\n      swap1\n      0x40\n      mstore\n        /* \"ERC1155.sol\":2203:2262  return string(abi.encodePacked(_uri, Strings.toString(id))) */\n      swap1\n      pop\n        /* \"ERC1155.sol\":2114:2270  function uri(uint256 id) public view virtual override returns (string memory) {\r... */\n      swap2\n      swap1\n      pop\n      jump\t// out\n        /* \"ERC1155.sol\":4365:4804  function safeBatchTransferFrom(\r... */\n    tag_40:\n        /* \"ERC1155.sol\":4606:4618  _msgSender() */\n      tag_92\n        /* \"ERC1155.sol\":4606:4616  _msgSender */\n      tag_93\n        /* \"ERC1155.sol\":4606:4618  _msgSender() */\n      jump\t// in\n    tag_92:\n        /* \"ERC1155.sol\":4598:4618  from == _msgSender() */\n      0xffffffffffffffffffffffffffffffffffffffff\n      and\n        /* \"ERC1155.sol\":4598:4602  from */\n      dup6\n        /* \"ERC1155.sol\":4598:4618  from == _msgSender() */\n      0xffffffffffffffffffffffffffffffffffffffff\n      and\n      eq\n        /* \"ERC1155.sol\":4598:4658  from == _msgSender() || isApprovedForAll(from, _msgSender()) */\n      dup1\n      tag_94\n      jumpi\n      pop\n        /* \"ERC1155.sol\":4622:4658  isApprovedForAll(from, _msgSender()) */\n      tag_95\n        /* \"ERC1155.sol\":4639:4643  from */\n      dup6\n        /* \"ERC1155.sol\":4645:4657  _msgSender() */\n      tag_96\n        /* \"ERC1155.sol\":4645:4655  _msgSender */\n      tag_93\n        /* \"ERC1155.sol\":4645:4657  _msgSender() */\n      jump\t// in\n    tag_96:\n        /* \"ERC1155.sol\":4622:4638  isApprovedForAll */\n      tag_61\n        /* \"ERC1155.sol\":4622:4658  isApprovedForAll(from, _msgSender()) */\n      jump\t// in\n    tag_95:\n        /* \"ERC1155.sol\":4598:4658  from == _msgSender() || isApprovedForAll(from, _msgSender()) */\n    tag_94:\n        /* \"ERC1155.sol\":4576:4733  require(\r... */\n      tag_97\n      jumpi\n      mload(0x40)\n      0x08c379a000000000000000000000000000000000000000000000000000000000\n      dup2\n      mstore\n      0x04\n      add\n      tag_98\n      swap1\n      tag_99\n      jump\t// in\n    tag_98:\n      mload(0x40)\n      dup1\n      swap2\n      sub\n      swap1\n      revert\n    tag_97:\n        /* \"ERC1155.sol\":4744:4796  _safeBatchTransferFrom(from, to, ids, amounts, data) */\n      tag_100\n        /* \"ERC1155.sol\":4767:4771  from */\n      dup6\n        /* \"ERC1155.sol\":4773:4775  to */\n      dup6\n        /* \"ERC1155.sol\":4777:4780  ids */\n      dup6\n        /* \"ERC1155.sol\":4782:4789  amounts */\n      dup6\n        /* \"ERC1155.sol\":4791:4795  data */\n      dup6\n        /* \"ERC1155.sol\":4744:4766  _safeBatchTransferFrom */\n      tag_101\n        /* \"ERC1155.sol\":4744:4796  _safeBatchTransferFrom(from, to, ids, amounts, data) */\n      jump\t// in\n    tag_100:\n        /* \"ERC1155.sol\":4365:4804  function safeBatchTransferFrom(\r... */\n      pop\n      pop\n      pop\n      pop\n      pop\n      jump\t// out\n        /* \"ERC1155.sol\":2817:3341  function balanceOfBatch(address[] memory accounts, uint256[] memory ids)\r... */\n    tag_44:\n        /* \"ERC1155.sol\":2973:2989  uint256[] memory */\n      0x60\n        /* \"ERC1155.sol\":3034:3037  ids */\n      dup2\n        /* \"ERC1155.sol\":3034:3044  ids.length */\n      mload\n        /* \"ERC1155.sol\":3015:3023  accounts */\n      dup4\n        /* \"ERC1155.sol\":3015:3030  accounts.length */\n      mload\n        /* \"ERC1155.sol\":3015:3044  accounts.length == ids.length */\n      eq\n        /* \"ERC1155.sol\":3007:3090  require(accounts.length == ids.length, \"ERC1155: accounts and ids length mismatch\") */\n      tag_103\n      jumpi\n      mload(0x40)\n      0x08c379a000000000000000000000000000000000000000000000000000000000\n      dup2\n      mstore\n      0x04\n      add\n      tag_104\n      swap1\n      tag_105\n      jump\t// in\n    tag_104:\n      mload(0x40)\n      dup1\n      swap2\n      sub\n      swap1\n      revert\n    tag_103:\n        /* \"ERC1155.sol\":3103:3133  uint256[] memory batchBalances */\n      0x00\n        /* \"ERC1155.sol\":3150:3158  accounts */\n      dup4\n        /* \"ERC1155.sol\":3150:3165  accounts.length */\n      mload\n        /* \"ERC1155.sol\":3136:3166  new uint256[](accounts.length) */\n      0xffffffffffffffff\n      dup2\n      gt\n      iszero\n      tag_106\n      jumpi\n      tag_107\n      tag_108\n      jump\t// in\n    tag_107:\n    tag_106:\n      mload(0x40)\n      swap1\n      dup1\n      dup3\n      mstore\n      dup1\n      0x20\n      mul\n      0x20\n      add\n      dup3\n      add\n      0x40\n      mstore\n      dup1\n      iszero\n      tag_109\n      jumpi\n      dup2\n      0x20\n      add\n      0x20\n      dup3\n      mul\n      dup1\n      calldatasize\n      dup4\n      calldatacopy\n      dup1\n      dup3\n      add\n      swap2\n      pop\n      pop\n      swap1\n      pop\n    tag_109:\n      pop\n        /* \"ERC1155.sol\":3103:3166  uint256[] memory batchBalances = new uint256[](accounts.length) */\n      swap1\n      pop\n        /* \"ERC1155.sol\":3184:3193  uint256 i */\n      0x00\n        /* \"ERC1155.sol\":3179:3301  for (uint256 i = 0; i < accounts.length; ++i) {\r... */\n    tag_110:\n        /* \"ERC1155.sol\":3203:3211  accounts */\n      dup5\n        /* \"ERC1155.sol\":3203:3218  accounts.length */\n      mload\n        /* \"ERC1155.sol\":3199:3200  i */\n      dup2\n        /* \"ERC1155.sol\":3199:3218  i < accounts.length */\n      lt\n        /* \"ERC1155.sol\":3179:3301  for (uint256 i = 0; i < accounts.length; ++i) {\r... */\n      iszero\n      tag_111\n      jumpi\n        /* \"ERC1155.sol\":3259:3289  balanceOf(accounts[i], ids[i]) */\n      tag_113\n        /* \"ERC1155.sol\":3269:3277  accounts */\n      dup6\n        /* \"ERC1155.sol\":3278:3279  i */\n      dup3\n        /* \"ERC1155.sol\":3269:3280  accounts[i] */\n      dup2\n      mload\n      dup2\n      lt\n      tag_114\n      jumpi\n      tag_115\n      tag_116\n      jump\t// in\n    tag_115:\n    tag_114:\n      0x20\n      mul\n      0x20\n      add\n      add\n      mload\n        /* \"ERC1155.sol\":3282:3285  ids */\n      dup6\n        /* \"ERC1155.sol\":3286:3287  i */\n      dup4\n        /* \"ERC1155.sol\":3282:3288  ids[i] */\n      dup2\n      mload\n      dup2\n      lt\n      tag_117\n      jumpi\n      tag_118\n      tag_116\n      jump\t// in\n    tag_118:\n    tag_117:\n      0x20\n      mul\n      0x20\n      add\n      add\n      mload\n        /* \"ERC1155.sol\":3259:3268  balanceOf */\n      tag_19\n        /* \"ERC1155.sol\":3259:3289  balanceOf(accounts[i], ids[i]) */\n      jump\t// in\n    tag_113:\n        /* \"ERC1155.sol\":3240:3253  batchBalances */\n      dup3\n        /* \"ERC1155.sol\":3254:3255  i */\n      dup3\n        /* \"ERC1155.sol\":3240:3256  batchBalances[i] */\n      dup2\n      mload\n      dup2\n      lt\n      tag_119\n      jumpi\n      tag_120\n      tag_116\n      jump\t// in\n    tag_120:\n    tag_119:\n      0x20\n      mul\n      0x20\n      add\n      add\n        /* \"ERC1155.sol\":3240:3289  batchBalances[i] = balanceOf(accounts[i], ids[i]) */\n      dup2\n      dup2\n      mstore\n      pop\n      pop\n        /* \"ERC1155.sol\":3220:3223  ++i */\n      dup1\n      tag_121\n      swap1\n      tag_122\n      jump\t// in\n    tag_121:\n      swap1\n      pop\n        /* \"ERC1155.sol\":3179:3301  for (uint256 i = 0; i < accounts.length; ++i) {\r... */\n      jump(tag_110)\n    tag_111:\n      pop\n        /* \"ERC1155.sol\":3320:3333  batchBalances */\n      dup1\n        /* \"ERC1155.sol\":3313:3333  return batchBalances */\n      swap2\n      pop\n      pop\n        /* \"ERC1155.sol\":2817:3341  function balanceOfBatch(address[] memory accounts, uint256[] memory ids)\r... */\n      swap3\n      swap2\n      pop\n      pop\n      jump\t// out\n        /* \"ERC1155.sol\":4812:4981  function mint(\r... */\n    tag_50:\n        /* \"ERC1155.sol\":4946:4973  _mint(to, id, amount, data) */\n      tag_124\n        /* \"ERC1155.sol\":4952:4954  to */\n      dup5\n        /* \"ERC1155.sol\":4956:4958  id */\n      dup5\n        /* \"ERC1155.sol\":4960:4966  amount */\n      dup5\n        /* \"ERC1155.sol\":4968:4972  data */\n      dup5\n        /* \"ERC1155.sol\":4946:4951  _mint */\n      tag_125\n        /* \"ERC1155.sol\":4946:4973  _mint(to, id, amount, data) */\n      jump\t// in\n    tag_124:\n        /* \"ERC1155.sol\":4812:4981  function mint(\r... */\n      pop\n      pop\n      pop\n      pop\n      jump\t// out\n        /* \"ERC1155.sol\":690:710  string public symbol */\n    tag_52:\n      0x01\n      dup1\n      sload\n      tag_126\n      swap1\n      tag_81\n      jump\t// in\n    tag_126:\n      dup1\n      0x1f\n      add\n      0x20\n      dup1\n      swap2\n      div\n      mul\n      0x20\n      add\n      mload(0x40)\n      swap1\n      dup2\n      add\n      0x40\n      mstore\n      dup1\n      swap3\n      swap2\n      swap1\n      dup2\n      dup2\n      mstore\n      0x20\n      add\n      dup3\n      dup1\n      sload\n      tag_127\n      swap1\n      tag_81\n      jump\t// in\n    tag_127:\n      dup1\n      iszero\n      tag_128\n      jumpi\n      dup1\n      0x1f\n      lt\n      tag_129\n      jumpi\n      0x0100\n      dup1\n      dup4\n      sload\n      div\n      mul\n      dup4\n      mstore\n      swap2\n      0x20\n      add\n      swap2\n      jump(tag_128)\n    tag_129:\n      dup3\n      add\n      swap2\n      swap1\n      0x00\n      mstore\n      keccak256(0x00, 0x20)\n      swap1\n    tag_130:\n      dup2\n      sload\n      dup2\n      mstore\n      swap1\n      0x01\n      add\n      swap1\n      0x20\n      add\n      dup1\n      dup4\n      gt\n      tag_130\n      jumpi\n      dup3\n      swap1\n      sub\n      0x1f\n      and\n      dup3\n      add\n      swap2\n    tag_128:\n      pop\n      pop\n      pop\n      pop\n      pop\n      dup2\n      jump\t// out\n        /* \"ERC1155.sol\":3414:3569  function setApprovalForAll(address operator, bool approved) public virtual override {\r... */\n    tag_57:\n        /* \"ERC1155.sol\":3509:3561  _setApprovalForAll(_msgSender(), operator, approved) */\n      tag_132\n        /* \"ERC1155.sol\":3528:3540  _msgSender() */\n      tag_133\n        /* \"ERC1155.sol\":3528:3538  _msgSender */\n      tag_93\n        /* \"ERC1155.sol\":3528:3540  _msgSender() */\n      jump\t// in\n    tag_133:\n        /* \"ERC1155.sol\":3542:3550  operator */\n      dup4\n        /* \"ERC1155.sol\":3552:3560  approved */\n      dup4\n        /* \"ERC1155.sol\":3509:3527  _setApprovalForAll */\n      tag_134\n        /* \"ERC1155.sol\":3509:3561  _setApprovalForAll(_msgSender(), operator, approved) */\n      jump\t// in\n    tag_132:\n        /* \"ERC1155.sol\":3414:3569  function setApprovalForAll(address operator, bool approved) public virtual override {\r... */\n      pop\n      pop\n      jump\t// out\n        /* \"ERC1155.sol\":3641:3809  function isApprovedForAll(address account, address operator) public view virtual override returns (bool) {\r... */\n    tag_61:\n        /* \"ERC1155.sol\":3740:3744  bool */\n      0x00\n        /* \"ERC1155.sol\":3764:3782  _operatorApprovals */\n      0x03\n        /* \"ERC1155.sol\":3764:3791  _operatorApprovals[account] */\n      0x00\n        /* \"ERC1155.sol\":3783:3790  account */\n      dup5\n        /* \"ERC1155.sol\":3764:3791  _operatorApprovals[account] */\n      0xffffffffffffffffffffffffffffffffffffffff\n      and\n      0xffffffffffffffffffffffffffffffffffffffff\n      and\n      dup2\n      mstore\n      0x20\n      add\n      swap1\n      dup2\n      mstore\n      0x20\n      add\n      0x00\n      keccak256\n        /* \"ERC1155.sol\":3764:3801  _operatorApprovals[account][operator] */\n      0x00\n        /* \"ERC1155.sol\":3792:3800  operator */\n      dup4\n        /* \"ERC1155.sol\":3764:3801  _operatorApprovals[account][operator] */\n      0xffffffffffffffffffffffffffffffffffffffff\n      and\n      0xffffffffffffffffffffffffffffffffffffffff\n      and\n      dup2\n      mstore\n      0x20\n      add\n      swap1\n      dup2\n      mstore\n      0x20\n      add\n      0x00\n      keccak256\n      0x00\n      swap1\n      sload\n      swap1\n      0x0100\n      exp\n      swap1\n      div\n      0xff\n      and\n        /* \"ERC1155.sol\":3757:3801  return _operatorApprovals[account][operator] */\n      swap1\n      pop\n        /* \"ERC1155.sol\":3641:3809  function isApprovedForAll(address account, address operator) public view virtual override returns (bool) {\r... */\n      swap3\n      swap2\n      pop\n      pop\n      jump\t// out\n        /* \"ERC1155.sol\":3881:4288  function safeTransferFrom(\r... */\n    tag_66:\n        /* \"ERC1155.sol\":4097:4109  _msgSender() */\n      tag_137\n        /* \"ERC1155.sol\":4097:4107  _msgSender */\n      tag_93\n        /* \"ERC1155.sol\":4097:4109  _msgSender() */\n      jump\t// in\n    tag_137:\n        /* \"ERC1155.sol\":4089:4109  from == _msgSender() */\n      0xffffffffffffffffffffffffffffffffffffffff\n      and\n        /* \"ERC1155.sol\":4089:4093  from */\n      dup6\n        /* \"ERC1155.sol\":4089:4109  from == _msgSender() */\n      0xffffffffffffffffffffffffffffffffffffffff\n      and\n      eq\n        /* \"ERC1155.sol\":4089:4149  from == _msgSender() || isApprovedForAll(from, _msgSender()) */\n      dup1\n      tag_138\n      jumpi\n      pop\n        /* \"ERC1155.sol\":4113:4149  isApprovedForAll(from, _msgSender()) */\n      tag_139\n        /* \"ERC1155.sol\":4130:4134  from */\n      dup6\n        /* \"ERC1155.sol\":4136:4148  _msgSender() */\n      tag_140\n        /* \"ERC1155.sol\":4136:4146  _msgSender */\n      tag_93\n        /* \"ERC1155.sol\":4136:4148  _msgSender() */\n      jump\t// in\n    tag_140:\n        /* \"ERC1155.sol\":4113:4129  isApprovedForAll */\n      tag_61\n        /* \"ERC1155.sol\":4113:4149  isApprovedForAll(from, _msgSender()) */\n      jump\t// in\n    tag_139:\n        /* \"ERC1155.sol\":4089:4149  from == _msgSender() || isApprovedForAll(from, _msgSender()) */\n    tag_138:\n        /* \"ERC1155.sol\":4067:4224  require(\r... */\n      tag_141\n      jumpi\n      mload(0x40)\n      0x08c379a000000000000000000000000000000000000000000000000000000000\n      dup2\n      mstore\n      0x04\n      add\n      tag_142\n      swap1\n      tag_99\n      jump\t// in\n    tag_142:\n      mload(0x40)\n      dup1\n      swap2\n      sub\n      swap1\n      revert\n    tag_141:\n        /* \"ERC1155.sol\":4235:4280  _safeTransferFrom(from, to, id, amount, data) */\n      tag_143\n        /* \"ERC1155.sol\":4253:4257  from */\n      dup6\n        /* \"ERC1155.sol\":4259:4261  to */\n      dup6\n        /* \"ERC1155.sol\":4263:4265  id */\n      dup6\n        /* \"ERC1155.sol\":4267:4273  amount */\n      dup6\n        /* \"ERC1155.sol\":4275:4279  data */\n      dup6\n        /* \"ERC1155.sol\":4235:4252  _safeTransferFrom */\n      tag_144\n        /* \"ERC1155.sol\":4235:4280  _safeTransferFrom(from, to, id, amount, data) */\n      jump\t// in\n    tag_143:\n        /* \"ERC1155.sol\":3881:4288  function safeTransferFrom(\r... */\n      pop\n      pop\n      pop\n      pop\n      pop\n      jump\t// out\n        /* \"ERC1155.sol\":4989:5124  function burn(\r... */\n    tag_70:\n        /* \"ERC1155.sol\":5095:5116  _burn(to, id, amount) */\n      tag_146\n        /* \"ERC1155.sol\":5101:5103  to */\n      dup4\n        /* \"ERC1155.sol\":5105:5107  id */\n      dup4\n        /* \"ERC1155.sol\":5109:5115  amount */\n      dup4\n        /* \"ERC1155.sol\":5095:5100  _burn */\n      tag_147\n        /* \"ERC1155.sol\":5095:5116  _burn(to, id, amount) */\n      jump\t// in\n    tag_146:\n        /* \"ERC1155.sol\":4989:5124  function burn(\r... */\n      pop\n      pop\n      pop\n      jump\t// out\n        /* \"ERC165.sol\":854:1011  function supportsInterface(bytes4 interfaceId) public view virtual override returns (bool) {\r... */\n    tag_79:\n        /* \"ERC165.sol\":939:943  bool */\n      0x00\n        /* \"ERC165.sol\":978:1003  type(IERC165).interfaceId */\n      0x01ffc9a700000000000000000000000000000000000000000000000000000000\n        /* \"ERC165.sol\":963:1003  interfaceId == type(IERC165).interfaceId */\n      not(0xffffffffffffffffffffffffffffffffffffffffffffffffffffffff)\n      and\n        /* \"ERC165.sol\":963:974  interfaceId */\n      dup3\n        /* \"ERC165.sol\":963:1003  interfaceId == type(IERC165).interfaceId */\n      not(0xffffffffffffffffffffffffffffffffffffffffffffffffffffffff)\n      and\n      eq\n        /* \"ERC165.sol\":956:1003  return interfaceId == type(IERC165).interfaceId */\n      swap1\n      pop\n        /* \"ERC165.sol\":854:1011  function supportsInterface(bytes4 interfaceId) public view virtual override returns (bool) {\r... */\n      swap2\n      swap1\n      pop\n      jump\t// out\n        /* \"Strings.sol\":407:1130  function toString(uint256 value) internal pure returns (string memory) {\r... */\n    tag_88:\n        /* \"Strings.sol\":463:476  string memory */\n      0x60\n        /* \"Strings.sol\":693:694  0 */\n      0x00\n        /* \"Strings.sol\":684:689  value */\n      dup3\n        /* \"Strings.sol\":684:694  value == 0 */\n      eq\n        /* \"Strings.sol\":680:733  if (value == 0) {\r... */\n      iszero\n      tag_150\n      jumpi\n        /* \"Strings.sol\":711:721  return \"0\" */\n      mload(0x40)\n      dup1\n      0x40\n      add\n      0x40\n      mstore\n      dup1\n      0x01\n      dup2\n      mstore\n      0x20\n      add\n      0x3000000000000000000000000000000000000000000000000000000000000000\n      dup2\n      mstore\n      pop\n      swap1\n      pop\n      jump(tag_149)\n        /* \"Strings.sol\":680:733  if (value == 0) {\r... */\n    tag_150:\n        /* \"Strings.sol\":743:755  uint256 temp */\n      0x00\n        /* \"Strings.sol\":758:763  value */\n      dup3\n        /* \"Strings.sol\":743:763  uint256 temp = value */\n      swap1\n      pop\n        /* \"Strings.sol\":774:788  uint256 digits */\n      0x00\n        /* \"Strings.sol\":799:877  while (temp != 0) {\r... */\n    tag_151:\n        /* \"Strings.sol\":814:815  0 */\n      0x00\n        /* \"Strings.sol\":806:810  temp */\n      dup3\n        /* \"Strings.sol\":806:815  temp != 0 */\n      eq\n        /* \"Strings.sol\":799:877  while (temp != 0) {\r... */\n      tag_152\n      jumpi\n        /* \"Strings.sol\":832:840  digits++ */\n      dup1\n      dup1\n      tag_153\n      swap1\n      tag_122\n      jump\t// in\n    tag_153:\n      swap2\n      pop\n      pop\n        /* \"Strings.sol\":863:865  10 */\n      0x0a\n        /* \"Strings.sol\":855:865  temp /= 10 */\n      dup3\n      tag_154\n      swap2\n      swap1\n      tag_155\n      jump\t// in\n    tag_154:\n      swap2\n      pop\n        /* \"Strings.sol\":799:877  while (temp != 0) {\r... */\n      jump(tag_151)\n    tag_152:\n        /* \"Strings.sol\":887:906  bytes memory buffer */\n      0x00\n        /* \"Strings.sol\":919:925  digits */\n      dup2\n        /* \"Strings.sol\":909:926  new bytes(digits) */\n      0xffffffffffffffff\n      dup2\n      gt\n      iszero\n      tag_156\n      jumpi\n      tag_157\n      tag_108\n      jump\t// in\n    tag_157:\n    tag_156:\n      mload(0x40)\n      swap1\n      dup1\n      dup3\n      mstore\n      dup1\n      0x1f\n      add\n      not(0x1f)\n      and\n      0x20\n      add\n      dup3\n      add\n      0x40\n      mstore\n      dup1\n      iszero\n      tag_158\n      jumpi\n      dup2\n      0x20\n      add\n      0x01\n      dup3\n      mul\n      dup1\n      calldatasize\n      dup4\n      calldatacopy\n      dup1\n      dup3\n      add\n      swap2\n      pop\n      pop\n      swap1\n      pop\n    tag_158:\n      pop\n        /* \"Strings.sol\":887:926  bytes memory buffer = new bytes(digits) */\n      swap1\n      pop\n        /* \"Strings.sol\":937:1091  while (value != 0) {\r... */\n    tag_159:\n        /* \"Strings.sol\":953:954  0 */\n      0x00\n        /* \"Strings.sol\":944:949  value */\n      dup6\n        /* \"Strings.sol\":944:954  value != 0 */\n      eq\n        /* \"Strings.sol\":937:1091  while (value != 0) {\r... */\n      tag_160\n      jumpi\n        /* \"Strings.sol\":981:982  1 */\n      0x01\n        /* \"Strings.sol\":971:982  digits -= 1 */\n      dup3\n      tag_161\n      swap2\n      swap1\n      tag_162\n      jump\t// in\n    tag_161:\n      swap2\n      pop\n        /* \"Strings.sol\":1048:1050  10 */\n      0x0a\n        /* \"Strings.sol\":1040:1045  value */\n      dup6\n        /* \"Strings.sol\":1040:1050  value % 10 */\n      tag_163\n      swap2\n      swap1\n      tag_164\n      jump\t// in\n    tag_163:\n        /* \"Strings.sol\":1027:1029  48 */\n      0x30\n        /* \"Strings.sol\":1027:1051  48 + uint256(value % 10) */\n      tag_165\n      swap2\n      swap1\n      tag_166\n      jump\t// in\n    tag_165:\n        /* \"Strings.sol\":1014:1053  bytes1(uint8(48 + uint256(value % 10))) */\n      0xf8\n      shl\n        /* \"Strings.sol\":997:1003  buffer */\n      dup2\n        /* \"Strings.sol\":1004:1010  digits */\n      dup4\n        /* \"Strings.sol\":997:1011  buffer[digits] */\n      dup2\n      mload\n      dup2\n      lt\n      tag_167\n      jumpi\n      tag_168\n      tag_116\n      jump\t// in\n    tag_168:\n    tag_167:\n      0x20\n      add\n      add\n        /* \"Strings.sol\":997:1053  buffer[digits] = bytes1(uint8(48 + uint256(value % 10))) */\n      swap1\n      not(0xffffffffffffffffffffffffffffffffffffffffffffffffffffffffffffff)\n      and\n      swap1\n      dup2\n      0x00\n      byte\n      swap1\n      mstore8\n      pop\n        /* \"Strings.sol\":1077:1079  10 */\n      0x0a\n        /* \"Strings.sol\":1068:1079  value /= 10 */\n      dup6\n      tag_169\n      swap2\n      swap1\n      tag_155\n      jump\t// in\n    tag_169:\n      swap5\n      pop\n        /* \"Strings.sol\":937:1091  while (value != 0) {\r... */\n      jump(tag_159)\n    tag_160:\n        /* \"Strings.sol\":1115:1121  buffer */\n      dup1\n        /* \"Strings.sol\":1101:1122  return string(buffer) */\n      swap4\n      pop\n      pop\n      pop\n      pop\n        /* \"Strings.sol\":407:1130  function toString(uint256 value) internal pure returns (string memory) {\r... */\n    tag_149:\n      swap2\n      swap1\n      pop\n      jump\t// out\n        /* \"Context.sol\":656:754  function _msgSender() internal view virtual returns (address) {\r... */\n    tag_93:\n        /* \"Context.sol\":709:716  address */\n      0x00\n        /* \"Context.sol\":736:746  msg.sender */\n      caller\n        /* \"Context.sol\":729:746  return msg.sender */\n      swap1\n      pop\n        /* \"Context.sol\":656:754  function _msgSender() internal view virtual returns (address) {\r... */\n      swap1\n      jump\t// out\n        /* \"ERC1155.sol\":6920:8066  function _safeBatchTransferFrom(\r... */\n    tag_101:\n        /* \"ERC1155.sol\":7147:7154  amounts */\n      dup2\n        /* \"ERC1155.sol\":7147:7161  amounts.length */\n      mload\n        /* \"ERC1155.sol\":7133:7136  ids */\n      dup4\n        /* \"ERC1155.sol\":7133:7143  ids.length */\n      mload\n        /* \"ERC1155.sol\":7133:7161  ids.length == amounts.length */\n      eq\n        /* \"ERC1155.sol\":7125:7206  require(ids.length == amounts.length, \"ERC1155: ids and amounts length mismatch\") */\n      tag_172\n      jumpi\n      mload(0x40)\n      0x08c379a000000000000000000000000000000000000000000000000000000000\n      dup2\n      mstore\n      0x04\n      add\n      tag_173\n      swap1\n      tag_174\n      jump\t// in\n    tag_173:\n      mload(0x40)\n      dup1\n      swap2\n      sub\n      swap1\n      revert\n    tag_172:\n        /* \"ERC1155.sol\":7239:7240  0 */\n      0x00\n        /* \"ERC1155.sol\":7225:7241  to != address(0) */\n      0xffffffffffffffffffffffffffffffffffffffff\n      and\n        /* \"ERC1155.sol\":7225:7227  to */\n      dup5\n        /* \"ERC1155.sol\":7225:7241  to != address(0) */\n      0xffffffffffffffffffffffffffffffffffffffff\n      and\n      eq\n      iszero\n        /* \"ERC1155.sol\":7217:7283  require(to != address(0), \"ERC1155: transfer to the zero address\") */\n      tag_175\n      jumpi\n      mload(0x40)\n      0x08c379a000000000000000000000000000000000000000000000000000000000\n      dup2\n      mstore\n      0x04\n      add\n      tag_176\n      swap1\n      tag_177\n      jump\t// in\n    tag_176:\n      mload(0x40)\n      dup1\n      swap2\n      sub\n      swap1\n      revert\n    tag_175:\n        /* \"ERC1155.sol\":7296:7312  address operator */\n      0x00\n        /* \"ERC1155.sol\":7315:7327  _msgSender() */\n      tag_178\n        /* \"ERC1155.sol\":7315:7325  _msgSender */\n      tag_93\n        /* \"ERC1155.sol\":7315:7327  _msgSender() */\n      jump\t// in\n    tag_178:\n        /* \"ERC1155.sol\":7296:7327  address operator = _msgSender() */\n      swap1\n      pop\n        /* \"ERC1155.sol\":7340:7400  _beforeTokenTransfer(operator, from, to, ids, amounts, data) */\n      tag_179\n        /* \"ERC1155.sol\":7361:7369  operator */\n      dup2\n        /* \"ERC1155.sol\":7371:7375  from */\n      dup8\n        /* \"ERC1155.sol\":7377:7379  to */\n      dup8\n        /* \"ERC1155.sol\":7381:7384  ids */\n      dup8\n        /* \"ERC1155.sol\":7386:7393  amounts */\n      dup8\n        /* \"ERC1155.sol\":7395:7399  data */\n      dup8\n        /* \"ERC1155.sol\":7340:7360  _beforeTokenTransfer */\n      tag_180\n        /* \"ERC1155.sol\":7340:7400  _beforeTokenTransfer(operator, from, to, ids, amounts, data) */\n      jump\t// in\n    tag_179:\n        /* \"ERC1155.sol\":7418:7427  uint256 i */\n      0x00\n        /* \"ERC1155.sol\":7413:7834  for (uint256 i = 0; i < ids.length; ++i) {\r... */\n    tag_181:\n        /* \"ERC1155.sol\":7437:7440  ids */\n      dup5\n        /* \"ERC1155.sol\":7437:7447  ids.length */\n      mload\n        /* \"ERC1155.sol\":7433:7434  i */\n      dup2\n        /* \"ERC1155.sol\":7433:7447  i < ids.length */\n      lt\n        /* \"ERC1155.sol\":7413:7834  for (uint256 i = 0; i < ids.length; ++i) {\r... */\n      iszero\n      tag_182\n      jumpi\n        /* \"ERC1155.sol\":7469:7479  uint256 id */\n      0x00\n        /* \"ERC1155.sol\":7482:7485  ids */\n      dup6\n        /* \"ERC1155.sol\":7486:7487  i */\n      dup3\n        /* \"ERC1155.sol\":7482:7488  ids[i] */\n      dup2\n      mload\n      dup2\n      lt\n      tag_184\n      jumpi\n      tag_185\n      tag_116\n      jump\t// in\n    tag_185:\n    tag_184:\n      0x20\n      mul\n      0x20\n      add\n      add\n      mload\n        /* \"ERC1155.sol\":7469:7488  uint256 id = ids[i] */\n      swap1\n      pop\n        /* \"ERC1155.sol\":7503:7517  uint256 amount */\n      0x00\n        /* \"ERC1155.sol\":7520:7527  amounts */\n      dup6\n        /* \"ERC1155.sol\":7528:7529  i */\n      dup4\n        /* \"ERC1155.sol\":7520:7530  amounts[i] */\n      dup2\n      mload\n      dup2\n      lt\n      tag_186\n      jumpi\n      tag_187\n      tag_116\n      jump\t// in\n    tag_187:\n    tag_186:\n      0x20\n      mul\n      0x20\n      add\n      add\n      mload\n        /* \"ERC1155.sol\":7503:7530  uint256 amount = amounts[i] */\n      swap1\n      pop\n        /* \"ERC1155.sol\":7547:7566  uint256 fromBalance */\n      0x00\n        /* \"ERC1155.sol\":7569:7578  _balances */\n      0x02\n        /* \"ERC1155.sol\":7569:7582  _balances[id] */\n      0x00\n        /* \"ERC1155.sol\":7579:7581  id */\n      dup5\n        /* \"ERC1155.sol\":7569:7582  _balances[id] */\n      dup2\n      mstore\n      0x20\n      add\n      swap1\n      dup2\n      mstore\n      0x20\n      add\n      0x00\n      keccak256\n        /* \"ERC1155.sol\":7569:7588  _balances[id][from] */\n      0x00\n        /* \"ERC1155.sol\":7583:7587  from */\n      dup12\n        /* \"ERC1155.sol\":7569:7588  _balances[id][from] */\n      0xffffffffffffffffffffffffffffffffffffffff\n      and\n      0xffffffffffffffffffffffffffffffffffffffff\n      and\n      dup2\n      mstore\n      0x20\n      add\n      swap1\n      dup2\n      mstore\n      0x20\n      add\n      0x00\n      keccak256\n      sload\n        /* \"ERC1155.sol\":7547:7588  uint256 fromBalance = _balances[id][from] */\n      swap1\n      pop\n        /* \"ERC1155.sol\":7626:7632  amount */\n      dup2\n        /* \"ERC1155.sol\":7611:7622  fromBalance */\n      dup2\n        /* \"ERC1155.sol\":7611:7632  fromBalance >= amount */\n      lt\n      iszero\n        /* \"ERC1155.sol\":7603:7679  require(fromBalance >= amount, \"ERC1155: insufficient balance for transfer\") */\n      tag_188\n      jumpi\n      mload(0x40)\n      0x08c379a000000000000000000000000000000000000000000000000000000000\n      dup2\n      mstore\n      0x04\n      add\n      tag_189\n      swap1\n      tag_190\n      jump\t// in\n    tag_189:\n      mload(0x40)\n      dup1\n      swap2\n      sub\n      swap1\n      revert\n    tag_188:\n        /* \"ERC1155.sol\":7759:7765  amount */\n      dup2\n        /* \"ERC1155.sol\":7745:7756  fromBalance */\n      dup2\n        /* \"ERC1155.sol\":7745:7765  fromBalance - amount */\n      sub\n        /* \"ERC1155.sol\":7723:7732  _balances */\n      0x02\n        /* \"ERC1155.sol\":7723:7736  _balances[id] */\n      0x00\n        /* \"ERC1155.sol\":7733:7735  id */\n      dup6\n        /* \"ERC1155.sol\":7723:7736  _balances[id] */\n      dup2\n      mstore\n      0x20\n      add\n      swap1\n      dup2\n      mstore\n      0x20\n      add\n      0x00\n      keccak256\n        /* \"ERC1155.sol\":7723:7742  _balances[id][from] */\n      0x00\n        /* \"ERC1155.sol\":7737:7741  from */\n      dup13\n        /* \"ERC1155.sol\":7723:7742  _balances[id][from] */\n      0xffffffffffffffffffffffffffffffffffffffff\n      and\n      0xffffffffffffffffffffffffffffffffffffffff\n      and\n      dup2\n      mstore\n      0x20\n      add\n      swap1\n      dup2\n      mstore\n      0x20\n      add\n      0x00\n      keccak256\n        /* \"ERC1155.sol\":7723:7765  _balances[id][from] = fromBalance - amount */\n      dup2\n      swap1\n      sstore\n      pop\n        /* \"ERC1155.sol\":7816:7822  amount */\n      dup2\n        /* \"ERC1155.sol\":7795:7804  _balances */\n      0x02\n        /* \"ERC1155.sol\":7795:7808  _balances[id] */\n      0x00\n        /* \"ERC1155.sol\":7805:7807  id */\n      dup6\n        /* \"ERC1155.sol\":7795:7808  _balances[id] */\n      dup2\n      mstore\n      0x20\n      add\n      swap1\n      dup2\n      mstore\n      0x20\n      add\n      0x00\n      keccak256\n        /* \"ERC1155.sol\":7795:7812  _balances[id][to] */\n      0x00\n        /* \"ERC1155.sol\":7809:7811  to */\n      dup12\n        /* \"ERC1155.sol\":7795:7812  _balances[id][to] */\n      0xffffffffffffffffffffffffffffffffffffffff\n      and\n      0xffffffffffffffffffffffffffffffffffffffff\n      and\n      dup2\n      mstore\n      0x20\n      add\n      swap1\n      dup2\n      mstore\n      0x20\n      add\n      0x00\n      keccak256\n      0x00\n        /* \"ERC1155.sol\":7795:7822  _balances[id][to] += amount */\n      dup3\n      dup3\n      sload\n      tag_191\n      swap2\n      swap1\n      tag_166\n      jump\t// in\n    tag_191:\n      swap3\n      pop\n      pop\n      dup2\n      swap1\n      sstore\n      pop\n        /* \"ERC1155.sol\":7454:7834  {\r... */\n      pop\n      pop\n      pop\n        /* \"ERC1155.sol\":7449:7452  ++i */\n      dup1\n      tag_192\n      swap1\n      tag_122\n      jump\t// in\n    tag_192:\n      swap1\n      pop\n        /* \"ERC1155.sol\":7413:7834  for (uint256 i = 0; i < ids.length; ++i) {\r... */\n      jump(tag_181)\n    tag_182:\n      pop\n        /* \"ERC1155.sol\":7881:7883  to */\n      dup5\n        /* \"ERC1155.sol\":7851:7898  TransferBatch(operator, from, to, ids, amounts) */\n      0xffffffffffffffffffffffffffffffffffffffff\n      and\n        /* \"ERC1155.sol\":7875:7879  from */\n      dup7\n        /* \"ERC1155.sol\":7851:7898  TransferBatch(operator, from, to, ids, amounts) */\n      0xffffffffffffffffffffffffffffffffffffffff\n      and\n        /* \"ERC1155.sol\":7865:7873  operator */\n      dup3\n        /* \"ERC1155.sol\":7851:7898  TransferBatch(operator, from, to, ids, amounts) */\n      0xffffffffffffffffffffffffffffffffffffffff\n      and\n      0x4a39dc06d4c0dbc64b70af90fd698a233a518aa5d07e595d983b8c0526c8f7fb\n        /* \"ERC1155.sol\":7885:7888  ids */\n      dup8\n        /* \"ERC1155.sol\":7890:7897  amounts */\n      dup8\n        /* \"ERC1155.sol\":7851:7898  TransferBatch(operator, from, to, ids, amounts) */\n      mload(0x40)\n      tag_193\n      swap3\n      swap2\n      swap1\n      tag_194\n      jump\t// in\n    tag_193:\n      mload(0x40)\n      dup1\n      swap2\n      sub\n      swap1\n      log4\n        /* \"ERC1155.sol\":7911:7970  _afterTokenTransfer(operator, from, to, ids, amounts, data) */\n      tag_195\n        /* \"ERC1155.sol\":7931:7939  operator */\n      dup2\n        /* \"ERC1155.sol\":7941:7945  from */\n      dup8\n        /* \"ERC1155.sol\":7947:7949  to */\n      dup8\n        /* \"ERC1155.sol\":7951:7954  ids */\n      dup8\n        /* \"ERC1155.sol\":7956:7963  amounts */\n      dup8\n        /* \"ERC1155.sol\":7965:7969  data */\n      dup8\n        /* \"ERC1155.sol\":7911:7930  _afterTokenTransfer */\n      tag_196\n        /* \"ERC1155.sol\":7911:7970  _afterTokenTransfer(operator, from, to, ids, amounts, data) */\n      jump\t// in\n    tag_195:\n        /* \"ERC1155.sol\":7983:8058  _doSafeBatchTransferAcceptanceCheck(operator, from, to, ids, amounts, data) */\n      tag_197\n        /* \"ERC1155.sol\":8019:8027  operator */\n      dup2\n        /* \"ERC1155.sol\":8029:8033  from */\n      dup8\n        /* \"ERC1155.sol\":8035:8037  to */\n      dup8\n        /* \"ERC1155.sol\":8039:8042  ids */\n      dup8\n        /* \"ERC1155.sol\":8044:8051  amounts */\n      dup8\n        /* \"ERC1155.sol\":8053:8057  data */\n      dup8\n        /* \"ERC1155.sol\":7983:8018  _doSafeBatchTransferAcceptanceCheck */\n      tag_198\n        /* \"ERC1155.sol\":7983:8058  _doSafeBatchTransferAcceptanceCheck(operator, from, to, ids, amounts, data) */\n      jump\t// in\n    tag_197:\n        /* \"ERC1155.sol\":7114:8066  {\r... */\n      pop\n        /* \"ERC1155.sol\":6920:8066  function _safeBatchTransferFrom(\r... */\n      pop\n      pop\n      pop\n      pop\n      pop\n      jump\t// out\n        /* \"ERC1155.sol\":9390:10119  function _mint(\r... */\n    tag_125:\n        /* \"ERC1155.sol\":9557:9558  0 */\n      0x00\n        /* \"ERC1155.sol\":9543:9559  to != address(0) */\n      0xffffffffffffffffffffffffffffffffffffffff\n      and\n        /* \"ERC1155.sol\":9543:9545  to */\n      dup5\n        /* \"ERC1155.sol\":9543:9559  to != address(0) */\n      0xffffffffffffffffffffffffffffffffffffffff\n      and\n      eq\n      iszero\n        /* \"ERC1155.sol\":9535:9597  require(to != address(0), \"ERC1155: mint to the zero address\") */\n      tag_200\n      jumpi\n      mload(0x40)\n      0x08c379a000000000000000000000000000000000000000000000000000000000\n      dup2\n      mstore\n      0x04\n      add\n      tag_201\n      swap1\n      tag_202\n      jump\t// in\n    tag_201:\n      mload(0x40)\n      dup1\n      swap2\n      sub\n      swap1\n      revert\n    tag_200:\n        /* \"ERC1155.sol\":9610:9626  address operator */\n      0x00\n        /* \"ERC1155.sol\":9629:9641  _msgSender() */\n      tag_203\n        /* \"ERC1155.sol\":9629:9639  _msgSender */\n      tag_93\n        /* \"ERC1155.sol\":9629:9641  _msgSender() */\n      jump\t// in\n    tag_203:\n        /* \"ERC1155.sol\":9610:9641  address operator = _msgSender() */\n      swap1\n      pop\n        /* \"ERC1155.sol\":9652:9672  uint256[] memory ids */\n      0x00\n        /* \"ERC1155.sol\":9675:9696  _asSingletonArray(id) */\n      tag_204\n        /* \"ERC1155.sol\":9693:9695  id */\n      dup6\n        /* \"ERC1155.sol\":9675:9692  _asSingletonArray */\n      tag_205\n        /* \"ERC1155.sol\":9675:9696  _asSingletonArray(id) */\n      jump\t// in\n    tag_204:\n        /* \"ERC1155.sol\":9652:9696  uint256[] memory ids = _asSingletonArray(id) */\n      swap1\n      pop\n        /* \"ERC1155.sol\":9707:9731  uint256[] memory amounts */\n      0x00\n        /* \"ERC1155.sol\":9734:9759  _asSingletonArray(amount) */\n      tag_206\n        /* \"ERC1155.sol\":9752:9758  amount */\n      dup6\n        /* \"ERC1155.sol\":9734:9751  _asSingletonArray */\n      tag_205\n        /* \"ERC1155.sol\":9734:9759  _asSingletonArray(amount) */\n      jump\t// in\n    tag_206:\n        /* \"ERC1155.sol\":9707:9759  uint256[] memory amounts = _asSingletonArray(amount) */\n      swap1\n      pop\n        /* \"ERC1155.sol\":9772:9838  _beforeTokenTransfer(operator, address(0), to, ids, amounts, data) */\n      tag_207\n        /* \"ERC1155.sol\":9793:9801  operator */\n      dup4\n        /* \"ERC1155.sol\":9811:9812  0 */\n      0x00\n        /* \"ERC1155.sol\":9815:9817  to */\n      dup10\n        /* \"ERC1155.sol\":9819:9822  ids */\n      dup6\n        /* \"ERC1155.sol\":9824:9831  amounts */\n      dup6\n        /* \"ERC1155.sol\":9833:9837  data */\n      dup10\n        /* \"ERC1155.sol\":9772:9792  _beforeTokenTransfer */\n      tag_180\n        /* \"ERC1155.sol\":9772:9838  _beforeTokenTransfer(operator, address(0), to, ids, amounts, data) */\n      jump\t// in\n    tag_207:\n        /* \"ERC1155.sol\":9872:9878  amount */\n      dup5\n        /* \"ERC1155.sol\":9851:9860  _balances */\n      0x02\n        /* \"ERC1155.sol\":9851:9864  _balances[id] */\n      0x00\n        /* \"ERC1155.sol\":9861:9863  id */\n      dup9\n        /* \"ERC1155.sol\":9851:9864  _balances[id] */\n      dup2\n      mstore\n      0x20\n      add\n      swap1\n      dup2\n      mstore\n      0x20\n      add\n      0x00\n      keccak256\n        /* \"ERC1155.sol\":9851:9868  _balances[id][to] */\n      0x00\n        /* \"ERC1155.sol\":9865:9867  to */\n      dup10\n        /* \"ERC1155.sol\":9851:9868  _balances[id][to] */\n      0xffffffffffffffffffffffffffffffffffffffff\n      and\n      0xffffffffffffffffffffffffffffffffffffffff\n      and\n      dup2\n      mstore\n      0x20\n      add\n      swap1\n      dup2\n      mstore\n      0x20\n      add\n      0x00\n      keccak256\n      0x00\n        /* \"ERC1155.sol\":9851:9878  _balances[id][to] += amount */\n      dup3\n      dup3\n      sload\n      tag_208\n      swap2\n      swap1\n      tag_166\n      jump\t// in\n    tag_208:\n      swap3\n      pop\n      pop\n      dup2\n      swap1\n      sstore\n      pop\n        /* \"ERC1155.sol\":9931:9933  to */\n      dup7\n        /* \"ERC1155.sol\":9894:9946  TransferSingle(operator, address(0), to, id, amount) */\n      0xffffffffffffffffffffffffffffffffffffffff\n      and\n        /* \"ERC1155.sol\":9927:9928  0 */\n      0x00\n        /* \"ERC1155.sol\":9894:9946  TransferSingle(operator, address(0), to, id, amount) */\n      0xffffffffffffffffffffffffffffffffffffffff\n      and\n        /* \"ERC1155.sol\":9909:9917  operator */\n      dup5\n        /* \"ERC1155.sol\":9894:9946  TransferSingle(operator, address(0), to, id, amount) */\n      0xffffffffffffffffffffffffffffffffffffffff\n      and\n      0xc3d58168c5ae7397731d063d5bbf3d657854427343f4c083240f7aacaa2d0f62\n        /* \"ERC1155.sol\":9935:9937  id */\n      dup10\n        /* \"ERC1155.sol\":9939:9945  amount */\n      dup10\n        /* \"ERC1155.sol\":9894:9946  TransferSingle(operator, address(0), to, id, amount) */\n      mload(0x40)\n      tag_209\n      swap3\n      swap2\n      swap1\n      tag_210\n      jump\t// in\n    tag_209:\n      mload(0x40)\n      dup1\n      swap2\n      sub\n      swap1\n      log4\n        /* \"ERC1155.sol\":9959:10024  _afterTokenTransfer(operator, address(0), to, ids, amounts, data) */\n      tag_211\n        /* \"ERC1155.sol\":9979:9987  operator */\n      dup4\n        /* \"ERC1155.sol\":9997:9998  0 */\n      0x00\n        /* \"ERC1155.sol\":10001:10003  to */\n      dup10\n        /* \"ERC1155.sol\":10005:10008  ids */\n      dup6\n        /* \"ERC1155.sol\":10010:10017  amounts */\n      dup6\n        /* \"ERC1155.sol\":10019:10023  data */\n      dup10\n        /* \"ERC1155.sol\":9959:9978  _afterTokenTransfer */\n      tag_196\n        /* \"ERC1155.sol\":9959:10024  _afterTokenTransfer(operator, address(0), to, ids, amounts, data) */\n      jump\t// in\n    tag_211:\n        /* \"ERC1155.sol\":10037:10111  _doSafeTransferAcceptanceCheck(operator, address(0), to, id, amount, data) */\n      tag_212\n        /* \"ERC1155.sol\":10068:10076  operator */\n      dup4\n        /* \"ERC1155.sol\":10086:10087  0 */\n      0x00\n        /* \"ERC1155.sol\":10090:10092  to */\n      dup10\n        /* \"ERC1155.sol\":10094:10096  id */\n      dup10\n        /* \"ERC1155.sol\":10098:10104  amount */\n      dup10\n        /* \"ERC1155.sol\":10106:10110  data */\n      dup10\n        /* \"ERC1155.sol\":10037:10067  _doSafeTransferAcceptanceCheck */\n      tag_213\n        /* \"ERC1155.sol\":10037:10111  _doSafeTransferAcceptanceCheck(operator, address(0), to, id, amount, data) */\n      jump\t// in\n    tag_212:\n        /* \"ERC1155.sol\":9524:10119  {\r... */\n      pop\n      pop\n      pop\n        /* \"ERC1155.sol\":9390:10119  function _mint(\r... */\n      pop\n      pop\n      pop\n      pop\n      jump\t// out\n        /* \"ERC1155.sol\":13803:14134  function _setApprovalForAll(\r... */\n    tag_134:\n        /* \"ERC1155.sol\":13958:13966  operator */\n      dup2\n        /* \"ERC1155.sol\":13949:13966  owner != operator */\n      0xffffffffffffffffffffffffffffffffffffffff\n      and\n        /* \"ERC1155.sol\":13949:13954  owner */\n      dup4\n        /* \"ERC1155.sol\":13949:13966  owner != operator */\n      0xffffffffffffffffffffffffffffffffffffffff\n      and\n      eq\n      iszero\n        /* \"ERC1155.sol\":13941:14012  require(owner != operator, \"ERC1155: setting approval status for self\") */\n      tag_215\n      jumpi\n      mload(0x40)\n      0x08c379a000000000000000000000000000000000000000000000000000000000\n      dup2\n      mstore\n      0x04\n      add\n      tag_216\n      swap1\n      tag_217\n      jump\t// in\n    tag_216:\n      mload(0x40)\n      dup1\n      swap2\n      sub\n      swap1\n      revert\n    tag_215:\n        /* \"ERC1155.sol\":14061:14069  approved */\n      dup1\n        /* \"ERC1155.sol\":14023:14041  _operatorApprovals */\n      0x03\n        /* \"ERC1155.sol\":14023:14048  _operatorApprovals[owner] */\n      0x00\n        /* \"ERC1155.sol\":14042:14047  owner */\n      dup6\n        /* \"ERC1155.sol\":14023:14048  _operatorApprovals[owner] */\n      0xffffffffffffffffffffffffffffffffffffffff\n      and\n      0xffffffffffffffffffffffffffffffffffffffff\n      and\n      dup2\n      mstore\n      0x20\n      add\n      swap1\n      dup2\n      mstore\n      0x20\n      add\n      0x00\n      keccak256\n        /* \"ERC1155.sol\":14023:14058  _operatorApprovals[owner][operator] */\n      0x00\n        /* \"ERC1155.sol\":14049:14057  operator */\n      dup5\n        /* \"ERC1155.sol\":14023:14058  _operatorApprovals[owner][operator] */\n      0xffffffffffffffffffffffffffffffffffffffff\n      and\n      0xffffffffffffffffffffffffffffffffffffffff\n      and\n      dup2\n      mstore\n      0x20\n      add\n      swap1\n      dup2\n      mstore\n      0x20\n      add\n      0x00\n      keccak256\n      0x00\n        /* \"ERC1155.sol\":14023:14069  _operatorApprovals[owner][operator] = approved */\n      0x0100\n      exp\n      dup2\n      sload\n      dup2\n      0xff\n      mul\n      not\n      and\n      swap1\n      dup4\n      iszero\n      iszero\n      mul\n      or\n      swap1\n      sstore\n      pop\n        /* \"ERC1155.sol\":14107:14115  operator */\n      dup2\n        /* \"ERC1155.sol\":14085:14126  ApprovalForAll(owner, operator, approved) */\n      0xffffffffffffffffffffffffffffffffffffffff\n      and\n        /* \"ERC1155.sol\":14100:14105  owner */\n      dup4\n        /* \"ERC1155.sol\":14085:14126  ApprovalForAll(owner, operator, approved) */\n      0xffffffffffffffffffffffffffffffffffffffff\n      and\n      0x17307eab39ab6107e8899845ad3d59bd9653f200f220920489ca2b5937696c31\n        /* \"ERC1155.sol\":14117:14125  approved */\n      dup4\n        /* \"ERC1155.sol\":14085:14126  ApprovalForAll(owner, operator, approved) */\n      mload(0x40)\n      tag_218\n      swap2\n      swap1\n      tag_27\n      jump\t// in\n    tag_218:\n      mload(0x40)\n      dup1\n      swap2\n      sub\n      swap1\n      log3\n        /* \"ERC1155.sol\":13803:14134  function _setApprovalForAll(\r... */\n      pop\n      pop\n      pop\n      jump\t// out\n        /* \"ERC1155.sol\":5588:6562  function _safeTransferFrom(\r... */\n    tag_144:\n        /* \"ERC1155.sol\":5790:5791  0 */\n      0x00\n        /* \"ERC1155.sol\":5776:5792  to != address(0) */\n      0xffffffffffffffffffffffffffffffffffffffff\n      and\n        /* \"ERC1155.sol\":5776:5778  to */\n      dup5\n        /* \"ERC1155.sol\":5776:5792  to != address(0) */\n      0xffffffffffffffffffffffffffffffffffffffff\n      and\n      eq\n      iszero\n        /* \"ERC1155.sol\":5768:5834  require(to != address(0), \"ERC1155: transfer to the zero address\") */\n      tag_220\n      jumpi\n      mload(0x40)\n      0x08c379a000000000000000000000000000000000000000000000000000000000\n      dup2\n      mstore\n      0x04\n      add\n      tag_221\n      swap1\n      tag_177\n      jump\t// in\n    tag_221:\n      mload(0x40)\n      dup1\n      swap2\n      sub\n      swap1\n      revert\n    tag_220:\n        /* \"ERC1155.sol\":5847:5863  address operator */\n      0x00\n        /* \"ERC1155.sol\":5866:5878  _msgSender() */\n      tag_222\n        /* \"ERC1155.sol\":5866:5876  _msgSender */\n      tag_93\n        /* \"ERC1155.sol\":5866:5878  _msgSender() */\n      jump\t// in\n    tag_222:\n        /* \"ERC1155.sol\":5847:5878  address operator = _msgSender() */\n      swap1\n      pop\n        /* \"ERC1155.sol\":5889:5909  uint256[] memory ids */\n      0x00\n        /* \"ERC1155.sol\":5912:5933  _asSingletonArray(id) */\n      tag_223\n        /* \"ERC1155.sol\":5930:5932  id */\n      dup6\n        /* \"ERC1155.sol\":5912:5929  _asSingletonArray */\n      tag_205\n        /* \"ERC1155.sol\":5912:5933  _asSingletonArray(id) */\n      jump\t// in\n    tag_223:\n        /* \"ERC1155.sol\":5889:5933  uint256[] memory ids = _asSingletonArray(id) */\n      swap1\n      pop\n        /* \"ERC1155.sol\":5944:5968  uint256[] memory amounts */\n      0x00\n        /* \"ERC1155.sol\":5971:5996  _asSingletonArray(amount) */\n      tag_224\n        /* \"ERC1155.sol\":5989:5995  amount */\n      dup6\n        /* \"ERC1155.sol\":5971:5988  _asSingletonArray */\n      tag_205\n        /* \"ERC1155.sol\":5971:5996  _asSingletonArray(amount) */\n      jump\t// in\n    tag_224:\n        /* \"ERC1155.sol\":5944:5996  uint256[] memory amounts = _asSingletonArray(amount) */\n      swap1\n      pop\n        /* \"ERC1155.sol\":6009:6069  _beforeTokenTransfer(operator, from, to, ids, amounts, data) */\n      tag_225\n        /* \"ERC1155.sol\":6030:6038  operator */\n      dup4\n        /* \"ERC1155.sol\":6040:6044  from */\n      dup10\n        /* \"ERC1155.sol\":6046:6048  to */\n      dup10\n        /* \"ERC1155.sol\":6050:6053  ids */\n      dup6\n        /* \"ERC1155.sol\":6055:6062  amounts */\n      dup6\n        /* \"ERC1155.sol\":6064:6068  data */\n      dup10\n        /* \"ERC1155.sol\":6009:6029  _beforeTokenTransfer */\n      tag_180\n        /* \"ERC1155.sol\":6009:6069  _beforeTokenTransfer(operator, from, to, ids, amounts, data) */\n      jump\t// in\n    tag_225:\n        /* \"ERC1155.sol\":6082:6101  uint256 fromBalance */\n      0x00\n        /* \"ERC1155.sol\":6104:6113  _balances */\n      0x02\n        /* \"ERC1155.sol\":6104:6117  _balances[id] */\n      0x00\n        /* \"ERC1155.sol\":6114:6116  id */\n      dup9\n        /* \"ERC1155.sol\":6104:6117  _balances[id] */\n      dup2\n      mstore\n      0x20\n      add\n      swap1\n      dup2\n      mstore\n      0x20\n      add\n      0x00\n      keccak256\n        /* \"ERC1155.sol\":6104:6123  _balances[id][from] */\n      0x00\n        /* \"ERC1155.sol\":6118:6122  from */\n      dup11\n        /* \"ERC1155.sol\":6104:6123  _balances[id][from] */\n      0xffffffffffffffffffffffffffffffffffffffff\n      and\n      0xffffffffffffffffffffffffffffffffffffffff\n      and\n      dup2\n      mstore\n      0x20\n      add\n      swap1\n      dup2\n      mstore\n      0x20\n      add\n      0x00\n      keccak256\n      sload\n        /* \"ERC1155.sol\":6082:6123  uint256 fromBalance = _balances[id][from] */\n      swap1\n      pop\n        /* \"ERC1155.sol\":6157:6163  amount */\n      dup6\n        /* \"ERC1155.sol\":6142:6153  fromBalance */\n      dup2\n        /* \"ERC1155.sol\":6142:6163  fromBalance >= amount */\n      lt\n      iszero\n        /* \"ERC1155.sol\":6134:6210  require(fromBalance >= amount, \"ERC1155: insufficient balance for transfer\") */\n      tag_226\n      jumpi\n      mload(0x40)\n      0x08c379a000000000000000000000000000000000000000000000000000000000\n      dup2\n      mstore\n      0x04\n      add\n      tag_227\n      swap1\n      tag_190\n      jump\t// in\n    tag_227:\n      mload(0x40)\n      dup1\n      swap2\n      sub\n      swap1\n      revert\n    tag_226:\n        /* \"ERC1155.sol\":6282:6288  amount */\n      dup6\n        /* \"ERC1155.sol\":6268:6279  fromBalance */\n      dup2\n        /* \"ERC1155.sol\":6268:6288  fromBalance - amount */\n      sub\n        /* \"ERC1155.sol\":6246:6255  _balances */\n      0x02\n        /* \"ERC1155.sol\":6246:6259  _balances[id] */\n      0x00\n        /* \"ERC1155.sol\":6256:6258  id */\n      dup10\n        /* \"ERC1155.sol\":6246:6259  _balances[id] */\n      dup2\n      mstore\n      0x20\n      add\n      swap1\n      dup2\n      mstore\n      0x20\n      add\n      0x00\n      keccak256\n        /* \"ERC1155.sol\":6246:6265  _balances[id][from] */\n      0x00\n        /* \"ERC1155.sol\":6260:6264  from */\n      dup12\n        /* \"ERC1155.sol\":6246:6265  _balances[id][from] */\n      0xffffffffffffffffffffffffffffffffffffffff\n      and\n      0xffffffffffffffffffffffffffffffffffffffff\n      and\n      dup2\n      mstore\n      0x20\n      add\n      swap1\n      dup2\n      mstore\n      0x20\n      add\n      0x00\n      keccak256\n        /* \"ERC1155.sol\":6246:6288  _balances[id][from] = fromBalance - amount */\n      dup2\n      swap1\n      sstore\n      pop\n        /* \"ERC1155.sol\":6331:6337  amount */\n      dup6\n        /* \"ERC1155.sol\":6310:6319  _balances */\n      0x02\n        /* \"ERC1155.sol\":6310:6323  _balances[id] */\n      0x00\n        /* \"ERC1155.sol\":6320:6322  id */\n      dup10\n        /* \"ERC1155.sol\":6310:6323  _balances[id] */\n      dup2\n      mstore\n      0x20\n      add\n      swap1\n      dup2\n      mstore\n      0x20\n      add\n      0x00\n      keccak256\n        /* \"ERC1155.sol\":6310:6327  _balances[id][to] */\n      0x00\n        /* \"ERC1155.sol\":6324:6326  to */\n      dup11\n        /* \"ERC1155.sol\":6310:6327  _balances[id][to] */\n      0xffffffffffffffffffffffffffffffffffffffff\n      and\n      0xffffffffffffffffffffffffffffffffffffffff\n      and\n      dup2\n      mstore\n      0x20\n      add\n      swap1\n      dup2\n      mstore\n      0x20\n      add\n      0x00\n      keccak256\n      0x00\n        /* \"ERC1155.sol\":6310:6337  _balances[id][to] += amount */\n      dup3\n      dup3\n      sload\n      tag_228\n      swap2\n      swap1\n      tag_166\n      jump\t// in\n    tag_228:\n      swap3\n      pop\n      pop\n      dup2\n      swap1\n      sstore\n      pop\n        /* \"ERC1155.sol\":6386:6388  to */\n      dup8\n        /* \"ERC1155.sol\":6355:6401  TransferSingle(operator, from, to, id, amount) */\n      0xffffffffffffffffffffffffffffffffffffffff\n      and\n        /* \"ERC1155.sol\":6380:6384  from */\n      dup10\n        /* \"ERC1155.sol\":6355:6401  TransferSingle(operator, from, to, id, amount) */\n      0xffffffffffffffffffffffffffffffffffffffff\n      and\n        /* \"ERC1155.sol\":6370:6378  operator */\n      dup6\n        /* \"ERC1155.sol\":6355:6401  TransferSingle(operator, from, to, id, amount) */\n      0xffffffffffffffffffffffffffffffffffffffff\n      and\n      0xc3d58168c5ae7397731d063d5bbf3d657854427343f4c083240f7aacaa2d0f62\n        /* \"ERC1155.sol\":6390:6392  id */\n      dup11\n        /* \"ERC1155.sol\":6394:6400  amount */\n      dup11\n        /* \"ERC1155.sol\":6355:6401  TransferSingle(operator, from, to, id, amount) */\n      mload(0x40)\n      tag_229\n      swap3\n      swap2\n      swap1\n      tag_210\n      jump\t// in\n    tag_229:\n      mload(0x40)\n      dup1\n      swap2\n      sub\n      swap1\n      log4\n        /* \"ERC1155.sol\":6414:6473  _afterTokenTransfer(operator, from, to, ids, amounts, data) */\n      tag_230\n        /* \"ERC1155.sol\":6434:6442  operator */\n      dup5\n        /* \"ERC1155.sol\":6444:6448  from */\n      dup11\n        /* \"ERC1155.sol\":6450:6452  to */\n      dup11\n        /* \"ERC1155.sol\":6454:6457  ids */\n      dup7\n        /* \"ERC1155.sol\":6459:6466  amounts */\n      dup7\n        /* \"ERC1155.sol\":6468:6472  data */\n      dup11\n        /* \"ERC1155.sol\":6414:6433  _afterTokenTransfer */\n      tag_196\n        /* \"ERC1155.sol\":6414:6473  _afterTokenTransfer(operator, from, to, ids, amounts, data) */\n      jump\t// in\n    tag_230:\n        /* \"ERC1155.sol\":6486:6554  _doSafeTransferAcceptanceCheck(operator, from, to, id, amount, data) */\n      tag_231\n        /* \"ERC1155.sol\":6517:6525  operator */\n      dup5\n        /* \"ERC1155.sol\":6527:6531  from */\n      dup11\n        /* \"ERC1155.sol\":6533:6535  to */\n      dup11\n        /* \"ERC1155.sol\":6537:6539  id */\n      dup11\n        /* \"ERC1155.sol\":6541:6547  amount */\n      dup11\n        /* \"ERC1155.sol\":6549:6553  data */\n      dup11\n        /* \"ERC1155.sol\":6486:6516  _doSafeTransferAcceptanceCheck */\n      tag_213\n        /* \"ERC1155.sol\":6486:6554  _doSafeTransferAcceptanceCheck(operator, from, to, id, amount, data) */\n      jump\t// in\n    tag_231:\n        /* \"ERC1155.sol\":5757:6562  {\r... */\n      pop\n      pop\n      pop\n      pop\n        /* \"ERC1155.sol\":5588:6562  function _safeTransferFrom(\r... */\n      pop\n      pop\n      pop\n      pop\n      pop\n      jump\t// out\n        /* \"ERC1155.sol\":11633:12441  function _burn(\r... */\n    tag_147:\n        /* \"ERC1155.sol\":11776:11777  0 */\n      0x00\n        /* \"ERC1155.sol\":11760:11778  from != address(0) */\n      0xffffffffffffffffffffffffffffffffffffffff\n      and\n        /* \"ERC1155.sol\":11760:11764  from */\n      dup4\n        /* \"ERC1155.sol\":11760:11778  from != address(0) */\n      0xffffffffffffffffffffffffffffffffffffffff\n      and\n      eq\n      iszero\n        /* \"ERC1155.sol\":11752:11818  require(from != address(0), \"ERC1155: burn from the zero address\") */\n      tag_233\n      jumpi\n      mload(0x40)\n      0x08c379a000000000000000000000000000000000000000000000000000000000\n      dup2\n      mstore\n      0x04\n      add\n      tag_234\n      swap1\n      tag_235\n      jump\t// in\n    tag_234:\n      mload(0x40)\n      dup1\n      swap2\n      sub\n      swap1\n      revert\n    tag_233:\n        /* \"ERC1155.sol\":11831:11847  address operator */\n      0x00\n        /* \"ERC1155.sol\":11850:11862  _msgSender() */\n      tag_236\n        /* \"ERC1155.sol\":11850:11860  _msgSender */\n      tag_93\n        /* \"ERC1155.sol\":11850:11862  _msgSender() */\n      jump\t// in\n    tag_236:\n        /* \"ERC1155.sol\":11831:11862  address operator = _msgSender() */\n      swap1\n      pop\n        /* \"ERC1155.sol\":11873:11893  uint256[] memory ids */\n      0x00\n        /* \"ERC1155.sol\":11896:11917  _asSingletonArray(id) */\n      tag_237\n        /* \"ERC1155.sol\":11914:11916  id */\n      dup5\n        /* \"ERC1155.sol\":11896:11913  _asSingletonArray */\n      tag_205\n        /* \"ERC1155.sol\":11896:11917  _asSingletonArray(id) */\n      jump\t// in\n    tag_237:\n        /* \"ERC1155.sol\":11873:11917  uint256[] memory ids = _asSingletonArray(id) */\n      swap1\n      pop\n        /* \"ERC1155.sol\":11928:11952  uint256[] memory amounts */\n      0x00\n        /* \"ERC1155.sol\":11955:11980  _asSingletonArray(amount) */\n      tag_238\n        /* \"ERC1155.sol\":11973:11979  amount */\n      dup5\n        /* \"ERC1155.sol\":11955:11972  _asSingletonArray */\n      tag_205\n        /* \"ERC1155.sol\":11955:11980  _asSingletonArray(amount) */\n      jump\t// in\n    tag_238:\n        /* \"ERC1155.sol\":11928:11980  uint256[] memory amounts = _asSingletonArray(amount) */\n      swap1\n      pop\n        /* \"ERC1155.sol\":11993:12059  _beforeTokenTransfer(operator, from, address(0), ids, amounts, \"\") */\n      tag_239\n        /* \"ERC1155.sol\":12014:12022  operator */\n      dup4\n        /* \"ERC1155.sol\":12024:12028  from */\n      dup8\n        /* \"ERC1155.sol\":12038:12039  0 */\n      0x00\n        /* \"ERC1155.sol\":12042:12045  ids */\n      dup6\n        /* \"ERC1155.sol\":12047:12054  amounts */\n      dup6\n        /* \"ERC1155.sol\":11993:12059  _beforeTokenTransfer(operator, from, address(0), ids, amounts, \"\") */\n      mload(0x40)\n      dup1\n      0x20\n      add\n      0x40\n      mstore\n      dup1\n      0x00\n      dup2\n      mstore\n      pop\n        /* \"ERC1155.sol\":11993:12013  _beforeTokenTransfer */\n      tag_180\n        /* \"ERC1155.sol\":11993:12059  _beforeTokenTransfer(operator, from, address(0), ids, amounts, \"\") */\n      jump\t// in\n    tag_239:\n        /* \"ERC1155.sol\":12072:12091  uint256 fromBalance */\n      0x00\n        /* \"ERC1155.sol\":12094:12103  _balances */\n      0x02\n        /* \"ERC1155.sol\":12094:12107  _balances[id] */\n      0x00\n        /* \"ERC1155.sol\":12104:12106  id */\n      dup8\n        /* \"ERC1155.sol\":12094:12107  _balances[id] */\n      dup2\n      mstore\n      0x20\n      add\n      swap1\n      dup2\n      mstore\n      0x20\n      add\n      0x00\n      keccak256\n        /* \"ERC1155.sol\":12094:12113  _balances[id][from] */\n      0x00\n        /* \"ERC1155.sol\":12108:12112  from */\n      dup9\n        /* \"ERC1155.sol\":12094:12113  _balances[id][from] */\n      0xffffffffffffffffffffffffffffffffffffffff\n      and\n      0xffffffffffffffffffffffffffffffffffffffff\n      and\n      dup2\n      mstore\n      0x20\n      add\n      swap1\n      dup2\n      mstore\n      0x20\n      add\n      0x00\n      keccak256\n      sload\n        /* \"ERC1155.sol\":12072:12113  uint256 fromBalance = _balances[id][from] */\n      swap1\n      pop\n        /* \"ERC1155.sol\":12147:12153  amount */\n      dup5\n        /* \"ERC1155.sol\":12132:12143  fromBalance */\n      dup2\n        /* \"ERC1155.sol\":12132:12153  fromBalance >= amount */\n      lt\n      iszero\n        /* \"ERC1155.sol\":12124:12194  require(fromBalance >= amount, \"ERC1155: burn amount exceeds balance\") */\n      tag_240\n      jumpi\n      mload(0x40)\n      0x08c379a000000000000000000000000000000000000000000000000000000000\n      dup2\n      mstore\n      0x04\n      add\n      tag_241\n      swap1\n      tag_242\n      jump\t// in\n    tag_241:\n      mload(0x40)\n      dup1\n      swap2\n      sub\n      swap1\n      revert\n    tag_240:\n        /* \"ERC1155.sol\":12266:12272  amount */\n      dup5\n        /* \"ERC1155.sol\":12252:12263  fromBalance */\n      dup2\n        /* \"ERC1155.sol\":12252:12272  fromBalance - amount */\n      sub\n        /* \"ERC1155.sol\":12230:12239  _balances */\n      0x02\n        /* \"ERC1155.sol\":12230:12243  _balances[id] */\n      0x00\n        /* \"ERC1155.sol\":12240:12242  id */\n      dup9\n        /* \"ERC1155.sol\":12230:12243  _balances[id] */\n      dup2\n      mstore\n      0x20\n      add\n      swap1\n      dup2\n      mstore\n      0x20\n      add\n      0x00\n      keccak256\n        /* \"ERC1155.sol\":12230:12249  _balances[id][from] */\n      0x00\n        /* \"ERC1155.sol\":12244:12248  from */\n      dup10\n        /* \"ERC1155.sol\":12230:12249  _balances[id][from] */\n      0xffffffffffffffffffffffffffffffffffffffff\n      and\n      0xffffffffffffffffffffffffffffffffffffffff\n      and\n      dup2\n      mstore\n      0x20\n      add\n      swap1\n      dup2\n      mstore\n      0x20\n      add\n      0x00\n      keccak256\n        /* \"ERC1155.sol\":12230:12272  _balances[id][from] = fromBalance - amount */\n      dup2\n      swap1\n      sstore\n      pop\n        /* \"ERC1155.sol\":12340:12341  0 */\n      0x00\n        /* \"ERC1155.sol\":12301:12355  TransferSingle(operator, from, address(0), id, amount) */\n      0xffffffffffffffffffffffffffffffffffffffff\n      and\n        /* \"ERC1155.sol\":12326:12330  from */\n      dup8\n        /* \"ERC1155.sol\":12301:12355  TransferSingle(operator, from, address(0), id, amount) */\n      0xffffffffffffffffffffffffffffffffffffffff\n      and\n        /* \"ERC1155.sol\":12316:12324  operator */\n      dup6\n        /* \"ERC1155.sol\":12301:12355  TransferSingle(operator, from, address(0), id, amount) */\n      0xffffffffffffffffffffffffffffffffffffffff\n      and\n      0xc3d58168c5ae7397731d063d5bbf3d657854427343f4c083240f7aacaa2d0f62\n        /* \"ERC1155.sol\":12344:12346  id */\n      dup10\n        /* \"ERC1155.sol\":12348:12354  amount */\n      dup10\n        /* \"ERC1155.sol\":12301:12355  TransferSingle(operator, from, address(0), id, amount) */\n      mload(0x40)\n      tag_243\n      swap3\n      swap2\n      swap1\n      tag_210\n      jump\t// in\n    tag_243:\n      mload(0x40)\n      dup1\n      swap2\n      sub\n      swap1\n      log4\n        /* \"ERC1155.sol\":12368:12433  _afterTokenTransfer(operator, from, address(0), ids, amounts, \"\") */\n      tag_244\n        /* \"ERC1155.sol\":12388:12396  operator */\n      dup5\n        /* \"ERC1155.sol\":12398:12402  from */\n      dup9\n        /* \"ERC1155.sol\":12412:12413  0 */\n      0x00\n        /* \"ERC1155.sol\":12416:12419  ids */\n      dup7\n        /* \"ERC1155.sol\":12421:12428  amounts */\n      dup7\n        /* \"ERC1155.sol\":12368:12433  _afterTokenTransfer(operator, from, address(0), ids, amounts, \"\") */\n      mload(0x40)\n      dup1\n      0x20\n      add\n      0x40\n      mstore\n      dup1\n      0x00\n      dup2\n      mstore\n      pop\n        /* \"ERC1155.sol\":12368:12387  _afterTokenTransfer */\n      tag_196\n        /* \"ERC1155.sol\":12368:12433  _afterTokenTransfer(operator, from, address(0), ids, amounts, \"\") */\n      jump\t// in\n    tag_244:\n        /* \"ERC1155.sol\":11741:12441  {\r... */\n      pop\n      pop\n      pop\n      pop\n        /* \"ERC1155.sol\":11633:12441  function _burn(\r... */\n      pop\n      pop\n      pop\n      jump\t// out\n        /* \"ERC1155.sol\":15092:15313  function _beforeTokenTransfer(\r... */\n    tag_180:\n      pop\n      pop\n      pop\n      pop\n      pop\n      pop\n      jump\t// out\n        /* \"ERC1155.sol\":16268:16488  function _afterTokenTransfer(\r... */\n    tag_196:\n      pop\n      pop\n      pop\n      pop\n      pop\n      pop\n      jump\t// out\n        /* \"ERC1155.sol\":17248:18061  function _doSafeBatchTransferAcceptanceCheck(\r... */\n    tag_198:\n        /* \"ERC1155.sol\":17488:17503  to.isContract() */\n      tag_248\n        /* \"ERC1155.sol\":17488:17490  to */\n      dup5\n        /* \"ERC1155.sol\":17488:17501  to.isContract */\n      0xffffffffffffffffffffffffffffffffffffffff\n      and\n      tag_249\n        /* \"ERC1155.sol\":17488:17503  to.isContract() */\n      jump\t// in\n    tag_248:\n        /* \"ERC1155.sol\":17484:18054  if (to.isContract()) {\r... */\n      iszero\n      tag_250\n      jumpi\n        /* \"ERC1155.sol\":17541:17543  to */\n      dup4\n        /* \"ERC1155.sol\":17524:17567  IERC1155Receiver(to).onERC1155BatchReceived */\n      0xffffffffffffffffffffffffffffffffffffffff\n      and\n      0xbc197c81\n        /* \"ERC1155.sol\":17568:17576  operator */\n      dup8\n        /* \"ERC1155.sol\":17578:17582  from */\n      dup8\n        /* \"ERC1155.sol\":17584:17587  ids */\n      dup7\n        /* \"ERC1155.sol\":17589:17596  amounts */\n      dup7\n        /* \"ERC1155.sol\":17598:17602  data */\n      dup7\n        /* \"ERC1155.sol\":17524:17603  IERC1155Receiver(to).onERC1155BatchReceived(operator, from, ids, amounts, data) */\n      mload(0x40)\n      dup7\n      0xffffffff\n      and\n      0xe0\n      shl\n      dup2\n      mstore\n      0x04\n      add\n      tag_251\n      swap6\n      swap5\n      swap4\n      swap3\n      swap2\n      swap1\n      tag_252\n      jump\t// in\n    tag_251:\n      0x20\n      mload(0x40)\n      dup1\n      dup4\n      sub\n      dup2\n      0x00\n      dup8\n      dup1\n      extcodesize\n      iszero\n      dup1\n      iszero\n      tag_253\n      jumpi\n      0x00\n      dup1\n      revert\n    tag_253:\n      pop\n      gas\n      call\n      swap3\n      pop\n      pop\n      pop\n      dup1\n      iszero\n      tag_254\n      jumpi\n      pop\n      mload(0x40)\n      returndatasize\n      not(0x1f)\n      0x1f\n      dup3\n      add\n      and\n      dup3\n      add\n      dup1\n      0x40\n      mstore\n      pop\n      dup2\n      add\n      swap1\n      tag_255\n      swap2\n      swap1\n      tag_256\n      jump\t// in\n    tag_255:\n      0x01\n    tag_254:\n        /* \"ERC1155.sol\":17520:18043  try IERC1155Receiver(to).onERC1155BatchReceived(operator, from, ids, amounts, data) returns (\r... */\n      tag_257\n      jumpi\n      tag_261\n      tag_262\n      jump\t// in\n    tag_261:\n      dup1\n      0x08c379a0\n      eq\n      iszero\n      tag_260\n      jumpi\n      pop\n      tag_263\n      tag_264\n      jump\t// in\n    tag_263:\n      dup1\n      tag_265\n      jumpi\n      pop\n      jump(tag_259)\n    tag_265:\n        /* \"ERC1155.sol\":17916:17922  reason */\n      dup1\n        /* \"ERC1155.sol\":17909:17923  revert(reason) */\n      mload(0x40)\n      0x08c379a000000000000000000000000000000000000000000000000000000000\n      dup2\n      mstore\n      0x04\n      add\n      tag_266\n      swap2\n      swap1\n      tag_31\n      jump\t// in\n    tag_266:\n      mload(0x40)\n      dup1\n      swap2\n      sub\n      swap1\n      revert\n        /* \"ERC1155.sol\":17520:18043  try IERC1155Receiver(to).onERC1155BatchReceived(operator, from, ids, amounts, data) returns (\r... */\n    tag_260:\n      pop\n    tag_259:\n        /* \"ERC1155.sol\":17965:18027  revert(\"ERC1155: transfer to non ERC1155Receiver implementer\") */\n      mload(0x40)\n      0x08c379a000000000000000000000000000000000000000000000000000000000\n      dup2\n      mstore\n      0x04\n      add\n      tag_267\n      swap1\n      tag_268\n      jump\t// in\n    tag_267:\n      mload(0x40)\n      dup1\n      swap2\n      sub\n      swap1\n      revert\n        /* \"ERC1155.sol\":17520:18043  try IERC1155Receiver(to).onERC1155BatchReceived(operator, from, ids, amounts, data) returns (\r... */\n    tag_257:\n        /* \"ERC1155.sol\":17697:17745  IERC1155Receiver.onERC1155BatchReceived.selector */\n      shl(0xe0, 0xbc197c81)\n        /* \"ERC1155.sol\":17685:17745  response != IERC1155Receiver.onERC1155BatchReceived.selector */\n      not(0xffffffffffffffffffffffffffffffffffffffffffffffffffffffff)\n      and\n        /* \"ERC1155.sol\":17685:17693  response */\n      dup2\n        /* \"ERC1155.sol\":17685:17745  response != IERC1155Receiver.onERC1155BatchReceived.selector */\n      not(0xffffffffffffffffffffffffffffffffffffffffffffffffffffffff)\n      and\n      eq\n        /* \"ERC1155.sol\":17681:17840  if (response != IERC1155Receiver.onERC1155BatchReceived.selector) {\r... */\n      tag_270\n      jumpi\n        /* \"ERC1155.sol\":17770:17820  revert(\"ERC1155: ERC1155Receiver rejected tokens\") */\n      mload(0x40)\n      0x08c379a000000000000000000000000000000000000000000000000000000000\n      dup2\n      mstore\n      0x04\n      add\n      tag_271\n      swap1\n      tag_272\n      jump\t// in\n    tag_271:\n      mload(0x40)\n      dup1\n      swap2\n      sub\n      swap1\n      revert\n        /* \"ERC1155.sol\":17681:17840  if (response != IERC1155Receiver.onERC1155BatchReceived.selector) {\r... */\n    tag_270:\n        /* \"ERC1155.sol\":17604:17855  returns (\r... */\n      pop\n        /* \"ERC1155.sol\":17484:18054  if (to.isContract()) {\r... */\n    tag_250:\n        /* \"ERC1155.sol\":17248:18061  function _doSafeBatchTransferAcceptanceCheck(\r... */\n      pop\n      pop\n      pop\n      pop\n      pop\n      pop\n      jump\t// out\n        /* \"ERC1155.sol\":18069:18267  function _asSingletonArray(uint256 element) private pure returns (uint256[] memory) {\r... */\n    tag_205:\n        /* \"ERC1155.sol\":18135:18151  uint256[] memory */\n      0x60\n        /* \"ERC1155.sol\":18164:18186  uint256[] memory array */\n      0x00\n        /* \"ERC1155.sol\":18203:18204  1 */\n      0x01\n        /* \"ERC1155.sol\":18189:18205  new uint256[](1) */\n      0xffffffffffffffff\n      dup2\n      gt\n      iszero\n      tag_274\n      jumpi\n      tag_275\n      tag_108\n      jump\t// in\n    tag_275:\n    tag_274:\n      mload(0x40)\n      swap1\n      dup1\n      dup3\n      mstore\n      dup1\n      0x20\n      mul\n      0x20\n      add\n      dup3\n      add\n      0x40\n      mstore\n      dup1\n      iszero\n      tag_276\n      jumpi\n      dup2\n      0x20\n      add\n      0x20\n      dup3\n      mul\n      dup1\n      calldatasize\n      dup4\n      calldatacopy\n      dup1\n      dup3\n      add\n      swap2\n      pop\n      pop\n      swap1\n      pop\n    tag_276:\n      pop\n        /* \"ERC1155.sol\":18164:18205  uint256[] memory array = new uint256[](1) */\n      swap1\n      pop\n        /* \"ERC1155.sol\":18227:18234  element */\n      dup3\n        /* \"ERC1155.sol\":18216:18221  array */\n      dup2\n        /* \"ERC1155.sol\":18222:18223  0 */\n      0x00\n        /* \"ERC1155.sol\":18216:18224  array[0] */\n      dup2\n      mload\n      dup2\n      lt\n      tag_277\n      jumpi\n      tag_278\n      tag_116\n      jump\t// in\n    tag_278:\n    tag_277:\n      0x20\n      mul\n      0x20\n      add\n      add\n        /* \"ERC1155.sol\":18216:18234  array[0] = element */\n      dup2\n      dup2\n      mstore\n      pop\n      pop\n        /* \"ERC1155.sol\":18254:18259  array */\n      dup1\n        /* \"ERC1155.sol\":18247:18259  return array */\n      swap2\n      pop\n      pop\n        /* \"ERC1155.sol\":18069:18267  function _asSingletonArray(uint256 element) private pure returns (uint256[] memory) {\r... */\n      swap2\n      swap1\n      pop\n      jump\t// out\n        /* \"ERC1155.sol\":16496:17240  function _doSafeTransferAcceptanceCheck(\r... */\n    tag_213:\n        /* \"ERC1155.sol\":16711:16726  to.isContract() */\n      tag_280\n        /* \"ERC1155.sol\":16711:16713  to */\n      dup5\n        /* \"ERC1155.sol\":16711:16724  to.isContract */\n      0xffffffffffffffffffffffffffffffffffffffff\n      and\n      tag_249\n        /* \"ERC1155.sol\":16711:16726  to.isContract() */\n      jump\t// in\n    tag_280:\n        /* \"ERC1155.sol\":16707:17233  if (to.isContract()) {\r... */\n      iszero\n      tag_281\n      jumpi\n        /* \"ERC1155.sol\":16764:16766  to */\n      dup4\n        /* \"ERC1155.sol\":16747:16785  IERC1155Receiver(to).onERC1155Received */\n      0xffffffffffffffffffffffffffffffffffffffff\n      and\n      0xf23a6e61\n        /* \"ERC1155.sol\":16786:16794  operator */\n      dup8\n        /* \"ERC1155.sol\":16796:16800  from */\n      dup8\n        /* \"ERC1155.sol\":16802:16804  id */\n      dup7\n        /* \"ERC1155.sol\":16806:16812  amount */\n      dup7\n        /* \"ERC1155.sol\":16814:16818  data */\n      dup7\n        /* \"ERC1155.sol\":16747:16819  IERC1155Receiver(to).onERC1155Received(operator, from, id, amount, data) */\n      mload(0x40)\n      dup7\n      0xffffffff\n      and\n      0xe0\n      shl\n      dup2\n      mstore\n      0x04\n      add\n      tag_282\n      swap6\n      swap5\n      swap4\n      swap3\n      swap2\n      swap1\n      tag_283\n      jump\t// in\n    tag_282:\n      0x20\n      mload(0x40)\n      dup1\n      dup4\n      sub\n      dup2\n      0x00\n      dup8\n      dup1\n      extcodesize\n      iszero\n      dup1\n      iszero\n      tag_284\n      jumpi\n      0x00\n      dup1\n      revert\n    tag_284:\n      pop\n      gas\n      call\n      swap3\n      pop\n      pop\n      pop\n      dup1\n      iszero\n      tag_285\n      jumpi\n      pop\n      mload(0x40)\n      returndatasize\n      not(0x1f)\n      0x1f\n      dup3\n      add\n      and\n      dup3\n      add\n      dup1\n      0x40\n      mstore\n      pop\n      dup2\n      add\n      swap1\n      tag_286\n      swap2\n      swap1\n      tag_256\n      jump\t// in\n    tag_286:\n      0x01\n    tag_285:\n        /* \"ERC1155.sol\":16743:17222  try IERC1155Receiver(to).onERC1155Received(operator, from, id, amount, data) returns (bytes4 response) {\r... */\n      tag_287\n      jumpi\n      tag_291\n      tag_262\n      jump\t// in\n    tag_291:\n      dup1\n      0x08c379a0\n      eq\n      iszero\n      tag_290\n      jumpi\n      pop\n      tag_292\n      tag_264\n      jump\t// in\n    tag_292:\n      dup1\n      tag_293\n      jumpi\n      pop\n      jump(tag_289)\n    tag_293:\n        /* \"ERC1155.sol\":17095:17101  reason */\n      dup1\n        /* \"ERC1155.sol\":17088:17102  revert(reason) */\n      mload(0x40)\n      0x08c379a000000000000000000000000000000000000000000000000000000000\n      dup2\n      mstore\n      0x04\n      add\n      tag_294\n      swap2\n      swap1\n      tag_31\n      jump\t// in\n    tag_294:\n      mload(0x40)\n      dup1\n      swap2\n      sub\n      swap1\n      revert\n        /* \"ERC1155.sol\":16743:17222  try IERC1155Receiver(to).onERC1155Received(operator, from, id, amount, data) returns (bytes4 response) {\r... */\n    tag_290:\n      pop\n    tag_289:\n        /* \"ERC1155.sol\":17144:17206  revert(\"ERC1155: transfer to non ERC1155Receiver implementer\") */\n      mload(0x40)\n      0x08c379a000000000000000000000000000000000000000000000000000000000\n      dup2\n      mstore\n      0x04\n      add\n      tag_295\n      swap1\n      tag_268\n      jump\t// in\n    tag_295:\n      mload(0x40)\n      dup1\n      swap2\n      sub\n      swap1\n      revert\n        /* \"ERC1155.sol\":16743:17222  try IERC1155Receiver(to).onERC1155Received(operator, from, id, amount, data) returns (bytes4 response) {\r... */\n    tag_287:\n        /* \"ERC1155.sol\":16881:16924  IERC1155Receiver.onERC1155Received.selector */\n      shl(0xe0, 0xf23a6e61)\n        /* \"ERC1155.sol\":16869:16924  response != IERC1155Receiver.onERC1155Received.selector */\n      not(0xffffffffffffffffffffffffffffffffffffffffffffffffffffffff)\n      and\n        /* \"ERC1155.sol\":16869:16877  response */\n      dup2\n        /* \"ERC1155.sol\":16869:16924  response != IERC1155Receiver.onERC1155Received.selector */\n      not(0xffffffffffffffffffffffffffffffffffffffffffffffffffffffff)\n      and\n      eq\n        /* \"ERC1155.sol\":16865:17019  if (response != IERC1155Receiver.onERC1155Received.selector) {\r... */\n      tag_297\n      jumpi\n        /* \"ERC1155.sol\":16949:16999  revert(\"ERC1155: ERC1155Receiver rejected tokens\") */\n      mload(0x40)\n      0x08c379a000000000000000000000000000000000000000000000000000000000\n      dup2\n      mstore\n      0x04\n      add\n      tag_298\n      swap1\n      tag_272\n      jump\t// in\n    tag_298:\n      mload(0x40)\n      dup1\n      swap2\n      sub\n      swap1\n      revert\n        /* \"ERC1155.sol\":16865:17019  if (response != IERC1155Receiver.onERC1155Received.selector) {\r... */\n    tag_297:\n        /* \"ERC1155.sol\":16820:17034  returns (bytes4 response) {\r... */\n      pop\n        /* \"ERC1155.sol\":16707:17233  if (to.isContract()) {\r... */\n    tag_281:\n        /* \"ERC1155.sol\":16496:17240  function _doSafeTransferAcceptanceCheck(\r... */\n      pop\n      pop\n      pop\n      pop\n      pop\n      pop\n      jump\t// out\n        /* \"Address.sol\":1210:1536  function isContract(address account) internal view returns (bool) {\r... */\n    tag_249:\n        /* \"Address.sol\":1270:1274  bool */\n      0x00\n        /* \"Address.sol\":1527:1528  0 */\n      dup1\n        /* \"Address.sol\":1505:1512  account */\n      dup3\n        /* \"Address.sol\":1505:1524  account.code.length */\n      0xffffffffffffffffffffffffffffffffffffffff\n      and\n      extcodesize\n        /* \"Address.sol\":1505:1528  account.code.length > 0 */\n      gt\n        /* \"Address.sol\":1498:1528  return account.code.length > 0 */\n      swap1\n      pop\n        /* \"Address.sol\":1210:1536  function isContract(address account) internal view returns (bool) {\r... */\n      swap2\n      swap1\n      pop\n      jump\t// out\n        /* \"#utility.yul\":24:746   */\n    tag_301:\n        /* \"#utility.yul\":120:125   */\n      0x00\n        /* \"#utility.yul\":145:226   */\n      tag_303\n        /* \"#utility.yul\":161:225   */\n      tag_304\n        /* \"#utility.yul\":218:224   */\n      dup5\n        /* \"#utility.yul\":161:225   */\n      tag_305\n      jump\t// in\n    tag_304:\n        /* \"#utility.yul\":145:226   */\n      tag_306\n      jump\t// in\n    tag_303:\n        /* \"#utility.yul\":136:226   */\n      swap1\n      pop\n        /* \"#utility.yul\":246:251   */\n      dup1\n        /* \"#utility.yul\":275:281   */\n      dup4\n        /* \"#utility.yul\":268:273   */\n      dup3\n        /* \"#utility.yul\":261:282   */\n      mstore\n        /* \"#utility.yul\":309:313   */\n      0x20\n        /* \"#utility.yul\":302:307   */\n      dup3\n        /* \"#utility.yul\":298:314   */\n      add\n        /* \"#utility.yul\":291:314   */\n      swap1\n      pop\n        /* \"#utility.yul\":335:341   */\n      dup3\n        /* \"#utility.yul\":385:388   */\n      dup6\n        /* \"#utility.yul\":377:381   */\n      0x20\n        /* \"#utility.yul\":369:375   */\n      dup7\n        /* \"#utility.yul\":365:382   */\n      mul\n        /* \"#utility.yul\":360:363   */\n      dup3\n        /* \"#utility.yul\":356:383   */\n      add\n        /* \"#utility.yul\":353:389   */\n      gt\n        /* \"#utility.yul\":350:493   */\n      iszero\n      tag_307\n      jumpi\n        /* \"#utility.yul\":404:483   */\n      tag_308\n      tag_309\n      jump\t// in\n    tag_308:\n        /* \"#utility.yul\":350:493   */\n    tag_307:\n        /* \"#utility.yul\":517:518   */\n      0x00\n        /* \"#utility.yul\":502:740   */\n    tag_310:\n        /* \"#utility.yul\":527:533   */\n      dup6\n        /* \"#utility.yul\":524:525   */\n      dup2\n        /* \"#utility.yul\":521:534   */\n      lt\n        /* \"#utility.yul\":502:740   */\n      iszero\n      tag_312\n      jumpi\n        /* \"#utility.yul\":595:598   */\n      dup2\n        /* \"#utility.yul\":624:661   */\n      tag_313\n        /* \"#utility.yul\":657:660   */\n      dup9\n        /* \"#utility.yul\":645:655   */\n      dup3\n        /* \"#utility.yul\":624:661   */\n      tag_314\n      jump\t// in\n    tag_313:\n        /* \"#utility.yul\":619:622   */\n      dup5\n        /* \"#utility.yul\":612:662   */\n      mstore\n        /* \"#utility.yul\":691:695   */\n      0x20\n        /* \"#utility.yul\":686:689   */\n      dup5\n        /* \"#utility.yul\":682:696   */\n      add\n        /* \"#utility.yul\":675:696   */\n      swap4\n      pop\n        /* \"#utility.yul\":725:729   */\n      0x20\n        /* \"#utility.yul\":720:723   */\n      dup4\n        /* \"#utility.yul\":716:730   */\n      add\n        /* \"#utility.yul\":709:730   */\n      swap3\n      pop\n        /* \"#utility.yul\":562:740   */\n      pop\n        /* \"#utility.yul\":549:550   */\n      0x01\n        /* \"#utility.yul\":546:547   */\n      dup2\n        /* \"#utility.yul\":542:551   */\n      add\n        /* \"#utility.yul\":537:551   */\n      swap1\n      pop\n        /* \"#utility.yul\":502:740   */\n      jump(tag_310)\n    tag_312:\n        /* \"#utility.yul\":506:520   */\n      pop\n        /* \"#utility.yul\":126:746   */\n      pop\n      pop\n        /* \"#utility.yul\":24:746   */\n      swap4\n      swap3\n      pop\n      pop\n      pop\n      jump\t// out\n        /* \"#utility.yul\":769:1491   */\n    tag_315:\n        /* \"#utility.yul\":865:870   */\n      0x00\n        /* \"#utility.yul\":890:971   */\n      tag_317\n        /* \"#utility.yul\":906:970   */\n      tag_318\n        /* \"#utility.yul\":963:969   */\n      dup5\n        /* \"#utility.yul\":906:970   */\n      tag_319\n      jump\t// in\n    tag_318:\n        /* \"#utility.yul\":890:971   */\n      tag_306\n      jump\t// in\n    tag_317:\n        /* \"#utility.yul\":881:971   */\n      swap1\n      pop\n        /* \"#utility.yul\":991:996   */\n      dup1\n        /* \"#utility.yul\":1020:1026   */\n      dup4\n        /* \"#utility.yul\":1013:1018   */\n      dup3\n        /* \"#utility.yul\":1006:1027   */\n      mstore\n        /* \"#utility.yul\":1054:1058   */\n      0x20\n        /* \"#utility.yul\":1047:1052   */\n      dup3\n        /* \"#utility.yul\":1043:1059   */\n      add\n        /* \"#utility.yul\":1036:1059   */\n      swap1\n      pop\n        /* \"#utility.yul\":1080:1086   */\n      dup3\n        /* \"#utility.yul\":1130:1133   */\n      dup6\n        /* \"#utility.yul\":1122:1126   */\n      0x20\n        /* \"#utility.yul\":1114:1120   */\n      dup7\n        /* \"#utility.yul\":1110:1127   */\n      mul\n        /* \"#utility.yul\":1105:1108   */\n      dup3\n        /* \"#utility.yul\":1101:1128   */\n      add\n        /* \"#utility.yul\":1098:1134   */\n      gt\n        /* \"#utility.yul\":1095:1238   */\n      iszero\n      tag_320\n      jumpi\n        /* \"#utility.yul\":1149:1228   */\n      tag_321\n      tag_309\n      jump\t// in\n    tag_321:\n        /* \"#utility.yul\":1095:1238   */\n    tag_320:\n        /* \"#utility.yul\":1262:1263   */\n      0x00\n        /* \"#utility.yul\":1247:1485   */\n    tag_322:\n        /* \"#utility.yul\":1272:1278   */\n      dup6\n        /* \"#utility.yul\":1269:1270   */\n      dup2\n        /* \"#utility.yul\":1266:1279   */\n      lt\n        /* \"#utility.yul\":1247:1485   */\n      iszero\n      tag_324\n      jumpi\n        /* \"#utility.yul\":1340:1343   */\n      dup2\n        /* \"#utility.yul\":1369:1406   */\n      tag_325\n        /* \"#utility.yul\":1402:1405   */\n      dup9\n        /* \"#utility.yul\":1390:1400   */\n      dup3\n        /* \"#utility.yul\":1369:1406   */\n      tag_326\n      jump\t// in\n    tag_325:\n        /* \"#utility.yul\":1364:1367   */\n      dup5\n        /* \"#utility.yul\":1357:1407   */\n      mstore\n        /* \"#utility.yul\":1436:1440   */\n      0x20\n        /* \"#utility.yul\":1431:1434   */\n      dup5\n        /* \"#utility.yul\":1427:1441   */\n      add\n        /* \"#utility.yul\":1420:1441   */\n      swap4\n      pop\n        /* \"#utility.yul\":1470:1474   */\n      0x20\n        /* \"#utility.yul\":1465:1468   */\n      dup4\n        /* \"#utility.yul\":1461:1475   */\n      add\n        /* \"#utility.yul\":1454:1475   */\n      swap3\n      pop\n        /* \"#utility.yul\":1307:1485   */\n      pop\n        /* \"#utility.yul\":1294:1295   */\n      0x01\n        /* \"#utility.yul\":1291:1292   */\n      dup2\n        /* \"#utility.yul\":1287:1296   */\n      add\n        /* \"#utility.yul\":1282:1296   */\n      swap1\n      pop\n        /* \"#utility.yul\":1247:1485   */\n      jump(tag_322)\n    tag_324:\n        /* \"#utility.yul\":1251:1265   */\n      pop\n        /* \"#utility.yul\":871:1491   */\n      pop\n      pop\n        /* \"#utility.yul\":769:1491   */\n      swap4\n      swap3\n      pop\n      pop\n      pop\n      jump\t// out\n        /* \"#utility.yul\":1497:1907   */\n    tag_327:\n        /* \"#utility.yul\":1574:1579   */\n      0x00\n        /* \"#utility.yul\":1599:1664   */\n      tag_329\n        /* \"#utility.yul\":1615:1663   */\n      tag_330\n        /* \"#utility.yul\":1656:1662   */\n      dup5\n        /* \"#utility.yul\":1615:1663   */\n      tag_331\n      jump\t// in\n    tag_330:\n        /* \"#utility.yul\":1599:1664   */\n      tag_306\n      jump\t// in\n    tag_329:\n        /* \"#utility.yul\":1590:1664   */\n      swap1\n      pop\n        /* \"#utility.yul\":1687:1693   */\n      dup3\n        /* \"#utility.yul\":1680:1685   */\n      dup2\n        /* \"#utility.yul\":1673:1694   */\n      mstore\n        /* \"#utility.yul\":1725:1729   */\n      0x20\n        /* \"#utility.yul\":1718:1723   */\n      dup2\n        /* \"#utility.yul\":1714:1730   */\n      add\n        /* \"#utility.yul\":1763:1766   */\n      dup5\n        /* \"#utility.yul\":1754:1760   */\n      dup5\n        /* \"#utility.yul\":1749:1752   */\n      dup5\n        /* \"#utility.yul\":1745:1761   */\n      add\n        /* \"#utility.yul\":1742:1767   */\n      gt\n        /* \"#utility.yul\":1739:1851   */\n      iszero\n      tag_332\n      jumpi\n        /* \"#utility.yul\":1770:1849   */\n      tag_333\n      tag_334\n      jump\t// in\n    tag_333:\n        /* \"#utility.yul\":1739:1851   */\n    tag_332:\n        /* \"#utility.yul\":1860:1901   */\n      tag_335\n        /* \"#utility.yul\":1894:1900   */\n      dup5\n        /* \"#utility.yul\":1889:1892   */\n      dup3\n        /* \"#utility.yul\":1884:1887   */\n      dup6\n        /* \"#utility.yul\":1860:1901   */\n      tag_336\n      jump\t// in\n    tag_335:\n        /* \"#utility.yul\":1580:1907   */\n      pop\n        /* \"#utility.yul\":1497:1907   */\n      swap4\n      swap3\n      pop\n      pop\n      pop\n      jump\t// out\n        /* \"#utility.yul\":1913:2052   */\n    tag_314:\n        /* \"#utility.yul\":1959:1964   */\n      0x00\n        /* \"#utility.yul\":1997:2003   */\n      dup2\n        /* \"#utility.yul\":1984:2004   */\n      calldataload\n        /* \"#utility.yul\":1975:2004   */\n      swap1\n      pop\n        /* \"#utility.yul\":2013:2046   */\n      tag_338\n        /* \"#utility.yul\":2040:2045   */\n      dup2\n        /* \"#utility.yul\":2013:2046   */\n      tag_339\n      jump\t// in\n    tag_338:\n        /* \"#utility.yul\":1913:2052   */\n      swap3\n      swap2\n      pop\n      pop\n      jump\t// out\n        /* \"#utility.yul\":2075:2445   */\n    tag_340:\n        /* \"#utility.yul\":2146:2151   */\n      0x00\n        /* \"#utility.yul\":2195:2198   */\n      dup3\n        /* \"#utility.yul\":2188:2192   */\n      0x1f\n        /* \"#utility.yul\":2180:2186   */\n      dup4\n        /* \"#utility.yul\":2176:2193   */\n      add\n        /* \"#utility.yul\":2172:2199   */\n      slt\n        /* \"#utility.yul\":2162:2284   */\n      tag_342\n      jumpi\n        /* \"#utility.yul\":2203:2282   */\n      tag_343\n      tag_344\n      jump\t// in\n    tag_343:\n        /* \"#utility.yul\":2162:2284   */\n    tag_342:\n        /* \"#utility.yul\":2320:2326   */\n      dup2\n        /* \"#utility.yul\":2307:2327   */\n      calldataload\n        /* \"#utility.yul\":2345:2439   */\n      tag_345\n        /* \"#utility.yul\":2435:2438   */\n      dup5\n        /* \"#utility.yul\":2427:2433   */\n      dup3\n        /* \"#utility.yul\":2420:2424   */\n      0x20\n        /* \"#utility.yul\":2412:2418   */\n      dup7\n        /* \"#utility.yul\":2408:2425   */\n      add\n        /* \"#utility.yul\":2345:2439   */\n      tag_301\n      jump\t// in\n    tag_345:\n        /* \"#utility.yul\":2336:2439   */\n      swap2\n      pop\n        /* \"#utility.yul\":2152:2445   */\n      pop\n        /* \"#utility.yul\":2075:2445   */\n      swap3\n      swap2\n      pop\n      pop\n      jump\t// out\n        /* \"#utility.yul\":2468:2838   */\n    tag_346:\n        /* \"#utility.yul\":2539:2544   */\n      0x00\n        /* \"#utility.yul\":2588:2591   */\n      dup3\n        /* \"#utility.yul\":2581:2585   */\n      0x1f\n        /* \"#utility.yul\":2573:2579   */\n      dup4\n        /* \"#utility.yul\":2569:2586   */\n      add\n        /* \"#utility.yul\":2565:2592   */\n      slt\n        /* \"#utility.yul\":2555:2677   */\n      tag_348\n      jumpi\n        /* \"#utility.yul\":2596:2675   */\n      tag_349\n      tag_344\n      jump\t// in\n    tag_349:\n        /* \"#utility.yul\":2555:2677   */\n    tag_348:\n        /* \"#utility.yul\":2713:2719   */\n      dup2\n        /* \"#utility.yul\":2700:2720   */\n      calldataload\n        /* \"#utility.yul\":2738:2832   */\n      tag_350\n        /* \"#utility.yul\":2828:2831   */\n      dup5\n        /* \"#utility.yul\":2820:2826   */\n      dup3\n        /* \"#utility.yul\":2813:2817   */\n      0x20\n        /* \"#utility.yul\":2805:2811   */\n      dup7\n        /* \"#utility.yul\":2801:2818   */\n      add\n        /* \"#utility.yul\":2738:2832   */\n      tag_315\n      jump\t// in\n    tag_350:\n        /* \"#utility.yul\":2729:2832   */\n      swap2\n      pop\n        /* \"#utility.yul\":2545:2838   */\n      pop\n        /* \"#utility.yul\":2468:2838   */\n      swap3\n      swap2\n      pop\n      pop\n      jump\t// out\n        /* \"#utility.yul\":2844:2977   */\n    tag_351:\n        /* \"#utility.yul\":2887:2892   */\n      0x00\n        /* \"#utility.yul\":2925:2931   */\n      dup2\n        /* \"#utility.yul\":2912:2932   */\n      calldataload\n        /* \"#utility.yul\":2903:2932   */\n      swap1\n      pop\n        /* \"#utility.yul\":2941:2971   */\n      tag_353\n        /* \"#utility.yul\":2965:2970   */\n      dup2\n        /* \"#utility.yul\":2941:2971   */\n      tag_354\n      jump\t// in\n    tag_353:\n        /* \"#utility.yul\":2844:2977   */\n      swap3\n      swap2\n      pop\n      pop\n      jump\t// out\n        /* \"#utility.yul\":2983:3120   */\n    tag_355:\n        /* \"#utility.yul\":3028:3033   */\n      0x00\n        /* \"#utility.yul\":3066:3072   */\n      dup2\n        /* \"#utility.yul\":3053:3073   */\n      calldataload\n        /* \"#utility.yul\":3044:3073   */\n      swap1\n      pop\n        /* \"#utility.yul\":3082:3114   */\n      tag_357\n        /* \"#utility.yul\":3108:3113   */\n      dup2\n        /* \"#utility.yul\":3082:3114   */\n      tag_358\n      jump\t// in\n    tag_357:\n        /* \"#utility.yul\":2983:3120   */\n      swap3\n      swap2\n      pop\n      pop\n      jump\t// out\n        /* \"#utility.yul\":3126:3267   */\n    tag_359:\n        /* \"#utility.yul\":3182:3187   */\n      0x00\n        /* \"#utility.yul\":3213:3219   */\n      dup2\n        /* \"#utility.yul\":3207:3220   */\n      mload\n        /* \"#utility.yul\":3198:3220   */\n      swap1\n      pop\n        /* \"#utility.yul\":3229:3261   */\n      tag_361\n        /* \"#utility.yul\":3255:3260   */\n      dup2\n        /* \"#utility.yul\":3229:3261   */\n      tag_358\n      jump\t// in\n    tag_361:\n        /* \"#utility.yul\":3126:3267   */\n      swap3\n      swap2\n      pop\n      pop\n      jump\t// out\n        /* \"#utility.yul\":3286:3624   */\n    tag_362:\n        /* \"#utility.yul\":3341:3346   */\n      0x00\n        /* \"#utility.yul\":3390:3393   */\n      dup3\n        /* \"#utility.yul\":3383:3387   */\n      0x1f\n        /* \"#utility.yul\":3375:3381   */\n      dup4\n        /* \"#utility.yul\":3371:3388   */\n      add\n        /* \"#utility.yul\":3367:3394   */\n      slt\n        /* \"#utility.yul\":3357:3479   */\n      tag_364\n      jumpi\n        /* \"#utility.yul\":3398:3477   */\n      tag_365\n      tag_344\n      jump\t// in\n    tag_365:\n        /* \"#utility.yul\":3357:3479   */\n    tag_364:\n        /* \"#utility.yul\":3515:3521   */\n      dup2\n        /* \"#utility.yul\":3502:3522   */\n      calldataload\n        /* \"#utility.yul\":3540:3618   */\n      tag_366\n        /* \"#utility.yul\":3614:3617   */\n      dup5\n        /* \"#utility.yul\":3606:3612   */\n      dup3\n        /* \"#utility.yul\":3599:3603   */\n      0x20\n        /* \"#utility.yul\":3591:3597   */\n      dup7\n        /* \"#utility.yul\":3587:3604   */\n      add\n        /* \"#utility.yul\":3540:3618   */\n      tag_327\n      jump\t// in\n    tag_366:\n        /* \"#utility.yul\":3531:3618   */\n      swap2\n      pop\n        /* \"#utility.yul\":3347:3624   */\n      pop\n        /* \"#utility.yul\":3286:3624   */\n      swap3\n      swap2\n      pop\n      pop\n      jump\t// out\n        /* \"#utility.yul\":3630:3769   */\n    tag_326:\n        /* \"#utility.yul\":3676:3681   */\n      0x00\n        /* \"#utility.yul\":3714:3720   */\n      dup2\n        /* \"#utility.yul\":3701:3721   */\n      calldataload\n        /* \"#utility.yul\":3692:3721   */\n      swap1\n      pop\n        /* \"#utility.yul\":3730:3763   */\n      tag_368\n        /* \"#utility.yul\":3757:3762   */\n      dup2\n        /* \"#utility.yul\":3730:3763   */\n      tag_369\n      jump\t// in\n    tag_368:\n        /* \"#utility.yul\":3630:3769   */\n      swap3\n      swap2\n      pop\n      pop\n      jump\t// out\n        /* \"#utility.yul\":3775:4249   */\n    tag_60:\n        /* \"#utility.yul\":3843:3849   */\n      0x00\n        /* \"#utility.yul\":3851:3857   */\n      dup1\n        /* \"#utility.yul\":3900:3902   */\n      0x40\n        /* \"#utility.yul\":3888:3897   */\n      dup4\n        /* \"#utility.yul\":3879:3886   */\n      dup6\n        /* \"#utility.yul\":3875:3898   */\n      sub\n        /* \"#utility.yul\":3871:3903   */\n      slt\n        /* \"#utility.yul\":3868:3987   */\n      iszero\n      tag_371\n      jumpi\n        /* \"#utility.yul\":3906:3985   */\n      tag_372\n      tag_373\n      jump\t// in\n    tag_372:\n        /* \"#utility.yul\":3868:3987   */\n    tag_371:\n        /* \"#utility.yul\":4026:4027   */\n      0x00\n        /* \"#utility.yul\":4051:4104   */\n      tag_374\n        /* \"#utility.yul\":4096:4103   */\n      dup6\n        /* \"#utility.yul\":4087:4093   */\n      dup3\n        /* \"#utility.yul\":4076:4085   */\n      dup7\n        /* \"#utility.yul\":4072:4094   */\n      add\n        /* \"#utility.yul\":4051:4104   */\n      tag_314\n      jump\t// in\n    tag_374:\n        /* \"#utility.yul\":4041:4104   */\n      swap3\n      pop\n        /* \"#utility.yul\":3997:4114   */\n      pop\n        /* \"#utility.yul\":4153:4155   */\n      0x20\n        /* \"#utility.yul\":4179:4232   */\n      tag_375\n        /* \"#utility.yul\":4224:4231   */\n      dup6\n        /* \"#utility.yul\":4215:4221   */\n      dup3\n        /* \"#utility.yul\":4204:4213   */\n      dup7\n        /* \"#utility.yul\":4200:4222   */\n      add\n        /* \"#utility.yul\":4179:4232   */\n      tag_314\n      jump\t// in\n    tag_375:\n        /* \"#utility.yul\":4169:4232   */\n      swap2\n      pop\n        /* \"#utility.yul\":4124:4242   */\n      pop\n        /* \"#utility.yul\":3775:4249   */\n      swap3\n      pop\n      swap3\n      swap1\n      pop\n      jump\t// out\n        /* \"#utility.yul\":4255:5764   */\n    tag_39:\n        /* \"#utility.yul\":4409:4415   */\n      0x00\n        /* \"#utility.yul\":4417:4423   */\n      dup1\n        /* \"#utility.yul\":4425:4431   */\n      0x00\n        /* \"#utility.yul\":4433:4439   */\n      dup1\n        /* \"#utility.yul\":4441:4447   */\n      0x00\n        /* \"#utility.yul\":4490:4493   */\n      0xa0\n        /* \"#utility.yul\":4478:4487   */\n      dup7\n        /* \"#utility.yul\":4469:4476   */\n      dup9\n        /* \"#utility.yul\":4465:4488   */\n      sub\n        /* \"#utility.yul\":4461:4494   */\n      slt\n        /* \"#utility.yul\":4458:4578   */\n      iszero\n      tag_377\n      jumpi\n        /* \"#utility.yul\":4497:4576   */\n      tag_378\n      tag_373\n      jump\t// in\n    tag_378:\n        /* \"#utility.yul\":4458:4578   */\n    tag_377:\n        /* \"#utility.yul\":4617:4618   */\n      0x00\n        /* \"#utility.yul\":4642:4695   */\n      tag_379\n        /* \"#utility.yul\":4687:4694   */\n      dup9\n        /* \"#utility.yul\":4678:4684   */\n      dup3\n        /* \"#utility.yul\":4667:4676   */\n      dup10\n        /* \"#utility.yul\":4663:4685   */\n      add\n        /* \"#utility.yul\":4642:4695   */\n      tag_314\n      jump\t// in\n    tag_379:\n        /* \"#utility.yul\":4632:4695   */\n      swap6\n      pop\n        /* \"#utility.yul\":4588:4705   */\n      pop\n        /* \"#utility.yul\":4744:4746   */\n      0x20\n        /* \"#utility.yul\":4770:4823   */\n      tag_380\n        /* \"#utility.yul\":4815:4822   */\n      dup9\n        /* \"#utility.yul\":4806:4812   */\n      dup3\n        /* \"#utility.yul\":4795:4804   */\n      dup10\n        /* \"#utility.yul\":4791:4813   */\n      add\n        /* \"#utility.yul\":4770:4823   */\n      tag_314\n      jump\t// in\n    tag_380:\n        /* \"#utility.yul\":4760:4823   */\n      swap5\n      pop\n        /* \"#utility.yul\":4715:4833   */\n      pop\n        /* \"#utility.yul\":4900:4902   */\n      0x40\n        /* \"#utility.yul\":4889:4898   */\n      dup7\n        /* \"#utility.yul\":4885:4903   */\n      add\n        /* \"#utility.yul\":4872:4904   */\n      calldataload\n        /* \"#utility.yul\":4931:4949   */\n      0xffffffffffffffff\n        /* \"#utility.yul\":4923:4929   */\n      dup2\n        /* \"#utility.yul\":4920:4950   */\n      gt\n        /* \"#utility.yul\":4917:5034   */\n      iszero\n      tag_381\n      jumpi\n        /* \"#utility.yul\":4953:5032   */\n      tag_382\n      tag_383\n      jump\t// in\n    tag_382:\n        /* \"#utility.yul\":4917:5034   */\n    tag_381:\n        /* \"#utility.yul\":5058:5136   */\n      tag_384\n        /* \"#utility.yul\":5128:5135   */\n      dup9\n        /* \"#utility.yul\":5119:5125   */\n      dup3\n        /* \"#utility.yul\":5108:5117   */\n      dup10\n        /* \"#utility.yul\":5104:5126   */\n      add\n        /* \"#utility.yul\":5058:5136   */\n      tag_346\n      jump\t// in\n    tag_384:\n        /* \"#utility.yul\":5048:5136   */\n      swap4\n      pop\n        /* \"#utility.yul\":4843:5146   */\n      pop\n        /* \"#utility.yul\":5213:5215   */\n      0x60\n        /* \"#utility.yul\":5202:5211   */\n      dup7\n        /* \"#utility.yul\":5198:5216   */\n      add\n        /* \"#utility.yul\":5185:5217   */\n      calldataload\n        /* \"#utility.yul\":5244:5262   */\n      0xffffffffffffffff\n        /* \"#utility.yul\":5236:5242   */\n      dup2\n        /* \"#utility.yul\":5233:5263   */\n      gt\n        /* \"#utility.yul\":5230:5347   */\n      iszero\n      tag_385\n      jumpi\n        /* \"#utility.yul\":5266:5345   */\n      tag_386\n      tag_383\n      jump\t// in\n    tag_386:\n        /* \"#utility.yul\":5230:5347   */\n    tag_385:\n        /* \"#utility.yul\":5371:5449   */\n      tag_387\n        /* \"#utility.yul\":5441:5448   */\n      dup9\n        /* \"#utility.yul\":5432:5438   */\n      dup3\n        /* \"#utility.yul\":5421:5430   */\n      dup10\n        /* \"#utility.yul\":5417:5439   */\n      add\n        /* \"#utility.yul\":5371:5449   */\n      tag_346\n      jump\t// in\n    tag_387:\n        /* \"#utility.yul\":5361:5449   */\n      swap3\n      pop\n        /* \"#utility.yul\":5156:5459   */\n      pop\n        /* \"#utility.yul\":5526:5529   */\n      0x80\n        /* \"#utility.yul\":5515:5524   */\n      dup7\n        /* \"#utility.yul\":5511:5530   */\n      add\n        /* \"#utility.yul\":5498:5531   */\n      calldataload\n        /* \"#utility.yul\":5558:5576   */\n      0xffffffffffffffff\n        /* \"#utility.yul\":5550:5556   */\n      dup2\n        /* \"#utility.yul\":5547:5577   */\n      gt\n        /* \"#utility.yul\":5544:5661   */\n      iszero\n      tag_388\n      jumpi\n        /* \"#utility.yul\":5580:5659   */\n      tag_389\n      tag_383\n      jump\t// in\n    tag_389:\n        /* \"#utility.yul\":5544:5661   */\n    tag_388:\n        /* \"#utility.yul\":5685:5747   */\n      tag_390\n        /* \"#utility.yul\":5739:5746   */\n      dup9\n        /* \"#utility.yul\":5730:5736   */\n      dup3\n        /* \"#utility.yul\":5719:5728   */\n      dup10\n        /* \"#utility.yul\":5715:5737   */\n      add\n        /* \"#utility.yul\":5685:5747   */\n      tag_362\n      jump\t// in\n    tag_390:\n        /* \"#utility.yul\":5675:5747   */\n      swap2\n      pop\n        /* \"#utility.yul\":5469:5757   */\n      pop\n        /* \"#utility.yul\":4255:5764   */\n      swap3\n      swap6\n      pop\n      swap3\n      swap6\n      swap1\n      swap4\n      pop\n      jump\t// out\n        /* \"#utility.yul\":5770:6859   */\n    tag_65:\n        /* \"#utility.yul\":5874:5880   */\n      0x00\n        /* \"#utility.yul\":5882:5888   */\n      dup1\n        /* \"#utility.yul\":5890:5896   */\n      0x00\n        /* \"#utility.yul\":5898:5904   */\n      dup1\n        /* \"#utility.yul\":5906:5912   */\n      0x00\n        /* \"#utility.yul\":5955:5958   */\n      0xa0\n        /* \"#utility.yul\":5943:5952   */\n      dup7\n        /* \"#utility.yul\":5934:5941   */\n      dup9\n        /* \"#utility.yul\":5930:5953   */\n      sub\n        /* \"#utility.yul\":5926:5959   */\n      slt\n        /* \"#utility.yul\":5923:6043   */\n      iszero\n      tag_392\n      jumpi\n        /* \"#utility.yul\":5962:6041   */\n      tag_393\n      tag_373\n      jump\t// in\n    tag_393:\n        /* \"#utility.yul\":5923:6043   */\n    tag_392:\n        /* \"#utility.yul\":6082:6083   */\n      0x00\n        /* \"#utility.yul\":6107:6160   */\n      tag_394\n        /* \"#utility.yul\":6152:6159   */\n      dup9\n        /* \"#utility.yul\":6143:6149   */\n      dup3\n        /* \"#utility.yul\":6132:6141   */\n      dup10\n        /* \"#utility.yul\":6128:6150   */\n      add\n        /* \"#utility.yul\":6107:6160   */\n      tag_314\n      jump\t// in\n    tag_394:\n        /* \"#utility.yul\":6097:6160   */\n      swap6\n      pop\n        /* \"#utility.yul\":6053:6170   */\n      pop\n        /* \"#utility.yul\":6209:6211   */\n      0x20\n        /* \"#utility.yul\":6235:6288   */\n      tag_395\n        /* \"#utility.yul\":6280:6287   */\n      dup9\n        /* \"#utility.yul\":6271:6277   */\n      dup3\n        /* \"#utility.yul\":6260:6269   */\n      dup10\n        /* \"#utility.yul\":6256:6278   */\n      add\n        /* \"#utility.yul\":6235:6288   */\n      tag_314\n      jump\t// in\n    tag_395:\n        /* \"#utility.yul\":6225:6288   */\n      swap5\n      pop\n        /* \"#utility.yul\":6180:6298   */\n      pop\n        /* \"#utility.yul\":6337:6339   */\n      0x40\n        /* \"#utility.yul\":6363:6416   */\n      tag_396\n        /* \"#utility.yul\":6408:6415   */\n      dup9\n        /* \"#utility.yul\":6399:6405   */\n      dup3\n        /* \"#utility.yul\":6388:6397   */\n      dup10\n        /* \"#utility.yul\":6384:6406   */\n      add\n        /* \"#utility.yul\":6363:6416   */\n      tag_326\n      jump\t// in\n    tag_396:\n        /* \"#utility.yul\":6353:6416   */\n      swap4\n      pop\n        /* \"#utility.yul\":6308:6426   */\n      pop\n        /* \"#utility.yul\":6465:6467   */\n      0x60\n        /* \"#utility.yul\":6491:6544   */\n      tag_397\n        /* \"#utility.yul\":6536:6543   */\n      dup9\n        /* \"#utility.yul\":6527:6533   */\n      dup3\n        /* \"#utility.yul\":6516:6525   */\n      dup10\n        /* \"#utility.yul\":6512:6534   */\n      add\n        /* \"#utility.yul\":6491:6544   */\n      tag_326\n      jump\t// in\n    tag_397:\n        /* \"#utility.yul\":6481:6544   */\n      swap3\n      pop\n        /* \"#utility.yul\":6436:6554   */\n      pop\n        /* \"#utility.yul\":6621:6624   */\n      0x80\n        /* \"#utility.yul\":6610:6619   */\n      dup7\n        /* \"#utility.yul\":6606:6625   */\n      add\n        /* \"#utility.yul\":6593:6626   */\n      calldataload\n        /* \"#utility.yul\":6653:6671   */\n      0xffffffffffffffff\n        /* \"#utility.yul\":6645:6651   */\n      dup2\n        /* \"#utility.yul\":6642:6672   */\n      gt\n        /* \"#utility.yul\":6639:6756   */\n      iszero\n      tag_398\n      jumpi\n        /* \"#utility.yul\":6675:6754   */\n      tag_399\n      tag_383\n      jump\t// in\n    tag_399:\n        /* \"#utility.yul\":6639:6756   */\n    tag_398:\n        /* \"#utility.yul\":6780:6842   */\n      tag_400\n        /* \"#utility.yul\":6834:6841   */\n      dup9\n        /* \"#utility.yul\":6825:6831   */\n      dup3\n        /* \"#utility.yul\":6814:6823   */\n      dup10\n        /* \"#utility.yul\":6810:6832   */\n      add\n        /* \"#utility.yul\":6780:6842   */\n      tag_362\n      jump\t// in\n    tag_400:\n        /* \"#utility.yul\":6770:6842   */\n      swap2\n      pop\n        /* \"#utility.yul\":6564:6852   */\n      pop\n        /* \"#utility.yul\":5770:6859   */\n      swap3\n      swap6\n      pop\n      swap3\n      swap6\n      swap1\n      swap4\n      pop\n      jump\t// out\n        /* \"#utility.yul\":6865:7333   */\n    tag_56:\n        /* \"#utility.yul\":6930:6936   */\n      0x00\n        /* \"#utility.yul\":6938:6944   */\n      dup1\n        /* \"#utility.yul\":6987:6989   */\n      0x40\n        /* \"#utility.yul\":6975:6984   */\n      dup4\n        /* \"#utility.yul\":6966:6973   */\n      dup6\n        /* \"#utility.yul\":6962:6985   */\n      sub\n        /* \"#utility.yul\":6958:6990   */\n      slt\n        /* \"#utility.yul\":6955:7074   */\n      iszero\n      tag_402\n      jumpi\n        /* \"#utility.yul\":6993:7072   */\n      tag_403\n      tag_373\n      jump\t// in\n    tag_403:\n        /* \"#utility.yul\":6955:7074   */\n    tag_402:\n        /* \"#utility.yul\":7113:7114   */\n      0x00\n        /* \"#utility.yul\":7138:7191   */\n      tag_404\n        /* \"#utility.yul\":7183:7190   */\n      dup6\n        /* \"#utility.yul\":7174:7180   */\n      dup3\n        /* \"#utility.yul\":7163:7172   */\n      dup7\n        /* \"#utility.yul\":7159:7181   */\n      add\n        /* \"#utility.yul\":7138:7191   */\n      tag_314\n      jump\t// in\n    tag_404:\n        /* \"#utility.yul\":7128:7191   */\n      swap3\n      pop\n        /* \"#utility.yul\":7084:7201   */\n      pop\n        /* \"#utility.yul\":7240:7242   */\n      0x20\n        /* \"#utility.yul\":7266:7316   */\n      tag_405\n        /* \"#utility.yul\":7308:7315   */\n      dup6\n        /* \"#utility.yul\":7299:7305   */\n      dup3\n        /* \"#utility.yul\":7288:7297   */\n      dup7\n        /* \"#utility.yul\":7284:7306   */\n      add\n        /* \"#utility.yul\":7266:7316   */\n      tag_351\n      jump\t// in\n    tag_405:\n        /* \"#utility.yul\":7256:7316   */\n      swap2\n      pop\n        /* \"#utility.yul\":7211:7326   */\n      pop\n        /* \"#utility.yul\":6865:7333   */\n      swap3\n      pop\n      swap3\n      swap1\n      pop\n      jump\t// out\n        /* \"#utility.yul\":7339:7813   */\n    tag_18:\n        /* \"#utility.yul\":7407:7413   */\n      0x00\n        /* \"#utility.yul\":7415:7421   */\n      dup1\n        /* \"#utility.yul\":7464:7466   */\n      0x40\n        /* \"#utility.yul\":7452:7461   */\n      dup4\n        /* \"#utility.yul\":7443:7450   */\n      dup6\n        /* \"#utility.yul\":7439:7462   */\n      sub\n        /* \"#utility.yul\":7435:7467   */\n      slt\n        /* \"#utility.yul\":7432:7551   */\n      iszero\n      tag_407\n      jumpi\n        /* \"#utility.yul\":7470:7549   */\n      tag_408\n      tag_373\n      jump\t// in\n    tag_408:\n        /* \"#utility.yul\":7432:7551   */\n    tag_407:\n        /* \"#utility.yul\":7590:7591   */\n      0x00\n        /* \"#utility.yul\":7615:7668   */\n      tag_409\n        /* \"#utility.yul\":7660:7667   */\n      dup6\n        /* \"#utility.yul\":7651:7657   */\n      dup3\n        /* \"#utility.yul\":7640:7649   */\n      dup7\n        /* \"#utility.yul\":7636:7658   */\n      add\n        /* \"#utility.yul\":7615:7668   */\n      tag_314\n      jump\t// in\n    tag_409:\n        /* \"#utility.yul\":7605:7668   */\n      swap3\n      pop\n        /* \"#utility.yul\":7561:7678   */\n      pop\n        /* \"#utility.yul\":7717:7719   */\n      0x20\n        /* \"#utility.yul\":7743:7796   */\n      tag_410\n        /* \"#utility.yul\":7788:7795   */\n      dup6\n        /* \"#utility.yul\":7779:7785   */\n      dup3\n        /* \"#utility.yul\":7768:7777   */\n      dup7\n        /* \"#utility.yul\":7764:7786   */\n      add\n        /* \"#utility.yul\":7743:7796   */\n      tag_326\n      jump\t// in\n    tag_410:\n        /* \"#utility.yul\":7733:7796   */\n      swap2\n      pop\n        /* \"#utility.yul\":7688:7806   */\n      pop\n        /* \"#utility.yul\":7339:7813   */\n      swap3\n      pop\n      swap3\n      swap1\n      pop\n      jump\t// out\n        /* \"#utility.yul\":7819:8438   */\n    tag_69:\n        /* \"#utility.yul\":7896:7902   */\n      0x00\n        /* \"#utility.yul\":7904:7910   */\n      dup1\n        /* \"#utility.yul\":7912:7918   */\n      0x00\n        /* \"#utility.yul\":7961:7963   */\n      0x60\n        /* \"#utility.yul\":7949:7958   */\n      dup5\n        /* \"#utility.yul\":7940:7947   */\n      dup7\n        /* \"#utility.yul\":7936:7959   */\n      sub\n        /* \"#utility.yul\":7932:7964   */\n      slt\n        /* \"#utility.yul\":7929:8048   */\n      iszero\n      tag_412\n      jumpi\n        /* \"#utility.yul\":7967:8046   */\n      tag_413\n      tag_373\n      jump\t// in\n    tag_413:\n        /* \"#utility.yul\":7929:8048   */\n    tag_412:\n        /* \"#utility.yul\":8087:8088   */\n      0x00\n        /* \"#utility.yul\":8112:8165   */\n      tag_414\n        /* \"#utility.yul\":8157:8164   */\n      dup7\n        /* \"#utility.yul\":8148:8154   */\n      dup3\n        /* \"#utility.yul\":8137:8146   */\n      dup8\n        /* \"#utility.yul\":8133:8155   */\n      add\n        /* \"#utility.yul\":8112:8165   */\n      tag_314\n      jump\t// in\n    tag_414:\n        /* \"#utility.yul\":8102:8165   */\n      swap4\n      pop\n        /* \"#utility.yul\":8058:8175   */\n      pop\n        /* \"#utility.yul\":8214:8216   */\n      0x20\n        /* \"#utility.yul\":8240:8293   */\n      tag_415\n        /* \"#utility.yul\":8285:8292   */\n      dup7\n        /* \"#utility.yul\":8276:8282   */\n      dup3\n        /* \"#utility.yul\":8265:8274   */\n      dup8\n        /* \"#utility.yul\":8261:8283   */\n      add\n        /* \"#utility.yul\":8240:8293   */\n      tag_326\n      jump\t// in\n    tag_415:\n        /* \"#utility.yul\":8230:8293   */\n      swap3\n      pop\n        /* \"#utility.yul\":8185:8303   */\n      pop\n        /* \"#utility.yul\":8342:8344   */\n      0x40\n        /* \"#utility.yul\":8368:8421   */\n      tag_416\n        /* \"#utility.yul\":8413:8420   */\n      dup7\n        /* \"#utility.yul\":8404:8410   */\n      dup3\n        /* \"#utility.yul\":8393:8402   */\n      dup8\n        /* \"#utility.yul\":8389:8411   */\n      add\n        /* \"#utility.yul\":8368:8421   */\n      tag_326\n      jump\t// in\n    tag_416:\n        /* \"#utility.yul\":8358:8421   */\n      swap2\n      pop\n        /* \"#utility.yul\":8313:8431   */\n      pop\n        /* \"#utility.yul\":7819:8438   */\n      swap3\n      pop\n      swap3\n      pop\n      swap3\n      jump\t// out\n        /* \"#utility.yul\":8444:9387   */\n    tag_49:\n        /* \"#utility.yul\":8539:8545   */\n      0x00\n        /* \"#utility.yul\":8547:8553   */\n      dup1\n        /* \"#utility.yul\":8555:8561   */\n      0x00\n        /* \"#utility.yul\":8563:8569   */\n      dup1\n        /* \"#utility.yul\":8612:8615   */\n      0x80\n        /* \"#utility.yul\":8600:8609   */\n      dup6\n        /* \"#utility.yul\":8591:8598   */\n      dup8\n        /* \"#utility.yul\":8587:8610   */\n      sub\n        /* \"#utility.yul\":8583:8616   */\n      slt\n        /* \"#utility.yul\":8580:8700   */\n      iszero\n      tag_418\n      jumpi\n        /* \"#utility.yul\":8619:8698   */\n      tag_419\n      tag_373\n      jump\t// in\n    tag_419:\n        /* \"#utility.yul\":8580:8700   */\n    tag_418:\n        /* \"#utility.yul\":8739:8740   */\n      0x00\n        /* \"#utility.yul\":8764:8817   */\n      tag_420\n        /* \"#utility.yul\":8809:8816   */\n      dup8\n        /* \"#utility.yul\":8800:8806   */\n      dup3\n        /* \"#utility.yul\":8789:8798   */\n      dup9\n        /* \"#utility.yul\":8785:8807   */\n      add\n        /* \"#utility.yul\":8764:8817   */\n      tag_314\n      jump\t// in\n    tag_420:\n        /* \"#utility.yul\":8754:8817   */\n      swap5\n      pop\n        /* \"#utility.yul\":8710:8827   */\n      pop\n        /* \"#utility.yul\":8866:8868   */\n      0x20\n        /* \"#utility.yul\":8892:8945   */\n      tag_421\n        /* \"#utility.yul\":8937:8944   */\n      dup8\n        /* \"#utility.yul\":8928:8934   */\n      dup3\n        /* \"#utility.yul\":8917:8926   */\n      dup9\n        /* \"#utility.yul\":8913:8935   */\n      add\n        /* \"#utility.yul\":8892:8945   */\n      tag_326\n      jump\t// in\n    tag_421:\n        /* \"#utility.yul\":8882:8945   */\n      swap4\n      pop\n        /* \"#utility.yul\":8837:8955   */\n      pop\n        /* \"#utility.yul\":8994:8996   */\n      0x40\n        /* \"#utility.yul\":9020:9073   */\n      tag_422\n        /* \"#utility.yul\":9065:9072   */\n      dup8\n        /* \"#utility.yul\":9056:9062   */\n      dup3\n        /* \"#utility.yul\":9045:9054   */\n      dup9\n        /* \"#utility.yul\":9041:9063   */\n      add\n        /* \"#utility.yul\":9020:9073   */\n      tag_326\n      jump\t// in\n    tag_422:\n        /* \"#utility.yul\":9010:9073   */\n      swap3\n      pop\n        /* \"#utility.yul\":8965:9083   */\n      pop\n        /* \"#utility.yul\":9150:9152   */\n      0x60\n        /* \"#utility.yul\":9139:9148   */\n      dup6\n        /* \"#utility.yul\":9135:9153   */\n      add\n        /* \"#utility.yul\":9122:9154   */\n      calldataload\n        /* \"#utility.yul\":9181:9199   */\n      0xffffffffffffffff\n        /* \"#utility.yul\":9173:9179   */\n      dup2\n        /* \"#utility.yul\":9170:9200   */\n      gt\n        /* \"#utility.yul\":9167:9284   */\n      iszero\n      tag_423\n      jumpi\n        /* \"#utility.yul\":9203:9282   */\n      tag_424\n      tag_383\n      jump\t// in\n    tag_424:\n        /* \"#utility.yul\":9167:9284   */\n    tag_423:\n        /* \"#utility.yul\":9308:9370   */\n      tag_425\n        /* \"#utility.yul\":9362:9369   */\n      dup8\n        /* \"#utility.yul\":9353:9359   */\n      dup3\n        /* \"#utility.yul\":9342:9351   */\n      dup9\n        /* \"#utility.yul\":9338:9360   */\n      add\n        /* \"#utility.yul\":9308:9370   */\n      tag_362\n      jump\t// in\n    tag_425:\n        /* \"#utility.yul\":9298:9370   */\n      swap2\n      pop\n        /* \"#utility.yul\":9093:9380   */\n      pop\n        /* \"#utility.yul\":8444:9387   */\n      swap3\n      swap6\n      swap2\n      swap5\n      pop\n      swap3\n      pop\n      jump\t// out\n        /* \"#utility.yul\":9393:10287   */\n    tag_43:\n        /* \"#utility.yul\":9511:9517   */\n      0x00\n        /* \"#utility.yul\":9519:9525   */\n      dup1\n        /* \"#utility.yul\":9568:9570   */\n      0x40\n        /* \"#utility.yul\":9556:9565   */\n      dup4\n        /* \"#utility.yul\":9547:9554   */\n      dup6\n        /* \"#utility.yul\":9543:9566   */\n      sub\n        /* \"#utility.yul\":9539:9571   */\n      slt\n        /* \"#utility.yul\":9536:9655   */\n      iszero\n      tag_427\n      jumpi\n        /* \"#utility.yul\":9574:9653   */\n      tag_428\n      tag_373\n      jump\t// in\n    tag_428:\n        /* \"#utility.yul\":9536:9655   */\n    tag_427:\n        /* \"#utility.yul\":9722:9723   */\n      0x00\n        /* \"#utility.yul\":9711:9720   */\n      dup4\n        /* \"#utility.yul\":9707:9724   */\n      add\n        /* \"#utility.yul\":9694:9725   */\n      calldataload\n        /* \"#utility.yul\":9752:9770   */\n      0xffffffffffffffff\n        /* \"#utility.yul\":9744:9750   */\n      dup2\n        /* \"#utility.yul\":9741:9771   */\n      gt\n        /* \"#utility.yul\":9738:9855   */\n      iszero\n      tag_429\n      jumpi\n        /* \"#utility.yul\":9774:9853   */\n      tag_430\n      tag_383\n      jump\t// in\n    tag_430:\n        /* \"#utility.yul\":9738:9855   */\n    tag_429:\n        /* \"#utility.yul\":9879:9957   */\n      tag_431\n        /* \"#utility.yul\":9949:9956   */\n      dup6\n        /* \"#utility.yul\":9940:9946   */\n      dup3\n        /* \"#utility.yul\":9929:9938   */\n      dup7\n        /* \"#utility.yul\":9925:9947   */\n      add\n        /* \"#utility.yul\":9879:9957   */\n      tag_340\n      jump\t// in\n    tag_431:\n        /* \"#utility.yul\":9869:9957   */\n      swap3\n      pop\n        /* \"#utility.yul\":9665:9967   */\n      pop\n        /* \"#utility.yul\":10034:10036   */\n      0x20\n        /* \"#utility.yul\":10023:10032   */\n      dup4\n        /* \"#utility.yul\":10019:10037   */\n      add\n        /* \"#utility.yul\":10006:10038   */\n      calldataload\n        /* \"#utility.yul\":10065:10083   */\n      0xffffffffffffffff\n        /* \"#utility.yul\":10057:10063   */\n      dup2\n        /* \"#utility.yul\":10054:10084   */\n      gt\n        /* \"#utility.yul\":10051:10168   */\n      iszero\n      tag_432\n      jumpi\n        /* \"#utility.yul\":10087:10166   */\n      tag_433\n      tag_383\n      jump\t// in\n    tag_433:\n        /* \"#utility.yul\":10051:10168   */\n    tag_432:\n        /* \"#utility.yul\":10192:10270   */\n      tag_434\n        /* \"#utility.yul\":10262:10269   */\n      dup6\n        /* \"#utility.yul\":10253:10259   */\n      dup3\n        /* \"#utility.yul\":10242:10251   */\n      dup7\n        /* \"#utility.yul\":10238:10260   */\n      add\n        /* \"#utility.yul\":10192:10270   */\n      tag_346\n      jump\t// in\n    tag_434:\n        /* \"#utility.yul\":10182:10270   */\n      swap2\n      pop\n        /* \"#utility.yul\":9977:10280   */\n      pop\n        /* \"#utility.yul\":9393:10287   */\n      swap3\n      pop\n      swap3\n      swap1\n      pop\n      jump\t// out\n        /* \"#utility.yul\":10293:10620   */\n    tag_24:\n        /* \"#utility.yul\":10351:10357   */\n      0x00\n        /* \"#utility.yul\":10400:10402   */\n      0x20\n        /* \"#utility.yul\":10388:10397   */\n      dup3\n        /* \"#utility.yul\":10379:10386   */\n      dup5\n        /* \"#utility.yul\":10375:10398   */\n      sub\n        /* \"#utility.yul\":10371:10403   */\n      slt\n        /* \"#utility.yul\":10368:10487   */\n      iszero\n      tag_436\n      jumpi\n        /* \"#utility.yul\":10406:10485   */\n      tag_437\n      tag_373\n      jump\t// in\n    tag_437:\n        /* \"#utility.yul\":10368:10487   */\n    tag_436:\n        /* \"#utility.yul\":10526:10527   */\n      0x00\n        /* \"#utility.yul\":10551:10603   */\n      tag_438\n        /* \"#utility.yul\":10595:10602   */\n      dup5\n        /* \"#utility.yul\":10586:10592   */\n      dup3\n        /* \"#utility.yul\":10575:10584   */\n      dup6\n        /* \"#utility.yul\":10571:10593   */\n      add\n        /* \"#utility.yul\":10551:10603   */\n      tag_355\n      jump\t// in\n    tag_438:\n        /* \"#utility.yul\":10541:10603   */\n      swap2\n      pop\n        /* \"#utility.yul\":10497:10613   */\n      pop\n        /* \"#utility.yul\":10293:10620   */\n      swap3\n      swap2\n      pop\n      pop\n      jump\t// out\n        /* \"#utility.yul\":10626:10975   */\n    tag_256:\n        /* \"#utility.yul\":10695:10701   */\n      0x00\n        /* \"#utility.yul\":10744:10746   */\n      0x20\n        /* \"#utility.yul\":10732:10741   */\n      dup3\n        /* \"#utility.yul\":10723:10730   */\n      dup5\n        /* \"#utility.yul\":10719:10742   */\n      sub\n        /* \"#utility.yul\":10715:10747   */\n      slt\n        /* \"#utility.yul\":10712:10831   */\n      iszero\n      tag_440\n      jumpi\n        /* \"#utility.yul\":10750:10829   */\n      tag_441\n      tag_373\n      jump\t// in\n    tag_441:\n        /* \"#utility.yul\":10712:10831   */\n    tag_440:\n        /* \"#utility.yul\":10870:10871   */\n      0x00\n        /* \"#utility.yul\":10895:10958   */\n      tag_442\n        /* \"#utility.yul\":10950:10957   */\n      dup5\n        /* \"#utility.yul\":10941:10947   */\n      dup3\n        /* \"#utility.yul\":10930:10939   */\n      dup6\n        /* \"#utility.yul\":10926:10948   */\n      add\n        /* \"#utility.yul\":10895:10958   */\n      tag_359\n      jump\t// in\n    tag_442:\n        /* \"#utility.yul\":10885:10958   */\n      swap2\n      pop\n        /* \"#utility.yul\":10841:10968   */\n      pop\n        /* \"#utility.yul\":10626:10975   */\n      swap3\n      swap2\n      pop\n      pop\n      jump\t// out\n        /* \"#utility.yul\":10981:11310   */\n    tag_34:\n        /* \"#utility.yul\":11040:11046   */\n      0x00\n        /* \"#utility.yul\":11089:11091   */\n      0x20\n        /* \"#utility.yul\":11077:11086   */\n      dup3\n        /* \"#utility.yul\":11068:11075   */\n      dup5\n        /* \"#utility.yul\":11064:11087   */\n      sub\n        /* \"#utility.yul\":11060:11092   */\n      slt\n        /* \"#utility.yul\":11057:11176   */\n      iszero\n      tag_444\n      jumpi\n        /* \"#utility.yul\":11095:11174   */\n      tag_445\n      tag_373\n      jump\t// in\n    tag_445:\n        /* \"#utility.yul\":11057:11176   */\n    tag_444:\n        /* \"#utility.yul\":11215:11216   */\n      0x00\n        /* \"#utility.yul\":11240:11293   */\n      tag_446\n        /* \"#utility.yul\":11285:11292   */\n      dup5\n        /* \"#utility.yul\":11276:11282   */\n      dup3\n        /* \"#utility.yul\":11265:11274   */\n      dup6\n        /* \"#utility.yul\":11261:11283   */\n      add\n        /* \"#utility.yul\":11240:11293   */\n      tag_326\n      jump\t// in\n    tag_446:\n        /* \"#utility.yul\":11230:11293   */\n      swap2\n      pop\n        /* \"#utility.yul\":11186:11303   */\n      pop\n        /* \"#utility.yul\":10981:11310   */\n      swap3\n      swap2\n      pop\n      pop\n      jump\t// out\n        /* \"#utility.yul\":11316:11495   */\n    tag_447:\n        /* \"#utility.yul\":11385:11395   */\n      0x00\n        /* \"#utility.yul\":11406:11452   */\n      tag_449\n        /* \"#utility.yul\":11448:11451   */\n      dup4\n        /* \"#utility.yul\":11440:11446   */\n      dup4\n        /* \"#utility.yul\":11406:11452   */\n      tag_450\n      jump\t// in\n    tag_449:\n        /* \"#utility.yul\":11484:11488   */\n      0x20\n        /* \"#utility.yul\":11479:11482   */\n      dup4\n        /* \"#utility.yul\":11475:11489   */\n      add\n        /* \"#utility.yul\":11461:11489   */\n      swap1\n      pop\n        /* \"#utility.yul\":11316:11495   */\n      swap3\n      swap2\n      pop\n      pop\n      jump\t// out\n        /* \"#utility.yul\":11501:11619   */\n    tag_451:\n        /* \"#utility.yul\":11588:11612   */\n      tag_453\n        /* \"#utility.yul\":11606:11611   */\n      dup2\n        /* \"#utility.yul\":11588:11612   */\n      tag_454\n      jump\t// in\n    tag_453:\n        /* \"#utility.yul\":11583:11586   */\n      dup3\n        /* \"#utility.yul\":11576:11613   */\n      mstore\n        /* \"#utility.yul\":11501:11619   */\n      pop\n      pop\n      jump\t// out\n        /* \"#utility.yul\":11655:12387   */\n    tag_455:\n        /* \"#utility.yul\":11774:11777   */\n      0x00\n        /* \"#utility.yul\":11803:11857   */\n      tag_457\n        /* \"#utility.yul\":11851:11856   */\n      dup3\n        /* \"#utility.yul\":11803:11857   */\n      tag_458\n      jump\t// in\n    tag_457:\n        /* \"#utility.yul\":11873:11959   */\n      tag_459\n        /* \"#utility.yul\":11952:11958   */\n      dup2\n        /* \"#utility.yul\":11947:11950   */\n      dup6\n        /* \"#utility.yul\":11873:11959   */\n      tag_460\n      jump\t// in\n    tag_459:\n        /* \"#utility.yul\":11866:11959   */\n      swap4\n      pop\n        /* \"#utility.yul\":11983:12039   */\n      tag_461\n        /* \"#utility.yul\":12033:12038   */\n      dup4\n        /* \"#utility.yul\":11983:12039   */\n      tag_462\n      jump\t// in\n    tag_461:\n        /* \"#utility.yul\":12062:12069   */\n      dup1\n        /* \"#utility.yul\":12093:12094   */\n      0x00\n        /* \"#utility.yul\":12078:12362   */\n    tag_463:\n        /* \"#utility.yul\":12103:12109   */\n      dup4\n        /* \"#utility.yul\":12100:12101   */\n      dup2\n        /* \"#utility.yul\":12097:12110   */\n      lt\n        /* \"#utility.yul\":12078:12362   */\n      iszero\n      tag_465\n      jumpi\n        /* \"#utility.yul\":12179:12185   */\n      dup2\n        /* \"#utility.yul\":12173:12186   */\n      mload\n        /* \"#utility.yul\":12206:12269   */\n      tag_466\n        /* \"#utility.yul\":12265:12268   */\n      dup9\n        /* \"#utility.yul\":12250:12263   */\n      dup3\n        /* \"#utility.yul\":12206:12269   */\n      tag_447\n      jump\t// in\n    tag_466:\n        /* \"#utility.yul\":12199:12269   */\n      swap8\n      pop\n        /* \"#utility.yul\":12292:12352   */\n      tag_467\n        /* \"#utility.yul\":12345:12351   */\n      dup4\n        /* \"#utility.yul\":12292:12352   */\n      tag_468\n      jump\t// in\n    tag_467:\n        /* \"#utility.yul\":12282:12352   */\n      swap3\n      pop\n        /* \"#utility.yul\":12138:12362   */\n      pop\n        /* \"#utility.yul\":12125:12126   */\n      0x01\n        /* \"#utility.yul\":12122:12123   */\n      dup2\n        /* \"#utility.yul\":12118:12127   */\n      add\n        /* \"#utility.yul\":12113:12127   */\n      swap1\n      pop\n        /* \"#utility.yul\":12078:12362   */\n      jump(tag_463)\n    tag_465:\n        /* \"#utility.yul\":12082:12096   */\n      pop\n        /* \"#utility.yul\":12378:12381   */\n      dup6\n        /* \"#utility.yul\":12371:12381   */\n      swap4\n      pop\n        /* \"#utility.yul\":11779:12387   */\n      pop\n      pop\n      pop\n        /* \"#utility.yul\":11655:12387   */\n      swap3\n      swap2\n      pop\n      pop\n      jump\t// out\n        /* \"#utility.yul\":12393:12502   */\n    tag_469:\n        /* \"#utility.yul\":12474:12495   */\n      tag_471\n        /* \"#utility.yul\":12489:12494   */\n      dup2\n        /* \"#utility.yul\":12474:12495   */\n      tag_472\n      jump\t// in\n    tag_471:\n        /* \"#utility.yul\":12469:12472   */\n      dup3\n        /* \"#utility.yul\":12462:12496   */\n      mstore\n        /* \"#utility.yul\":12393:12502   */\n      pop\n      pop\n      jump\t// out\n        /* \"#utility.yul\":12508:12868   */\n    tag_473:\n        /* \"#utility.yul\":12594:12597   */\n      0x00\n        /* \"#utility.yul\":12622:12660   */\n      tag_475\n        /* \"#utility.yul\":12654:12659   */\n      dup3\n        /* \"#utility.yul\":12622:12660   */\n      tag_476\n      jump\t// in\n    tag_475:\n        /* \"#utility.yul\":12676:12746   */\n      tag_477\n        /* \"#utility.yul\":12739:12745   */\n      dup2\n        /* \"#utility.yul\":12734:12737   */\n      dup6\n        /* \"#utility.yul\":12676:12746   */\n      tag_478\n      jump\t// in\n    tag_477:\n        /* \"#utility.yul\":12669:12746   */\n      swap4\n      pop\n        /* \"#utility.yul\":12755:12807   */\n      tag_479\n        /* \"#utility.yul\":12800:12806   */\n      dup2\n        /* \"#utility.yul\":12795:12798   */\n      dup6\n        /* \"#utility.yul\":12788:12792   */\n      0x20\n        /* \"#utility.yul\":12781:12786   */\n      dup7\n        /* \"#utility.yul\":12777:12793   */\n      add\n        /* \"#utility.yul\":12755:12807   */\n      tag_480\n      jump\t// in\n    tag_479:\n        /* \"#utility.yul\":12832:12861   */\n      tag_481\n        /* \"#utility.yul\":12854:12860   */\n      dup2\n        /* \"#utility.yul\":12832:12861   */\n      tag_482\n      jump\t// in\n    tag_481:\n        /* \"#utility.yul\":12827:12830   */\n      dup5\n        /* \"#utility.yul\":12823:12862   */\n      add\n        /* \"#utility.yul\":12816:12862   */\n      swap2\n      pop\n        /* \"#utility.yul\":12598:12868   */\n      pop\n        /* \"#utility.yul\":12508:12868   */\n      swap3\n      swap2\n      pop\n      pop\n      jump\t// out\n        /* \"#utility.yul\":12874:13238   */\n    tag_483:\n        /* \"#utility.yul\":12962:12965   */\n      0x00\n        /* \"#utility.yul\":12990:13029   */\n      tag_485\n        /* \"#utility.yul\":13023:13028   */\n      dup3\n        /* \"#utility.yul\":12990:13029   */\n      tag_486\n      jump\t// in\n    tag_485:\n        /* \"#utility.yul\":13045:13116   */\n      tag_487\n        /* \"#utility.yul\":13109:13115   */\n      dup2\n        /* \"#utility.yul\":13104:13107   */\n      dup6\n        /* \"#utility.yul\":13045:13116   */\n      tag_488\n      jump\t// in\n    tag_487:\n        /* \"#utility.yul\":13038:13116   */\n      swap4\n      pop\n        /* \"#utility.yul\":13125:13177   */\n      tag_489\n        /* \"#utility.yul\":13170:13176   */\n      dup2\n        /* \"#utility.yul\":13165:13168   */\n      dup6\n        /* \"#utility.yul\":13158:13162   */\n      0x20\n        /* \"#utility.yul\":13151:13156   */\n      dup7\n        /* \"#utility.yul\":13147:13163   */\n      add\n        /* \"#utility.yul\":13125:13177   */\n      tag_480\n      jump\t// in\n    tag_489:\n        /* \"#utility.yul\":13202:13231   */\n      tag_490\n        /* \"#utility.yul\":13224:13230   */\n      dup2\n        /* \"#utility.yul\":13202:13231   */\n      tag_482\n      jump\t// in\n    tag_490:\n        /* \"#utility.yul\":13197:13200   */\n      dup5\n        /* \"#utility.yul\":13193:13232   */\n      add\n        /* \"#utility.yul\":13186:13232   */\n      swap2\n      pop\n        /* \"#utility.yul\":12966:13238   */\n      pop\n        /* \"#utility.yul\":12874:13238   */\n      swap3\n      swap2\n      pop\n      pop\n      jump\t// out\n        /* \"#utility.yul\":13244:13621   */\n    tag_491:\n        /* \"#utility.yul\":13350:13353   */\n      0x00\n        /* \"#utility.yul\":13378:13417   */\n      tag_493\n        /* \"#utility.yul\":13411:13416   */\n      dup3\n        /* \"#utility.yul\":13378:13417   */\n      tag_486\n      jump\t// in\n    tag_493:\n        /* \"#utility.yul\":13433:13522   */\n      tag_494\n        /* \"#utility.yul\":13515:13521   */\n      dup2\n        /* \"#utility.yul\":13510:13513   */\n      dup6\n        /* \"#utility.yul\":13433:13522   */\n      tag_495\n      jump\t// in\n    tag_494:\n        /* \"#utility.yul\":13426:13522   */\n      swap4\n      pop\n        /* \"#utility.yul\":13531:13583   */\n      tag_496\n        /* \"#utility.yul\":13576:13582   */\n      dup2\n        /* \"#utility.yul\":13571:13574   */\n      dup6\n        /* \"#utility.yul\":13564:13568   */\n      0x20\n        /* \"#utility.yul\":13557:13562   */\n      dup7\n        /* \"#utility.yul\":13553:13569   */\n      add\n        /* \"#utility.yul\":13531:13583   */\n      tag_480\n      jump\t// in\n    tag_496:\n        /* \"#utility.yul\":13608:13614   */\n      dup1\n        /* \"#utility.yul\":13603:13606   */\n      dup5\n        /* \"#utility.yul\":13599:13615   */\n      add\n        /* \"#utility.yul\":13592:13615   */\n      swap2\n      pop\n        /* \"#utility.yul\":13354:13621   */\n      pop\n        /* \"#utility.yul\":13244:13621   */\n      swap3\n      swap2\n      pop\n      pop\n      jump\t// out\n        /* \"#utility.yul\":13651:14496   */\n    tag_497:\n        /* \"#utility.yul\":13754:13757   */\n      0x00\n        /* \"#utility.yul\":13791:13796   */\n      dup2\n        /* \"#utility.yul\":13785:13797   */\n      sload\n        /* \"#utility.yul\":13820:13856   */\n      tag_499\n        /* \"#utility.yul\":13846:13855   */\n      dup2\n        /* \"#utility.yul\":13820:13856   */\n      tag_81\n      jump\t// in\n    tag_499:\n        /* \"#utility.yul\":13872:13961   */\n      tag_500\n        /* \"#utility.yul\":13954:13960   */\n      dup2\n        /* \"#utility.yul\":13949:13952   */\n      dup7\n        /* \"#utility.yul\":13872:13961   */\n      tag_495\n      jump\t// in\n    tag_500:\n        /* \"#utility.yul\":13865:13961   */\n      swap5\n      pop\n        /* \"#utility.yul\":13992:13993   */\n      0x01\n        /* \"#utility.yul\":13981:13990   */\n      dup3\n        /* \"#utility.yul\":13977:13994   */\n      and\n        /* \"#utility.yul\":14008:14009   */\n      0x00\n        /* \"#utility.yul\":14003:14140   */\n      dup2\n      eq\n      tag_502\n      jumpi\n        /* \"#utility.yul\":14154:14155   */\n      0x01\n        /* \"#utility.yul\":14149:14490   */\n      dup2\n      eq\n      tag_503\n      jumpi\n        /* \"#utility.yul\":13970:14490   */\n      jump(tag_501)\n        /* \"#utility.yul\":14003:14140   */\n    tag_502:\n        /* \"#utility.yul\":14087:14091   */\n      0xff\n        /* \"#utility.yul\":14083:14092   */\n      not\n        /* \"#utility.yul\":14072:14081   */\n      dup4\n        /* \"#utility.yul\":14068:14093   */\n      and\n        /* \"#utility.yul\":14063:14066   */\n      dup7\n        /* \"#utility.yul\":14056:14094   */\n      mstore\n        /* \"#utility.yul\":14123:14129   */\n      dup2\n        /* \"#utility.yul\":14118:14121   */\n      dup7\n        /* \"#utility.yul\":14114:14130   */\n      add\n        /* \"#utility.yul\":14107:14130   */\n      swap4\n      pop\n        /* \"#utility.yul\":14003:14140   */\n      jump(tag_501)\n        /* \"#utility.yul\":14149:14490   */\n    tag_503:\n        /* \"#utility.yul\":14216:14254   */\n      tag_504\n        /* \"#utility.yul\":14248:14253   */\n      dup6\n        /* \"#utility.yul\":14216:14254   */\n      tag_505\n      jump\t// in\n    tag_504:\n        /* \"#utility.yul\":14276:14277   */\n      0x00\n        /* \"#utility.yul\":14290:14444   */\n    tag_506:\n        /* \"#utility.yul\":14304:14310   */\n      dup4\n        /* \"#utility.yul\":14301:14302   */\n      dup2\n        /* \"#utility.yul\":14298:14311   */\n      lt\n        /* \"#utility.yul\":14290:14444   */\n      iszero\n      tag_508\n      jumpi\n        /* \"#utility.yul\":14378:14385   */\n      dup2\n        /* \"#utility.yul\":14372:14386   */\n      sload\n        /* \"#utility.yul\":14368:14369   */\n      dup2\n        /* \"#utility.yul\":14363:14366   */\n      dup10\n        /* \"#utility.yul\":14359:14370   */\n      add\n        /* \"#utility.yul\":14352:14387   */\n      mstore\n        /* \"#utility.yul\":14428:14429   */\n      0x01\n        /* \"#utility.yul\":14419:14426   */\n      dup3\n        /* \"#utility.yul\":14415:14430   */\n      add\n        /* \"#utility.yul\":14404:14430   */\n      swap2\n      pop\n        /* \"#utility.yul\":14326:14330   */\n      0x20\n        /* \"#utility.yul\":14323:14324   */\n      dup2\n        /* \"#utility.yul\":14319:14331   */\n      add\n        /* \"#utility.yul\":14314:14331   */\n      swap1\n      pop\n        /* \"#utility.yul\":14290:14444   */\n      jump(tag_506)\n    tag_508:\n        /* \"#utility.yul\":14473:14479   */\n      dup4\n        /* \"#utility.yul\":14468:14471   */\n      dup9\n        /* \"#utility.yul\":14464:14480   */\n      add\n        /* \"#utility.yul\":14457:14480   */\n      swap6\n      pop\n        /* \"#utility.yul\":14156:14490   */\n      pop\n      pop\n        /* \"#utility.yul\":13970:14490   */\n    tag_501:\n      pop\n        /* \"#utility.yul\":13758:14496   */\n      pop\n      pop\n        /* \"#utility.yul\":13651:14496   */\n      swap3\n      swap2\n      pop\n      pop\n      jump\t// out\n        /* \"#utility.yul\":14502:14868   */\n    tag_509:\n        /* \"#utility.yul\":14644:14647   */\n      0x00\n        /* \"#utility.yul\":14665:14732   */\n      tag_511\n        /* \"#utility.yul\":14729:14731   */\n      0x34\n        /* \"#utility.yul\":14724:14727   */\n      dup4\n        /* \"#utility.yul\":14665:14732   */\n      tag_488\n      jump\t// in\n    tag_511:\n        /* \"#utility.yul\":14658:14732   */\n      swap2\n      pop\n        /* \"#utility.yul\":14741:14834   */\n      tag_512\n        /* \"#utility.yul\":14830:14833   */\n      dup3\n        /* \"#utility.yul\":14741:14834   */\n      tag_513\n      jump\t// in\n    tag_512:\n        /* \"#utility.yul\":14859:14861   */\n      0x40\n        /* \"#utility.yul\":14854:14857   */\n      dup3\n        /* \"#utility.yul\":14850:14862   */\n      add\n        /* \"#utility.yul\":14843:14862   */\n      swap1\n      pop\n        /* \"#utility.yul\":14502:14868   */\n      swap2\n      swap1\n      pop\n      jump\t// out\n        /* \"#utility.yul\":14874:15240   */\n    tag_514:\n        /* \"#utility.yul\":15016:15019   */\n      0x00\n        /* \"#utility.yul\":15037:15104   */\n      tag_516\n        /* \"#utility.yul\":15101:15103   */\n      0x2f\n        /* \"#utility.yul\":15096:15099   */\n      dup4\n        /* \"#utility.yul\":15037:15104   */\n      tag_488\n      jump\t// in\n    tag_516:\n        /* \"#utility.yul\":15030:15104   */\n      swap2\n      pop\n        /* \"#utility.yul\":15113:15206   */\n      tag_517\n        /* \"#utility.yul\":15202:15205   */\n      dup3\n        /* \"#utility.yul\":15113:15206   */\n      tag_518\n      jump\t// in\n    tag_517:\n        /* \"#utility.yul\":15231:15233   */\n      0x40\n        /* \"#utility.yul\":15226:15229   */\n      dup3\n        /* \"#utility.yul\":15222:15234   */\n      add\n        /* \"#utility.yul\":15215:15234   */\n      swap1\n      pop\n        /* \"#utility.yul\":14874:15240   */\n      swap2\n      swap1\n      pop\n      jump\t// out\n        /* \"#utility.yul\":15246:15612   */\n    tag_519:\n        /* \"#utility.yul\":15388:15391   */\n      0x00\n        /* \"#utility.yul\":15409:15476   */\n      tag_521\n        /* \"#utility.yul\":15473:15475   */\n      0x28\n        /* \"#utility.yul\":15468:15471   */\n      dup4\n        /* \"#utility.yul\":15409:15476   */\n      tag_488\n      jump\t// in\n    tag_521:\n        /* \"#utility.yul\":15402:15476   */\n      swap2\n      pop\n        /* \"#utility.yul\":15485:15578   */\n      tag_522\n        /* \"#utility.yul\":15574:15577   */\n      dup3\n        /* \"#utility.yul\":15485:15578   */\n      tag_523\n      jump\t// in\n    tag_522:\n        /* \"#utility.yul\":15603:15605   */\n      0x40\n        /* \"#utility.yul\":15598:15601   */\n      dup3\n        /* \"#utility.yul\":15594:15606   */\n      add\n        /* \"#utility.yul\":15587:15606   */\n      swap1\n      pop\n        /* \"#utility.yul\":15246:15612   */\n      swap2\n      swap1\n      pop\n      jump\t// out\n        /* \"#utility.yul\":15618:15984   */\n    tag_524:\n        /* \"#utility.yul\":15760:15763   */\n      0x00\n        /* \"#utility.yul\":15781:15848   */\n      tag_526\n        /* \"#utility.yul\":15845:15847   */\n      0x24\n        /* \"#utility.yul\":15840:15843   */\n      dup4\n        /* \"#utility.yul\":15781:15848   */\n      tag_488\n      jump\t// in\n    tag_526:\n        /* \"#utility.yul\":15774:15848   */\n      swap2\n      pop\n        /* \"#utility.yul\":15857:15950   */\n      tag_527\n        /* \"#utility.yul\":15946:15949   */\n      dup3\n        /* \"#utility.yul\":15857:15950   */\n      tag_528\n      jump\t// in\n    tag_527:\n        /* \"#utility.yul\":15975:15977   */\n      0x40\n        /* \"#utility.yul\":15970:15973   */\n      dup3\n        /* \"#utility.yul\":15966:15978   */\n      add\n        /* \"#utility.yul\":15959:15978   */\n      swap1\n      pop\n        /* \"#utility.yul\":15618:15984   */\n      swap2\n      swap1\n      pop\n      jump\t// out\n        /* \"#utility.yul\":15990:16356   */\n    tag_529:\n        /* \"#utility.yul\":16132:16135   */\n      0x00\n        /* \"#utility.yul\":16153:16220   */\n      tag_531\n        /* \"#utility.yul\":16217:16219   */\n      0x2a\n        /* \"#utility.yul\":16212:16215   */\n      dup4\n        /* \"#utility.yul\":16153:16220   */\n      tag_488\n      jump\t// in\n    tag_531:\n        /* \"#utility.yul\":16146:16220   */\n      swap2\n      pop\n        /* \"#utility.yul\":16229:16322   */\n      tag_532\n        /* \"#utility.yul\":16318:16321   */\n      dup3\n        /* \"#utility.yul\":16229:16322   */\n      tag_533\n      jump\t// in\n    tag_532:\n        /* \"#utility.yul\":16347:16349   */\n      0x40\n        /* \"#utility.yul\":16342:16345   */\n      dup3\n        /* \"#utility.yul\":16338:16350   */\n      add\n        /* \"#utility.yul\":16331:16350   */\n      swap1\n      pop\n        /* \"#utility.yul\":15990:16356   */\n      swap2\n      swap1\n      pop\n      jump\t// out\n        /* \"#utility.yul\":16362:16728   */\n    tag_534:\n        /* \"#utility.yul\":16504:16507   */\n      0x00\n        /* \"#utility.yul\":16525:16592   */\n      tag_536\n        /* \"#utility.yul\":16589:16591   */\n      0x25\n        /* \"#utility.yul\":16584:16587   */\n      dup4\n        /* \"#utility.yul\":16525:16592   */\n      tag_488\n      jump\t// in\n    tag_536:\n        /* \"#utility.yul\":16518:16592   */\n      swap2\n      pop\n        /* \"#utility.yul\":16601:16694   */\n      tag_537\n        /* \"#utility.yul\":16690:16693   */\n      dup3\n        /* \"#utility.yul\":16601:16694   */\n      tag_538\n      jump\t// in\n    tag_537:\n        /* \"#utility.yul\":16719:16721   */\n      0x40\n        /* \"#utility.yul\":16714:16717   */\n      dup3\n        /* \"#utility.yul\":16710:16722   */\n      add\n        /* \"#utility.yul\":16703:16722   */\n      swap1\n      pop\n        /* \"#utility.yul\":16362:16728   */\n      swap2\n      swap1\n      pop\n      jump\t// out\n        /* \"#utility.yul\":16734:17100   */\n    tag_539:\n        /* \"#utility.yul\":16876:16879   */\n      0x00\n        /* \"#utility.yul\":16897:16964   */\n      tag_541\n        /* \"#utility.yul\":16961:16963   */\n      0x23\n        /* \"#utility.yul\":16956:16959   */\n      dup4\n        /* \"#utility.yul\":16897:16964   */\n      tag_488\n      jump\t// in\n    tag_541:\n        /* \"#utility.yul\":16890:16964   */\n      swap2\n      pop\n        /* \"#utility.yul\":16973:17066   */\n      tag_542\n        /* \"#utility.yul\":17062:17065   */\n      dup3\n        /* \"#utility.yul\":16973:17066   */\n      tag_543\n      jump\t// in\n    tag_542:\n        /* \"#utility.yul\":17091:17093   */\n      0x40\n        /* \"#utility.yul\":17086:17089   */\n      dup3\n        /* \"#utility.yul\":17082:17094   */\n      add\n        /* \"#utility.yul\":17075:17094   */\n      swap1\n      pop\n        /* \"#utility.yul\":16734:17100   */\n      swap2\n      swap1\n      pop\n      jump\t// out\n        /* \"#utility.yul\":17106:17472   */\n    tag_544:\n        /* \"#utility.yul\":17248:17251   */\n      0x00\n        /* \"#utility.yul\":17269:17336   */\n      tag_546\n        /* \"#utility.yul\":17333:17335   */\n      0x2a\n        /* \"#utility.yul\":17328:17331   */\n      dup4\n        /* \"#utility.yul\":17269:17336   */\n      tag_488\n      jump\t// in\n    tag_546:\n        /* \"#utility.yul\":17262:17336   */\n      swap2\n      pop\n        /* \"#utility.yul\":17345:17438   */\n      tag_547\n        /* \"#utility.yul\":17434:17437   */\n      dup3\n        /* \"#utility.yul\":17345:17438   */\n      tag_548\n      jump\t// in\n    tag_547:\n        /* \"#utility.yul\":17463:17465   */\n      0x40\n        /* \"#utility.yul\":17458:17461   */\n      dup3\n        /* \"#utility.yul\":17454:17466   */\n      add\n        /* \"#utility.yul\":17447:17466   */\n      swap1\n      pop\n        /* \"#utility.yul\":17106:17472   */\n      swap2\n      swap1\n      pop\n      jump\t// out\n        /* \"#utility.yul\":17478:17844   */\n    tag_549:\n        /* \"#utility.yul\":17620:17623   */\n      0x00\n        /* \"#utility.yul\":17641:17708   */\n      tag_551\n        /* \"#utility.yul\":17705:17707   */\n      0x29\n        /* \"#utility.yul\":17700:17703   */\n      dup4\n        /* \"#utility.yul\":17641:17708   */\n      tag_488\n      jump\t// in\n    tag_551:\n        /* \"#utility.yul\":17634:17708   */\n      swap2\n      pop\n        /* \"#utility.yul\":17717:17810   */\n      tag_552\n        /* \"#utility.yul\":17806:17809   */\n      dup3\n        /* \"#utility.yul\":17717:17810   */\n      tag_553\n      jump\t// in\n    tag_552:\n        /* \"#utility.yul\":17835:17837   */\n      0x40\n        /* \"#utility.yul\":17830:17833   */\n      dup3\n        /* \"#utility.yul\":17826:17838   */\n      add\n        /* \"#utility.yul\":17819:17838   */\n      swap1\n      pop\n        /* \"#utility.yul\":17478:17844   */\n      swap2\n      swap1\n      pop\n      jump\t// out\n        /* \"#utility.yul\":17850:18216   */\n    tag_554:\n        /* \"#utility.yul\":17992:17995   */\n      0x00\n        /* \"#utility.yul\":18013:18080   */\n      tag_556\n        /* \"#utility.yul\":18077:18079   */\n      0x29\n        /* \"#utility.yul\":18072:18075   */\n      dup4\n        /* \"#utility.yul\":18013:18080   */\n      tag_488\n      jump\t// in\n    tag_556:\n        /* \"#utility.yul\":18006:18080   */\n      swap2\n      pop\n        /* \"#utility.yul\":18089:18182   */\n      tag_557\n        /* \"#utility.yul\":18178:18181   */\n      dup3\n        /* \"#utility.yul\":18089:18182   */\n      tag_558\n      jump\t// in\n    tag_557:\n        /* \"#utility.yul\":18207:18209   */\n      0x40\n        /* \"#utility.yul\":18202:18205   */\n      dup3\n        /* \"#utility.yul\":18198:18210   */\n      add\n        /* \"#utility.yul\":18191:18210   */\n      swap1\n      pop\n        /* \"#utility.yul\":17850:18216   */\n      swap2\n      swap1\n      pop\n      jump\t// out\n        /* \"#utility.yul\":18222:18588   */\n    tag_559:\n        /* \"#utility.yul\":18364:18367   */\n      0x00\n        /* \"#utility.yul\":18385:18452   */\n      tag_561\n        /* \"#utility.yul\":18449:18451   */\n      0x28\n        /* \"#utility.yul\":18444:18447   */\n      dup4\n        /* \"#utility.yul\":18385:18452   */\n      tag_488\n      jump\t// in\n    tag_561:\n        /* \"#utility.yul\":18378:18452   */\n      swap2\n      pop\n        /* \"#utility.yul\":18461:18554   */\n      tag_562\n        /* \"#utility.yul\":18550:18553   */\n      dup3\n        /* \"#utility.yul\":18461:18554   */\n      tag_563\n      jump\t// in\n    tag_562:\n        /* \"#utility.yul\":18579:18581   */\n      0x40\n        /* \"#utility.yul\":18574:18577   */\n      dup3\n        /* \"#utility.yul\":18570:18582   */\n      add\n        /* \"#utility.yul\":18563:18582   */\n      swap1\n      pop\n        /* \"#utility.yul\":18222:18588   */\n      swap2\n      swap1\n      pop\n      jump\t// out\n        /* \"#utility.yul\":18594:18960   */\n    tag_564:\n        /* \"#utility.yul\":18736:18739   */\n      0x00\n        /* \"#utility.yul\":18757:18824   */\n      tag_566\n        /* \"#utility.yul\":18821:18823   */\n      0x21\n        /* \"#utility.yul\":18816:18819   */\n      dup4\n        /* \"#utility.yul\":18757:18824   */\n      tag_488\n      jump\t// in\n    tag_566:\n        /* \"#utility.yul\":18750:18824   */\n      swap2\n      pop\n        /* \"#utility.yul\":18833:18926   */\n      tag_567\n        /* \"#utility.yul\":18922:18925   */\n      dup3\n        /* \"#utility.yul\":18833:18926   */\n      tag_568\n      jump\t// in\n    tag_567:\n        /* \"#utility.yul\":18951:18953   */\n      0x40\n        /* \"#utility.yul\":18946:18949   */\n      dup3\n        /* \"#utility.yul\":18942:18954   */\n      add\n        /* \"#utility.yul\":18935:18954   */\n      swap1\n      pop\n        /* \"#utility.yul\":18594:18960   */\n      swap2\n      swap1\n      pop\n      jump\t// out\n        /* \"#utility.yul\":18966:19074   */\n    tag_450:\n        /* \"#utility.yul\":19043:19067   */\n      tag_570\n        /* \"#utility.yul\":19061:19066   */\n      dup2\n        /* \"#utility.yul\":19043:19067   */\n      tag_571\n      jump\t// in\n    tag_570:\n        /* \"#utility.yul\":19038:19041   */\n      dup3\n        /* \"#utility.yul\":19031:19068   */\n      mstore\n        /* \"#utility.yul\":18966:19074   */\n      pop\n      pop\n      jump\t// out\n        /* \"#utility.yul\":19080:19198   */\n    tag_572:\n        /* \"#utility.yul\":19167:19191   */\n      tag_574\n        /* \"#utility.yul\":19185:19190   */\n      dup2\n        /* \"#utility.yul\":19167:19191   */\n      tag_571\n      jump\t// in\n    tag_574:\n        /* \"#utility.yul\":19162:19165   */\n      dup3\n        /* \"#utility.yul\":19155:19192   */\n      mstore\n        /* \"#utility.yul\":19080:19198   */\n      pop\n      pop\n      jump\t// out\n        /* \"#utility.yul\":19204:19633   */\n    tag_90:\n        /* \"#utility.yul\":19381:19384   */\n      0x00\n        /* \"#utility.yul\":19403:19495   */\n      tag_576\n        /* \"#utility.yul\":19491:19494   */\n      dup3\n        /* \"#utility.yul\":19482:19488   */\n      dup6\n        /* \"#utility.yul\":19403:19495   */\n      tag_497\n      jump\t// in\n    tag_576:\n        /* \"#utility.yul\":19396:19495   */\n      swap2\n      pop\n        /* \"#utility.yul\":19512:19607   */\n      tag_577\n        /* \"#utility.yul\":19603:19606   */\n      dup3\n        /* \"#utility.yul\":19594:19600   */\n      dup5\n        /* \"#utility.yul\":19512:19607   */\n      tag_491\n      jump\t// in\n    tag_577:\n        /* \"#utility.yul\":19505:19607   */\n      swap2\n      pop\n        /* \"#utility.yul\":19624:19627   */\n      dup2\n        /* \"#utility.yul\":19617:19627   */\n      swap1\n      pop\n        /* \"#utility.yul\":19204:19633   */\n      swap4\n      swap3\n      pop\n      pop\n      pop\n      jump\t// out\n        /* \"#utility.yul\":19639:20692   */\n    tag_252:\n        /* \"#utility.yul\":19962:19966   */\n      0x00\n        /* \"#utility.yul\":20000:20003   */\n      0xa0\n        /* \"#utility.yul\":19989:19998   */\n      dup3\n        /* \"#utility.yul\":19985:20004   */\n      add\n        /* \"#utility.yul\":19977:20004   */\n      swap1\n      pop\n        /* \"#utility.yul\":20014:20085   */\n      tag_579\n        /* \"#utility.yul\":20082:20083   */\n      0x00\n        /* \"#utility.yul\":20071:20080   */\n      dup4\n        /* \"#utility.yul\":20067:20084   */\n      add\n        /* \"#utility.yul\":20058:20064   */\n      dup9\n        /* \"#utility.yul\":20014:20085   */\n      tag_451\n      jump\t// in\n    tag_579:\n        /* \"#utility.yul\":20095:20167   */\n      tag_580\n        /* \"#utility.yul\":20163:20165   */\n      0x20\n        /* \"#utility.yul\":20152:20161   */\n      dup4\n        /* \"#utility.yul\":20148:20166   */\n      add\n        /* \"#utility.yul\":20139:20145   */\n      dup8\n        /* \"#utility.yul\":20095:20167   */\n      tag_451\n      jump\t// in\n    tag_580:\n        /* \"#utility.yul\":20214:20223   */\n      dup2\n        /* \"#utility.yul\":20208:20212   */\n      dup2\n        /* \"#utility.yul\":20204:20224   */\n      sub\n        /* \"#utility.yul\":20199:20201   */\n      0x40\n        /* \"#utility.yul\":20188:20197   */\n      dup4\n        /* \"#utility.yul\":20184:20202   */\n      add\n        /* \"#utility.yul\":20177:20225   */\n      mstore\n        /* \"#utility.yul\":20242:20350   */\n      tag_581\n        /* \"#utility.yul\":20345:20349   */\n      dup2\n        /* \"#utility.yul\":20336:20342   */\n      dup7\n        /* \"#utility.yul\":20242:20350   */\n      tag_455\n      jump\t// in\n    tag_581:\n        /* \"#utility.yul\":20234:20350   */\n      swap1\n      pop\n        /* \"#utility.yul\":20397:20406   */\n      dup2\n        /* \"#utility.yul\":20391:20395   */\n      dup2\n        /* \"#utility.yul\":20387:20407   */\n      sub\n        /* \"#utility.yul\":20382:20384   */\n      0x60\n        /* \"#utility.yul\":20371:20380   */\n      dup4\n        /* \"#utility.yul\":20367:20385   */\n      add\n        /* \"#utility.yul\":20360:20408   */\n      mstore\n        /* \"#utility.yul\":20425:20533   */\n      tag_582\n        /* \"#utility.yul\":20528:20532   */\n      dup2\n        /* \"#utility.yul\":20519:20525   */\n      dup6\n        /* \"#utility.yul\":20425:20533   */\n      tag_455\n      jump\t// in\n    tag_582:\n        /* \"#utility.yul\":20417:20533   */\n      swap1\n      pop\n        /* \"#utility.yul\":20581:20590   */\n      dup2\n        /* \"#utility.yul\":20575:20579   */\n      dup2\n        /* \"#utility.yul\":20571:20591   */\n      sub\n        /* \"#utility.yul\":20565:20568   */\n      0x80\n        /* \"#utility.yul\":20554:20563   */\n      dup4\n        /* \"#utility.yul\":20550:20569   */\n      add\n        /* \"#utility.yul\":20543:20592   */\n      mstore\n        /* \"#utility.yul\":20609:20685   */\n      tag_583\n        /* \"#utility.yul\":20680:20684   */\n      dup2\n        /* \"#utility.yul\":20671:20677   */\n      dup5\n        /* \"#utility.yul\":20609:20685   */\n      tag_473\n      jump\t// in\n    tag_583:\n        /* \"#utility.yul\":20601:20685   */\n      swap1\n      pop\n        /* \"#utility.yul\":19639:20692   */\n      swap7\n      swap6\n      pop\n      pop\n      pop\n      pop\n      pop\n      pop\n      jump\t// out\n        /* \"#utility.yul\":20698:21449   */\n    tag_283:\n        /* \"#utility.yul\":20921:20925   */\n      0x00\n        /* \"#utility.yul\":20959:20962   */\n      0xa0\n        /* \"#utility.yul\":20948:20957   */\n      dup3\n        /* \"#utility.yul\":20944:20963   */\n      add\n        /* \"#utility.yul\":20936:20963   */\n      swap1\n      pop\n        /* \"#utility.yul\":20973:21044   */\n      tag_585\n        /* \"#utility.yul\":21041:21042   */\n      0x00\n        /* \"#utility.yul\":21030:21039   */\n      dup4\n        /* \"#utility.yul\":21026:21043   */\n      add\n        /* \"#utility.yul\":21017:21023   */\n      dup9\n        /* \"#utility.yul\":20973:21044   */\n      tag_451\n      jump\t// in\n    tag_585:\n        /* \"#utility.yul\":21054:21126   */\n      tag_586\n        /* \"#utility.yul\":21122:21124   */\n      0x20\n        /* \"#utility.yul\":21111:21120   */\n      dup4\n        /* \"#utility.yul\":21107:21125   */\n      add\n        /* \"#utility.yul\":21098:21104   */\n      dup8\n        /* \"#utility.yul\":21054:21126   */\n      tag_451\n      jump\t// in\n    tag_586:\n        /* \"#utility.yul\":21136:21208   */\n      tag_587\n        /* \"#utility.yul\":21204:21206   */\n      0x40\n        /* \"#utility.yul\":21193:21202   */\n      dup4\n        /* \"#utility.yul\":21189:21207   */\n      add\n        /* \"#utility.yul\":21180:21186   */\n      dup7\n        /* \"#utility.yul\":21136:21208   */\n      tag_572\n      jump\t// in\n    tag_587:\n        /* \"#utility.yul\":21218:21290   */\n      tag_588\n        /* \"#utility.yul\":21286:21288   */\n      0x60\n        /* \"#utility.yul\":21275:21284   */\n      dup4\n        /* \"#utility.yul\":21271:21289   */\n      add\n        /* \"#utility.yul\":21262:21268   */\n      dup6\n        /* \"#utility.yul\":21218:21290   */\n      tag_572\n      jump\t// in\n    tag_588:\n        /* \"#utility.yul\":21338:21347   */\n      dup2\n        /* \"#utility.yul\":21332:21336   */\n      dup2\n        /* \"#utility.yul\":21328:21348   */\n      sub\n        /* \"#utility.yul\":21322:21325   */\n      0x80\n        /* \"#utility.yul\":21311:21320   */\n      dup4\n        /* \"#utility.yul\":21307:21326   */\n      add\n        /* \"#utility.yul\":21300:21349   */\n      mstore\n        /* \"#utility.yul\":21366:21442   */\n      tag_589\n        /* \"#utility.yul\":21437:21441   */\n      dup2\n        /* \"#utility.yul\":21428:21434   */\n      dup5\n        /* \"#utility.yul\":21366:21442   */\n      tag_473\n      jump\t// in\n    tag_589:\n        /* \"#utility.yul\":21358:21442   */\n      swap1\n      pop\n        /* \"#utility.yul\":20698:21449   */\n      swap7\n      swap6\n      pop\n      pop\n      pop\n      pop\n      pop\n      pop\n      jump\t// out\n        /* \"#utility.yul\":21455:21828   */\n    tag_46:\n        /* \"#utility.yul\":21598:21602   */\n      0x00\n        /* \"#utility.yul\":21636:21638   */\n      0x20\n        /* \"#utility.yul\":21625:21634   */\n      dup3\n        /* \"#utility.yul\":21621:21639   */\n      add\n        /* \"#utility.yul\":21613:21639   */\n      swap1\n      pop\n        /* \"#utility.yul\":21685:21694   */\n      dup2\n        /* \"#utility.yul\":21679:21683   */\n      dup2\n        /* \"#utility.yul\":21675:21695   */\n      sub\n        /* \"#utility.yul\":21671:21672   */\n      0x00\n        /* \"#utility.yul\":21660:21669   */\n      dup4\n        /* \"#utility.yul\":21656:21673   */\n      add\n        /* \"#utility.yul\":21649:21696   */\n      mstore\n        /* \"#utility.yul\":21713:21821   */\n      tag_591\n        /* \"#utility.yul\":21816:21820   */\n      dup2\n        /* \"#utility.yul\":21807:21813   */\n      dup5\n        /* \"#utility.yul\":21713:21821   */\n      tag_455\n      jump\t// in\n    tag_591:\n        /* \"#utility.yul\":21705:21821   */\n      swap1\n      pop\n        /* \"#utility.yul\":21455:21828   */\n      swap3\n      swap2\n      pop\n      pop\n      jump\t// out\n        /* \"#utility.yul\":21834:22468   */\n    tag_194:\n        /* \"#utility.yul\":22055:22059   */\n      0x00\n        /* \"#utility.yul\":22093:22095   */\n      0x40\n        /* \"#utility.yul\":22082:22091   */\n      dup3\n        /* \"#utility.yul\":22078:22096   */\n      add\n        /* \"#utility.yul\":22070:22096   */\n      swap1\n      pop\n        /* \"#utility.yul\":22142:22151   */\n      dup2\n        /* \"#utility.yul\":22136:22140   */\n      dup2\n        /* \"#utility.yul\":22132:22152   */\n      sub\n        /* \"#utility.yul\":22128:22129   */\n      0x00\n        /* \"#utility.yul\":22117:22126   */\n      dup4\n        /* \"#utility.yul\":22113:22130   */\n      add\n        /* \"#utility.yul\":22106:22153   */\n      mstore\n        /* \"#utility.yul\":22170:22278   */\n      tag_593\n        /* \"#utility.yul\":22273:22277   */\n      dup2\n        /* \"#utility.yul\":22264:22270   */\n      dup6\n        /* \"#utility.yul\":22170:22278   */\n      tag_455\n      jump\t// in\n    tag_593:\n        /* \"#utility.yul\":22162:22278   */\n      swap1\n      pop\n        /* \"#utility.yul\":22325:22334   */\n      dup2\n        /* \"#utility.yul\":22319:22323   */\n      dup2\n        /* \"#utility.yul\":22315:22335   */\n      sub\n        /* \"#utility.yul\":22310:22312   */\n      0x20\n        /* \"#utility.yul\":22299:22308   */\n      dup4\n        /* \"#utility.yul\":22295:22313   */\n      add\n        /* \"#utility.yul\":22288:22336   */\n      mstore\n        /* \"#utility.yul\":22353:22461   */\n      tag_594\n        /* \"#utility.yul\":22456:22460   */\n      dup2\n        /* \"#utility.yul\":22447:22453   */\n      dup5\n        /* \"#utility.yul\":22353:22461   */\n      tag_455\n      jump\t// in\n    tag_594:\n        /* \"#utility.yul\":22345:22461   */\n      swap1\n      pop\n        /* \"#utility.yul\":21834:22468   */\n      swap4\n      swap3\n      pop\n      pop\n      pop\n      jump\t// out\n        /* \"#utility.yul\":22474:22684   */\n    tag_27:\n        /* \"#utility.yul\":22561:22565   */\n      0x00\n        /* \"#utility.yul\":22599:22601   */\n      0x20\n        /* \"#utility.yul\":22588:22597   */\n      dup3\n        /* \"#utility.yul\":22584:22602   */\n      add\n        /* \"#utility.yul\":22576:22602   */\n      swap1\n      pop\n        /* \"#utility.yul\":22612:22677   */\n      tag_596\n        /* \"#utility.yul\":22674:22675   */\n      0x00\n        /* \"#utility.yul\":22663:22672   */\n      dup4\n        /* \"#utility.yul\":22659:22676   */\n      add\n        /* \"#utility.yul\":22650:22656   */\n      dup5\n        /* \"#utility.yul\":22612:22677   */\n      tag_469\n      jump\t// in\n    tag_596:\n        /* \"#utility.yul\":22474:22684   */\n      swap3\n      swap2\n      pop\n      pop\n      jump\t// out\n        /* \"#utility.yul\":22690:23003   */\n    tag_31:\n        /* \"#utility.yul\":22803:22807   */\n      0x00\n        /* \"#utility.yul\":22841:22843   */\n      0x20\n        /* \"#utility.yul\":22830:22839   */\n      dup3\n        /* \"#utility.yul\":22826:22844   */\n      add\n        /* \"#utility.yul\":22818:22844   */\n      swap1\n      pop\n        /* \"#utility.yul\":22890:22899   */\n      dup2\n        /* \"#utility.yul\":22884:22888   */\n      dup2\n        /* \"#utility.yul\":22880:22900   */\n      sub\n        /* \"#utility.yul\":22876:22877   */\n      0x00\n        /* \"#utility.yul\":22865:22874   */\n      dup4\n        /* \"#utility.yul\":22861:22878   */\n      add\n        /* \"#utility.yul\":22854:22901   */\n      mstore\n        /* \"#utility.yul\":22918:22996   */\n      tag_598\n        /* \"#utility.yul\":22991:22995   */\n      dup2\n        /* \"#utility.yul\":22982:22988   */\n      dup5\n        /* \"#utility.yul\":22918:22996   */\n      tag_483\n      jump\t// in\n    tag_598:\n        /* \"#utility.yul\":22910:22996   */\n      swap1\n      pop\n        /* \"#utility.yul\":22690:23003   */\n      swap3\n      swap2\n      pop\n      pop\n      jump\t// out\n        /* \"#utility.yul\":23009:23428   */\n    tag_268:\n        /* \"#utility.yul\":23175:23179   */\n      0x00\n        /* \"#utility.yul\":23213:23215   */\n      0x20\n        /* \"#utility.yul\":23202:23211   */\n      dup3\n        /* \"#utility.yul\":23198:23216   */\n      add\n        /* \"#utility.yul\":23190:23216   */\n      swap1\n      pop\n        /* \"#utility.yul\":23262:23271   */\n      dup2\n        /* \"#utility.yul\":23256:23260   */\n      dup2\n        /* \"#utility.yul\":23252:23272   */\n      sub\n        /* \"#utility.yul\":23248:23249   */\n      0x00\n        /* \"#utility.yul\":23237:23246   */\n      dup4\n        /* \"#utility.yul\":23233:23250   */\n      add\n        /* \"#utility.yul\":23226:23273   */\n      mstore\n        /* \"#utility.yul\":23290:23421   */\n      tag_600\n        /* \"#utility.yul\":23416:23420   */\n      dup2\n        /* \"#utility.yul\":23290:23421   */\n      tag_509\n      jump\t// in\n    tag_600:\n        /* \"#utility.yul\":23282:23421   */\n      swap1\n      pop\n        /* \"#utility.yul\":23009:23428   */\n      swap2\n      swap1\n      pop\n      jump\t// out\n        /* \"#utility.yul\":23434:23853   */\n    tag_99:\n        /* \"#utility.yul\":23600:23604   */\n      0x00\n        /* \"#utility.yul\":23638:23640   */\n      0x20\n        /* \"#utility.yul\":23627:23636   */\n      dup3\n        /* \"#utility.yul\":23623:23641   */\n      add\n        /* \"#utility.yul\":23615:23641   */\n      swap1\n      pop\n        /* \"#utility.yul\":23687:23696   */\n      dup2\n        /* \"#utility.yul\":23681:23685   */\n      dup2\n        /* \"#utility.yul\":23677:23697   */\n      sub\n        /* \"#utility.yul\":23673:23674   */\n      0x00\n        /* \"#utility.yul\":23662:23671   */\n      dup4\n        /* \"#utility.yul\":23658:23675   */\n      add\n        /* \"#utility.yul\":23651:23698   */\n      mstore\n        /* \"#utility.yul\":23715:23846   */\n      tag_602\n        /* \"#utility.yul\":23841:23845   */\n      dup2\n        /* \"#utility.yul\":23715:23846   */\n      tag_514\n      jump\t// in\n    tag_602:\n        /* \"#utility.yul\":23707:23846   */\n      swap1\n      pop\n        /* \"#utility.yul\":23434:23853   */\n      swap2\n      swap1\n      pop\n      jump\t// out\n        /* \"#utility.yul\":23859:24278   */\n    tag_272:\n        /* \"#utility.yul\":24025:24029   */\n      0x00\n        /* \"#utility.yul\":24063:24065   */\n      0x20\n        /* \"#utility.yul\":24052:24061   */\n      dup3\n        /* \"#utility.yul\":24048:24066   */\n      add\n        /* \"#utility.yul\":24040:24066   */\n      swap1\n      pop\n        /* \"#utility.yul\":24112:24121   */\n      dup2\n        /* \"#utility.yul\":24106:24110   */\n      dup2\n        /* \"#utility.yul\":24102:24122   */\n      sub\n        /* \"#utility.yul\":24098:24099   */\n      0x00\n        /* \"#utility.yul\":24087:24096   */\n      dup4\n        /* \"#utility.yul\":24083:24100   */\n      add\n        /* \"#utility.yul\":24076:24123   */\n      mstore\n        /* \"#utility.yul\":24140:24271   */\n      tag_604\n        /* \"#utility.yul\":24266:24270   */\n      dup2\n        /* \"#utility.yul\":24140:24271   */\n      tag_519\n      jump\t// in\n    tag_604:\n        /* \"#utility.yul\":24132:24271   */\n      swap1\n      pop\n        /* \"#utility.yul\":23859:24278   */\n      swap2\n      swap1\n      pop\n      jump\t// out\n        /* \"#utility.yul\":24284:24703   */\n    tag_242:\n        /* \"#utility.yul\":24450:24454   */\n      0x00\n        /* \"#utility.yul\":24488:24490   */\n      0x20\n        /* \"#utility.yul\":24477:24486   */\n      dup3\n        /* \"#utility.yul\":24473:24491   */\n      add\n        /* \"#utility.yul\":24465:24491   */\n      swap1\n      pop\n        /* \"#utility.yul\":24537:24546   */\n      dup2\n        /* \"#utility.yul\":24531:24535   */\n      dup2\n        /* \"#utility.yul\":24527:24547   */\n      sub\n        /* \"#utility.yul\":24523:24524   */\n      0x00\n        /* \"#utility.yul\":24512:24521   */\n      dup4\n        /* \"#utility.yul\":24508:24525   */\n      add\n        /* \"#utility.yul\":24501:24548   */\n      mstore\n        /* \"#utility.yul\":24565:24696   */\n      tag_606\n        /* \"#utility.yul\":24691:24695   */\n      dup2\n        /* \"#utility.yul\":24565:24696   */\n      tag_524\n      jump\t// in\n    tag_606:\n        /* \"#utility.yul\":24557:24696   */\n      swap1\n      pop\n        /* \"#utility.yul\":24284:24703   */\n      swap2\n      swap1\n      pop\n      jump\t// out\n        /* \"#utility.yul\":24709:25128   */\n    tag_74:\n        /* \"#utility.yul\":24875:24879   */\n      0x00\n        /* \"#utility.yul\":24913:24915   */\n      0x20\n        /* \"#utility.yul\":24902:24911   */\n      dup3\n        /* \"#utility.yul\":24898:24916   */\n      add\n        /* \"#utility.yul\":24890:24916   */\n      swap1\n      pop\n        /* \"#utility.yul\":24962:24971   */\n      dup2\n        /* \"#utility.yul\":24956:24960   */\n      dup2\n        /* \"#utility.yul\":24952:24972   */\n      sub\n        /* \"#utility.yul\":24948:24949   */\n      0x00\n        /* \"#utility.yul\":24937:24946   */\n      dup4\n        /* \"#utility.yul\":24933:24950   */\n      add\n        /* \"#utility.yul\":24926:24973   */\n      mstore\n        /* \"#utility.yul\":24990:25121   */\n      tag_608\n        /* \"#utility.yul\":25116:25120   */\n      dup2\n        /* \"#utility.yul\":24990:25121   */\n      tag_529\n      jump\t// in\n    tag_608:\n        /* \"#utility.yul\":24982:25121   */\n      swap1\n      pop\n        /* \"#utility.yul\":24709:25128   */\n      swap2\n      swap1\n      pop\n      jump\t// out\n        /* \"#utility.yul\":25134:25553   */\n    tag_177:\n        /* \"#utility.yul\":25300:25304   */\n      0x00\n        /* \"#utility.yul\":25338:25340   */\n      0x20\n        /* \"#utility.yul\":25327:25336   */\n      dup3\n        /* \"#utility.yul\":25323:25341   */\n      add\n        /* \"#utility.yul\":25315:25341   */\n      swap1\n      pop\n        /* \"#utility.yul\":25387:25396   */\n      dup2\n        /* \"#utility.yul\":25381:25385   */\n      dup2\n        /* \"#utility.yul\":25377:25397   */\n      sub\n        /* \"#utility.yul\":25373:25374   */\n      0x00\n        /* \"#utility.yul\":25362:25371   */\n      dup4\n        /* \"#utility.yul\":25358:25375   */\n      add\n        /* \"#utility.yul\":25351:25398   */\n      mstore\n        /* \"#utility.yul\":25415:25546   */\n      tag_610\n        /* \"#utility.yul\":25541:25545   */\n      dup2\n        /* \"#utility.yul\":25415:25546   */\n      tag_534\n      jump\t// in\n    tag_610:\n        /* \"#utility.yul\":25407:25546   */\n      swap1\n      pop\n        /* \"#utility.yul\":25134:25553   */\n      swap2\n      swap1\n      pop\n      jump\t// out\n        /* \"#utility.yul\":25559:25978   */\n    tag_235:\n        /* \"#utility.yul\":25725:25729   */\n      0x00\n        /* \"#utility.yul\":25763:25765   */\n      0x20\n        /* \"#utility.yul\":25752:25761   */\n      dup3\n        /* \"#utility.yul\":25748:25766   */\n      add\n        /* \"#utility.yul\":25740:25766   */\n      swap1\n      pop\n        /* \"#utility.yul\":25812:25821   */\n      dup2\n        /* \"#utility.yul\":25806:25810   */\n      dup2\n        /* \"#utility.yul\":25802:25822   */\n      sub\n        /* \"#utility.yul\":25798:25799   */\n      0x00\n        /* \"#utility.yul\":25787:25796   */\n      dup4\n        /* \"#utility.yul\":25783:25800   */\n      add\n        /* \"#utility.yul\":25776:25823   */\n      mstore\n        /* \"#utility.yul\":25840:25971   */\n      tag_612\n        /* \"#utility.yul\":25966:25970   */\n      dup2\n        /* \"#utility.yul\":25840:25971   */\n      tag_539\n      jump\t// in\n    tag_612:\n        /* \"#utility.yul\":25832:25971   */\n      swap1\n      pop\n        /* \"#utility.yul\":25559:25978   */\n      swap2\n      swap1\n      pop\n      jump\t// out\n        /* \"#utility.yul\":25984:26403   */\n    tag_190:\n        /* \"#utility.yul\":26150:26154   */\n      0x00\n        /* \"#utility.yul\":26188:26190   */\n      0x20\n        /* \"#utility.yul\":26177:26186   */\n      dup3\n        /* \"#utility.yul\":26173:26191   */\n      add\n        /* \"#utility.yul\":26165:26191   */\n      swap1\n      pop\n        /* \"#utility.yul\":26237:26246   */\n      dup2\n        /* \"#utility.yul\":26231:26235   */\n      dup2\n        /* \"#utility.yul\":26227:26247   */\n      sub\n        /* \"#utility.yul\":26223:26224   */\n      0x00\n        /* \"#utility.yul\":26212:26221   */\n      dup4\n        /* \"#utility.yul\":26208:26225   */\n      add\n        /* \"#utility.yul\":26201:26248   */\n      mstore\n        /* \"#utility.yul\":26265:26396   */\n      tag_614\n        /* \"#utility.yul\":26391:26395   */\n      dup2\n        /* \"#utility.yul\":26265:26396   */\n      tag_544\n      jump\t// in\n    tag_614:\n        /* \"#utility.yul\":26257:26396   */\n      swap1\n      pop\n        /* \"#utility.yul\":25984:26403   */\n      swap2\n      swap1\n      pop\n      jump\t// out\n        /* \"#utility.yul\":26409:26828   */\n    tag_217:\n        /* \"#utility.yul\":26575:26579   */\n      0x00\n        /* \"#utility.yul\":26613:26615   */\n      0x20\n        /* \"#utility.yul\":26602:26611   */\n      dup3\n        /* \"#utility.yul\":26598:26616   */\n      add\n        /* \"#utility.yul\":26590:26616   */\n      swap1\n      pop\n        /* \"#utility.yul\":26662:26671   */\n      dup2\n        /* \"#utility.yul\":26656:26660   */\n      dup2\n        /* \"#utility.yul\":26652:26672   */\n      sub\n        /* \"#utility.yul\":26648:26649   */\n      0x00\n        /* \"#utility.yul\":26637:26646   */\n      dup4\n        /* \"#utility.yul\":26633:26650   */\n      add\n        /* \"#utility.yul\":26626:26673   */\n      mstore\n        /* \"#utility.yul\":26690:26821   */\n      tag_616\n        /* \"#utility.yul\":26816:26820   */\n      dup2\n        /* \"#utility.yul\":26690:26821   */\n      tag_549\n      jump\t// in\n    tag_616:\n        /* \"#utility.yul\":26682:26821   */\n      swap1\n      pop\n        /* \"#utility.yul\":26409:26828   */\n      swap2\n      swap1\n      pop\n      jump\t// out\n        /* \"#utility.yul\":26834:27253   */\n    tag_105:\n        /* \"#utility.yul\":27000:27004   */\n      0x00\n        /* \"#utility.yul\":27038:27040   */\n      0x20\n        /* \"#utility.yul\":27027:27036   */\n      dup3\n        /* \"#utility.yul\":27023:27041   */\n      add\n        /* \"#utility.yul\":27015:27041   */\n      swap1\n      pop\n        /* \"#utility.yul\":27087:27096   */\n      dup2\n        /* \"#utility.yul\":27081:27085   */\n      dup2\n        /* \"#utility.yul\":27077:27097   */\n      sub\n        /* \"#utility.yul\":27073:27074   */\n      0x00\n        /* \"#utility.yul\":27062:27071   */\n      dup4\n        /* \"#utility.yul\":27058:27075   */\n      add\n        /* \"#utility.yul\":27051:27098   */\n      mstore\n        /* \"#utility.yul\":27115:27246   */\n      tag_618\n        /* \"#utility.yul\":27241:27245   */\n      dup2\n        /* \"#utility.yul\":27115:27246   */\n      tag_554\n      jump\t// in\n    tag_618:\n        /* \"#utility.yul\":27107:27246   */\n      swap1\n      pop\n        /* \"#utility.yul\":26834:27253   */\n      swap2\n      swap1\n      pop\n      jump\t// out\n        /* \"#utility.yul\":27259:27678   */\n    tag_174:\n        /* \"#utility.yul\":27425:27429   */\n      0x00\n        /* \"#utility.yul\":27463:27465   */\n      0x20\n        /* \"#utility.yul\":27452:27461   */\n      dup3\n        /* \"#utility.yul\":27448:27466   */\n      add\n        /* \"#utility.yul\":27440:27466   */\n      swap1\n      pop\n        /* \"#utility.yul\":27512:27521   */\n      dup2\n        /* \"#utility.yul\":27506:27510   */\n      dup2\n        /* \"#utility.yul\":27502:27522   */\n      sub\n        /* \"#utility.yul\":27498:27499   */\n      0x00\n        /* \"#utility.yul\":27487:27496   */\n      dup4\n        /* \"#utility.yul\":27483:27500   */\n      add\n        /* \"#utility.yul\":27476:27523   */\n      mstore\n        /* \"#utility.yul\":27540:27671   */\n      tag_620\n        /* \"#utility.yul\":27666:27670   */\n      dup2\n        /* \"#utility.yul\":27540:27671   */\n      tag_559\n      jump\t// in\n    tag_620:\n        /* \"#utility.yul\":27532:27671   */\n      swap1\n      pop\n        /* \"#utility.yul\":27259:27678   */\n      swap2\n      swap1\n      pop\n      jump\t// out\n        /* \"#utility.yul\":27684:28103   */\n    tag_202:\n        /* \"#utility.yul\":27850:27854   */\n      0x00\n        /* \"#utility.yul\":27888:27890   */\n      0x20\n        /* \"#utility.yul\":27877:27886   */\n      dup3\n        /* \"#utility.yul\":27873:27891   */\n      add\n        /* \"#utility.yul\":27865:27891   */\n      swap1\n      pop\n        /* \"#utility.yul\":27937:27946   */\n      dup2\n        /* \"#utility.yul\":27931:27935   */\n      dup2\n        /* \"#utility.yul\":27927:27947   */\n      sub\n        /* \"#utility.yul\":27923:27924   */\n      0x00\n        /* \"#utility.yul\":27912:27921   */\n      dup4\n        /* \"#utility.yul\":27908:27925   */\n      add\n        /* \"#utility.yul\":27901:27948   */\n      mstore\n        /* \"#utility.yul\":27965:28096   */\n      tag_622\n        /* \"#utility.yul\":28091:28095   */\n      dup2\n        /* \"#utility.yul\":27965:28096   */\n      tag_564\n      jump\t// in\n    tag_622:\n        /* \"#utility.yul\":27957:28096   */\n      swap1\n      pop\n        /* \"#utility.yul\":27684:28103   */\n      swap2\n      swap1\n      pop\n      jump\t// out\n        /* \"#utility.yul\":28109:28331   */\n    tag_21:\n        /* \"#utility.yul\":28202:28206   */\n      0x00\n        /* \"#utility.yul\":28240:28242   */\n      0x20\n        /* \"#utility.yul\":28229:28238   */\n      dup3\n        /* \"#utility.yul\":28225:28243   */\n      add\n        /* \"#utility.yul\":28217:28243   */\n      swap1\n      pop\n        /* \"#utility.yul\":28253:28324   */\n      tag_624\n        /* \"#utility.yul\":28321:28322   */\n      0x00\n        /* \"#utility.yul\":28310:28319   */\n      dup4\n        /* \"#utility.yul\":28306:28323   */\n      add\n        /* \"#utility.yul\":28297:28303   */\n      dup5\n        /* \"#utility.yul\":28253:28324   */\n      tag_572\n      jump\t// in\n    tag_624:\n        /* \"#utility.yul\":28109:28331   */\n      swap3\n      swap2\n      pop\n      pop\n      jump\t// out\n        /* \"#utility.yul\":28337:28669   */\n    tag_210:\n        /* \"#utility.yul\":28458:28462   */\n      0x00\n        /* \"#utility.yul\":28496:28498   */\n      0x40\n        /* \"#utility.yul\":28485:28494   */\n      dup3\n        /* \"#utility.yul\":28481:28499   */\n      add\n        /* \"#utility.yul\":28473:28499   */\n      swap1\n      pop\n        /* \"#utility.yul\":28509:28580   */\n      tag_626\n        /* \"#utility.yul\":28577:28578   */\n      0x00\n        /* \"#utility.yul\":28566:28575   */\n      dup4\n        /* \"#utility.yul\":28562:28579   */\n      add\n        /* \"#utility.yul\":28553:28559   */\n      dup6\n        /* \"#utility.yul\":28509:28580   */\n      tag_572\n      jump\t// in\n    tag_626:\n        /* \"#utility.yul\":28590:28662   */\n      tag_627\n        /* \"#utility.yul\":28658:28660   */\n      0x20\n        /* \"#utility.yul\":28647:28656   */\n      dup4\n        /* \"#utility.yul\":28643:28661   */\n      add\n        /* \"#utility.yul\":28634:28640   */\n      dup5\n        /* \"#utility.yul\":28590:28662   */\n      tag_572\n      jump\t// in\n    tag_627:\n        /* \"#utility.yul\":28337:28669   */\n      swap4\n      swap3\n      pop\n      pop\n      pop\n      jump\t// out\n        /* \"#utility.yul\":28675:28804   */\n    tag_306:\n        /* \"#utility.yul\":28709:28715   */\n      0x00\n        /* \"#utility.yul\":28736:28756   */\n      tag_629\n      tag_630\n      jump\t// in\n    tag_629:\n        /* \"#utility.yul\":28726:28756   */\n      swap1\n      pop\n        /* \"#utility.yul\":28765:28798   */\n      tag_631\n        /* \"#utility.yul\":28793:28797   */\n      dup3\n        /* \"#utility.yul\":28785:28791   */\n      dup3\n        /* \"#utility.yul\":28765:28798   */\n      tag_632\n      jump\t// in\n    tag_631:\n        /* \"#utility.yul\":28675:28804   */\n      swap2\n      swap1\n      pop\n      jump\t// out\n        /* \"#utility.yul\":28810:28885   */\n    tag_630:\n        /* \"#utility.yul\":28843:28849   */\n      0x00\n        /* \"#utility.yul\":28876:28878   */\n      0x40\n        /* \"#utility.yul\":28870:28879   */\n      mload\n        /* \"#utility.yul\":28860:28879   */\n      swap1\n      pop\n        /* \"#utility.yul\":28810:28885   */\n      swap1\n      jump\t// out\n        /* \"#utility.yul\":28891:29202   */\n    tag_305:\n        /* \"#utility.yul\":28968:28972   */\n      0x00\n        /* \"#utility.yul\":29058:29076   */\n      0xffffffffffffffff\n        /* \"#utility.yul\":29050:29056   */\n      dup3\n        /* \"#utility.yul\":29047:29077   */\n      gt\n        /* \"#utility.yul\":29044:29100   */\n      iszero\n      tag_635\n      jumpi\n        /* \"#utility.yul\":29080:29098   */\n      tag_636\n      tag_108\n      jump\t// in\n    tag_636:\n        /* \"#utility.yul\":29044:29100   */\n    tag_635:\n        /* \"#utility.yul\":29130:29134   */\n      0x20\n        /* \"#utility.yul\":29122:29128   */\n      dup3\n        /* \"#utility.yul\":29118:29135   */\n      mul\n        /* \"#utility.yul\":29110:29135   */\n      swap1\n      pop\n        /* \"#utility.yul\":29190:29194   */\n      0x20\n        /* \"#utility.yul\":29184:29188   */\n      dup2\n        /* \"#utility.yul\":29180:29195   */\n      add\n        /* \"#utility.yul\":29172:29195   */\n      swap1\n      pop\n        /* \"#utility.yul\":28891:29202   */\n      swap2\n      swap1\n      pop\n      jump\t// out\n        /* \"#utility.yul\":29208:29519   */\n    tag_319:\n        /* \"#utility.yul\":29285:29289   */\n      0x00\n        /* \"#utility.yul\":29375:29393   */\n      0xffffffffffffffff\n        /* \"#utility.yul\":29367:29373   */\n      dup3\n        /* \"#utility.yul\":29364:29394   */\n      gt\n        /* \"#utility.yul\":29361:29417   */\n      iszero\n      tag_638\n      jumpi\n        /* \"#utility.yul\":29397:29415   */\n      tag_639\n      tag_108\n      jump\t// in\n    tag_639:\n        /* \"#utility.yul\":29361:29417   */\n    tag_638:\n        /* \"#utility.yul\":29447:29451   */\n      0x20\n        /* \"#utility.yul\":29439:29445   */\n      dup3\n        /* \"#utility.yul\":29435:29452   */\n      mul\n        /* \"#utility.yul\":29427:29452   */\n      swap1\n      pop\n        /* \"#utility.yul\":29507:29511   */\n      0x20\n        /* \"#utility.yul\":29501:29505   */\n      dup2\n        /* \"#utility.yul\":29497:29512   */\n      add\n        /* \"#utility.yul\":29489:29512   */\n      swap1\n      pop\n        /* \"#utility.yul\":29208:29519   */\n      swap2\n      swap1\n      pop\n      jump\t// out\n        /* \"#utility.yul\":29525:29832   */\n    tag_331:\n        /* \"#utility.yul\":29586:29590   */\n      0x00\n        /* \"#utility.yul\":29676:29694   */\n      0xffffffffffffffff\n        /* \"#utility.yul\":29668:29674   */\n      dup3\n        /* \"#utility.yul\":29665:29695   */\n      gt\n        /* \"#utility.yul\":29662:29718   */\n      iszero\n      tag_641\n      jumpi\n        /* \"#utility.yul\":29698:29716   */\n      tag_642\n      tag_108\n      jump\t// in\n    tag_642:\n        /* \"#utility.yul\":29662:29718   */\n    tag_641:\n        /* \"#utility.yul\":29736:29765   */\n      tag_643\n        /* \"#utility.yul\":29758:29764   */\n      dup3\n        /* \"#utility.yul\":29736:29765   */\n      tag_482\n      jump\t// in\n    tag_643:\n        /* \"#utility.yul\":29728:29765   */\n      swap1\n      pop\n        /* \"#utility.yul\":29820:29824   */\n      0x20\n        /* \"#utility.yul\":29814:29818   */\n      dup2\n        /* \"#utility.yul\":29810:29825   */\n      add\n        /* \"#utility.yul\":29802:29825   */\n      swap1\n      pop\n        /* \"#utility.yul\":29525:29832   */\n      swap2\n      swap1\n      pop\n      jump\t// out\n        /* \"#utility.yul\":29838:29970   */\n    tag_462:\n        /* \"#utility.yul\":29905:29909   */\n      0x00\n        /* \"#utility.yul\":29928:29931   */\n      dup2\n        /* \"#utility.yul\":29920:29931   */\n      swap1\n      pop\n        /* \"#utility.yul\":29958:29962   */\n      0x20\n        /* \"#utility.yul\":29953:29956   */\n      dup3\n        /* \"#utility.yul\":29949:29963   */\n      add\n        /* \"#utility.yul\":29941:29963   */\n      swap1\n      pop\n        /* \"#utility.yul\":29838:29970   */\n      swap2\n      swap1\n      pop\n      jump\t// out\n        /* \"#utility.yul\":29976:30117   */\n    tag_505:\n        /* \"#utility.yul\":30025:30029   */\n      0x00\n        /* \"#utility.yul\":30048:30051   */\n      dup2\n        /* \"#utility.yul\":30040:30051   */\n      swap1\n      pop\n        /* \"#utility.yul\":30071:30074   */\n      dup2\n        /* \"#utility.yul\":30068:30069   */\n      0x00\n        /* \"#utility.yul\":30061:30075   */\n      mstore\n        /* \"#utility.yul\":30105:30109   */\n      0x20\n        /* \"#utility.yul\":30102:30103   */\n      0x00\n        /* \"#utility.yul\":30092:30110   */\n      keccak256\n        /* \"#utility.yul\":30084:30110   */\n      swap1\n      pop\n        /* \"#utility.yul\":29976:30117   */\n      swap2\n      swap1\n      pop\n      jump\t// out\n        /* \"#utility.yul\":30123:30237   */\n    tag_458:\n        /* \"#utility.yul\":30190:30196   */\n      0x00\n        /* \"#utility.yul\":30224:30229   */\n      dup2\n        /* \"#utility.yul\":30218:30230   */\n      mload\n        /* \"#utility.yul\":30208:30230   */\n      swap1\n      pop\n        /* \"#utility.yul\":30123:30237   */\n      swap2\n      swap1\n      pop\n      jump\t// out\n        /* \"#utility.yul\":30243:30341   */\n    tag_476:\n        /* \"#utility.yul\":30294:30300   */\n      0x00\n        /* \"#utility.yul\":30328:30333   */\n      dup2\n        /* \"#utility.yul\":30322:30334   */\n      mload\n        /* \"#utility.yul\":30312:30334   */\n      swap1\n      pop\n        /* \"#utility.yul\":30243:30341   */\n      swap2\n      swap1\n      pop\n      jump\t// out\n        /* \"#utility.yul\":30347:30446   */\n    tag_486:\n        /* \"#utility.yul\":30399:30405   */\n      0x00\n        /* \"#utility.yul\":30433:30438   */\n      dup2\n        /* \"#utility.yul\":30427:30439   */\n      mload\n        /* \"#utility.yul\":30417:30439   */\n      swap1\n      pop\n        /* \"#utility.yul\":30347:30446   */\n      swap2\n      swap1\n      pop\n      jump\t// out\n        /* \"#utility.yul\":30452:30565   */\n    tag_468:\n        /* \"#utility.yul\":30522:30526   */\n      0x00\n        /* \"#utility.yul\":30554:30558   */\n      0x20\n        /* \"#utility.yul\":30549:30552   */\n      dup3\n        /* \"#utility.yul\":30545:30559   */\n      add\n        /* \"#utility.yul\":30537:30559   */\n      swap1\n      pop\n        /* \"#utility.yul\":30452:30565   */\n      swap2\n      swap1\n      pop\n      jump\t// out\n        /* \"#utility.yul\":30571:30755   */\n    tag_460:\n        /* \"#utility.yul\":30670:30681   */\n      0x00\n        /* \"#utility.yul\":30704:30710   */\n      dup3\n        /* \"#utility.yul\":30699:30702   */\n      dup3\n        /* \"#utility.yul\":30692:30711   */\n      mstore\n        /* \"#utility.yul\":30744:30748   */\n      0x20\n        /* \"#utility.yul\":30739:30742   */\n      dup3\n        /* \"#utility.yul\":30735:30749   */\n      add\n        /* \"#utility.yul\":30720:30749   */\n      swap1\n      pop\n        /* \"#utility.yul\":30571:30755   */\n      swap3\n      swap2\n      pop\n      pop\n      jump\t// out\n        /* \"#utility.yul\":30761:30929   */\n    tag_478:\n        /* \"#utility.yul\":30844:30855   */\n      0x00\n        /* \"#utility.yul\":30878:30884   */\n      dup3\n        /* \"#utility.yul\":30873:30876   */\n      dup3\n        /* \"#utility.yul\":30866:30885   */\n      mstore\n        /* \"#utility.yul\":30918:30922   */\n      0x20\n        /* \"#utility.yul\":30913:30916   */\n      dup3\n        /* \"#utility.yul\":30909:30923   */\n      add\n        /* \"#utility.yul\":30894:30923   */\n      swap1\n      pop\n        /* \"#utility.yul\":30761:30929   */\n      swap3\n      swap2\n      pop\n      pop\n      jump\t// out\n        /* \"#utility.yul\":30935:31104   */\n    tag_488:\n        /* \"#utility.yul\":31019:31030   */\n      0x00\n        /* \"#utility.yul\":31053:31059   */\n      dup3\n        /* \"#utility.yul\":31048:31051   */\n      dup3\n        /* \"#utility.yul\":31041:31060   */\n      mstore\n        /* \"#utility.yul\":31093:31097   */\n      0x20\n        /* \"#utility.yul\":31088:31091   */\n      dup3\n        /* \"#utility.yul\":31084:31098   */\n      add\n        /* \"#utility.yul\":31069:31098   */\n      swap1\n      pop\n        /* \"#utility.yul\":30935:31104   */\n      swap3\n      swap2\n      pop\n      pop\n      jump\t// out\n        /* \"#utility.yul\":31110:31258   */\n    tag_495:\n        /* \"#utility.yul\":31212:31223   */\n      0x00\n        /* \"#utility.yul\":31249:31252   */\n      dup2\n        /* \"#utility.yul\":31234:31252   */\n      swap1\n      pop\n        /* \"#utility.yul\":31110:31258   */\n      swap3\n      swap2\n      pop\n      pop\n      jump\t// out\n        /* \"#utility.yul\":31264:31569   */\n    tag_166:\n        /* \"#utility.yul\":31304:31307   */\n      0x00\n        /* \"#utility.yul\":31323:31343   */\n      tag_655\n        /* \"#utility.yul\":31341:31342   */\n      dup3\n        /* \"#utility.yul\":31323:31343   */\n      tag_571\n      jump\t// in\n    tag_655:\n        /* \"#utility.yul\":31318:31343   */\n      swap2\n      pop\n        /* \"#utility.yul\":31357:31377   */\n      tag_656\n        /* \"#utility.yul\":31375:31376   */\n      dup4\n        /* \"#utility.yul\":31357:31377   */\n      tag_571\n      jump\t// in\n    tag_656:\n        /* \"#utility.yul\":31352:31377   */\n      swap3\n      pop\n        /* \"#utility.yul\":31511:31512   */\n      dup3\n        /* \"#utility.yul\":31443:31509   */\n      0xffffffffffffffffffffffffffffffffffffffffffffffffffffffffffffffff\n        /* \"#utility.yul\":31439:31513   */\n      sub\n        /* \"#utility.yul\":31436:31437   */\n      dup3\n        /* \"#utility.yul\":31433:31514   */\n      gt\n        /* \"#utility.yul\":31430:31537   */\n      iszero\n      tag_657\n      jumpi\n        /* \"#utility.yul\":31517:31535   */\n      tag_658\n      tag_659\n      jump\t// in\n    tag_658:\n        /* \"#utility.yul\":31430:31537   */\n    tag_657:\n        /* \"#utility.yul\":31561:31562   */\n      dup3\n        /* \"#utility.yul\":31558:31559   */\n      dup3\n        /* \"#utility.yul\":31554:31563   */\n      add\n        /* \"#utility.yul\":31547:31563   */\n      swap1\n      pop\n        /* \"#utility.yul\":31264:31569   */\n      swap3\n      swap2\n      pop\n      pop\n      jump\t// out\n        /* \"#utility.yul\":31575:31760   */\n    tag_155:\n        /* \"#utility.yul\":31615:31616   */\n      0x00\n        /* \"#utility.yul\":31632:31652   */\n      tag_661\n        /* \"#utility.yul\":31650:31651   */\n      dup3\n        /* \"#utility.yul\":31632:31652   */\n      tag_571\n      jump\t// in\n    tag_661:\n        /* \"#utility.yul\":31627:31652   */\n      swap2\n      pop\n        /* \"#utility.yul\":31666:31686   */\n      tag_662\n        /* \"#utility.yul\":31684:31685   */\n      dup4\n        /* \"#utility.yul\":31666:31686   */\n      tag_571\n      jump\t// in\n    tag_662:\n        /* \"#utility.yul\":31661:31686   */\n      swap3\n      pop\n        /* \"#utility.yul\":31705:31706   */\n      dup3\n        /* \"#utility.yul\":31695:31730   */\n      tag_663\n      jumpi\n        /* \"#utility.yul\":31710:31728   */\n      tag_664\n      tag_665\n      jump\t// in\n    tag_664:\n        /* \"#utility.yul\":31695:31730   */\n    tag_663:\n        /* \"#utility.yul\":31752:31753   */\n      dup3\n        /* \"#utility.yul\":31749:31750   */\n      dup3\n        /* \"#utility.yul\":31745:31754   */\n      div\n        /* \"#utility.yul\":31740:31754   */\n      swap1\n      pop\n        /* \"#utility.yul\":31575:31760   */\n      swap3\n      swap2\n      pop\n      pop\n      jump\t// out\n        /* \"#utility.yul\":31766:31957   */\n    tag_162:\n        /* \"#utility.yul\":31806:31810   */\n      0x00\n        /* \"#utility.yul\":31826:31846   */\n      tag_667\n        /* \"#utility.yul\":31844:31845   */\n      dup3\n        /* \"#utility.yul\":31826:31846   */\n      tag_571\n      jump\t// in\n    tag_667:\n        /* \"#utility.yul\":31821:31846   */\n      swap2\n      pop\n        /* \"#utility.yul\":31860:31880   */\n      tag_668\n        /* \"#utility.yul\":31878:31879   */\n      dup4\n        /* \"#utility.yul\":31860:31880   */\n      tag_571\n      jump\t// in\n    tag_668:\n        /* \"#utility.yul\":31855:31880   */\n      swap3\n      pop\n        /* \"#utility.yul\":31899:31900   */\n      dup3\n        /* \"#utility.yul\":31896:31897   */\n      dup3\n        /* \"#utility.yul\":31893:31901   */\n      lt\n        /* \"#utility.yul\":31890:31924   */\n      iszero\n      tag_669\n      jumpi\n        /* \"#utility.yul\":31904:31922   */\n      tag_670\n      tag_659\n      jump\t// in\n    tag_670:\n        /* \"#utility.yul\":31890:31924   */\n    tag_669:\n        /* \"#utility.yul\":31949:31950   */\n      dup3\n        /* \"#utility.yul\":31946:31947   */\n      dup3\n        /* \"#utility.yul\":31942:31951   */\n      sub\n        /* \"#utility.yul\":31934:31951   */\n      swap1\n      pop\n        /* \"#utility.yul\":31766:31957   */\n      swap3\n      swap2\n      pop\n      pop\n      jump\t// out\n        /* \"#utility.yul\":31963:32059   */\n    tag_454:\n        /* \"#utility.yul\":32000:32007   */\n      0x00\n        /* \"#utility.yul\":32029:32053   */\n      tag_672\n        /* \"#utility.yul\":32047:32052   */\n      dup3\n        /* \"#utility.yul\":32029:32053   */\n      tag_673\n      jump\t// in\n    tag_672:\n        /* \"#utility.yul\":32018:32053   */\n      swap1\n      pop\n        /* \"#utility.yul\":31963:32059   */\n      swap2\n      swap1\n      pop\n      jump\t// out\n        /* \"#utility.yul\":32065:32155   */\n    tag_472:\n        /* \"#utility.yul\":32099:32106   */\n      0x00\n        /* \"#utility.yul\":32142:32147   */\n      dup2\n        /* \"#utility.yul\":32135:32148   */\n      iszero\n        /* \"#utility.yul\":32128:32149   */\n      iszero\n        /* \"#utility.yul\":32117:32149   */\n      swap1\n      pop\n        /* \"#utility.yul\":32065:32155   */\n      swap2\n      swap1\n      pop\n      jump\t// out\n        /* \"#utility.yul\":32161:32310   */\n    tag_675:\n        /* \"#utility.yul\":32197:32204   */\n      0x00\n        /* \"#utility.yul\":32237:32303   */\n      0xffffffff00000000000000000000000000000000000000000000000000000000\n        /* \"#utility.yul\":32230:32235   */\n      dup3\n        /* \"#utility.yul\":32226:32304   */\n      and\n        /* \"#utility.yul\":32215:32304   */\n      swap1\n      pop\n        /* \"#utility.yul\":32161:32310   */\n      swap2\n      swap1\n      pop\n      jump\t// out\n        /* \"#utility.yul\":32316:32442   */\n    tag_673:\n        /* \"#utility.yul\":32353:32360   */\n      0x00\n        /* \"#utility.yul\":32393:32435   */\n      0xffffffffffffffffffffffffffffffffffffffff\n        /* \"#utility.yul\":32386:32391   */\n      dup3\n        /* \"#utility.yul\":32382:32436   */\n      and\n        /* \"#utility.yul\":32371:32436   */\n      swap1\n      pop\n        /* \"#utility.yul\":32316:32442   */\n      swap2\n      swap1\n      pop\n      jump\t// out\n        /* \"#utility.yul\":32448:32525   */\n    tag_571:\n        /* \"#utility.yul\":32485:32492   */\n      0x00\n        /* \"#utility.yul\":32514:32519   */\n      dup2\n        /* \"#utility.yul\":32503:32519   */\n      swap1\n      pop\n        /* \"#utility.yul\":32448:32525   */\n      swap2\n      swap1\n      pop\n      jump\t// out\n        /* \"#utility.yul\":32531:32685   */\n    tag_336:\n        /* \"#utility.yul\":32615:32621   */\n      dup3\n        /* \"#utility.yul\":32610:32613   */\n      dup2\n        /* \"#utility.yul\":32605:32608   */\n      dup4\n        /* \"#utility.yul\":32592:32622   */\n      calldatacopy\n        /* \"#utility.yul\":32677:32678   */\n      0x00\n        /* \"#utility.yul\":32668:32674   */\n      dup4\n        /* \"#utility.yul\":32663:32666   */\n      dup4\n        /* \"#utility.yul\":32659:32675   */\n      add\n        /* \"#utility.yul\":32652:32679   */\n      mstore\n        /* \"#utility.yul\":32531:32685   */\n      pop\n      pop\n      pop\n      jump\t// out\n        /* \"#utility.yul\":32691:32998   */\n    tag_480:\n        /* \"#utility.yul\":32759:32760   */\n      0x00\n        /* \"#utility.yul\":32769:32882   */\n    tag_681:\n        /* \"#utility.yul\":32783:32789   */\n      dup4\n        /* \"#utility.yul\":32780:32781   */\n      dup2\n        /* \"#utility.yul\":32777:32790   */\n      lt\n        /* \"#utility.yul\":32769:32882   */\n      iszero\n      tag_683\n      jumpi\n        /* \"#utility.yul\":32868:32869   */\n      dup1\n        /* \"#utility.yul\":32863:32866   */\n      dup3\n        /* \"#utility.yul\":32859:32870   */\n      add\n        /* \"#utility.yul\":32853:32871   */\n      mload\n        /* \"#utility.yul\":32849:32850   */\n      dup2\n        /* \"#utility.yul\":32844:32847   */\n      dup5\n        /* \"#utility.yul\":32840:32851   */\n      add\n        /* \"#utility.yul\":32833:32872   */\n      mstore\n        /* \"#utility.yul\":32805:32807   */\n      0x20\n        /* \"#utility.yul\":32802:32803   */\n      dup2\n        /* \"#utility.yul\":32798:32808   */\n      add\n        /* \"#utility.yul\":32793:32808   */\n      swap1\n      pop\n        /* \"#utility.yul\":32769:32882   */\n      jump(tag_681)\n    tag_683:\n        /* \"#utility.yul\":32900:32906   */\n      dup4\n        /* \"#utility.yul\":32897:32898   */\n      dup2\n        /* \"#utility.yul\":32894:32907   */\n      gt\n        /* \"#utility.yul\":32891:32992   */\n      iszero\n      tag_684\n      jumpi\n        /* \"#utility.yul\":32980:32981   */\n      0x00\n        /* \"#utility.yul\":32971:32977   */\n      dup5\n        /* \"#utility.yul\":32966:32969   */\n      dup5\n        /* \"#utility.yul\":32962:32978   */\n      add\n        /* \"#utility.yul\":32955:32982   */\n      mstore\n        /* \"#utility.yul\":32891:32992   */\n    tag_684:\n        /* \"#utility.yul\":32740:32998   */\n      pop\n        /* \"#utility.yul\":32691:32998   */\n      pop\n      pop\n      pop\n      jump\t// out\n        /* \"#utility.yul\":33004:33324   */\n    tag_81:\n        /* \"#utility.yul\":33048:33054   */\n      0x00\n        /* \"#utility.yul\":33085:33086   */\n      0x02\n        /* \"#utility.yul\":33079:33083   */\n      dup3\n        /* \"#utility.yul\":33075:33087   */\n      div\n        /* \"#utility.yul\":33065:33087   */\n      swap1\n      pop\n        /* \"#utility.yul\":33132:33133   */\n      0x01\n        /* \"#utility.yul\":33126:33130   */\n      dup3\n        /* \"#utility.yul\":33122:33134   */\n      and\n        /* \"#utility.yul\":33153:33171   */\n      dup1\n        /* \"#utility.yul\":33143:33224   */\n      tag_686\n      jumpi\n        /* \"#utility.yul\":33209:33213   */\n      0x7f\n        /* \"#utility.yul\":33201:33207   */\n      dup3\n        /* \"#utility.yul\":33197:33214   */\n      and\n        /* \"#utility.yul\":33187:33214   */\n      swap2\n      pop\n        /* \"#utility.yul\":33143:33224   */\n    tag_686:\n        /* \"#utility.yul\":33271:33273   */\n      0x20\n        /* \"#utility.yul\":33263:33269   */\n      dup3\n        /* \"#utility.yul\":33260:33274   */\n      lt\n        /* \"#utility.yul\":33240:33258   */\n      dup2\n        /* \"#utility.yul\":33237:33275   */\n      eq\n        /* \"#utility.yul\":33234:33318   */\n      iszero\n      tag_687\n      jumpi\n        /* \"#utility.yul\":33290:33308   */\n      tag_688\n      tag_689\n      jump\t// in\n    tag_688:\n        /* \"#utility.yul\":33234:33318   */\n    tag_687:\n        /* \"#utility.yul\":33055:33324   */\n      pop\n        /* \"#utility.yul\":33004:33324   */\n      swap2\n      swap1\n      pop\n      jump\t// out\n        /* \"#utility.yul\":33330:33611   */\n    tag_632:\n        /* \"#utility.yul\":33413:33440   */\n      tag_691\n        /* \"#utility.yul\":33435:33439   */\n      dup3\n        /* \"#utility.yul\":33413:33440   */\n      tag_482\n      jump\t// in\n    tag_691:\n        /* \"#utility.yul\":33405:33411   */\n      dup2\n        /* \"#utility.yul\":33401:33441   */\n      add\n        /* \"#utility.yul\":33543:33549   */\n      dup2\n        /* \"#utility.yul\":33531:33541   */\n      dup2\n        /* \"#utility.yul\":33528:33550   */\n      lt\n        /* \"#utility.yul\":33507:33525   */\n      0xffffffffffffffff\n        /* \"#utility.yul\":33495:33505   */\n      dup3\n        /* \"#utility.yul\":33492:33526   */\n      gt\n        /* \"#utility.yul\":33489:33551   */\n      or\n        /* \"#utility.yul\":33486:33574   */\n      iszero\n      tag_692\n      jumpi\n        /* \"#utility.yul\":33554:33572   */\n      tag_693\n      tag_108\n      jump\t// in\n    tag_693:\n        /* \"#utility.yul\":33486:33574   */\n    tag_692:\n        /* \"#utility.yul\":33594:33604   */\n      dup1\n        /* \"#utility.yul\":33590:33592   */\n      0x40\n        /* \"#utility.yul\":33583:33605   */\n      mstore\n        /* \"#utility.yul\":33373:33611   */\n      pop\n        /* \"#utility.yul\":33330:33611   */\n      pop\n      pop\n      jump\t// out\n        /* \"#utility.yul\":33617:33850   */\n    tag_122:\n        /* \"#utility.yul\":33656:33659   */\n      0x00\n        /* \"#utility.yul\":33679:33703   */\n      tag_695\n        /* \"#utility.yul\":33697:33702   */\n      dup3\n        /* \"#utility.yul\":33679:33703   */\n      tag_571\n      jump\t// in\n    tag_695:\n        /* \"#utility.yul\":33670:33703   */\n      swap2\n      pop\n        /* \"#utility.yul\":33725:33791   */\n      0xffffffffffffffffffffffffffffffffffffffffffffffffffffffffffffffff\n        /* \"#utility.yul\":33718:33723   */\n      dup3\n        /* \"#utility.yul\":33715:33792   */\n      eq\n        /* \"#utility.yul\":33712:33815   */\n      iszero\n      tag_696\n      jumpi\n        /* \"#utility.yul\":33795:33813   */\n      tag_697\n      tag_659\n      jump\t// in\n    tag_697:\n        /* \"#utility.yul\":33712:33815   */\n    tag_696:\n        /* \"#utility.yul\":33842:33843   */\n      0x01\n        /* \"#utility.yul\":33835:33840   */\n      dup3\n        /* \"#utility.yul\":33831:33844   */\n      add\n        /* \"#utility.yul\":33824:33844   */\n      swap1\n      pop\n        /* \"#utility.yul\":33617:33850   */\n      swap2\n      swap1\n      pop\n      jump\t// out\n        /* \"#utility.yul\":33856:34032   */\n    tag_164:\n        /* \"#utility.yul\":33888:33889   */\n      0x00\n        /* \"#utility.yul\":33905:33925   */\n      tag_699\n        /* \"#utility.yul\":33923:33924   */\n      dup3\n        /* \"#utility.yul\":33905:33925   */\n      tag_571\n      jump\t// in\n    tag_699:\n        /* \"#utility.yul\":33900:33925   */\n      swap2\n      pop\n        /* \"#utility.yul\":33939:33959   */\n      tag_700\n        /* \"#utility.yul\":33957:33958   */\n      dup4\n        /* \"#utility.yul\":33939:33959   */\n      tag_571\n      jump\t// in\n    tag_700:\n        /* \"#utility.yul\":33934:33959   */\n      swap3\n      pop\n        /* \"#utility.yul\":33978:33979   */\n      dup3\n        /* \"#utility.yul\":33968:34003   */\n      tag_701\n      jumpi\n        /* \"#utility.yul\":33983:34001   */\n      tag_702\n      tag_665\n      jump\t// in\n    tag_702:\n        /* \"#utility.yul\":33968:34003   */\n    tag_701:\n        /* \"#utility.yul\":34024:34025   */\n      dup3\n        /* \"#utility.yul\":34021:34022   */\n      dup3\n        /* \"#utility.yul\":34017:34026   */\n      mod\n        /* \"#utility.yul\":34012:34026   */\n      swap1\n      pop\n        /* \"#utility.yul\":33856:34032   */\n      swap3\n      swap2\n      pop\n      pop\n      jump\t// out\n        /* \"#utility.yul\":34038:34218   */\n    tag_659:\n        /* \"#utility.yul\":34086:34163   */\n      0x4e487b7100000000000000000000000000000000000000000000000000000000\n        /* \"#utility.yul\":34083:34084   */\n      0x00\n        /* \"#utility.yul\":34076:34164   */\n      mstore\n        /* \"#utility.yul\":34183:34187   */\n      0x11\n        /* \"#utility.yul\":34180:34181   */\n      0x04\n        /* \"#utility.yul\":34173:34188   */\n      mstore\n        /* \"#utility.yul\":34207:34211   */\n      0x24\n        /* \"#utility.yul\":34204:34205   */\n      0x00\n        /* \"#utility.yul\":34197:34212   */\n      revert\n        /* \"#utility.yul\":34224:34404   */\n    tag_665:\n        /* \"#utility.yul\":34272:34349   */\n      0x4e487b7100000000000000000000000000000000000000000000000000000000\n        /* \"#utility.yul\":34269:34270   */\n      0x00\n        /* \"#utility.yul\":34262:34350   */\n      mstore\n        /* \"#utility.yul\":34369:34373   */\n      0x12\n        /* \"#utility.yul\":34366:34367   */\n      0x04\n        /* \"#utility.yul\":34359:34374   */\n      mstore\n        /* \"#utility.yul\":34393:34397   */\n      0x24\n        /* \"#utility.yul\":34390:34391   */\n      0x00\n        /* \"#utility.yul\":34383:34398   */\n      revert\n        /* \"#utility.yul\":34410:34590   */\n    tag_689:\n        /* \"#utility.yul\":34458:34535   */\n      0x4e487b7100000000000000000000000000000000000000000000000000000000\n        /* \"#utility.yul\":34455:34456   */\n      0x00\n        /* \"#utility.yul\":34448:34536   */\n      mstore\n        /* \"#utility.yul\":34555:34559   */\n      0x22\n        /* \"#utility.yul\":34552:34553   */\n      0x04\n        /* \"#utility.yul\":34545:34560   */\n      mstore\n        /* \"#utility.yul\":34579:34583   */\n      0x24\n        /* \"#utility.yul\":34576:34577   */\n      0x00\n        /* \"#utility.yul\":34569:34584   */\n      revert\n        /* \"#utility.yul\":34596:34776   */\n    tag_116:\n        /* \"#utility.yul\":34644:34721   */\n      0x4e487b7100000000000000000000000000000000000000000000000000000000\n        /* \"#utility.yul\":34641:34642   */\n      0x00\n        /* \"#utility.yul\":34634:34722   */\n      mstore\n        /* \"#utility.yul\":34741:34745   */\n      0x32\n        /* \"#utility.yul\":34738:34739   */\n      0x04\n        /* \"#utility.yul\":34731:34746   */\n      mstore\n        /* \"#utility.yul\":34765:34769   */\n      0x24\n        /* \"#utility.yul\":34762:34763   */\n      0x00\n        /* \"#utility.yul\":34755:34770   */\n      revert\n        /* \"#utility.yul\":34782:34962   */\n    tag_108:\n        /* \"#utility.yul\":34830:34907   */\n      0x4e487b7100000000000000000000000000000000000000000000000000000000\n        /* \"#utility.yul\":34827:34828   */\n      0x00\n        /* \"#utility.yul\":34820:34908   */\n      mstore\n        /* \"#utility.yul\":34927:34931   */\n      0x41\n        /* \"#utility.yul\":34924:34925   */\n      0x04\n        /* \"#utility.yul\":34917:34932   */\n      mstore\n        /* \"#utility.yul\":34951:34955   */\n      0x24\n        /* \"#utility.yul\":34948:34949   */\n      0x00\n        /* \"#utility.yul\":34941:34956   */\n      revert\n        /* \"#utility.yul\":34968:35151   */\n    tag_262:\n        /* \"#utility.yul\":35003:35006   */\n      0x00\n        /* \"#utility.yul\":35041:35042   */\n      0x03\n        /* \"#utility.yul\":35023:35039   */\n      returndatasize\n        /* \"#utility.yul\":35020:35043   */\n      gt\n        /* \"#utility.yul\":35017:35145   */\n      iszero\n      tag_709\n      jumpi\n        /* \"#utility.yul\":35079:35080   */\n      0x04\n        /* \"#utility.yul\":35076:35077   */\n      0x00\n        /* \"#utility.yul\":35073:35074   */\n      dup1\n        /* \"#utility.yul\":35058:35081   */\n      returndatacopy\n        /* \"#utility.yul\":35101:35135   */\n      tag_710\n        /* \"#utility.yul\":35132:35133   */\n      0x00\n        /* \"#utility.yul\":35126:35134   */\n      mload\n        /* \"#utility.yul\":35101:35135   */\n      tag_711\n      jump\t// in\n    tag_710:\n        /* \"#utility.yul\":35094:35135   */\n      swap1\n      pop\n        /* \"#utility.yul\":35017:35145   */\n    tag_709:\n        /* \"#utility.yul\":34968:35151   */\n      swap1\n      jump\t// out\n        /* \"#utility.yul\":35157:35274   */\n    tag_344:\n        /* \"#utility.yul\":35266:35267   */\n      0x00\n        /* \"#utility.yul\":35263:35264   */\n      dup1\n        /* \"#utility.yul\":35256:35268   */\n      revert\n        /* \"#utility.yul\":35280:35397   */\n    tag_309:\n        /* \"#utility.yul\":35389:35390   */\n      0x00\n        /* \"#utility.yul\":35386:35387   */\n      dup1\n        /* \"#utility.yul\":35379:35391   */\n      revert\n        /* \"#utility.yul\":35403:35520   */\n    tag_334:\n        /* \"#utility.yul\":35512:35513   */\n      0x00\n        /* \"#utility.yul\":35509:35510   */\n      dup1\n        /* \"#utility.yul\":35502:35514   */\n      revert\n        /* \"#utility.yul\":35526:35643   */\n    tag_383:\n        /* \"#utility.yul\":35635:35636   */\n      0x00\n        /* \"#utility.yul\":35632:35633   */\n      dup1\n        /* \"#utility.yul\":35625:35637   */\n      revert\n        /* \"#utility.yul\":35649:35766   */\n    tag_373:\n        /* \"#utility.yul\":35758:35759   */\n      0x00\n        /* \"#utility.yul\":35755:35756   */\n      dup1\n        /* \"#utility.yul\":35748:35760   */\n      revert\n        /* \"#utility.yul\":35772:35874   */\n    tag_482:\n        /* \"#utility.yul\":35813:35819   */\n      0x00\n        /* \"#utility.yul\":35864:35866   */\n      0x1f\n        /* \"#utility.yul\":35860:35867   */\n      not\n        /* \"#utility.yul\":35855:35857   */\n      0x1f\n        /* \"#utility.yul\":35848:35853   */\n      dup4\n        /* \"#utility.yul\":35844:35858   */\n      add\n        /* \"#utility.yul\":35840:35868   */\n      and\n        /* \"#utility.yul\":35830:35868   */\n      swap1\n      pop\n        /* \"#utility.yul\":35772:35874   */\n      swap2\n      swap1\n      pop\n      jump\t// out\n        /* \"#utility.yul\":35880:35986   */\n    tag_711:\n        /* \"#utility.yul\":35924:35932   */\n      0x00\n        /* \"#utility.yul\":35973:35978   */\n      dup2\n        /* \"#utility.yul\":35968:35971   */\n      0xe0\n        /* \"#utility.yul\":35964:35979   */\n      shr\n        /* \"#utility.yul\":35943:35979   */\n      swap1\n      pop\n        /* \"#utility.yul\":35880:35986   */\n      swap2\n      swap1\n      pop\n      jump\t// out\n        /* \"#utility.yul\":35992:36231   */\n    tag_513:\n        /* \"#utility.yul\":36132:36166   */\n      0x455243313135353a207472616e7366657220746f206e6f6e2045524331313535\n        /* \"#utility.yul\":36128:36129   */\n      0x00\n        /* \"#utility.yul\":36120:36126   */\n      dup3\n        /* \"#utility.yul\":36116:36130   */\n      add\n        /* \"#utility.yul\":36109:36167   */\n      mstore\n        /* \"#utility.yul\":36201:36223   */\n      0x526563656976657220696d706c656d656e746572000000000000000000000000\n        /* \"#utility.yul\":36196:36198   */\n      0x20\n        /* \"#utility.yul\":36188:36194   */\n      dup3\n        /* \"#utility.yul\":36184:36199   */\n      add\n        /* \"#utility.yul\":36177:36224   */\n      mstore\n        /* \"#utility.yul\":35992:36231   */\n      pop\n      jump\t// out\n        /* \"#utility.yul\":36237:36471   */\n    tag_518:\n        /* \"#utility.yul\":36377:36411   */\n      0x455243313135353a2063616c6c6572206973206e6f7420746f6b656e206f776e\n        /* \"#utility.yul\":36373:36374   */\n      0x00\n        /* \"#utility.yul\":36365:36371   */\n      dup3\n        /* \"#utility.yul\":36361:36375   */\n      add\n        /* \"#utility.yul\":36354:36412   */\n      mstore\n        /* \"#utility.yul\":36446:36463   */\n      0x6572206e6f7220617070726f7665640000000000000000000000000000000000\n        /* \"#utility.yul\":36441:36443   */\n      0x20\n        /* \"#utility.yul\":36433:36439   */\n      dup3\n        /* \"#utility.yul\":36429:36444   */\n      add\n        /* \"#utility.yul\":36422:36464   */\n      mstore\n        /* \"#utility.yul\":36237:36471   */\n      pop\n      jump\t// out\n        /* \"#utility.yul\":36477:36704   */\n    tag_523:\n        /* \"#utility.yul\":36617:36651   */\n      0x455243313135353a204552433131353552656365697665722072656a65637465\n        /* \"#utility.yul\":36613:36614   */\n      0x00\n        /* \"#utility.yul\":36605:36611   */\n      dup3\n        /* \"#utility.yul\":36601:36615   */\n      add\n        /* \"#utility.yul\":36594:36652   */\n      mstore\n        /* \"#utility.yul\":36686:36696   */\n      0x6420746f6b656e73000000000000000000000000000000000000000000000000\n        /* \"#utility.yul\":36681:36683   */\n      0x20\n        /* \"#utility.yul\":36673:36679   */\n      dup3\n        /* \"#utility.yul\":36669:36684   */\n      add\n        /* \"#utility.yul\":36662:36697   */\n      mstore\n        /* \"#utility.yul\":36477:36704   */\n      pop\n      jump\t// out\n        /* \"#utility.yul\":36710:36933   */\n    tag_528:\n        /* \"#utility.yul\":36850:36884   */\n      0x455243313135353a206275726e20616d6f756e7420657863656564732062616c\n        /* \"#utility.yul\":36846:36847   */\n      0x00\n        /* \"#utility.yul\":36838:36844   */\n      dup3\n        /* \"#utility.yul\":36834:36848   */\n      add\n        /* \"#utility.yul\":36827:36885   */\n      mstore\n        /* \"#utility.yul\":36919:36925   */\n      0x616e636500000000000000000000000000000000000000000000000000000000\n        /* \"#utility.yul\":36914:36916   */\n      0x20\n        /* \"#utility.yul\":36906:36912   */\n      dup3\n        /* \"#utility.yul\":36902:36917   */\n      add\n        /* \"#utility.yul\":36895:36926   */\n      mstore\n        /* \"#utility.yul\":36710:36933   */\n      pop\n      jump\t// out\n        /* \"#utility.yul\":36939:37168   */\n    tag_533:\n        /* \"#utility.yul\":37079:37113   */\n      0x455243313135353a2061646472657373207a65726f206973206e6f7420612076\n        /* \"#utility.yul\":37075:37076   */\n      0x00\n        /* \"#utility.yul\":37067:37073   */\n      dup3\n        /* \"#utility.yul\":37063:37077   */\n      add\n        /* \"#utility.yul\":37056:37114   */\n      mstore\n        /* \"#utility.yul\":37148:37160   */\n      0x616c6964206f776e657200000000000000000000000000000000000000000000\n        /* \"#utility.yul\":37143:37145   */\n      0x20\n        /* \"#utility.yul\":37135:37141   */\n      dup3\n        /* \"#utility.yul\":37131:37146   */\n      add\n        /* \"#utility.yul\":37124:37161   */\n      mstore\n        /* \"#utility.yul\":36939:37168   */\n      pop\n      jump\t// out\n        /* \"#utility.yul\":37174:37398   */\n    tag_538:\n        /* \"#utility.yul\":37314:37348   */\n      0x455243313135353a207472616e7366657220746f20746865207a65726f206164\n        /* \"#utility.yul\":37310:37311   */\n      0x00\n        /* \"#utility.yul\":37302:37308   */\n      dup3\n        /* \"#utility.yul\":37298:37312   */\n      add\n        /* \"#utility.yul\":37291:37349   */\n      mstore\n        /* \"#utility.yul\":37383:37390   */\n      0x6472657373000000000000000000000000000000000000000000000000000000\n        /* \"#utility.yul\":37378:37380   */\n      0x20\n        /* \"#utility.yul\":37370:37376   */\n      dup3\n        /* \"#utility.yul\":37366:37381   */\n      add\n        /* \"#utility.yul\":37359:37391   */\n      mstore\n        /* \"#utility.yul\":37174:37398   */\n      pop\n      jump\t// out\n        /* \"#utility.yul\":37404:37626   */\n    tag_543:\n        /* \"#utility.yul\":37544:37578   */\n      0x455243313135353a206275726e2066726f6d20746865207a65726f2061646472\n        /* \"#utility.yul\":37540:37541   */\n      0x00\n        /* \"#utility.yul\":37532:37538   */\n      dup3\n        /* \"#utility.yul\":37528:37542   */\n      add\n        /* \"#utility.yul\":37521:37579   */\n      mstore\n        /* \"#utility.yul\":37613:37618   */\n      0x6573730000000000000000000000000000000000000000000000000000000000\n        /* \"#utility.yul\":37608:37610   */\n      0x20\n        /* \"#utility.yul\":37600:37606   */\n      dup3\n        /* \"#utility.yul\":37596:37611   */\n      add\n        /* \"#utility.yul\":37589:37619   */\n      mstore\n        /* \"#utility.yul\":37404:37626   */\n      pop\n      jump\t// out\n        /* \"#utility.yul\":37632:37861   */\n    tag_548:\n        /* \"#utility.yul\":37772:37806   */\n      0x455243313135353a20696e73756666696369656e742062616c616e636520666f\n        /* \"#utility.yul\":37768:37769   */\n      0x00\n        /* \"#utility.yul\":37760:37766   */\n      dup3\n        /* \"#utility.yul\":37756:37770   */\n      add\n        /* \"#utility.yul\":37749:37807   */\n      mstore\n        /* \"#utility.yul\":37841:37853   */\n      0x72207472616e7366657200000000000000000000000000000000000000000000\n        /* \"#utility.yul\":37836:37838   */\n      0x20\n        /* \"#utility.yul\":37828:37834   */\n      dup3\n        /* \"#utility.yul\":37824:37839   */\n      add\n        /* \"#utility.yul\":37817:37854   */\n      mstore\n        /* \"#utility.yul\":37632:37861   */\n      pop\n      jump\t// out\n        /* \"#utility.yul\":37867:38095   */\n    tag_553:\n        /* \"#utility.yul\":38007:38041   */\n      0x455243313135353a2073657474696e6720617070726f76616c20737461747573\n        /* \"#utility.yul\":38003:38004   */\n      0x00\n        /* \"#utility.yul\":37995:38001   */\n      dup3\n        /* \"#utility.yul\":37991:38005   */\n      add\n        /* \"#utility.yul\":37984:38042   */\n      mstore\n        /* \"#utility.yul\":38076:38087   */\n      0x20666f722073656c660000000000000000000000000000000000000000000000\n        /* \"#utility.yul\":38071:38073   */\n      0x20\n        /* \"#utility.yul\":38063:38069   */\n      dup3\n        /* \"#utility.yul\":38059:38074   */\n      add\n        /* \"#utility.yul\":38052:38088   */\n      mstore\n        /* \"#utility.yul\":37867:38095   */\n      pop\n      jump\t// out\n        /* \"#utility.yul\":38101:38329   */\n    tag_558:\n        /* \"#utility.yul\":38241:38275   */\n      0x455243313135353a206163636f756e747320616e6420696473206c656e677468\n        /* \"#utility.yul\":38237:38238   */\n      0x00\n        /* \"#utility.yul\":38229:38235   */\n      dup3\n        /* \"#utility.yul\":38225:38239   */\n      add\n        /* \"#utility.yul\":38218:38276   */\n      mstore\n        /* \"#utility.yul\":38310:38321   */\n      0x206d69736d617463680000000000000000000000000000000000000000000000\n        /* \"#utility.yul\":38305:38307   */\n      0x20\n        /* \"#utility.yul\":38297:38303   */\n      dup3\n        /* \"#utility.yul\":38293:38308   */\n      add\n        /* \"#utility.yul\":38286:38322   */\n      mstore\n        /* \"#utility.yul\":38101:38329   */\n      pop\n      jump\t// out\n        /* \"#utility.yul\":38335:38562   */\n    tag_563:\n        /* \"#utility.yul\":38475:38509   */\n      0x455243313135353a2069647320616e6420616d6f756e7473206c656e67746820\n        /* \"#utility.yul\":38471:38472   */\n      0x00\n        /* \"#utility.yul\":38463:38469   */\n      dup3\n        /* \"#utility.yul\":38459:38473   */\n      add\n        /* \"#utility.yul\":38452:38510   */\n      mstore\n        /* \"#utility.yul\":38544:38554   */\n      0x6d69736d61746368000000000000000000000000000000000000000000000000\n        /* \"#utility.yul\":38539:38541   */\n      0x20\n        /* \"#utility.yul\":38531:38537   */\n      dup3\n        /* \"#utility.yul\":38527:38542   */\n      add\n        /* \"#utility.yul\":38520:38555   */\n      mstore\n        /* \"#utility.yul\":38335:38562   */\n      pop\n      jump\t// out\n        /* \"#utility.yul\":38568:38788   */\n    tag_568:\n        /* \"#utility.yul\":38708:38742   */\n      0x455243313135353a206d696e7420746f20746865207a65726f20616464726573\n        /* \"#utility.yul\":38704:38705   */\n      0x00\n        /* \"#utility.yul\":38696:38702   */\n      dup3\n        /* \"#utility.yul\":38692:38706   */\n      add\n        /* \"#utility.yul\":38685:38743   */\n      mstore\n        /* \"#utility.yul\":38777:38780   */\n      0x7300000000000000000000000000000000000000000000000000000000000000\n        /* \"#utility.yul\":38772:38774   */\n      0x20\n        /* \"#utility.yul\":38764:38770   */\n      dup3\n        /* \"#utility.yul\":38760:38775   */\n      add\n        /* \"#utility.yul\":38753:38781   */\n      mstore\n        /* \"#utility.yul\":38568:38788   */\n      pop\n      jump\t// out\n        /* \"#utility.yul\":38794:39505   */\n    tag_264:\n        /* \"#utility.yul\":38833:38836   */\n      0x00\n        /* \"#utility.yul\":38871:38875   */\n      0x44\n        /* \"#utility.yul\":38853:38869   */\n      returndatasize\n        /* \"#utility.yul\":38850:38876   */\n      lt\n        /* \"#utility.yul\":38847:38886   */\n      iszero\n      tag_732\n      jumpi\n        /* \"#utility.yul\":38879:38884   */\n      jump(tag_731)\n        /* \"#utility.yul\":38847:38886   */\n    tag_732:\n        /* \"#utility.yul\":38908:38928   */\n      tag_733\n      tag_630\n      jump\t// in\n    tag_733:\n        /* \"#utility.yul\":38983:38984   */\n      0x04\n        /* \"#utility.yul\":38965:38981   */\n      returndatasize\n        /* \"#utility.yul\":38961:38985   */\n      sub\n        /* \"#utility.yul\":38958:38959   */\n      0x04\n        /* \"#utility.yul\":38952:38956   */\n      dup3\n        /* \"#utility.yul\":38937:38986   */\n      returndatacopy\n        /* \"#utility.yul\":39016:39020   */\n      dup1\n        /* \"#utility.yul\":39010:39021   */\n      mload\n        /* \"#utility.yul\":39115:39131   */\n      returndatasize\n        /* \"#utility.yul\":39108:39112   */\n      0x24\n        /* \"#utility.yul\":39100:39106   */\n      dup3\n        /* \"#utility.yul\":39096:39113   */\n      add\n        /* \"#utility.yul\":39093:39132   */\n      gt\n        /* \"#utility.yul\":39060:39078   */\n      0xffffffffffffffff\n        /* \"#utility.yul\":39052:39058   */\n      dup3\n        /* \"#utility.yul\":39049:39079   */\n      gt\n        /* \"#utility.yul\":39033:39146   */\n      or\n        /* \"#utility.yul\":39030:39176   */\n      iszero\n      tag_734\n      jumpi\n        /* \"#utility.yul\":39161:39166   */\n      pop\n      pop\n      jump(tag_731)\n        /* \"#utility.yul\":39030:39176   */\n    tag_734:\n        /* \"#utility.yul\":39207:39213   */\n      dup1\n        /* \"#utility.yul\":39201:39205   */\n      dup3\n        /* \"#utility.yul\":39197:39214   */\n      add\n        /* \"#utility.yul\":39243:39246   */\n      dup1\n        /* \"#utility.yul\":39237:39247   */\n      mload\n        /* \"#utility.yul\":39270:39288   */\n      0xffffffffffffffff\n        /* \"#utility.yul\":39262:39268   */\n      dup2\n        /* \"#utility.yul\":39259:39289   */\n      gt\n        /* \"#utility.yul\":39256:39299   */\n      iszero\n      tag_735\n      jumpi\n        /* \"#utility.yul\":39292:39297   */\n      pop\n      pop\n      pop\n      pop\n      jump(tag_731)\n        /* \"#utility.yul\":39256:39299   */\n    tag_735:\n        /* \"#utility.yul\":39340:39346   */\n      dup1\n        /* \"#utility.yul\":39333:39337   */\n      0x20\n        /* \"#utility.yul\":39328:39331   */\n      dup4\n        /* \"#utility.yul\":39324:39338   */\n      add\n        /* \"#utility.yul\":39320:39347   */\n      add\n        /* \"#utility.yul\":39399:39400   */\n      0x04\n        /* \"#utility.yul\":39381:39397   */\n      returndatasize\n        /* \"#utility.yul\":39377:39401   */\n      sub\n        /* \"#utility.yul\":39371:39375   */\n      dup6\n        /* \"#utility.yul\":39367:39402   */\n      add\n        /* \"#utility.yul\":39362:39365   */\n      dup2\n        /* \"#utility.yul\":39359:39403   */\n      gt\n        /* \"#utility.yul\":39356:39413   */\n      iszero\n      tag_736\n      jumpi\n        /* \"#utility.yul\":39406:39411   */\n      pop\n      pop\n      pop\n      pop\n      pop\n      jump(tag_731)\n        /* \"#utility.yul\":39356:39413   */\n    tag_736:\n        /* \"#utility.yul\":39423:39480   */\n      tag_737\n        /* \"#utility.yul\":39471:39477   */\n      dup3\n        /* \"#utility.yul\":39465:39469   */\n      0x20\n        /* \"#utility.yul\":39461:39478   */\n      add\n        /* \"#utility.yul\":39453:39459   */\n      dup6\n        /* \"#utility.yul\":39449:39479   */\n      add\n        /* \"#utility.yul\":39443:39447   */\n      dup7\n        /* \"#utility.yul\":39423:39480   */\n      tag_632\n      jump\t// in\n    tag_737:\n        /* \"#utility.yul\":39496:39499   */\n      dup3\n        /* \"#utility.yul\":39489:39499   */\n      swap6\n      pop\n        /* \"#utility.yul\":38837:39505   */\n      pop\n      pop\n      pop\n      pop\n      pop\n        /* \"#utility.yul\":38794:39505   */\n    tag_731:\n      swap1\n      jump\t// out\n        /* \"#utility.yul\":39511:39633   */\n    tag_339:\n        /* \"#utility.yul\":39584:39608   */\n      tag_739\n        /* \"#utility.yul\":39602:39607   */\n      dup2\n        /* \"#utility.yul\":39584:39608   */\n      tag_454\n      jump\t// in\n    tag_739:\n        /* \"#utility.yul\":39577:39582   */\n      dup2\n        /* \"#utility.yul\":39574:39609   */\n      eq\n        /* \"#utility.yul\":39564:39627   */\n      tag_740\n      jumpi\n        /* \"#utility.yul\":39623:39624   */\n      0x00\n        /* \"#utility.yul\":39620:39621   */\n      dup1\n        /* \"#utility.yul\":39613:39625   */\n      revert\n        /* \"#utility.yul\":39564:39627   */\n    tag_740:\n        /* \"#utility.yul\":39511:39633   */\n      pop\n      jump\t// out\n        /* \"#utility.yul\":39639:39755   */\n    tag_354:\n        /* \"#utility.yul\":39709:39730   */\n      tag_742\n        /* \"#utility.yul\":39724:39729   */\n      dup2\n        /* \"#utility.yul\":39709:39730   */\n      tag_472\n      jump\t// in\n    tag_742:\n        /* \"#utility.yul\":39702:39707   */\n      dup2\n        /* \"#utility.yul\":39699:39731   */\n      eq\n        /* \"#utility.yul\":39689:39749   */\n      tag_743\n      jumpi\n        /* \"#utility.yul\":39745:39746   */\n      0x00\n        /* \"#utility.yul\":39742:39743   */\n      dup1\n        /* \"#utility.yul\":39735:39747   */\n      revert\n        /* \"#utility.yul\":39689:39749   */\n    tag_743:\n        /* \"#utility.yul\":39639:39755   */\n      pop\n      jump\t// out\n        /* \"#utility.yul\":39761:39881   */\n    tag_358:\n        /* \"#utility.yul\":39833:39856   */\n      tag_745\n        /* \"#utility.yul\":39850:39855   */\n      dup2\n        /* \"#utility.yul\":39833:39856   */\n      tag_675\n      jump\t// in\n    tag_745:\n        /* \"#utility.yul\":39826:39831   */\n      dup2\n        /* \"#utility.yul\":39823:39857   */\n      eq\n        /* \"#utility.yul\":39813:39875   */\n      tag_746\n      jumpi\n        /* \"#utility.yul\":39871:39872   */\n      0x00\n        /* \"#utility.yul\":39868:39869   */\n      dup1\n        /* \"#utility.yul\":39861:39873   */\n      revert\n        /* \"#utility.yul\":39813:39875   */\n    tag_746:\n        /* \"#utility.yul\":39761:39881   */\n      pop\n      jump\t// out\n        /* \"#utility.yul\":39887:40009   */\n    tag_369:\n        /* \"#utility.yul\":39960:39984   */\n      tag_748\n        /* \"#utility.yul\":39978:39983   */\n      dup2\n        /* \"#utility.yul\":39960:39984   */\n      tag_571\n      jump\t// in\n    tag_748:\n        /* \"#utility.yul\":39953:39958   */\n      dup2\n        /* \"#utility.yul\":39950:39985   */\n      eq\n        /* \"#utility.yul\":39940:40003   */\n      tag_749\n      jumpi\n        /* \"#utility.yul\":39999:40000   */\n      0x00\n        /* \"#utility.yul\":39996:39997   */\n      dup1\n        /* \"#utility.yul\":39989:40001   */\n      revert\n        /* \"#utility.yul\":39940:40003   */\n    tag_749:\n        /* \"#utility.yul\":39887:40009   */\n      pop\n      jump\t// out\n\n    auxdata: 0xa2646970667358221220d6dd8c36bf90343f0f2efffb61736f4723baf1311bdd6bfa7e10e502843d563764736f6c63430008070033\n}\n",
				"bytecode": {
					"linkReferences": {},
					"object": "60806040523480156200001157600080fd5b506040516200349c3803806200349c8339818101604052810190620000379190620001cd565b62000048836200008360201b60201c565b8160009080519060200190620000609291906200009f565b508060019080519060200190620000799291906200009f565b505050506200040a565b80600490805190602001906200009b9291906200009f565b5050565b828054620000ad906200031b565b90600052602060002090601f016020900481019282620000d157600085556200011d565b82601f10620000ec57805160ff19168380011785556200011d565b828001600101855582156200011d579182015b828111156200011c578251825591602001919060010190620000ff565b5b5090506200012c919062000130565b5090565b5b808211156200014b57600081600090555060010162000131565b5090565b6000620001666200016084620002af565b62000286565b905082815260208101848484011115620001855762000184620003ea565b5b62000192848285620002e5565b509392505050565b600082601f830112620001b257620001b1620003e5565b5b8151620001c48482602086016200014f565b91505092915050565b600080600060608486031215620001e957620001e8620003f4565b5b600084015167ffffffffffffffff8111156200020a5762000209620003ef565b5b62000218868287016200019a565b935050602084015167ffffffffffffffff8111156200023c576200023b620003ef565b5b6200024a868287016200019a565b925050604084015167ffffffffffffffff8111156200026e576200026d620003ef565b5b6200027c868287016200019a565b9150509250925092565b600062000292620002a5565b9050620002a0828262000351565b919050565b6000604051905090565b600067ffffffffffffffff821115620002cd57620002cc620003b6565b5b620002d882620003f9565b9050602081019050919050565b60005b8381101562000305578082015181840152602081019050620002e8565b8381111562000315576000848401525b50505050565b600060028204905060018216806200033457607f821691505b602082108114156200034b576200034a62000387565b5b50919050565b6200035c82620003f9565b810181811067ffffffffffffffff821117156200037e576200037d620003b6565b5b80604052505050565b7f4e487b7100000000000000000000000000000000000000000000000000000000600052602260045260246000fd5b7f4e487b7100000000000000000000000000000000000000000000000000000000600052604160045260246000fd5b600080fd5b600080fd5b600080fd5b600080fd5b6000601f19601f8301169050919050565b613082806200041a6000396000f3fe608060405234801561001057600080fd5b50600436106100b35760003560e01c8063731133e911610071578063731133e9146101b257806395d89b41146101ce578063a22cb465146101ec578063e985e9c514610208578063f242432a14610238578063f5298aca14610254576100b3565b8062fdd58e146100b857806301ffc9a7146100e857806306fdde03146101185780630e89341c146101365780632eb2c2d6146101665780634e1273f414610182575b600080fd5b6100d260048036038101906100cd9190611e08565b610270565b6040516100df9190612691565b60405180910390f35b61010260048036038101906100fd9190611f96565b61033a565b60405161010f91906124d4565b60405180910390f35b61012061041c565b60405161012d91906124ef565b60405180910390f35b610150600480360381019061014b9190611ff0565b6104aa565b60405161015d91906124ef565b60405180910390f35b610180600480360381019061017b9190611c62565b6104de565b005b61019c60048036038101906101979190611f1e565b61057f565b6040516101a9919061247b565b60405180910390f35b6101cc60048036038101906101c79190611e9b565b610698565b005b6101d66106aa565b6040516101e391906124ef565b60405180910390f35b61020660048036038101906102019190611dc8565b610738565b005b610222600480360381019061021d9190611c22565b61074e565b60405161022f91906124d4565b60405180910390f35b610252600480360381019061024d9190611d31565b6107e2565b005b61026e60048036038101906102699190611e48565b610883565b005b60008073ffffffffffffffffffffffffffffffffffffffff168373ffffffffffffffffffffffffffffffffffffffff1614156102e1576040517f08c379a00000000000000000000000000000000000000000000000000000000081526004016102d890612591565b60405180910390fd5b6002600083815260200190815260200160002060008473ffffffffffffffffffffffffffffffffffffffff1673ffffffffffffffffffffffffffffffffffffffff16815260200190815260200160002054905092915050565b60007fd9b67a26000000000000000000000000000000000000000000000000000000007bffffffffffffffffffffffffffffffffffffffffffffffffffffffff1916827bffffffffffffffffffffffffffffffffffffffffffffffffffffffff1916148061040557507f0e89341c000000000000000000000000000000000000000000000000000000007bffffffffffffffffffffffffffffffffffffffffffffffffffffffff1916827bffffffffffffffffffffffffffffffffffffffffffffffffffffffff1916145b80610415575061041482610893565b5b9050919050565b6000805461042990612985565b80601f016020809104026020016040519081016040528092919081815260200182805461045590612985565b80156104a25780601f10610477576101008083540402835291602001916104a2565b820191906000526020600020905b81548152906001019060200180831161048557829003601f168201915b505050505081565b606060046104b7836108fd565b6040516020016104c8929190612395565b6040516020818303038152906040529050919050565b6104e6610a5e565b73ffffffffffffffffffffffffffffffffffffffff168573ffffffffffffffffffffffffffffffffffffffff16148061052c575061052b85610526610a5e565b61074e565b5b61056b576040517f08c379a000000000000000000000000000000000000000000000000000000000815260040161056290612531565b60405180910390fd5b6105788585858585610a66565b5050505050565b606081518351146105c5576040517f08c379a00000000000000000000000000000000000000000000000000000000081526004016105bc90612631565b60405180910390fd5b6000835167ffffffffffffffff8111156105e2576105e1612b1e565b5b6040519080825280602002602001820160405280156106105781602001602082028036833780820191505090505b50905060005b845181101561068d5761065d85828151811061063557610634612aef565b5b60200260200101518583815181106106505761064f612aef565b5b6020026020010151610270565b8282815181106106705761066f612aef565b5b60200260200101818152505080610686906129e8565b9050610616565b508091505092915050565b6106a484848484610d8b565b50505050565b600180546106b790612985565b80601f01602080910402602001604051908101604052809291908181526020018280546106e390612985565b80156107305780601f1061070557610100808354040283529160200191610730565b820191906000526020600020905b81548152906001019060200180831161071357829003601f168201915b505050505081565b61074a610743610a5e565b8383610f3d565b5050565b6000600360008473ffffffffffffffffffffffffffffffffffffffff1673ffffffffffffffffffffffffffffffffffffffff16815260200190815260200160002060008373ffffffffffffffffffffffffffffffffffffffff1673ffffffffffffffffffffffffffffffffffffffff16815260200190815260200160002060009054906101000a900460ff16905092915050565b6107ea610a5e565b73ffffffffffffffffffffffffffffffffffffffff168573ffffffffffffffffffffffffffffffffffffffff161480610830575061082f8561082a610a5e565b61074e565b5b61086f576040517f08c379a000000000000000000000000000000000000000000000000000000000815260040161086690612531565b60405180910390fd5b61087c85858585856110aa565b5050505050565b61088e838383611349565b505050565b60007f01ffc9a7000000000000000000000000000000000000000000000000000000007bffffffffffffffffffffffffffffffffffffffffffffffffffffffff1916827bffffffffffffffffffffffffffffffffffffffffffffffffffffffff1916149050919050565b60606000821415610945576040518060400160405280600181526020017f30000000000000000000000000000000000000000000000000000000000000008152509050610a59565b600082905060005b60008214610977578080610960906129e8565b915050600a82610970919061286a565b915061094d565b60008167ffffffffffffffff81111561099357610992612b1e565b5b6040519080825280601f01601f1916602001820160405280156109c55781602001600182028036833780820191505090505b5090505b60008514610a52576001826109de919061289b565b9150600a856109ed9190612a31565b60306109f99190612814565b60f81b818381518110610a0f57610a0e612aef565b5b60200101907effffffffffffffffffffffffffffffffffffffffffffffffffffffffffffff1916908160001a905350600a85610a4b919061286a565b94506109c9565b8093505050505b919050565b600033905090565b8151835114610aaa576040517f08c379a0000000000000000000000000000000000000000000000000000000008152600401610aa190612651565b60405180910390fd5b600073ffffffffffffffffffffffffffffffffffffffff168473ffffffffffffffffffffffffffffffffffffffff161415610b1a576040517f08c379a0000000000000000000000000000000000000000000000000000000008152600401610b11906125b1565b60405180910390fd5b6000610b24610a5e565b9050610b34818787878787611592565b60005b8451811015610ce8576000858281518110610b5557610b54612aef565b5b602002602001015190506000858381518110610b7457610b73612aef565b5b6020026020010151905060006002600084815260200190815260200160002060008b73ffffffffffffffffffffffffffffffffffffffff1673ffffffffffffffffffffffffffffffffffffffff16815260200190815260200160002054905081811015610c16576040517f08c379a0000000000000000000000000000000000000000000000000000000008152600401610c0d906125f1565b60405180910390fd5b8181036002600085815260200190815260200160002060008c73ffffffffffffffffffffffffffffffffffffffff1673ffffffffffffffffffffffffffffffffffffffff16815260200190815260200160002081905550816002600085815260200190815260200160002060008b73ffffffffffffffffffffffffffffffffffffffff1673ffffffffffffffffffffffffffffffffffffffff1681526020019081526020016000206000828254610ccd9190612814565b9250508190555050505080610ce1906129e8565b9050610b37565b508473ffffffffffffffffffffffffffffffffffffffff168673ffffffffffffffffffffffffffffffffffffffff168273ffffffffffffffffffffffffffffffffffffffff167f4a39dc06d4c0dbc64b70af90fd698a233a518aa5d07e595d983b8c0526c8f7fb8787604051610d5f92919061249d565b60405180910390a4610d7581878787878761159a565b610d838187878787876115a2565b505050505050565b600073ffffffffffffffffffffffffffffffffffffffff168473ffffffffffffffffffffffffffffffffffffffff161415610dfb576040517f08c379a0000000000000000000000000000000000000000000000000000000008152600401610df290612671565b60405180910390fd5b6000610e05610a5e565b90506000610e1285611789565b90506000610e1f85611789565b9050610e3083600089858589611592565b846002600088815260200190815260200160002060008973ffffffffffffffffffffffffffffffffffffffff1673ffffffffffffffffffffffffffffffffffffffff1681526020019081526020016000206000828254610e909190612814565b925050819055508673ffffffffffffffffffffffffffffffffffffffff16600073ffffffffffffffffffffffffffffffffffffffff168473ffffffffffffffffffffffffffffffffffffffff167fc3d58168c5ae7397731d063d5bbf3d657854427343f4c083240f7aacaa2d0f628989604051610f0e9291906126ac565b60405180910390a4610f258360008985858961159a565b610f3483600089898989611803565b50505050505050565b8173ffffffffffffffffffffffffffffffffffffffff168373ffffffffffffffffffffffffffffffffffffffff161415610fac576040517f08c379a0000000000000000000000000000000000000000000000000000000008152600401610fa390612611565b60405180910390fd5b80600360008573ffffffffffffffffffffffffffffffffffffffff1673ffffffffffffffffffffffffffffffffffffffff16815260200190815260200160002060008473ffffffffffffffffffffffffffffffffffffffff1673ffffffffffffffffffffffffffffffffffffffff16815260200190815260200160002060006101000a81548160ff0219169083151502179055508173ffffffffffffffffffffffffffffffffffffffff168373ffffffffffffffffffffffffffffffffffffffff167f17307eab39ab6107e8899845ad3d59bd9653f200f220920489ca2b5937696c318360405161109d91906124d4565b60405180910390a3505050565b600073ffffffffffffffffffffffffffffffffffffffff168473ffffffffffffffffffffffffffffffffffffffff16141561111a576040517f08c379a0000000000000000000000000000000000000000000000000000000008152600401611111906125b1565b60405180910390fd5b6000611124610a5e565b9050600061113185611789565b9050600061113e85611789565b905061114e838989858589611592565b60006002600088815260200190815260200160002060008a73ffffffffffffffffffffffffffffffffffffffff1673ffffffffffffffffffffffffffffffffffffffff168152602001908152602001600020549050858110156111e6576040517f08c379a00000000000000000000000000000000000000000000000000000000081526004016111dd906125f1565b60405180910390fd5b8581036002600089815260200190815260200160002060008b73ffffffffffffffffffffffffffffffffffffffff1673ffffffffffffffffffffffffffffffffffffffff16815260200190815260200160002081905550856002600089815260200190815260200160002060008a73ffffffffffffffffffffffffffffffffffffffff1673ffffffffffffffffffffffffffffffffffffffff168152602001908152602001600020600082825461129d9190612814565b925050819055508773ffffffffffffffffffffffffffffffffffffffff168973ffffffffffffffffffffffffffffffffffffffff168573ffffffffffffffffffffffffffffffffffffffff167fc3d58168c5ae7397731d063d5bbf3d657854427343f4c083240f7aacaa2d0f628a8a60405161131a9291906126ac565b60405180910390a4611330848a8a86868a61159a565b61133e848a8a8a8a8a611803565b505050505050505050565b600073ffffffffffffffffffffffffffffffffffffffff168373ffffffffffffffffffffffffffffffffffffffff1614156113b9576040517f08c379a00000000000000000000000000000000000000000000000000000000081526004016113b0906125d1565b60405180910390fd5b60006113c3610a5e565b905060006113d084611789565b905060006113dd84611789565b90506113fd83876000858560405180602001604052806000815250611592565b60006002600087815260200190815260200160002060008873ffffffffffffffffffffffffffffffffffffffff1673ffffffffffffffffffffffffffffffffffffffff16815260200190815260200160002054905084811015611495576040517f08c379a000000000000000000000000000000000000000000000000000000000815260040161148c90612571565b60405180910390fd5b8481036002600088815260200190815260200160002060008973ffffffffffffffffffffffffffffffffffffffff1673ffffffffffffffffffffffffffffffffffffffff16815260200190815260200160002081905550600073ffffffffffffffffffffffffffffffffffffffff168773ffffffffffffffffffffffffffffffffffffffff168573ffffffffffffffffffffffffffffffffffffffff167fc3d58168c5ae7397731d063d5bbf3d657854427343f4c083240f7aacaa2d0f6289896040516115639291906126ac565b60405180910390a46115898488600086866040518060200160405280600081525061159a565b50505050505050565b505050505050565b505050505050565b6115c18473ffffffffffffffffffffffffffffffffffffffff166119ea565b15611781578373ffffffffffffffffffffffffffffffffffffffff1663bc197c8187878686866040518663ffffffff1660e01b81526004016116079594939291906123b9565b602060405180830381600087803b15801561162157600080fd5b505af192505050801561165257506040513d601f19601f8201168201806040525081019061164f9190611fc3565b60015b6116f85761165e612b4d565b806308c379a014156116bb5750611673612f5a565b8061167e57506116bd565b806040517f08c379a00000000000000000000000000000000000000000000000000000000081526004016116b291906124ef565b60405180910390fd5b505b6040517f08c379a00000000000000000000000000000000000000000000000000000000081526004016116ef90612511565b60405180910390fd5b63bc197c8160e01b7bffffffffffffffffffffffffffffffffffffffffffffffffffffffff1916817bffffffffffffffffffffffffffffffffffffffffffffffffffffffff19161461177f576040517f08c379a000000000000000000000000000000000000000000000000000000000815260040161177690612551565b60405180910390fd5b505b505050505050565b60606000600167ffffffffffffffff8111156117a8576117a7612b1e565b5b6040519080825280602002602001820160405280156117d65781602001602082028036833780820191505090505b50905082816000815181106117ee576117ed612aef565b5b60200260200101818152505080915050919050565b6118228473ffffffffffffffffffffffffffffffffffffffff166119ea565b156119e2578373ffffffffffffffffffffffffffffffffffffffff1663f23a6e6187878686866040518663ffffffff1660e01b8152600401611868959493929190612421565b602060405180830381600087803b15801561188257600080fd5b505af19250505080156118b357506040513d601f19601f820116820180604052508101906118b09190611fc3565b60015b611959576118bf612b4d565b806308c379a0141561191c57506118d4612f5a565b806118df575061191e565b806040517f08c379a000000000000000000000000000000000000000000000000000000000815260040161191391906124ef565b60405180910390fd5b505b6040517f08c379a000000000000000000000000000000000000000000000000000000000815260040161195090612511565b60405180910390fd5b63f23a6e6160e01b7bffffffffffffffffffffffffffffffffffffffffffffffffffffffff1916817bffffffffffffffffffffffffffffffffffffffffffffffffffffffff1916146119e0576040517f08c379a00000000000000000000000000000000000000000000000000000000081526004016119d790612551565b60405180910390fd5b505b505050505050565b6000808273ffffffffffffffffffffffffffffffffffffffff163b119050919050565b6000611a20611a1b846126fa565b6126d5565b90508083825260208201905082856020860282011115611a4357611a42612b74565b5b60005b85811015611a735781611a598882611b2f565b845260208401935060208301925050600181019050611a46565b5050509392505050565b6000611a90611a8b84612726565b6126d5565b90508083825260208201905082856020860282011115611ab357611ab2612b74565b5b60005b85811015611ae35781611ac98882611c0d565b845260208401935060208301925050600181019050611ab6565b5050509392505050565b6000611b00611afb84612752565b6126d5565b905082815260208101848484011115611b1c57611b1b612b79565b5b611b27848285612943565b509392505050565b600081359050611b3e81612ff0565b92915050565b600082601f830112611b5957611b58612b6f565b5b8135611b69848260208601611a0d565b91505092915050565b600082601f830112611b8757611b86612b6f565b5b8135611b97848260208601611a7d565b91505092915050565b600081359050611baf81613007565b92915050565b600081359050611bc48161301e565b92915050565b600081519050611bd98161301e565b92915050565b600082601f830112611bf457611bf3612b6f565b5b8135611c04848260208601611aed565b91505092915050565b600081359050611c1c81613035565b92915050565b60008060408385031215611c3957611c38612b83565b5b6000611c4785828601611b2f565b9250506020611c5885828601611b2f565b9150509250929050565b600080600080600060a08688031215611c7e57611c7d612b83565b5b6000611c8c88828901611b2f565b9550506020611c9d88828901611b2f565b945050604086013567ffffffffffffffff811115611cbe57611cbd612b7e565b5b611cca88828901611b72565b935050606086013567ffffffffffffffff811115611ceb57611cea612b7e565b5b611cf788828901611b72565b925050608086013567ffffffffffffffff811115611d1857611d17612b7e565b5b611d2488828901611bdf565b9150509295509295909350565b600080600080600060a08688031215611d4d57611d4c612b83565b5b6000611d5b88828901611b2f565b9550506020611d6c88828901611b2f565b9450506040611d7d88828901611c0d565b9350506060611d8e88828901611c0d565b925050608086013567ffffffffffffffff811115611daf57611dae612b7e565b5b611dbb88828901611bdf565b9150509295509295909350565b60008060408385031215611ddf57611dde612b83565b5b6000611ded85828601611b2f565b9250506020611dfe85828601611ba0565b9150509250929050565b60008060408385031215611e1f57611e1e612b83565b5b6000611e2d85828601611b2f565b9250506020611e3e85828601611c0d565b9150509250929050565b600080600060608486031215611e6157611e60612b83565b5b6000611e6f86828701611b2f565b9350506020611e8086828701611c0d565b9250506040611e9186828701611c0d565b9150509250925092565b60008060008060808587031215611eb557611eb4612b83565b5b6000611ec387828801611b2f565b9450506020611ed487828801611c0d565b9350506040611ee587828801611c0d565b925050606085013567ffffffffffffffff811115611f0657611f05612b7e565b5b611f1287828801611bdf565b91505092959194509250565b60008060408385031215611f3557611f34612b83565b5b600083013567ffffffffffffffff811115611f5357611f52612b7e565b5b611f5f85828601611b44565b925050602083013567ffffffffffffffff811115611f8057611f7f612b7e565b5b611f8c85828601611b72565b9150509250929050565b600060208284031215611fac57611fab612b83565b5b6000611fba84828501611bb5565b91505092915050565b600060208284031215611fd957611fd8612b83565b5b6000611fe784828501611bca565b91505092915050565b60006020828403121561200657612005612b83565b5b600061201484828501611c0d565b91505092915050565b60006120298383612377565b60208301905092915050565b61203e816128cf565b82525050565b600061204f826127a8565b61205981856127d6565b935061206483612783565b8060005b8381101561209557815161207c888261201d565b9750612087836127c9565b925050600181019050612068565b5085935050505092915050565b6120ab816128e1565b82525050565b60006120bc826127b3565b6120c681856127e7565b93506120d6818560208601612952565b6120df81612b88565b840191505092915050565b60006120f5826127be565b6120ff81856127f8565b935061210f818560208601612952565b61211881612b88565b840191505092915050565b600061212e826127be565b6121388185612809565b9350612148818560208601612952565b80840191505092915050565b6000815461216181612985565b61216b8186612809565b945060018216600081146121865760018114612197576121ca565b60ff198316865281860193506121ca565b6121a085612793565b60005b838110156121c2578154818901526001820191506020810190506121a3565b838801955050505b50505092915050565b60006121e06034836127f8565b91506121eb82612ba6565b604082019050919050565b6000612203602f836127f8565b915061220e82612bf5565b604082019050919050565b60006122266028836127f8565b915061223182612c44565b604082019050919050565b60006122496024836127f8565b915061225482612c93565b604082019050919050565b600061226c602a836127f8565b915061227782612ce2565b604082019050919050565b600061228f6025836127f8565b915061229a82612d31565b604082019050919050565b60006122b26023836127f8565b91506122bd82612d80565b604082019050919050565b60006122d5602a836127f8565b91506122e082612dcf565b604082019050919050565b60006122f86029836127f8565b915061230382612e1e565b604082019050919050565b600061231b6029836127f8565b915061232682612e6d565b604082019050919050565b600061233e6028836127f8565b915061234982612ebc565b604082019050919050565b60006123616021836127f8565b915061236c82612f0b565b604082019050919050565b61238081612939565b82525050565b61238f81612939565b82525050565b60006123a18285612154565b91506123ad8284612123565b91508190509392505050565b600060a0820190506123ce6000830188612035565b6123db6020830187612035565b81810360408301526123ed8186612044565b905081810360608301526124018185612044565b9050818103608083015261241581846120b1565b90509695505050505050565b600060a0820190506124366000830188612035565b6124436020830187612035565b6124506040830186612386565b61245d6060830185612386565b818103608083015261246f81846120b1565b90509695505050505050565b600060208201905081810360008301526124958184612044565b905092915050565b600060408201905081810360008301526124b78185612044565b905081810360208301526124cb8184612044565b90509392505050565b60006020820190506124e960008301846120a2565b92915050565b6000602082019050818103600083015261250981846120ea565b905092915050565b6000602082019050818103600083015261252a816121d3565b9050919050565b6000602082019050818103600083015261254a816121f6565b9050919050565b6000602082019050818103600083015261256a81612219565b9050919050565b6000602082019050818103600083015261258a8161223c565b9050919050565b600060208201905081810360008301526125aa8161225f565b9050919050565b600060208201905081810360008301526125ca81612282565b9050919050565b600060208201905081810360008301526125ea816122a5565b9050919050565b6000602082019050818103600083015261260a816122c8565b9050919050565b6000602082019050818103600083015261262a816122eb565b9050919050565b6000602082019050818103600083015261264a8161230e565b9050919050565b6000602082019050818103600083015261266a81612331565b9050919050565b6000602082019050818103600083015261268a81612354565b9050919050565b60006020820190506126a66000830184612386565b92915050565b60006040820190506126c16000830185612386565b6126ce6020830184612386565b9392505050565b60006126df6126f0565b90506126eb82826129b7565b919050565b6000604051905090565b600067ffffffffffffffff82111561271557612714612b1e565b5b602082029050602081019050919050565b600067ffffffffffffffff82111561274157612740612b1e565b5b602082029050602081019050919050565b600067ffffffffffffffff82111561276d5761276c612b1e565b5b61277682612b88565b9050602081019050919050565b6000819050602082019050919050565b60008190508160005260206000209050919050565b600081519050919050565b600081519050919050565b600081519050919050565b6000602082019050919050565b600082825260208201905092915050565b600082825260208201905092915050565b600082825260208201905092915050565b600081905092915050565b600061281f82612939565b915061282a83612939565b9250827fffffffffffffffffffffffffffffffffffffffffffffffffffffffffffffffff0382111561285f5761285e612a62565b5b828201905092915050565b600061287582612939565b915061288083612939565b9250826128905761288f612a91565b5b828204905092915050565b60006128a682612939565b91506128b183612939565b9250828210156128c4576128c3612a62565b5b828203905092915050565b60006128da82612919565b9050919050565b60008115159050919050565b60007fffffffff0000000000000000000000000000000000000000000000000000000082169050919050565b600073ffffffffffffffffffffffffffffffffffffffff82169050919050565b6000819050919050565b82818337600083830152505050565b60005b83811015612970578082015181840152602081019050612955565b8381111561297f576000848401525b50505050565b6000600282049050600182168061299d57607f821691505b602082108114156129b1576129b0612ac0565b5b50919050565b6129c082612b88565b810181811067ffffffffffffffff821117156129df576129de612b1e565b5b80604052505050565b60006129f382612939565b91507fffffffffffffffffffffffffffffffffffffffffffffffffffffffffffffffff821415612a2657612a25612a62565b5b600182019050919050565b6000612a3c82612939565b9150612a4783612939565b925082612a5757612a56612a91565b5b828206905092915050565b7f4e487b7100000000000000000000000000000000000000000000000000000000600052601160045260246000fd5b7f4e487b7100000000000000000000000000000000000000000000000000000000600052601260045260246000fd5b7f4e487b7100000000000000000000000000000000000000000000000000000000600052602260045260246000fd5b7f4e487b7100000000000000000000000000000000000000000000000000000000600052603260045260246000fd5b7f4e487b7100000000000000000000000000000000000000000000000000000000600052604160045260246000fd5b600060033d1115612b6c5760046000803e612b69600051612b99565b90505b90565b600080fd5b600080fd5b600080fd5b600080fd5b600080fd5b6000601f19601f8301169050919050565b60008160e01c9050919050565b7f455243313135353a207472616e7366657220746f206e6f6e204552433131353560008201527f526563656976657220696d706c656d656e746572000000000000000000000000602082015250565b7f455243313135353a2063616c6c6572206973206e6f7420746f6b656e206f776e60008201527f6572206e6f7220617070726f7665640000000000000000000000000000000000602082015250565b7f455243313135353a204552433131353552656365697665722072656a6563746560008201527f6420746f6b656e73000000000000000000000000000000000000000000000000602082015250565b7f455243313135353a206275726e20616d6f756e7420657863656564732062616c60008201527f616e636500000000000000000000000000000000000000000000000000000000602082015250565b7f455243313135353a2061646472657373207a65726f206973206e6f742061207660008201527f616c6964206f776e657200000000000000000000000000000000000000000000602082015250565b7f455243313135353a207472616e7366657220746f20746865207a65726f20616460008201527f6472657373000000000000000000000000000000000000000000000000000000602082015250565b7f455243313135353a206275726e2066726f6d20746865207a65726f206164647260008201527f6573730000000000000000000000000000000000000000000000000000000000602082015250565b7f455243313135353a20696e73756666696369656e742062616c616e636520666f60008201527f72207472616e7366657200000000000000000000000000000000000000000000602082015250565b7f455243313135353a2073657474696e6720617070726f76616c2073746174757360008201527f20666f722073656c660000000000000000000000000000000000000000000000602082015250565b7f455243313135353a206163636f756e747320616e6420696473206c656e67746860008201527f206d69736d617463680000000000000000000000000000000000000000000000602082015250565b7f455243313135353a2069647320616e6420616d6f756e7473206c656e6774682060008201527f6d69736d61746368000000000000000000000000000000000000000000000000602082015250565b7f455243313135353a206d696e7420746f20746865207a65726f2061646472657360008201527f7300000000000000000000000000000000000000000000000000000000000000602082015250565b600060443d1015612f6a57612fed565b612f726126f0565b60043d036004823e80513d602482011167ffffffffffffffff82111715612f9a575050612fed565b808201805167ffffffffffffffff811115612fb85750505050612fed565b80602083010160043d038501811115612fd5575050505050612fed565b612fe4826020018501866129b7565b82955050505050505b90565b612ff9816128cf565b811461300457600080fd5b50565b613010816128e1565b811461301b57600080fd5b50565b613027816128ed565b811461303257600080fd5b50565b61303e81612939565b811461304957600080fd5b5056fea2646970667358221220d6dd8c36bf90343f0f2efffb61736f4723baf1311bdd6bfa7e10e502843d563764736f6c63430008070033",
					"opcodes": "PUSH1 0x80 PUSH1 0x40 MSTORE CALLVALUE DUP1 ISZERO PUSH3 0x11 JUMPI PUSH1 0x0 DUP1 REVERT JUMPDEST POP PUSH1 0x40 MLOAD PUSH3 0x349C CODESIZE SUB DUP1 PUSH3 0x349C DUP4 CODECOPY DUP2 DUP2 ADD PUSH1 0x40 MSTORE DUP2 ADD SWAP1 PUSH3 0x37 SWAP2 SWAP1 PUSH3 0x1CD JUMP JUMPDEST PUSH3 0x48 DUP4 PUSH3 0x83 PUSH1 0x20 SHL PUSH1 0x20 SHR JUMP JUMPDEST DUP2 PUSH1 0x0 SWAP1 DUP1 MLOAD SWAP1 PUSH1 0x20 ADD SWAP1 PUSH3 0x60 SWAP3 SWAP2 SWAP1 PUSH3 0x9F JUMP JUMPDEST POP DUP1 PUSH1 0x1 SWAP1 DUP1 MLOAD SWAP1 PUSH1 0x20 ADD SWAP1 PUSH3 0x79 SWAP3 SWAP2 SWAP1 PUSH3 0x9F JUMP JUMPDEST POP POP POP POP PUSH3 0x40A JUMP JUMPDEST DUP1 PUSH1 0x4 SWAP1 DUP1 MLOAD SWAP1 PUSH1 0x20 ADD SWAP1 PUSH3 0x9B SWAP3 SWAP2 SWAP1 PUSH3 0x9F JUMP JUMPDEST POP POP JUMP JUMPDEST DUP3 DUP1 SLOAD PUSH3 0xAD SWAP1 PUSH3 0x31B JUMP JUMPDEST SWAP1 PUSH1 0x0 MSTORE PUSH1 0x20 PUSH1 0x0 KECCAK256 SWAP1 PUSH1 0x1F ADD PUSH1 0x20 SWAP1 DIV DUP2 ADD SWAP3 DUP3 PUSH3 0xD1 JUMPI PUSH1 0x0 DUP6 SSTORE PUSH3 0x11D JUMP JUMPDEST DUP3 PUSH1 0x1F LT PUSH3 0xEC JUMPI DUP1 MLOAD PUSH1 0xFF NOT AND DUP4 DUP1 ADD OR DUP6 SSTORE PUSH3 0x11D JUMP JUMPDEST DUP3 DUP1 ADD PUSH1 0x1 ADD DUP6 SSTORE DUP3 ISZERO PUSH3 0x11D JUMPI SWAP2 DUP3 ADD JUMPDEST DUP3 DUP2 GT ISZERO PUSH3 0x11C JUMPI DUP3 MLOAD DUP3 SSTORE SWAP2 PUSH1 0x20 ADD SWAP2 SWAP1 PUSH1 0x1 ADD SWAP1 PUSH3 0xFF JUMP JUMPDEST JUMPDEST POP SWAP1 POP PUSH3 0x12C SWAP2 SWAP1 PUSH3 0x130 JUMP JUMPDEST POP SWAP1 JUMP JUMPDEST JUMPDEST DUP1 DUP3 GT ISZERO PUSH3 0x14B JUMPI PUSH1 0x0 DUP2 PUSH1 0x0 SWAP1 SSTORE POP PUSH1 0x1 ADD PUSH3 0x131 JUMP JUMPDEST POP SWAP1 JUMP JUMPDEST PUSH1 0x0 PUSH3 0x166 PUSH3 0x160 DUP5 PUSH3 0x2AF JUMP JUMPDEST PUSH3 0x286 JUMP JUMPDEST SWAP1 POP DUP3 DUP2 MSTORE PUSH1 0x20 DUP2 ADD DUP5 DUP5 DUP5 ADD GT ISZERO PUSH3 0x185 JUMPI PUSH3 0x184 PUSH3 0x3EA JUMP JUMPDEST JUMPDEST PUSH3 0x192 DUP5 DUP3 DUP6 PUSH3 0x2E5 JUMP JUMPDEST POP SWAP4 SWAP3 POP POP POP JUMP JUMPDEST PUSH1 0x0 DUP3 PUSH1 0x1F DUP4 ADD SLT PUSH3 0x1B2 JUMPI PUSH3 0x1B1 PUSH3 0x3E5 JUMP JUMPDEST JUMPDEST DUP2 MLOAD PUSH3 0x1C4 DUP5 DUP3 PUSH1 0x20 DUP7 ADD PUSH3 0x14F JUMP JUMPDEST SWAP2 POP POP SWAP3 SWAP2 POP POP JUMP JUMPDEST PUSH1 0x0 DUP1 PUSH1 0x0 PUSH1 0x60 DUP5 DUP7 SUB SLT ISZERO PUSH3 0x1E9 JUMPI PUSH3 0x1E8 PUSH3 0x3F4 JUMP JUMPDEST JUMPDEST PUSH1 0x0 DUP5 ADD MLOAD PUSH8 0xFFFFFFFFFFFFFFFF DUP2 GT ISZERO PUSH3 0x20A JUMPI PUSH3 0x209 PUSH3 0x3EF JUMP JUMPDEST JUMPDEST PUSH3 0x218 DUP7 DUP3 DUP8 ADD PUSH3 0x19A JUMP JUMPDEST SWAP4 POP POP PUSH1 0x20 DUP5 ADD MLOAD PUSH8 0xFFFFFFFFFFFFFFFF DUP2 GT ISZERO PUSH3 0x23C JUMPI PUSH3 0x23B PUSH3 0x3EF JUMP JUMPDEST JUMPDEST PUSH3 0x24A DUP7 DUP3 DUP8 ADD PUSH3 0x19A JUMP JUMPDEST SWAP3 POP POP PUSH1 0x40 DUP5 ADD MLOAD PUSH8 0xFFFFFFFFFFFFFFFF DUP2 GT ISZERO PUSH3 0x26E JUMPI PUSH3 0x26D PUSH3 0x3EF JUMP JUMPDEST JUMPDEST PUSH3 0x27C DUP7 DUP3 DUP8 ADD PUSH3 0x19A JUMP JUMPDEST SWAP2 POP POP SWAP3 POP SWAP3 POP SWAP3 JUMP JUMPDEST PUSH1 0x0 PUSH3 0x292 PUSH3 0x2A5 JUMP JUMPDEST SWAP1 POP PUSH3 0x2A0 DUP3 DUP3 PUSH3 0x351 JUMP JUMPDEST SWAP2 SWAP1 POP JUMP JUMPDEST PUSH1 0x0 PUSH1 0x40 MLOAD SWAP1 POP SWAP1 JUMP JUMPDEST PUSH1 0x0 PUSH8 0xFFFFFFFFFFFFFFFF DUP3 GT ISZERO PUSH3 0x2CD JUMPI PUSH3 0x2CC PUSH3 0x3B6 JUMP JUMPDEST JUMPDEST PUSH3 0x2D8 DUP3 PUSH3 0x3F9 JUMP JUMPDEST SWAP1 POP PUSH1 0x20 DUP2 ADD SWAP1 POP SWAP2 SWAP1 POP JUMP JUMPDEST PUSH1 0x0 JUMPDEST DUP4 DUP2 LT ISZERO PUSH3 0x305 JUMPI DUP1 DUP3 ADD MLOAD DUP2 DUP5 ADD MSTORE PUSH1 0x20 DUP2 ADD SWAP1 POP PUSH3 0x2E8 JUMP JUMPDEST DUP4 DUP2 GT ISZERO PUSH3 0x315 JUMPI PUSH1 0x0 DUP5 DUP5 ADD MSTORE JUMPDEST POP POP POP POP JUMP JUMPDEST PUSH1 0x0 PUSH1 0x2 DUP3 DIV SWAP1 POP PUSH1 0x1 DUP3 AND DUP1 PUSH3 0x334 JUMPI PUSH1 0x7F DUP3 AND SWAP2 POP JUMPDEST PUSH1 0x20 DUP3 LT DUP2 EQ ISZERO PUSH3 0x34B JUMPI PUSH3 0x34A PUSH3 0x387 JUMP JUMPDEST JUMPDEST POP SWAP2 SWAP1 POP JUMP JUMPDEST PUSH3 0x35C DUP3 PUSH3 0x3F9 JUMP JUMPDEST DUP2 ADD DUP2 DUP2 LT PUSH8 0xFFFFFFFFFFFFFFFF DUP3 GT OR ISZERO PUSH3 0x37E JUMPI PUSH3 0x37D PUSH3 0x3B6 JUMP JUMPDEST JUMPDEST DUP1 PUSH1 0x40 MSTORE POP POP POP JUMP JUMPDEST PUSH32 0x4E487B7100000000000000000000000000000000000000000000000000000000 PUSH1 0x0 MSTORE PUSH1 0x22 PUSH1 0x4 MSTORE PUSH1 0x24 PUSH1 0x0 REVERT JUMPDEST PUSH32 0x4E487B7100000000000000000000000000000000000000000000000000000000 PUSH1 0x0 MSTORE PUSH1 0x41 PUSH1 0x4 MSTORE PUSH1 0x24 PUSH1 0x0 REVERT JUMPDEST PUSH1 0x0 DUP1 REVERT JUMPDEST PUSH1 0x0 DUP1 REVERT JUMPDEST PUSH1 0x0 DUP1 REVERT JUMPDEST PUSH1 0x0 DUP1 REVERT JUMPDEST PUSH1 0x0 PUSH1 0x1F NOT PUSH1 0x1F DUP4 ADD AND SWAP1 POP SWAP2 SWAP1 POP JUMP JUMPDEST PUSH2 0x3082 DUP1 PUSH3 0x41A PUSH1 0x0 CODECOPY PUSH1 0x0 RETURN INVALID PUSH1 0x80 PUSH1 0x40 MSTORE CALLVALUE DUP1 ISZERO PUSH2 0x10 JUMPI PUSH1 0x0 DUP1 REVERT JUMPDEST POP PUSH1 0x4 CALLDATASIZE LT PUSH2 0xB3 JUMPI PUSH1 0x0 CALLDATALOAD PUSH1 0xE0 SHR DUP1 PUSH4 0x731133E9 GT PUSH2 0x71 JUMPI DUP1 PUSH4 0x731133E9 EQ PUSH2 0x1B2 JUMPI DUP1 PUSH4 0x95D89B41 EQ PUSH2 0x1CE JUMPI DUP1 PUSH4 0xA22CB465 EQ PUSH2 0x1EC JUMPI DUP1 PUSH4 0xE985E9C5 EQ PUSH2 0x208 JUMPI DUP1 PUSH4 0xF242432A EQ PUSH2 0x238 JUMPI DUP1 PUSH4 0xF5298ACA EQ PUSH2 0x254 JUMPI PUSH2 0xB3 JUMP JUMPDEST DUP1 PUSH3 0xFDD58E EQ PUSH2 0xB8 JUMPI DUP1 PUSH4 0x1FFC9A7 EQ PUSH2 0xE8 JUMPI DUP1 PUSH4 0x6FDDE03 EQ PUSH2 0x118 JUMPI DUP1 PUSH4 0xE89341C EQ PUSH2 0x136 JUMPI DUP1 PUSH4 0x2EB2C2D6 EQ PUSH2 0x166 JUMPI DUP1 PUSH4 0x4E1273F4 EQ PUSH2 0x182 JUMPI JUMPDEST PUSH1 0x0 DUP1 REVERT JUMPDEST PUSH2 0xD2 PUSH1 0x4 DUP1 CALLDATASIZE SUB DUP2 ADD SWAP1 PUSH2 0xCD SWAP2 SWAP1 PUSH2 0x1E08 JUMP JUMPDEST PUSH2 0x270 JUMP JUMPDEST PUSH1 0x40 MLOAD PUSH2 0xDF SWAP2 SWAP1 PUSH2 0x2691 JUMP JUMPDEST PUSH1 0x40 MLOAD DUP1 SWAP2 SUB SWAP1 RETURN JUMPDEST PUSH2 0x102 PUSH1 0x4 DUP1 CALLDATASIZE SUB DUP2 ADD SWAP1 PUSH2 0xFD SWAP2 SWAP1 PUSH2 0x1F96 JUMP JUMPDEST PUSH2 0x33A JUMP JUMPDEST PUSH1 0x40 MLOAD PUSH2 0x10F SWAP2 SWAP1 PUSH2 0x24D4 JUMP JUMPDEST PUSH1 0x40 MLOAD DUP1 SWAP2 SUB SWAP1 RETURN JUMPDEST PUSH2 0x120 PUSH2 0x41C JUMP JUMPDEST PUSH1 0x40 MLOAD PUSH2 0x12D SWAP2 SWAP1 PUSH2 0x24EF JUMP JUMPDEST PUSH1 0x40 MLOAD DUP1 SWAP2 SUB SWAP1 RETURN JUMPDEST PUSH2 0x150 PUSH1 0x4 DUP1 CALLDATASIZE SUB DUP2 ADD SWAP1 PUSH2 0x14B SWAP2 SWAP1 PUSH2 0x1FF0 JUMP JUMPDEST PUSH2 0x4AA JUMP JUMPDEST PUSH1 0x40 MLOAD PUSH2 0x15D SWAP2 SWAP1 PUSH2 0x24EF JUMP JUMPDEST PUSH1 0x40 MLOAD DUP1 SWAP2 SUB SWAP1 RETURN JUMPDEST PUSH2 0x180 PUSH1 0x4 DUP1 CALLDATASIZE SUB DUP2 ADD SWAP1 PUSH2 0x17B SWAP2 SWAP1 PUSH2 0x1C62 JUMP JUMPDEST PUSH2 0x4DE JUMP JUMPDEST STOP JUMPDEST PUSH2 0x19C PUSH1 0x4 DUP1 CALLDATASIZE SUB DUP2 ADD SWAP1 PUSH2 0x197 SWAP2 SWAP1 PUSH2 0x1F1E JUMP JUMPDEST PUSH2 0x57F JUMP JUMPDEST PUSH1 0x40 MLOAD PUSH2 0x1A9 SWAP2 SWAP1 PUSH2 0x247B JUMP JUMPDEST PUSH1 0x40 MLOAD DUP1 SWAP2 SUB SWAP1 RETURN JUMPDEST PUSH2 0x1CC PUSH1 0x4 DUP1 CALLDATASIZE SUB DUP2 ADD SWAP1 PUSH2 0x1C7 SWAP2 SWAP1 PUSH2 0x1E9B JUMP JUMPDEST PUSH2 0x698 JUMP JUMPDEST STOP JUMPDEST PUSH2 0x1D6 PUSH2 0x6AA JUMP JUMPDEST PUSH1 0x40 MLOAD PUSH2 0x1E3 SWAP2 SWAP1 PUSH2 0x24EF JUMP JUMPDEST PUSH1 0x40 MLOAD DUP1 SWAP2 SUB SWAP1 RETURN JUMPDEST PUSH2 0x206 PUSH1 0x4 DUP1 CALLDATASIZE SUB DUP2 ADD SWAP1 PUSH2 0x201 SWAP2 SWAP1 PUSH2 0x1DC8 JUMP JUMPDEST PUSH2 0x738 JUMP JUMPDEST STOP JUMPDEST PUSH2 0x222 PUSH1 0x4 DUP1 CALLDATASIZE SUB DUP2 ADD SWAP1 PUSH2 0x21D SWAP2 SWAP1 PUSH2 0x1C22 JUMP JUMPDEST PUSH2 0x74E JUMP JUMPDEST PUSH1 0x40 MLOAD PUSH2 0x22F SWAP2 SWAP1 PUSH2 0x24D4 JUMP JUMPDEST PUSH1 0x40 MLOAD DUP1 SWAP2 SUB SWAP1 RETURN JUMPDEST PUSH2 0x252 PUSH1 0x4 DUP1 CALLDATASIZE SUB DUP2 ADD SWAP1 PUSH2 0x24D SWAP2 SWAP1 PUSH2 0x1D31 JUMP JUMPDEST PUSH2 0x7E2 JUMP JUMPDEST STOP JUMPDEST PUSH2 0x26E PUSH1 0x4 DUP1 CALLDATASIZE SUB DUP2 ADD SWAP1 PUSH2 0x269 SWAP2 SWAP1 PUSH2 0x1E48 JUMP JUMPDEST PUSH2 0x883 JUMP JUMPDEST STOP JUMPDEST PUSH1 0x0 DUP1 PUSH20 0xFFFFFFFFFFFFFFFFFFFFFFFFFFFFFFFFFFFFFFFF AND DUP4 PUSH20 0xFFFFFFFFFFFFFFFFFFFFFFFFFFFFFFFFFFFFFFFF AND EQ ISZERO PUSH2 0x2E1 JUMPI PUSH1 0x40 MLOAD PUSH32 0x8C379A000000000000000000000000000000000000000000000000000000000 DUP2 MSTORE PUSH1 0x4 ADD PUSH2 0x2D8 SWAP1 PUSH2 0x2591 JUMP JUMPDEST PUSH1 0x40 MLOAD DUP1 SWAP2 SUB SWAP1 REVERT JUMPDEST PUSH1 0x2 PUSH1 0x0 DUP4 DUP2 MSTORE PUSH1 0x20 ADD SWAP1 DUP2 MSTORE PUSH1 0x20 ADD PUSH1 0x0 KECCAK256 PUSH1 0x0 DUP5 PUSH20 0xFFFFFFFFFFFFFFFFFFFFFFFFFFFFFFFFFFFFFFFF AND PUSH20 0xFFFFFFFFFFFFFFFFFFFFFFFFFFFFFFFFFFFFFFFF AND DUP2 MSTORE PUSH1 0x20 ADD SWAP1 DUP2 MSTORE PUSH1 0x20 ADD PUSH1 0x0 KECCAK256 SLOAD SWAP1 POP SWAP3 SWAP2 POP POP JUMP JUMPDEST PUSH1 0x0 PUSH32 0xD9B67A2600000000000000000000000000000000000000000000000000000000 PUSH28 0xFFFFFFFFFFFFFFFFFFFFFFFFFFFFFFFFFFFFFFFFFFFFFFFFFFFFFFFF NOT AND DUP3 PUSH28 0xFFFFFFFFFFFFFFFFFFFFFFFFFFFFFFFFFFFFFFFFFFFFFFFFFFFFFFFF NOT AND EQ DUP1 PUSH2 0x405 JUMPI POP PUSH32 0xE89341C00000000000000000000000000000000000000000000000000000000 PUSH28 0xFFFFFFFFFFFFFFFFFFFFFFFFFFFFFFFFFFFFFFFFFFFFFFFFFFFFFFFF NOT AND DUP3 PUSH28 0xFFFFFFFFFFFFFFFFFFFFFFFFFFFFFFFFFFFFFFFFFFFFFFFFFFFFFFFF NOT AND EQ JUMPDEST DUP1 PUSH2 0x415 JUMPI POP PUSH2 0x414 DUP3 PUSH2 0x893 JUMP JUMPDEST JUMPDEST SWAP1 POP SWAP2 SWAP1 POP JUMP JUMPDEST PUSH1 0x0 DUP1 SLOAD PUSH2 0x429 SWAP1 PUSH2 0x2985 JUMP JUMPDEST DUP1 PUSH1 0x1F ADD PUSH1 0x20 DUP1 SWAP2 DIV MUL PUSH1 0x20 ADD PUSH1 0x40 MLOAD SWAP1 DUP2 ADD PUSH1 0x40 MSTORE DUP1 SWAP3 SWAP2 SWAP1 DUP2 DUP2 MSTORE PUSH1 0x20 ADD DUP3 DUP1 SLOAD PUSH2 0x455 SWAP1 PUSH2 0x2985 JUMP JUMPDEST DUP1 ISZERO PUSH2 0x4A2 JUMPI DUP1 PUSH1 0x1F LT PUSH2 0x477 JUMPI PUSH2 0x100 DUP1 DUP4 SLOAD DIV MUL DUP4 MSTORE SWAP2 PUSH1 0x20 ADD SWAP2 PUSH2 0x4A2 JUMP JUMPDEST DUP3 ADD SWAP2 SWAP1 PUSH1 0x0 MSTORE PUSH1 0x20 PUSH1 0x0 KECCAK256 SWAP1 JUMPDEST DUP2 SLOAD DUP2 MSTORE SWAP1 PUSH1 0x1 ADD SWAP1 PUSH1 0x20 ADD DUP1 DUP4 GT PUSH2 0x485 JUMPI DUP3 SWAP1 SUB PUSH1 0x1F AND DUP3 ADD SWAP2 JUMPDEST POP POP POP POP POP DUP2 JUMP JUMPDEST PUSH1 0x60 PUSH1 0x4 PUSH2 0x4B7 DUP4 PUSH2 0x8FD JUMP JUMPDEST PUSH1 0x40 MLOAD PUSH1 0x20 ADD PUSH2 0x4C8 SWAP3 SWAP2 SWAP1 PUSH2 0x2395 JUMP JUMPDEST PUSH1 0x40 MLOAD PUSH1 0x20 DUP2 DUP4 SUB SUB DUP2 MSTORE SWAP1 PUSH1 0x40 MSTORE SWAP1 POP SWAP2 SWAP1 POP JUMP JUMPDEST PUSH2 0x4E6 PUSH2 0xA5E JUMP JUMPDEST PUSH20 0xFFFFFFFFFFFFFFFFFFFFFFFFFFFFFFFFFFFFFFFF AND DUP6 PUSH20 0xFFFFFFFFFFFFFFFFFFFFFFFFFFFFFFFFFFFFFFFF AND EQ DUP1 PUSH2 0x52C JUMPI POP PUSH2 0x52B DUP6 PUSH2 0x526 PUSH2 0xA5E JUMP JUMPDEST PUSH2 0x74E JUMP JUMPDEST JUMPDEST PUSH2 0x56B JUMPI PUSH1 0x40 MLOAD PUSH32 0x8C379A000000000000000000000000000000000000000000000000000000000 DUP2 MSTORE PUSH1 0x4 ADD PUSH2 0x562 SWAP1 PUSH2 0x2531 JUMP JUMPDEST PUSH1 0x40 MLOAD DUP1 SWAP2 SUB SWAP1 REVERT JUMPDEST PUSH2 0x578 DUP6 DUP6 DUP6 DUP6 DUP6 PUSH2 0xA66 JUMP JUMPDEST POP POP POP POP POP JUMP JUMPDEST PUSH1 0x60 DUP2 MLOAD DUP4 MLOAD EQ PUSH2 0x5C5 JUMPI PUSH1 0x40 MLOAD PUSH32 0x8C379A000000000000000000000000000000000000000000000000000000000 DUP2 MSTORE PUSH1 0x4 ADD PUSH2 0x5BC SWAP1 PUSH2 0x2631 JUMP JUMPDEST PUSH1 0x40 MLOAD DUP1 SWAP2 SUB SWAP1 REVERT JUMPDEST PUSH1 0x0 DUP4 MLOAD PUSH8 0xFFFFFFFFFFFFFFFF DUP2 GT ISZERO PUSH2 0x5E2 JUMPI PUSH2 0x5E1 PUSH2 0x2B1E JUMP JUMPDEST JUMPDEST PUSH1 0x40 MLOAD SWAP1 DUP1 DUP3 MSTORE DUP1 PUSH1 0x20 MUL PUSH1 0x20 ADD DUP3 ADD PUSH1 0x40 MSTORE DUP1 ISZERO PUSH2 0x610 JUMPI DUP2 PUSH1 0x20 ADD PUSH1 0x20 DUP3 MUL DUP1 CALLDATASIZE DUP4 CALLDATACOPY DUP1 DUP3 ADD SWAP2 POP POP SWAP1 POP JUMPDEST POP SWAP1 POP PUSH1 0x0 JUMPDEST DUP5 MLOAD DUP2 LT ISZERO PUSH2 0x68D JUMPI PUSH2 0x65D DUP6 DUP3 DUP2 MLOAD DUP2 LT PUSH2 0x635 JUMPI PUSH2 0x634 PUSH2 0x2AEF JUMP JUMPDEST JUMPDEST PUSH1 0x20 MUL PUSH1 0x20 ADD ADD MLOAD DUP6 DUP4 DUP2 MLOAD DUP2 LT PUSH2 0x650 JUMPI PUSH2 0x64F PUSH2 0x2AEF JUMP JUMPDEST JUMPDEST PUSH1 0x20 MUL PUSH1 0x20 ADD ADD MLOAD PUSH2 0x270 JUMP JUMPDEST DUP3 DUP3 DUP2 MLOAD DUP2 LT PUSH2 0x670 JUMPI PUSH2 0x66F PUSH2 0x2AEF JUMP JUMPDEST JUMPDEST PUSH1 0x20 MUL PUSH1 0x20 ADD ADD DUP2 DUP2 MSTORE POP POP DUP1 PUSH2 0x686 SWAP1 PUSH2 0x29E8 JUMP JUMPDEST SWAP1 POP PUSH2 0x616 JUMP JUMPDEST POP DUP1 SWAP2 POP POP SWAP3 SWAP2 POP POP JUMP JUMPDEST PUSH2 0x6A4 DUP5 DUP5 DUP5 DUP5 PUSH2 0xD8B JUMP JUMPDEST POP POP POP POP JUMP JUMPDEST PUSH1 0x1 DUP1 SLOAD PUSH2 0x6B7 SWAP1 PUSH2 0x2985 JUMP JUMPDEST DUP1 PUSH1 0x1F ADD PUSH1 0x20 DUP1 SWAP2 DIV MUL PUSH1 0x20 ADD PUSH1 0x40 MLOAD SWAP1 DUP2 ADD PUSH1 0x40 MSTORE DUP1 SWAP3 SWAP2 SWAP1 DUP2 DUP2 MSTORE PUSH1 0x20 ADD DUP3 DUP1 SLOAD PUSH2 0x6E3 SWAP1 PUSH2 0x2985 JUMP JUMPDEST DUP1 ISZERO PUSH2 0x730 JUMPI DUP1 PUSH1 0x1F LT PUSH2 0x705 JUMPI PUSH2 0x100 DUP1 DUP4 SLOAD DIV MUL DUP4 MSTORE SWAP2 PUSH1 0x20 ADD SWAP2 PUSH2 0x730 JUMP JUMPDEST DUP3 ADD SWAP2 SWAP1 PUSH1 0x0 MSTORE PUSH1 0x20 PUSH1 0x0 KECCAK256 SWAP1 JUMPDEST DUP2 SLOAD DUP2 MSTORE SWAP1 PUSH1 0x1 ADD SWAP1 PUSH1 0x20 ADD DUP1 DUP4 GT PUSH2 0x713 JUMPI DUP3 SWAP1 SUB PUSH1 0x1F AND DUP3 ADD SWAP2 JUMPDEST POP POP POP POP POP DUP2 JUMP JUMPDEST PUSH2 0x74A PUSH2 0x743 PUSH2 0xA5E JUMP JUMPDEST DUP4 DUP4 PUSH2 0xF3D JUMP JUMPDEST POP POP JUMP JUMPDEST PUSH1 0x0 PUSH1 0x3 PUSH1 0x0 DUP5 PUSH20 0xFFFFFFFFFFFFFFFFFFFFFFFFFFFFFFFFFFFFFFFF AND PUSH20 0xFFFFFFFFFFFFFFFFFFFFFFFFFFFFFFFFFFFFFFFF AND DUP2 MSTORE PUSH1 0x20 ADD SWAP1 DUP2 MSTORE PUSH1 0x20 ADD PUSH1 0x0 KECCAK256 PUSH1 0x0 DUP4 PUSH20 0xFFFFFFFFFFFFFFFFFFFFFFFFFFFFFFFFFFFFFFFF AND PUSH20 0xFFFFFFFFFFFFFFFFFFFFFFFFFFFFFFFFFFFFFFFF AND DUP2 MSTORE PUSH1 0x20 ADD SWAP1 DUP2 MSTORE PUSH1 0x20 ADD PUSH1 0x0 KECCAK256 PUSH1 0x0 SWAP1 SLOAD SWAP1 PUSH2 0x100 EXP SWAP1 DIV PUSH1 0xFF AND SWAP1 POP SWAP3 SWAP2 POP POP JUMP JUMPDEST PUSH2 0x7EA PUSH2 0xA5E JUMP JUMPDEST PUSH20 0xFFFFFFFFFFFFFFFFFFFFFFFFFFFFFFFFFFFFFFFF AND DUP6 PUSH20 0xFFFFFFFFFFFFFFFFFFFFFFFFFFFFFFFFFFFFFFFF AND EQ DUP1 PUSH2 0x830 JUMPI POP PUSH2 0x82F DUP6 PUSH2 0x82A PUSH2 0xA5E JUMP JUMPDEST PUSH2 0x74E JUMP JUMPDEST JUMPDEST PUSH2 0x86F JUMPI PUSH1 0x40 MLOAD PUSH32 0x8C379A000000000000000000000000000000000000000000000000000000000 DUP2 MSTORE PUSH1 0x4 ADD PUSH2 0x866 SWAP1 PUSH2 0x2531 JUMP JUMPDEST PUSH1 0x40 MLOAD DUP1 SWAP2 SUB SWAP1 REVERT JUMPDEST PUSH2 0x87C DUP6 DUP6 DUP6 DUP6 DUP6 PUSH2 0x10AA JUMP JUMPDEST POP POP POP POP POP JUMP JUMPDEST PUSH2 0x88E DUP4 DUP4 DUP4 PUSH2 0x1349 JUMP JUMPDEST POP POP POP JUMP JUMPDEST PUSH1 0x0 PUSH32 0x1FFC9A700000000000000000000000000000000000000000000000000000000 PUSH28 0xFFFFFFFFFFFFFFFFFFFFFFFFFFFFFFFFFFFFFFFFFFFFFFFFFFFFFFFF NOT AND DUP3 PUSH28 0xFFFFFFFFFFFFFFFFFFFFFFFFFFFFFFFFFFFFFFFFFFFFFFFFFFFFFFFF NOT AND EQ SWAP1 POP SWAP2 SWAP1 POP JUMP JUMPDEST PUSH1 0x60 PUSH1 0x0 DUP3 EQ ISZERO PUSH2 0x945 JUMPI PUSH1 0x40 MLOAD DUP1 PUSH1 0x40 ADD PUSH1 0x40 MSTORE DUP1 PUSH1 0x1 DUP2 MSTORE PUSH1 0x20 ADD PUSH32 0x3000000000000000000000000000000000000000000000000000000000000000 DUP2 MSTORE POP SWAP1 POP PUSH2 0xA59 JUMP JUMPDEST PUSH1 0x0 DUP3 SWAP1 POP PUSH1 0x0 JUMPDEST PUSH1 0x0 DUP3 EQ PUSH2 0x977 JUMPI DUP1 DUP1 PUSH2 0x960 SWAP1 PUSH2 0x29E8 JUMP JUMPDEST SWAP2 POP POP PUSH1 0xA DUP3 PUSH2 0x970 SWAP2 SWAP1 PUSH2 0x286A JUMP JUMPDEST SWAP2 POP PUSH2 0x94D JUMP JUMPDEST PUSH1 0x0 DUP2 PUSH8 0xFFFFFFFFFFFFFFFF DUP2 GT ISZERO PUSH2 0x993 JUMPI PUSH2 0x992 PUSH2 0x2B1E JUMP JUMPDEST JUMPDEST PUSH1 0x40 MLOAD SWAP1 DUP1 DUP3 MSTORE DUP1 PUSH1 0x1F ADD PUSH1 0x1F NOT AND PUSH1 0x20 ADD DUP3 ADD PUSH1 0x40 MSTORE DUP1 ISZERO PUSH2 0x9C5 JUMPI DUP2 PUSH1 0x20 ADD PUSH1 0x1 DUP3 MUL DUP1 CALLDATASIZE DUP4 CALLDATACOPY DUP1 DUP3 ADD SWAP2 POP POP SWAP1 POP JUMPDEST POP SWAP1 POP JUMPDEST PUSH1 0x0 DUP6 EQ PUSH2 0xA52 JUMPI PUSH1 0x1 DUP3 PUSH2 0x9DE SWAP2 SWAP1 PUSH2 0x289B JUMP JUMPDEST SWAP2 POP PUSH1 0xA DUP6 PUSH2 0x9ED SWAP2 SWAP1 PUSH2 0x2A31 JUMP JUMPDEST PUSH1 0x30 PUSH2 0x9F9 SWAP2 SWAP1 PUSH2 0x2814 JUMP JUMPDEST PUSH1 0xF8 SHL DUP2 DUP4 DUP2 MLOAD DUP2 LT PUSH2 0xA0F JUMPI PUSH2 0xA0E PUSH2 0x2AEF JUMP JUMPDEST JUMPDEST PUSH1 0x20 ADD ADD SWAP1 PUSH31 0xFFFFFFFFFFFFFFFFFFFFFFFFFFFFFFFFFFFFFFFFFFFFFFFFFFFFFFFFFFFFFF NOT AND SWAP1 DUP2 PUSH1 0x0 BYTE SWAP1 MSTORE8 POP PUSH1 0xA DUP6 PUSH2 0xA4B SWAP2 SWAP1 PUSH2 0x286A JUMP JUMPDEST SWAP5 POP PUSH2 0x9C9 JUMP JUMPDEST DUP1 SWAP4 POP POP POP POP JUMPDEST SWAP2 SWAP1 POP JUMP JUMPDEST PUSH1 0x0 CALLER SWAP1 POP SWAP1 JUMP JUMPDEST DUP2 MLOAD DUP4 MLOAD EQ PUSH2 0xAAA JUMPI PUSH1 0x40 MLOAD PUSH32 0x8C379A000000000000000000000000000000000000000000000000000000000 DUP2 MSTORE PUSH1 0x4 ADD PUSH2 0xAA1 SWAP1 PUSH2 0x2651 JUMP JUMPDEST PUSH1 0x40 MLOAD DUP1 SWAP2 SUB SWAP1 REVERT JUMPDEST PUSH1 0x0 PUSH20 0xFFFFFFFFFFFFFFFFFFFFFFFFFFFFFFFFFFFFFFFF AND DUP5 PUSH20 0xFFFFFFFFFFFFFFFFFFFFFFFFFFFFFFFFFFFFFFFF AND EQ ISZERO PUSH2 0xB1A JUMPI PUSH1 0x40 MLOAD PUSH32 0x8C379A000000000000000000000000000000000000000000000000000000000 DUP2 MSTORE PUSH1 0x4 ADD PUSH2 0xB11 SWAP1 PUSH2 0x25B1 JUMP JUMPDEST PUSH1 0x40 MLOAD DUP1 SWAP2 SUB SWAP1 REVERT JUMPDEST PUSH1 0x0 PUSH2 0xB24 PUSH2 0xA5E JUMP JUMPDEST SWAP1 POP PUSH2 0xB34 DUP2 DUP8 DUP8 DUP8 DUP8 DUP8 PUSH2 0x1592 JUMP JUMPDEST PUSH1 0x0 JUMPDEST DUP5 MLOAD DUP2 LT ISZERO PUSH2 0xCE8 JUMPI PUSH1 0x0 DUP6 DUP3 DUP2 MLOAD DUP2 LT PUSH2 0xB55 JUMPI PUSH2 0xB54 PUSH2 0x2AEF JUMP JUMPDEST JUMPDEST PUSH1 0x20 MUL PUSH1 0x20 ADD ADD MLOAD SWAP1 POP PUSH1 0x0 DUP6 DUP4 DUP2 MLOAD DUP2 LT PUSH2 0xB74 JUMPI PUSH2 0xB73 PUSH2 0x2AEF JUMP JUMPDEST JUMPDEST PUSH1 0x20 MUL PUSH1 0x20 ADD ADD MLOAD SWAP1 POP PUSH1 0x0 PUSH1 0x2 PUSH1 0x0 DUP5 DUP2 MSTORE PUSH1 0x20 ADD SWAP1 DUP2 MSTORE PUSH1 0x20 ADD PUSH1 0x0 KECCAK256 PUSH1 0x0 DUP12 PUSH20 0xFFFFFFFFFFFFFFFFFFFFFFFFFFFFFFFFFFFFFFFF AND PUSH20 0xFFFFFFFFFFFFFFFFFFFFFFFFFFFFFFFFFFFFFFFF AND DUP2 MSTORE PUSH1 0x20 ADD SWAP1 DUP2 MSTORE PUSH1 0x20 ADD PUSH1 0x0 KECCAK256 SLOAD SWAP1 POP DUP2 DUP2 LT ISZERO PUSH2 0xC16 JUMPI PUSH1 0x40 MLOAD PUSH32 0x8C379A000000000000000000000000000000000000000000000000000000000 DUP2 MSTORE PUSH1 0x4 ADD PUSH2 0xC0D SWAP1 PUSH2 0x25F1 JUMP JUMPDEST PUSH1 0x40 MLOAD DUP1 SWAP2 SUB SWAP1 REVERT JUMPDEST DUP2 DUP2 SUB PUSH1 0x2 PUSH1 0x0 DUP6 DUP2 MSTORE PUSH1 0x20 ADD SWAP1 DUP2 MSTORE PUSH1 0x20 ADD PUSH1 0x0 KECCAK256 PUSH1 0x0 DUP13 PUSH20 0xFFFFFFFFFFFFFFFFFFFFFFFFFFFFFFFFFFFFFFFF AND PUSH20 0xFFFFFFFFFFFFFFFFFFFFFFFFFFFFFFFFFFFFFFFF AND DUP2 MSTORE PUSH1 0x20 ADD SWAP1 DUP2 MSTORE PUSH1 0x20 ADD PUSH1 0x0 KECCAK256 DUP2 SWAP1 SSTORE POP DUP2 PUSH1 0x2 PUSH1 0x0 DUP6 DUP2 MSTORE PUSH1 0x20 ADD SWAP1 DUP2 MSTORE PUSH1 0x20 ADD PUSH1 0x0 KECCAK256 PUSH1 0x0 DUP12 PUSH20 0xFFFFFFFFFFFFFFFFFFFFFFFFFFFFFFFFFFFFFFFF AND PUSH20 0xFFFFFFFFFFFFFFFFFFFFFFFFFFFFFFFFFFFFFFFF AND DUP2 MSTORE PUSH1 0x20 ADD SWAP1 DUP2 MSTORE PUSH1 0x20 ADD PUSH1 0x0 KECCAK256 PUSH1 0x0 DUP3 DUP3 SLOAD PUSH2 0xCCD SWAP2 SWAP1 PUSH2 0x2814 JUMP JUMPDEST SWAP3 POP POP DUP2 SWAP1 SSTORE POP POP POP POP DUP1 PUSH2 0xCE1 SWAP1 PUSH2 0x29E8 JUMP JUMPDEST SWAP1 POP PUSH2 0xB37 JUMP JUMPDEST POP DUP5 PUSH20 0xFFFFFFFFFFFFFFFFFFFFFFFFFFFFFFFFFFFFFFFF AND DUP7 PUSH20 0xFFFFFFFFFFFFFFFFFFFFFFFFFFFFFFFFFFFFFFFF AND DUP3 PUSH20 0xFFFFFFFFFFFFFFFFFFFFFFFFFFFFFFFFFFFFFFFF AND PUSH32 0x4A39DC06D4C0DBC64B70AF90FD698A233A518AA5D07E595D983B8C0526C8F7FB DUP8 DUP8 PUSH1 0x40 MLOAD PUSH2 0xD5F SWAP3 SWAP2 SWAP1 PUSH2 0x249D JUMP JUMPDEST PUSH1 0x40 MLOAD DUP1 SWAP2 SUB SWAP1 LOG4 PUSH2 0xD75 DUP2 DUP8 DUP8 DUP8 DUP8 DUP8 PUSH2 0x159A JUMP JUMPDEST PUSH2 0xD83 DUP2 DUP8 DUP8 DUP8 DUP8 DUP8 PUSH2 0x15A2 JUMP JUMPDEST POP POP POP POP POP POP JUMP JUMPDEST PUSH1 0x0 PUSH20 0xFFFFFFFFFFFFFFFFFFFFFFFFFFFFFFFFFFFFFFFF AND DUP5 PUSH20 0xFFFFFFFFFFFFFFFFFFFFFFFFFFFFFFFFFFFFFFFF AND EQ ISZERO PUSH2 0xDFB JUMPI PUSH1 0x40 MLOAD PUSH32 0x8C379A000000000000000000000000000000000000000000000000000000000 DUP2 MSTORE PUSH1 0x4 ADD PUSH2 0xDF2 SWAP1 PUSH2 0x2671 JUMP JUMPDEST PUSH1 0x40 MLOAD DUP1 SWAP2 SUB SWAP1 REVERT JUMPDEST PUSH1 0x0 PUSH2 0xE05 PUSH2 0xA5E JUMP JUMPDEST SWAP1 POP PUSH1 0x0 PUSH2 0xE12 DUP6 PUSH2 0x1789 JUMP JUMPDEST SWAP1 POP PUSH1 0x0 PUSH2 0xE1F DUP6 PUSH2 0x1789 JUMP JUMPDEST SWAP1 POP PUSH2 0xE30 DUP4 PUSH1 0x0 DUP10 DUP6 DUP6 DUP10 PUSH2 0x1592 JUMP JUMPDEST DUP5 PUSH1 0x2 PUSH1 0x0 DUP9 DUP2 MSTORE PUSH1 0x20 ADD SWAP1 DUP2 MSTORE PUSH1 0x20 ADD PUSH1 0x0 KECCAK256 PUSH1 0x0 DUP10 PUSH20 0xFFFFFFFFFFFFFFFFFFFFFFFFFFFFFFFFFFFFFFFF AND PUSH20 0xFFFFFFFFFFFFFFFFFFFFFFFFFFFFFFFFFFFFFFFF AND DUP2 MSTORE PUSH1 0x20 ADD SWAP1 DUP2 MSTORE PUSH1 0x20 ADD PUSH1 0x0 KECCAK256 PUSH1 0x0 DUP3 DUP3 SLOAD PUSH2 0xE90 SWAP2 SWAP1 PUSH2 0x2814 JUMP JUMPDEST SWAP3 POP POP DUP2 SWAP1 SSTORE POP DUP7 PUSH20 0xFFFFFFFFFFFFFFFFFFFFFFFFFFFFFFFFFFFFFFFF AND PUSH1 0x0 PUSH20 0xFFFFFFFFFFFFFFFFFFFFFFFFFFFFFFFFFFFFFFFF AND DUP5 PUSH20 0xFFFFFFFFFFFFFFFFFFFFFFFFFFFFFFFFFFFFFFFF AND PUSH32 0xC3D58168C5AE7397731D063D5BBF3D657854427343F4C083240F7AACAA2D0F62 DUP10 DUP10 PUSH1 0x40 MLOAD PUSH2 0xF0E SWAP3 SWAP2 SWAP1 PUSH2 0x26AC JUMP JUMPDEST PUSH1 0x40 MLOAD DUP1 SWAP2 SUB SWAP1 LOG4 PUSH2 0xF25 DUP4 PUSH1 0x0 DUP10 DUP6 DUP6 DUP10 PUSH2 0x159A JUMP JUMPDEST PUSH2 0xF34 DUP4 PUSH1 0x0 DUP10 DUP10 DUP10 DUP10 PUSH2 0x1803 JUMP JUMPDEST POP POP POP POP POP POP POP JUMP JUMPDEST DUP2 PUSH20 0xFFFFFFFFFFFFFFFFFFFFFFFFFFFFFFFFFFFFFFFF AND DUP4 PUSH20 0xFFFFFFFFFFFFFFFFFFFFFFFFFFFFFFFFFFFFFFFF AND EQ ISZERO PUSH2 0xFAC JUMPI PUSH1 0x40 MLOAD PUSH32 0x8C379A000000000000000000000000000000000000000000000000000000000 DUP2 MSTORE PUSH1 0x4 ADD PUSH2 0xFA3 SWAP1 PUSH2 0x2611 JUMP JUMPDEST PUSH1 0x40 MLOAD DUP1 SWAP2 SUB SWAP1 REVERT JUMPDEST DUP1 PUSH1 0x3 PUSH1 0x0 DUP6 PUSH20 0xFFFFFFFFFFFFFFFFFFFFFFFFFFFFFFFFFFFFFFFF AND PUSH20 0xFFFFFFFFFFFFFFFFFFFFFFFFFFFFFFFFFFFFFFFF AND DUP2 MSTORE PUSH1 0x20 ADD SWAP1 DUP2 MSTORE PUSH1 0x20 ADD PUSH1 0x0 KECCAK256 PUSH1 0x0 DUP5 PUSH20 0xFFFFFFFFFFFFFFFFFFFFFFFFFFFFFFFFFFFFFFFF AND PUSH20 0xFFFFFFFFFFFFFFFFFFFFFFFFFFFFFFFFFFFFFFFF AND DUP2 MSTORE PUSH1 0x20 ADD SWAP1 DUP2 MSTORE PUSH1 0x20 ADD PUSH1 0x0 KECCAK256 PUSH1 0x0 PUSH2 0x100 EXP DUP2 SLOAD DUP2 PUSH1 0xFF MUL NOT AND SWAP1 DUP4 ISZERO ISZERO MUL OR SWAP1 SSTORE POP DUP2 PUSH20 0xFFFFFFFFFFFFFFFFFFFFFFFFFFFFFFFFFFFFFFFF AND DUP4 PUSH20 0xFFFFFFFFFFFFFFFFFFFFFFFFFFFFFFFFFFFFFFFF AND PUSH32 0x17307EAB39AB6107E8899845AD3D59BD9653F200F220920489CA2B5937696C31 DUP4 PUSH1 0x40 MLOAD PUSH2 0x109D SWAP2 SWAP1 PUSH2 0x24D4 JUMP JUMPDEST PUSH1 0x40 MLOAD DUP1 SWAP2 SUB SWAP1 LOG3 POP POP POP JUMP JUMPDEST PUSH1 0x0 PUSH20 0xFFFFFFFFFFFFFFFFFFFFFFFFFFFFFFFFFFFFFFFF AND DUP5 PUSH20 0xFFFFFFFFFFFFFFFFFFFFFFFFFFFFFFFFFFFFFFFF AND EQ ISZERO PUSH2 0x111A JUMPI PUSH1 0x40 MLOAD PUSH32 0x8C379A000000000000000000000000000000000000000000000000000000000 DUP2 MSTORE PUSH1 0x4 ADD PUSH2 0x1111 SWAP1 PUSH2 0x25B1 JUMP JUMPDEST PUSH1 0x40 MLOAD DUP1 SWAP2 SUB SWAP1 REVERT JUMPDEST PUSH1 0x0 PUSH2 0x1124 PUSH2 0xA5E JUMP JUMPDEST SWAP1 POP PUSH1 0x0 PUSH2 0x1131 DUP6 PUSH2 0x1789 JUMP JUMPDEST SWAP1 POP PUSH1 0x0 PUSH2 0x113E DUP6 PUSH2 0x1789 JUMP JUMPDEST SWAP1 POP PUSH2 0x114E DUP4 DUP10 DUP10 DUP6 DUP6 DUP10 PUSH2 0x1592 JUMP JUMPDEST PUSH1 0x0 PUSH1 0x2 PUSH1 0x0 DUP9 DUP2 MSTORE PUSH1 0x20 ADD SWAP1 DUP2 MSTORE PUSH1 0x20 ADD PUSH1 0x0 KECCAK256 PUSH1 0x0 DUP11 PUSH20 0xFFFFFFFFFFFFFFFFFFFFFFFFFFFFFFFFFFFFFFFF AND PUSH20 0xFFFFFFFFFFFFFFFFFFFFFFFFFFFFFFFFFFFFFFFF AND DUP2 MSTORE PUSH1 0x20 ADD SWAP1 DUP2 MSTORE PUSH1 0x20 ADD PUSH1 0x0 KECCAK256 SLOAD SWAP1 POP DUP6 DUP2 LT ISZERO PUSH2 0x11E6 JUMPI PUSH1 0x40 MLOAD PUSH32 0x8C379A000000000000000000000000000000000000000000000000000000000 DUP2 MSTORE PUSH1 0x4 ADD PUSH2 0x11DD SWAP1 PUSH2 0x25F1 JUMP JUMPDEST PUSH1 0x40 MLOAD DUP1 SWAP2 SUB SWAP1 REVERT JUMPDEST DUP6 DUP2 SUB PUSH1 0x2 PUSH1 0x0 DUP10 DUP2 MSTORE PUSH1 0x20 ADD SWAP1 DUP2 MSTORE PUSH1 0x20 ADD PUSH1 0x0 KECCAK256 PUSH1 0x0 DUP12 PUSH20 0xFFFFFFFFFFFFFFFFFFFFFFFFFFFFFFFFFFFFFFFF AND PUSH20 0xFFFFFFFFFFFFFFFFFFFFFFFFFFFFFFFFFFFFFFFF AND DUP2 MSTORE PUSH1 0x20 ADD SWAP1 DUP2 MSTORE PUSH1 0x20 ADD PUSH1 0x0 KECCAK256 DUP2 SWAP1 SSTORE POP DUP6 PUSH1 0x2 PUSH1 0x0 DUP10 DUP2 MSTORE PUSH1 0x20 ADD SWAP1 DUP2 MSTORE PUSH1 0x20 ADD PUSH1 0x0 KECCAK256 PUSH1 0x0 DUP11 PUSH20 0xFFFFFFFFFFFFFFFFFFFFFFFFFFFFFFFFFFFFFFFF AND PUSH20 0xFFFFFFFFFFFFFFFFFFFFFFFFFFFFFFFFFFFFFFFF AND DUP2 MSTORE PUSH1 0x20 ADD SWAP1 DUP2 MSTORE PUSH1 0x20 ADD PUSH1 0x0 KECCAK256 PUSH1 0x0 DUP3 DUP3 SLOAD PUSH2 0x129D SWAP2 SWAP1 PUSH2 0x2814 JUMP JUMPDEST SWAP3 POP POP DUP2 SWAP1 SSTORE POP DUP8 PUSH20 0xFFFFFFFFFFFFFFFFFFFFFFFFFFFFFFFFFFFFFFFF AND DUP10 PUSH20 0xFFFFFFFFFFFFFFFFFFFFFFFFFFFFFFFFFFFFFFFF AND DUP6 PUSH20 0xFFFFFFFFFFFFFFFFFFFFFFFFFFFFFFFFFFFFFFFF AND PUSH32 0xC3D58168C5AE7397731D063D5BBF3D657854427343F4C083240F7AACAA2D0F62 DUP11 DUP11 PUSH1 0x40 MLOAD PUSH2 0x131A SWAP3 SWAP2 SWAP1 PUSH2 0x26AC JUMP JUMPDEST PUSH1 0x40 MLOAD DUP1 SWAP2 SUB SWAP1 LOG4 PUSH2 0x1330 DUP5 DUP11 DUP11 DUP7 DUP7 DUP11 PUSH2 0x159A JUMP JUMPDEST PUSH2 0x133E DUP5 DUP11 DUP11 DUP11 DUP11 DUP11 PUSH2 0x1803 JUMP JUMPDEST POP POP POP POP POP POP POP POP POP JUMP JUMPDEST PUSH1 0x0 PUSH20 0xFFFFFFFFFFFFFFFFFFFFFFFFFFFFFFFFFFFFFFFF AND DUP4 PUSH20 0xFFFFFFFFFFFFFFFFFFFFFFFFFFFFFFFFFFFFFFFF AND EQ ISZERO PUSH2 0x13B9 JUMPI PUSH1 0x40 MLOAD PUSH32 0x8C379A000000000000000000000000000000000000000000000000000000000 DUP2 MSTORE PUSH1 0x4 ADD PUSH2 0x13B0 SWAP1 PUSH2 0x25D1 JUMP JUMPDEST PUSH1 0x40 MLOAD DUP1 SWAP2 SUB SWAP1 REVERT JUMPDEST PUSH1 0x0 PUSH2 0x13C3 PUSH2 0xA5E JUMP JUMPDEST SWAP1 POP PUSH1 0x0 PUSH2 0x13D0 DUP5 PUSH2 0x1789 JUMP JUMPDEST SWAP1 POP PUSH1 0x0 PUSH2 0x13DD DUP5 PUSH2 0x1789 JUMP JUMPDEST SWAP1 POP PUSH2 0x13FD DUP4 DUP8 PUSH1 0x0 DUP6 DUP6 PUSH1 0x40 MLOAD DUP1 PUSH1 0x20 ADD PUSH1 0x40 MSTORE DUP1 PUSH1 0x0 DUP2 MSTORE POP PUSH2 0x1592 JUMP JUMPDEST PUSH1 0x0 PUSH1 0x2 PUSH1 0x0 DUP8 DUP2 MSTORE PUSH1 0x20 ADD SWAP1 DUP2 MSTORE PUSH1 0x20 ADD PUSH1 0x0 KECCAK256 PUSH1 0x0 DUP9 PUSH20 0xFFFFFFFFFFFFFFFFFFFFFFFFFFFFFFFFFFFFFFFF AND PUSH20 0xFFFFFFFFFFFFFFFFFFFFFFFFFFFFFFFFFFFFFFFF AND DUP2 MSTORE PUSH1 0x20 ADD SWAP1 DUP2 MSTORE PUSH1 0x20 ADD PUSH1 0x0 KECCAK256 SLOAD SWAP1 POP DUP5 DUP2 LT ISZERO PUSH2 0x1495 JUMPI PUSH1 0x40 MLOAD PUSH32 0x8C379A000000000000000000000000000000000000000000000000000000000 DUP2 MSTORE PUSH1 0x4 ADD PUSH2 0x148C SWAP1 PUSH2 0x2571 JUMP JUMPDEST PUSH1 0x40 MLOAD DUP1 SWAP2 SUB SWAP1 REVERT JUMPDEST DUP5 DUP2 SUB PUSH1 0x2 PUSH1 0x0 DUP9 DUP2 MSTORE PUSH1 0x20 ADD SWAP1 DUP2 MSTORE PUSH1 0x20 ADD PUSH1 0x0 KECCAK256 PUSH1 0x0 DUP10 PUSH20 0xFFFFFFFFFFFFFFFFFFFFFFFFFFFFFFFFFFFFFFFF AND PUSH20 0xFFFFFFFFFFFFFFFFFFFFFFFFFFFFFFFFFFFFFFFF AND DUP2 MSTORE PUSH1 0x20 ADD SWAP1 DUP2 MSTORE PUSH1 0x20 ADD PUSH1 0x0 KECCAK256 DUP2 SWAP1 SSTORE POP PUSH1 0x0 PUSH20 0xFFFFFFFFFFFFFFFFFFFFFFFFFFFFFFFFFFFFFFFF AND DUP8 PUSH20 0xFFFFFFFFFFFFFFFFFFFFFFFFFFFFFFFFFFFFFFFF AND DUP6 PUSH20 0xFFFFFFFFFFFFFFFFFFFFFFFFFFFFFFFFFFFFFFFF AND PUSH32 0xC3D58168C5AE7397731D063D5BBF3D657854427343F4C083240F7AACAA2D0F62 DUP10 DUP10 PUSH1 0x40 MLOAD PUSH2 0x1563 SWAP3 SWAP2 SWAP1 PUSH2 0x26AC JUMP JUMPDEST PUSH1 0x40 MLOAD DUP1 SWAP2 SUB SWAP1 LOG4 PUSH2 0x1589 DUP5 DUP9 PUSH1 0x0 DUP7 DUP7 PUSH1 0x40 MLOAD DUP1 PUSH1 0x20 ADD PUSH1 0x40 MSTORE DUP1 PUSH1 0x0 DUP2 MSTORE POP PUSH2 0x159A JUMP JUMPDEST POP POP POP POP POP POP POP JUMP JUMPDEST POP POP POP POP POP POP JUMP JUMPDEST POP POP POP POP POP POP JUMP JUMPDEST PUSH2 0x15C1 DUP5 PUSH20 0xFFFFFFFFFFFFFFFFFFFFFFFFFFFFFFFFFFFFFFFF AND PUSH2 0x19EA JUMP JUMPDEST ISZERO PUSH2 0x1781 JUMPI DUP4 PUSH20 0xFFFFFFFFFFFFFFFFFFFFFFFFFFFFFFFFFFFFFFFF AND PUSH4 0xBC197C81 DUP8 DUP8 DUP7 DUP7 DUP7 PUSH1 0x40 MLOAD DUP7 PUSH4 0xFFFFFFFF AND PUSH1 0xE0 SHL DUP2 MSTORE PUSH1 0x4 ADD PUSH2 0x1607 SWAP6 SWAP5 SWAP4 SWAP3 SWAP2 SWAP1 PUSH2 0x23B9 JUMP JUMPDEST PUSH1 0x20 PUSH1 0x40 MLOAD DUP1 DUP4 SUB DUP2 PUSH1 0x0 DUP8 DUP1 EXTCODESIZE ISZERO DUP1 ISZERO PUSH2 0x1621 JUMPI PUSH1 0x0 DUP1 REVERT JUMPDEST POP GAS CALL SWAP3 POP POP POP DUP1 ISZERO PUSH2 0x1652 JUMPI POP PUSH1 0x40 MLOAD RETURNDATASIZE PUSH1 0x1F NOT PUSH1 0x1F DUP3 ADD AND DUP3 ADD DUP1 PUSH1 0x40 MSTORE POP DUP2 ADD SWAP1 PUSH2 0x164F SWAP2 SWAP1 PUSH2 0x1FC3 JUMP JUMPDEST PUSH1 0x1 JUMPDEST PUSH2 0x16F8 JUMPI PUSH2 0x165E PUSH2 0x2B4D JUMP JUMPDEST DUP1 PUSH4 0x8C379A0 EQ ISZERO PUSH2 0x16BB JUMPI POP PUSH2 0x1673 PUSH2 0x2F5A JUMP JUMPDEST DUP1 PUSH2 0x167E JUMPI POP PUSH2 0x16BD JUMP JUMPDEST DUP1 PUSH1 0x40 MLOAD PUSH32 0x8C379A000000000000000000000000000000000000000000000000000000000 DUP2 MSTORE PUSH1 0x4 ADD PUSH2 0x16B2 SWAP2 SWAP1 PUSH2 0x24EF JUMP JUMPDEST PUSH1 0x40 MLOAD DUP1 SWAP2 SUB SWAP1 REVERT JUMPDEST POP JUMPDEST PUSH1 0x40 MLOAD PUSH32 0x8C379A000000000000000000000000000000000000000000000000000000000 DUP2 MSTORE PUSH1 0x4 ADD PUSH2 0x16EF SWAP1 PUSH2 0x2511 JUMP JUMPDEST PUSH1 0x40 MLOAD DUP1 SWAP2 SUB SWAP1 REVERT JUMPDEST PUSH4 0xBC197C81 PUSH1 0xE0 SHL PUSH28 0xFFFFFFFFFFFFFFFFFFFFFFFFFFFFFFFFFFFFFFFFFFFFFFFFFFFFFFFF NOT AND DUP2 PUSH28 0xFFFFFFFFFFFFFFFFFFFFFFFFFFFFFFFFFFFFFFFFFFFFFFFFFFFFFFFF NOT AND EQ PUSH2 0x177F JUMPI PUSH1 0x40 MLOAD PUSH32 0x8C379A000000000000000000000000000000000000000000000000000000000 DUP2 MSTORE PUSH1 0x4 ADD PUSH2 0x1776 SWAP1 PUSH2 0x2551 JUMP JUMPDEST PUSH1 0x40 MLOAD DUP1 SWAP2 SUB SWAP1 REVERT JUMPDEST POP JUMPDEST POP POP POP POP POP POP JUMP JUMPDEST PUSH1 0x60 PUSH1 0x0 PUSH1 0x1 PUSH8 0xFFFFFFFFFFFFFFFF DUP2 GT ISZERO PUSH2 0x17A8 JUMPI PUSH2 0x17A7 PUSH2 0x2B1E JUMP JUMPDEST JUMPDEST PUSH1 0x40 MLOAD SWAP1 DUP1 DUP3 MSTORE DUP1 PUSH1 0x20 MUL PUSH1 0x20 ADD DUP3 ADD PUSH1 0x40 MSTORE DUP1 ISZERO PUSH2 0x17D6 JUMPI DUP2 PUSH1 0x20 ADD PUSH1 0x20 DUP3 MUL DUP1 CALLDATASIZE DUP4 CALLDATACOPY DUP1 DUP3 ADD SWAP2 POP POP SWAP1 POP JUMPDEST POP SWAP1 POP DUP3 DUP2 PUSH1 0x0 DUP2 MLOAD DUP2 LT PUSH2 0x17EE JUMPI PUSH2 0x17ED PUSH2 0x2AEF JUMP JUMPDEST JUMPDEST PUSH1 0x20 MUL PUSH1 0x20 ADD ADD DUP2 DUP2 MSTORE POP POP DUP1 SWAP2 POP POP SWAP2 SWAP1 POP JUMP JUMPDEST PUSH2 0x1822 DUP5 PUSH20 0xFFFFFFFFFFFFFFFFFFFFFFFFFFFFFFFFFFFFFFFF AND PUSH2 0x19EA JUMP JUMPDEST ISZERO PUSH2 0x19E2 JUMPI DUP4 PUSH20 0xFFFFFFFFFFFFFFFFFFFFFFFFFFFFFFFFFFFFFFFF AND PUSH4 0xF23A6E61 DUP8 DUP8 DUP7 DUP7 DUP7 PUSH1 0x40 MLOAD DUP7 PUSH4 0xFFFFFFFF AND PUSH1 0xE0 SHL DUP2 MSTORE PUSH1 0x4 ADD PUSH2 0x1868 SWAP6 SWAP5 SWAP4 SWAP3 SWAP2 SWAP1 PUSH2 0x2421 JUMP JUMPDEST PUSH1 0x20 PUSH1 0x40 MLOAD DUP1 DUP4 SUB DUP2 PUSH1 0x0 DUP8 DUP1 EXTCODESIZE ISZERO DUP1 ISZERO PUSH2 0x1882 JUMPI PUSH1 0x0 DUP1 REVERT JUMPDEST POP GAS CALL SWAP3 POP POP POP DUP1 ISZERO PUSH2 0x18B3 JUMPI POP PUSH1 0x40 MLOAD RETURNDATASIZE PUSH1 0x1F NOT PUSH1 0x1F DUP3 ADD AND DUP3 ADD DUP1 PUSH1 0x40 MSTORE POP DUP2 ADD SWAP1 PUSH2 0x18B0 SWAP2 SWAP1 PUSH2 0x1FC3 JUMP JUMPDEST PUSH1 0x1 JUMPDEST PUSH2 0x1959 JUMPI PUSH2 0x18BF PUSH2 0x2B4D JUMP JUMPDEST DUP1 PUSH4 0x8C379A0 EQ ISZERO PUSH2 0x191C JUMPI POP PUSH2 0x18D4 PUSH2 0x2F5A JUMP JUMPDEST DUP1 PUSH2 0x18DF JUMPI POP PUSH2 0x191E JUMP JUMPDEST DUP1 PUSH1 0x40 MLOAD PUSH32 0x8C379A000000000000000000000000000000000000000000000000000000000 DUP2 MSTORE PUSH1 0x4 ADD PUSH2 0x1913 SWAP2 SWAP1 PUSH2 0x24EF JUMP JUMPDEST PUSH1 0x40 MLOAD DUP1 SWAP2 SUB SWAP1 REVERT JUMPDEST POP JUMPDEST PUSH1 0x40 MLOAD PUSH32 0x8C379A000000000000000000000000000000000000000000000000000000000 DUP2 MSTORE PUSH1 0x4 ADD PUSH2 0x1950 SWAP1 PUSH2 0x2511 JUMP JUMPDEST PUSH1 0x40 MLOAD DUP1 SWAP2 SUB SWAP1 REVERT JUMPDEST PUSH4 0xF23A6E61 PUSH1 0xE0 SHL PUSH28 0xFFFFFFFFFFFFFFFFFFFFFFFFFFFFFFFFFFFFFFFFFFFFFFFFFFFFFFFF NOT AND DUP2 PUSH28 0xFFFFFFFFFFFFFFFFFFFFFFFFFFFFFFFFFFFFFFFFFFFFFFFFFFFFFFFF NOT AND EQ PUSH2 0x19E0 JUMPI PUSH1 0x40 MLOAD PUSH32 0x8C379A000000000000000000000000000000000000000000000000000000000 DUP2 MSTORE PUSH1 0x4 ADD PUSH2 0x19D7 SWAP1 PUSH2 0x2551 JUMP JUMPDEST PUSH1 0x40 MLOAD DUP1 SWAP2 SUB SWAP1 REVERT JUMPDEST POP JUMPDEST POP POP POP POP POP POP JUMP JUMPDEST PUSH1 0x0 DUP1 DUP3 PUSH20 0xFFFFFFFFFFFFFFFFFFFFFFFFFFFFFFFFFFFFFFFF AND EXTCODESIZE GT SWAP1 POP SWAP2 SWAP1 POP JUMP JUMPDEST PUSH1 0x0 PUSH2 0x1A20 PUSH2 0x1A1B DUP5 PUSH2 0x26FA JUMP JUMPDEST PUSH2 0x26D5 JUMP JUMPDEST SWAP1 POP DUP1 DUP4 DUP3 MSTORE PUSH1 0x20 DUP3 ADD SWAP1 POP DUP3 DUP6 PUSH1 0x20 DUP7 MUL DUP3 ADD GT ISZERO PUSH2 0x1A43 JUMPI PUSH2 0x1A42 PUSH2 0x2B74 JUMP JUMPDEST JUMPDEST PUSH1 0x0 JUMPDEST DUP6 DUP2 LT ISZERO PUSH2 0x1A73 JUMPI DUP2 PUSH2 0x1A59 DUP9 DUP3 PUSH2 0x1B2F JUMP JUMPDEST DUP5 MSTORE PUSH1 0x20 DUP5 ADD SWAP4 POP PUSH1 0x20 DUP4 ADD SWAP3 POP POP PUSH1 0x1 DUP2 ADD SWAP1 POP PUSH2 0x1A46 JUMP JUMPDEST POP POP POP SWAP4 SWAP3 POP POP POP JUMP JUMPDEST PUSH1 0x0 PUSH2 0x1A90 PUSH2 0x1A8B DUP5 PUSH2 0x2726 JUMP JUMPDEST PUSH2 0x26D5 JUMP JUMPDEST SWAP1 POP DUP1 DUP4 DUP3 MSTORE PUSH1 0x20 DUP3 ADD SWAP1 POP DUP3 DUP6 PUSH1 0x20 DUP7 MUL DUP3 ADD GT ISZERO PUSH2 0x1AB3 JUMPI PUSH2 0x1AB2 PUSH2 0x2B74 JUMP JUMPDEST JUMPDEST PUSH1 0x0 JUMPDEST DUP6 DUP2 LT ISZERO PUSH2 0x1AE3 JUMPI DUP2 PUSH2 0x1AC9 DUP9 DUP3 PUSH2 0x1C0D JUMP JUMPDEST DUP5 MSTORE PUSH1 0x20 DUP5 ADD SWAP4 POP PUSH1 0x20 DUP4 ADD SWAP3 POP POP PUSH1 0x1 DUP2 ADD SWAP1 POP PUSH2 0x1AB6 JUMP JUMPDEST POP POP POP SWAP4 SWAP3 POP POP POP JUMP JUMPDEST PUSH1 0x0 PUSH2 0x1B00 PUSH2 0x1AFB DUP5 PUSH2 0x2752 JUMP JUMPDEST PUSH2 0x26D5 JUMP JUMPDEST SWAP1 POP DUP3 DUP2 MSTORE PUSH1 0x20 DUP2 ADD DUP5 DUP5 DUP5 ADD GT ISZERO PUSH2 0x1B1C JUMPI PUSH2 0x1B1B PUSH2 0x2B79 JUMP JUMPDEST JUMPDEST PUSH2 0x1B27 DUP5 DUP3 DUP6 PUSH2 0x2943 JUMP JUMPDEST POP SWAP4 SWAP3 POP POP POP JUMP JUMPDEST PUSH1 0x0 DUP2 CALLDATALOAD SWAP1 POP PUSH2 0x1B3E DUP2 PUSH2 0x2FF0 JUMP JUMPDEST SWAP3 SWAP2 POP POP JUMP JUMPDEST PUSH1 0x0 DUP3 PUSH1 0x1F DUP4 ADD SLT PUSH2 0x1B59 JUMPI PUSH2 0x1B58 PUSH2 0x2B6F JUMP JUMPDEST JUMPDEST DUP2 CALLDATALOAD PUSH2 0x1B69 DUP5 DUP3 PUSH1 0x20 DUP7 ADD PUSH2 0x1A0D JUMP JUMPDEST SWAP2 POP POP SWAP3 SWAP2 POP POP JUMP JUMPDEST PUSH1 0x0 DUP3 PUSH1 0x1F DUP4 ADD SLT PUSH2 0x1B87 JUMPI PUSH2 0x1B86 PUSH2 0x2B6F JUMP JUMPDEST JUMPDEST DUP2 CALLDATALOAD PUSH2 0x1B97 DUP5 DUP3 PUSH1 0x20 DUP7 ADD PUSH2 0x1A7D JUMP JUMPDEST SWAP2 POP POP SWAP3 SWAP2 POP POP JUMP JUMPDEST PUSH1 0x0 DUP2 CALLDATALOAD SWAP1 POP PUSH2 0x1BAF DUP2 PUSH2 0x3007 JUMP JUMPDEST SWAP3 SWAP2 POP POP JUMP JUMPDEST PUSH1 0x0 DUP2 CALLDATALOAD SWAP1 POP PUSH2 0x1BC4 DUP2 PUSH2 0x301E JUMP JUMPDEST SWAP3 SWAP2 POP POP JUMP JUMPDEST PUSH1 0x0 DUP2 MLOAD SWAP1 POP PUSH2 0x1BD9 DUP2 PUSH2 0x301E JUMP JUMPDEST SWAP3 SWAP2 POP POP JUMP JUMPDEST PUSH1 0x0 DUP3 PUSH1 0x1F DUP4 ADD SLT PUSH2 0x1BF4 JUMPI PUSH2 0x1BF3 PUSH2 0x2B6F JUMP JUMPDEST JUMPDEST DUP2 CALLDATALOAD PUSH2 0x1C04 DUP5 DUP3 PUSH1 0x20 DUP7 ADD PUSH2 0x1AED JUMP JUMPDEST SWAP2 POP POP SWAP3 SWAP2 POP POP JUMP JUMPDEST PUSH1 0x0 DUP2 CALLDATALOAD SWAP1 POP PUSH2 0x1C1C DUP2 PUSH2 0x3035 JUMP JUMPDEST SWAP3 SWAP2 POP POP JUMP JUMPDEST PUSH1 0x0 DUP1 PUSH1 0x40 DUP4 DUP6 SUB SLT ISZERO PUSH2 0x1C39 JUMPI PUSH2 0x1C38 PUSH2 0x2B83 JUMP JUMPDEST JUMPDEST PUSH1 0x0 PUSH2 0x1C47 DUP6 DUP3 DUP7 ADD PUSH2 0x1B2F JUMP JUMPDEST SWAP3 POP POP PUSH1 0x20 PUSH2 0x1C58 DUP6 DUP3 DUP7 ADD PUSH2 0x1B2F JUMP JUMPDEST SWAP2 POP POP SWAP3 POP SWAP3 SWAP1 POP JUMP JUMPDEST PUSH1 0x0 DUP1 PUSH1 0x0 DUP1 PUSH1 0x0 PUSH1 0xA0 DUP7 DUP9 SUB SLT ISZERO PUSH2 0x1C7E JUMPI PUSH2 0x1C7D PUSH2 0x2B83 JUMP JUMPDEST JUMPDEST PUSH1 0x0 PUSH2 0x1C8C DUP9 DUP3 DUP10 ADD PUSH2 0x1B2F JUMP JUMPDEST SWAP6 POP POP PUSH1 0x20 PUSH2 0x1C9D DUP9 DUP3 DUP10 ADD PUSH2 0x1B2F JUMP JUMPDEST SWAP5 POP POP PUSH1 0x40 DUP7 ADD CALLDATALOAD PUSH8 0xFFFFFFFFFFFFFFFF DUP2 GT ISZERO PUSH2 0x1CBE JUMPI PUSH2 0x1CBD PUSH2 0x2B7E JUMP JUMPDEST JUMPDEST PUSH2 0x1CCA DUP9 DUP3 DUP10 ADD PUSH2 0x1B72 JUMP JUMPDEST SWAP4 POP POP PUSH1 0x60 DUP7 ADD CALLDATALOAD PUSH8 0xFFFFFFFFFFFFFFFF DUP2 GT ISZERO PUSH2 0x1CEB JUMPI PUSH2 0x1CEA PUSH2 0x2B7E JUMP JUMPDEST JUMPDEST PUSH2 0x1CF7 DUP9 DUP3 DUP10 ADD PUSH2 0x1B72 JUMP JUMPDEST SWAP3 POP POP PUSH1 0x80 DUP7 ADD CALLDATALOAD PUSH8 0xFFFFFFFFFFFFFFFF DUP2 GT ISZERO PUSH2 0x1D18 JUMPI PUSH2 0x1D17 PUSH2 0x2B7E JUMP JUMPDEST JUMPDEST PUSH2 0x1D24 DUP9 DUP3 DUP10 ADD PUSH2 0x1BDF JUMP JUMPDEST SWAP2 POP POP SWAP3 SWAP6 POP SWAP3 SWAP6 SWAP1 SWAP4 POP JUMP JUMPDEST PUSH1 0x0 DUP1 PUSH1 0x0 DUP1 PUSH1 0x0 PUSH1 0xA0 DUP7 DUP9 SUB SLT ISZERO PUSH2 0x1D4D JUMPI PUSH2 0x1D4C PUSH2 0x2B83 JUMP JUMPDEST JUMPDEST PUSH1 0x0 PUSH2 0x1D5B DUP9 DUP3 DUP10 ADD PUSH2 0x1B2F JUMP JUMPDEST SWAP6 POP POP PUSH1 0x20 PUSH2 0x1D6C DUP9 DUP3 DUP10 ADD PUSH2 0x1B2F JUMP JUMPDEST SWAP5 POP POP PUSH1 0x40 PUSH2 0x1D7D DUP9 DUP3 DUP10 ADD PUSH2 0x1C0D JUMP JUMPDEST SWAP4 POP POP PUSH1 0x60 PUSH2 0x1D8E DUP9 DUP3 DUP10 ADD PUSH2 0x1C0D JUMP JUMPDEST SWAP3 POP POP PUSH1 0x80 DUP7 ADD CALLDATALOAD PUSH8 0xFFFFFFFFFFFFFFFF DUP2 GT ISZERO PUSH2 0x1DAF JUMPI PUSH2 0x1DAE PUSH2 0x2B7E JUMP JUMPDEST JUMPDEST PUSH2 0x1DBB DUP9 DUP3 DUP10 ADD PUSH2 0x1BDF JUMP JUMPDEST SWAP2 POP POP SWAP3 SWAP6 POP SWAP3 SWAP6 SWAP1 SWAP4 POP JUMP JUMPDEST PUSH1 0x0 DUP1 PUSH1 0x40 DUP4 DUP6 SUB SLT ISZERO PUSH2 0x1DDF JUMPI PUSH2 0x1DDE PUSH2 0x2B83 JUMP JUMPDEST JUMPDEST PUSH1 0x0 PUSH2 0x1DED DUP6 DUP3 DUP7 ADD PUSH2 0x1B2F JUMP JUMPDEST SWAP3 POP POP PUSH1 0x20 PUSH2 0x1DFE DUP6 DUP3 DUP7 ADD PUSH2 0x1BA0 JUMP JUMPDEST SWAP2 POP POP SWAP3 POP SWAP3 SWAP1 POP JUMP JUMPDEST PUSH1 0x0 DUP1 PUSH1 0x40 DUP4 DUP6 SUB SLT ISZERO PUSH2 0x1E1F JUMPI PUSH2 0x1E1E PUSH2 0x2B83 JUMP JUMPDEST JUMPDEST PUSH1 0x0 PUSH2 0x1E2D DUP6 DUP3 DUP7 ADD PUSH2 0x1B2F JUMP JUMPDEST SWAP3 POP POP PUSH1 0x20 PUSH2 0x1E3E DUP6 DUP3 DUP7 ADD PUSH2 0x1C0D JUMP JUMPDEST SWAP2 POP POP SWAP3 POP SWAP3 SWAP1 POP JUMP JUMPDEST PUSH1 0x0 DUP1 PUSH1 0x0 PUSH1 0x60 DUP5 DUP7 SUB SLT ISZERO PUSH2 0x1E61 JUMPI PUSH2 0x1E60 PUSH2 0x2B83 JUMP JUMPDEST JUMPDEST PUSH1 0x0 PUSH2 0x1E6F DUP7 DUP3 DUP8 ADD PUSH2 0x1B2F JUMP JUMPDEST SWAP4 POP POP PUSH1 0x20 PUSH2 0x1E80 DUP7 DUP3 DUP8 ADD PUSH2 0x1C0D JUMP JUMPDEST SWAP3 POP POP PUSH1 0x40 PUSH2 0x1E91 DUP7 DUP3 DUP8 ADD PUSH2 0x1C0D JUMP JUMPDEST SWAP2 POP POP SWAP3 POP SWAP3 POP SWAP3 JUMP JUMPDEST PUSH1 0x0 DUP1 PUSH1 0x0 DUP1 PUSH1 0x80 DUP6 DUP8 SUB SLT ISZERO PUSH2 0x1EB5 JUMPI PUSH2 0x1EB4 PUSH2 0x2B83 JUMP JUMPDEST JUMPDEST PUSH1 0x0 PUSH2 0x1EC3 DUP8 DUP3 DUP9 ADD PUSH2 0x1B2F JUMP JUMPDEST SWAP5 POP POP PUSH1 0x20 PUSH2 0x1ED4 DUP8 DUP3 DUP9 ADD PUSH2 0x1C0D JUMP JUMPDEST SWAP4 POP POP PUSH1 0x40 PUSH2 0x1EE5 DUP8 DUP3 DUP9 ADD PUSH2 0x1C0D JUMP JUMPDEST SWAP3 POP POP PUSH1 0x60 DUP6 ADD CALLDATALOAD PUSH8 0xFFFFFFFFFFFFFFFF DUP2 GT ISZERO PUSH2 0x1F06 JUMPI PUSH2 0x1F05 PUSH2 0x2B7E JUMP JUMPDEST JUMPDEST PUSH2 0x1F12 DUP8 DUP3 DUP9 ADD PUSH2 0x1BDF JUMP JUMPDEST SWAP2 POP POP SWAP3 SWAP6 SWAP2 SWAP5 POP SWAP3 POP JUMP JUMPDEST PUSH1 0x0 DUP1 PUSH1 0x40 DUP4 DUP6 SUB SLT ISZERO PUSH2 0x1F35 JUMPI PUSH2 0x1F34 PUSH2 0x2B83 JUMP JUMPDEST JUMPDEST PUSH1 0x0 DUP4 ADD CALLDATALOAD PUSH8 0xFFFFFFFFFFFFFFFF DUP2 GT ISZERO PUSH2 0x1F53 JUMPI PUSH2 0x1F52 PUSH2 0x2B7E JUMP JUMPDEST JUMPDEST PUSH2 0x1F5F DUP6 DUP3 DUP7 ADD PUSH2 0x1B44 JUMP JUMPDEST SWAP3 POP POP PUSH1 0x20 DUP4 ADD CALLDATALOAD PUSH8 0xFFFFFFFFFFFFFFFF DUP2 GT ISZERO PUSH2 0x1F80 JUMPI PUSH2 0x1F7F PUSH2 0x2B7E JUMP JUMPDEST JUMPDEST PUSH2 0x1F8C DUP6 DUP3 DUP7 ADD PUSH2 0x1B72 JUMP JUMPDEST SWAP2 POP POP SWAP3 POP SWAP3 SWAP1 POP JUMP JUMPDEST PUSH1 0x0 PUSH1 0x20 DUP3 DUP5 SUB SLT ISZERO PUSH2 0x1FAC JUMPI PUSH2 0x1FAB PUSH2 0x2B83 JUMP JUMPDEST JUMPDEST PUSH1 0x0 PUSH2 0x1FBA DUP5 DUP3 DUP6 ADD PUSH2 0x1BB5 JUMP JUMPDEST SWAP2 POP POP SWAP3 SWAP2 POP POP JUMP JUMPDEST PUSH1 0x0 PUSH1 0x20 DUP3 DUP5 SUB SLT ISZERO PUSH2 0x1FD9 JUMPI PUSH2 0x1FD8 PUSH2 0x2B83 JUMP JUMPDEST JUMPDEST PUSH1 0x0 PUSH2 0x1FE7 DUP5 DUP3 DUP6 ADD PUSH2 0x1BCA JUMP JUMPDEST SWAP2 POP POP SWAP3 SWAP2 POP POP JUMP JUMPDEST PUSH1 0x0 PUSH1 0x20 DUP3 DUP5 SUB SLT ISZERO PUSH2 0x2006 JUMPI PUSH2 0x2005 PUSH2 0x2B83 JUMP JUMPDEST JUMPDEST PUSH1 0x0 PUSH2 0x2014 DUP5 DUP3 DUP6 ADD PUSH2 0x1C0D JUMP JUMPDEST SWAP2 POP POP SWAP3 SWAP2 POP POP JUMP JUMPDEST PUSH1 0x0 PUSH2 0x2029 DUP4 DUP4 PUSH2 0x2377 JUMP JUMPDEST PUSH1 0x20 DUP4 ADD SWAP1 POP SWAP3 SWAP2 POP POP JUMP JUMPDEST PUSH2 0x203E DUP2 PUSH2 0x28CF JUMP JUMPDEST DUP3 MSTORE POP POP JUMP JUMPDEST PUSH1 0x0 PUSH2 0x204F DUP3 PUSH2 0x27A8 JUMP JUMPDEST PUSH2 0x2059 DUP2 DUP6 PUSH2 0x27D6 JUMP JUMPDEST SWAP4 POP PUSH2 0x2064 DUP4 PUSH2 0x2783 JUMP JUMPDEST DUP1 PUSH1 0x0 JUMPDEST DUP4 DUP2 LT ISZERO PUSH2 0x2095 JUMPI DUP2 MLOAD PUSH2 0x207C DUP9 DUP3 PUSH2 0x201D JUMP JUMPDEST SWAP8 POP PUSH2 0x2087 DUP4 PUSH2 0x27C9 JUMP JUMPDEST SWAP3 POP POP PUSH1 0x1 DUP2 ADD SWAP1 POP PUSH2 0x2068 JUMP JUMPDEST POP DUP6 SWAP4 POP POP POP POP SWAP3 SWAP2 POP POP JUMP JUMPDEST PUSH2 0x20AB DUP2 PUSH2 0x28E1 JUMP JUMPDEST DUP3 MSTORE POP POP JUMP JUMPDEST PUSH1 0x0 PUSH2 0x20BC DUP3 PUSH2 0x27B3 JUMP JUMPDEST PUSH2 0x20C6 DUP2 DUP6 PUSH2 0x27E7 JUMP JUMPDEST SWAP4 POP PUSH2 0x20D6 DUP2 DUP6 PUSH1 0x20 DUP7 ADD PUSH2 0x2952 JUMP JUMPDEST PUSH2 0x20DF DUP2 PUSH2 0x2B88 JUMP JUMPDEST DUP5 ADD SWAP2 POP POP SWAP3 SWAP2 POP POP JUMP JUMPDEST PUSH1 0x0 PUSH2 0x20F5 DUP3 PUSH2 0x27BE JUMP JUMPDEST PUSH2 0x20FF DUP2 DUP6 PUSH2 0x27F8 JUMP JUMPDEST SWAP4 POP PUSH2 0x210F DUP2 DUP6 PUSH1 0x20 DUP7 ADD PUSH2 0x2952 JUMP JUMPDEST PUSH2 0x2118 DUP2 PUSH2 0x2B88 JUMP JUMPDEST DUP5 ADD SWAP2 POP POP SWAP3 SWAP2 POP POP JUMP JUMPDEST PUSH1 0x0 PUSH2 0x212E DUP3 PUSH2 0x27BE JUMP JUMPDEST PUSH2 0x2138 DUP2 DUP6 PUSH2 0x2809 JUMP JUMPDEST SWAP4 POP PUSH2 0x2148 DUP2 DUP6 PUSH1 0x20 DUP7 ADD PUSH2 0x2952 JUMP JUMPDEST DUP1 DUP5 ADD SWAP2 POP POP SWAP3 SWAP2 POP POP JUMP JUMPDEST PUSH1 0x0 DUP2 SLOAD PUSH2 0x2161 DUP2 PUSH2 0x2985 JUMP JUMPDEST PUSH2 0x216B DUP2 DUP7 PUSH2 0x2809 JUMP JUMPDEST SWAP5 POP PUSH1 0x1 DUP3 AND PUSH1 0x0 DUP2 EQ PUSH2 0x2186 JUMPI PUSH1 0x1 DUP2 EQ PUSH2 0x2197 JUMPI PUSH2 0x21CA JUMP JUMPDEST PUSH1 0xFF NOT DUP4 AND DUP7 MSTORE DUP2 DUP7 ADD SWAP4 POP PUSH2 0x21CA JUMP JUMPDEST PUSH2 0x21A0 DUP6 PUSH2 0x2793 JUMP JUMPDEST PUSH1 0x0 JUMPDEST DUP4 DUP2 LT ISZERO PUSH2 0x21C2 JUMPI DUP2 SLOAD DUP2 DUP10 ADD MSTORE PUSH1 0x1 DUP3 ADD SWAP2 POP PUSH1 0x20 DUP2 ADD SWAP1 POP PUSH2 0x21A3 JUMP JUMPDEST DUP4 DUP9 ADD SWAP6 POP POP POP JUMPDEST POP POP POP SWAP3 SWAP2 POP POP JUMP JUMPDEST PUSH1 0x0 PUSH2 0x21E0 PUSH1 0x34 DUP4 PUSH2 0x27F8 JUMP JUMPDEST SWAP2 POP PUSH2 0x21EB DUP3 PUSH2 0x2BA6 JUMP JUMPDEST PUSH1 0x40 DUP3 ADD SWAP1 POP SWAP2 SWAP1 POP JUMP JUMPDEST PUSH1 0x0 PUSH2 0x2203 PUSH1 0x2F DUP4 PUSH2 0x27F8 JUMP JUMPDEST SWAP2 POP PUSH2 0x220E DUP3 PUSH2 0x2BF5 JUMP JUMPDEST PUSH1 0x40 DUP3 ADD SWAP1 POP SWAP2 SWAP1 POP JUMP JUMPDEST PUSH1 0x0 PUSH2 0x2226 PUSH1 0x28 DUP4 PUSH2 0x27F8 JUMP JUMPDEST SWAP2 POP PUSH2 0x2231 DUP3 PUSH2 0x2C44 JUMP JUMPDEST PUSH1 0x40 DUP3 ADD SWAP1 POP SWAP2 SWAP1 POP JUMP JUMPDEST PUSH1 0x0 PUSH2 0x2249 PUSH1 0x24 DUP4 PUSH2 0x27F8 JUMP JUMPDEST SWAP2 POP PUSH2 0x2254 DUP3 PUSH2 0x2C93 JUMP JUMPDEST PUSH1 0x40 DUP3 ADD SWAP1 POP SWAP2 SWAP1 POP JUMP JUMPDEST PUSH1 0x0 PUSH2 0x226C PUSH1 0x2A DUP4 PUSH2 0x27F8 JUMP JUMPDEST SWAP2 POP PUSH2 0x2277 DUP3 PUSH2 0x2CE2 JUMP JUMPDEST PUSH1 0x40 DUP3 ADD SWAP1 POP SWAP2 SWAP1 POP JUMP JUMPDEST PUSH1 0x0 PUSH2 0x228F PUSH1 0x25 DUP4 PUSH2 0x27F8 JUMP JUMPDEST SWAP2 POP PUSH2 0x229A DUP3 PUSH2 0x2D31 JUMP JUMPDEST PUSH1 0x40 DUP3 ADD SWAP1 POP SWAP2 SWAP1 POP JUMP JUMPDEST PUSH1 0x0 PUSH2 0x22B2 PUSH1 0x23 DUP4 PUSH2 0x27F8 JUMP JUMPDEST SWAP2 POP PUSH2 0x22BD DUP3 PUSH2 0x2D80 JUMP JUMPDEST PUSH1 0x40 DUP3 ADD SWAP1 POP SWAP2 SWAP1 POP JUMP JUMPDEST PUSH1 0x0 PUSH2 0x22D5 PUSH1 0x2A DUP4 PUSH2 0x27F8 JUMP JUMPDEST SWAP2 POP PUSH2 0x22E0 DUP3 PUSH2 0x2DCF JUMP JUMPDEST PUSH1 0x40 DUP3 ADD SWAP1 POP SWAP2 SWAP1 POP JUMP JUMPDEST PUSH1 0x0 PUSH2 0x22F8 PUSH1 0x29 DUP4 PUSH2 0x27F8 JUMP JUMPDEST SWAP2 POP PUSH2 0x2303 DUP3 PUSH2 0x2E1E JUMP JUMPDEST PUSH1 0x40 DUP3 ADD SWAP1 POP SWAP2 SWAP1 POP JUMP JUMPDEST PUSH1 0x0 PUSH2 0x231B PUSH1 0x29 DUP4 PUSH2 0x27F8 JUMP JUMPDEST SWAP2 POP PUSH2 0x2326 DUP3 PUSH2 0x2E6D JUMP JUMPDEST PUSH1 0x40 DUP3 ADD SWAP1 POP SWAP2 SWAP1 POP JUMP JUMPDEST PUSH1 0x0 PUSH2 0x233E PUSH1 0x28 DUP4 PUSH2 0x27F8 JUMP JUMPDEST SWAP2 POP PUSH2 0x2349 DUP3 PUSH2 0x2EBC JUMP JUMPDEST PUSH1 0x40 DUP3 ADD SWAP1 POP SWAP2 SWAP1 POP JUMP JUMPDEST PUSH1 0x0 PUSH2 0x2361 PUSH1 0x21 DUP4 PUSH2 0x27F8 JUMP JUMPDEST SWAP2 POP PUSH2 0x236C DUP3 PUSH2 0x2F0B JUMP JUMPDEST PUSH1 0x40 DUP3 ADD SWAP1 POP SWAP2 SWAP1 POP JUMP JUMPDEST PUSH2 0x2380 DUP2 PUSH2 0x2939 JUMP JUMPDEST DUP3 MSTORE POP POP JUMP JUMPDEST PUSH2 0x238F DUP2 PUSH2 0x2939 JUMP JUMPDEST DUP3 MSTORE POP POP JUMP JUMPDEST PUSH1 0x0 PUSH2 0x23A1 DUP3 DUP6 PUSH2 0x2154 JUMP JUMPDEST SWAP2 POP PUSH2 0x23AD DUP3 DUP5 PUSH2 0x2123 JUMP JUMPDEST SWAP2 POP DUP2 SWAP1 POP SWAP4 SWAP3 POP POP POP JUMP JUMPDEST PUSH1 0x0 PUSH1 0xA0 DUP3 ADD SWAP1 POP PUSH2 0x23CE PUSH1 0x0 DUP4 ADD DUP9 PUSH2 0x2035 JUMP JUMPDEST PUSH2 0x23DB PUSH1 0x20 DUP4 ADD DUP8 PUSH2 0x2035 JUMP JUMPDEST DUP2 DUP2 SUB PUSH1 0x40 DUP4 ADD MSTORE PUSH2 0x23ED DUP2 DUP7 PUSH2 0x2044 JUMP JUMPDEST SWAP1 POP DUP2 DUP2 SUB PUSH1 0x60 DUP4 ADD MSTORE PUSH2 0x2401 DUP2 DUP6 PUSH2 0x2044 JUMP JUMPDEST SWAP1 POP DUP2 DUP2 SUB PUSH1 0x80 DUP4 ADD MSTORE PUSH2 0x2415 DUP2 DUP5 PUSH2 0x20B1 JUMP JUMPDEST SWAP1 POP SWAP7 SWAP6 POP POP POP POP POP POP JUMP JUMPDEST PUSH1 0x0 PUSH1 0xA0 DUP3 ADD SWAP1 POP PUSH2 0x2436 PUSH1 0x0 DUP4 ADD DUP9 PUSH2 0x2035 JUMP JUMPDEST PUSH2 0x2443 PUSH1 0x20 DUP4 ADD DUP8 PUSH2 0x2035 JUMP JUMPDEST PUSH2 0x2450 PUSH1 0x40 DUP4 ADD DUP7 PUSH2 0x2386 JUMP JUMPDEST PUSH2 0x245D PUSH1 0x60 DUP4 ADD DUP6 PUSH2 0x2386 JUMP JUMPDEST DUP2 DUP2 SUB PUSH1 0x80 DUP4 ADD MSTORE PUSH2 0x246F DUP2 DUP5 PUSH2 0x20B1 JUMP JUMPDEST SWAP1 POP SWAP7 SWAP6 POP POP POP POP POP POP JUMP JUMPDEST PUSH1 0x0 PUSH1 0x20 DUP3 ADD SWAP1 POP DUP2 DUP2 SUB PUSH1 0x0 DUP4 ADD MSTORE PUSH2 0x2495 DUP2 DUP5 PUSH2 0x2044 JUMP JUMPDEST SWAP1 POP SWAP3 SWAP2 POP POP JUMP JUMPDEST PUSH1 0x0 PUSH1 0x40 DUP3 ADD SWAP1 POP DUP2 DUP2 SUB PUSH1 0x0 DUP4 ADD MSTORE PUSH2 0x24B7 DUP2 DUP6 PUSH2 0x2044 JUMP JUMPDEST SWAP1 POP DUP2 DUP2 SUB PUSH1 0x20 DUP4 ADD MSTORE PUSH2 0x24CB DUP2 DUP5 PUSH2 0x2044 JUMP JUMPDEST SWAP1 POP SWAP4 SWAP3 POP POP POP JUMP JUMPDEST PUSH1 0x0 PUSH1 0x20 DUP3 ADD SWAP1 POP PUSH2 0x24E9 PUSH1 0x0 DUP4 ADD DUP5 PUSH2 0x20A2 JUMP JUMPDEST SWAP3 SWAP2 POP POP JUMP JUMPDEST PUSH1 0x0 PUSH1 0x20 DUP3 ADD SWAP1 POP DUP2 DUP2 SUB PUSH1 0x0 DUP4 ADD MSTORE PUSH2 0x2509 DUP2 DUP5 PUSH2 0x20EA JUMP JUMPDEST SWAP1 POP SWAP3 SWAP2 POP POP JUMP JUMPDEST PUSH1 0x0 PUSH1 0x20 DUP3 ADD SWAP1 POP DUP2 DUP2 SUB PUSH1 0x0 DUP4 ADD MSTORE PUSH2 0x252A DUP2 PUSH2 0x21D3 JUMP JUMPDEST SWAP1 POP SWAP2 SWAP1 POP JUMP JUMPDEST PUSH1 0x0 PUSH1 0x20 DUP3 ADD SWAP1 POP DUP2 DUP2 SUB PUSH1 0x0 DUP4 ADD MSTORE PUSH2 0x254A DUP2 PUSH2 0x21F6 JUMP JUMPDEST SWAP1 POP SWAP2 SWAP1 POP JUMP JUMPDEST PUSH1 0x0 PUSH1 0x20 DUP3 ADD SWAP1 POP DUP2 DUP2 SUB PUSH1 0x0 DUP4 ADD MSTORE PUSH2 0x256A DUP2 PUSH2 0x2219 JUMP JUMPDEST SWAP1 POP SWAP2 SWAP1 POP JUMP JUMPDEST PUSH1 0x0 PUSH1 0x20 DUP3 ADD SWAP1 POP DUP2 DUP2 SUB PUSH1 0x0 DUP4 ADD MSTORE PUSH2 0x258A DUP2 PUSH2 0x223C JUMP JUMPDEST SWAP1 POP SWAP2 SWAP1 POP JUMP JUMPDEST PUSH1 0x0 PUSH1 0x20 DUP3 ADD SWAP1 POP DUP2 DUP2 SUB PUSH1 0x0 DUP4 ADD MSTORE PUSH2 0x25AA DUP2 PUSH2 0x225F JUMP JUMPDEST SWAP1 POP SWAP2 SWAP1 POP JUMP JUMPDEST PUSH1 0x0 PUSH1 0x20 DUP3 ADD SWAP1 POP DUP2 DUP2 SUB PUSH1 0x0 DUP4 ADD MSTORE PUSH2 0x25CA DUP2 PUSH2 0x2282 JUMP JUMPDEST SWAP1 POP SWAP2 SWAP1 POP JUMP JUMPDEST PUSH1 0x0 PUSH1 0x20 DUP3 ADD SWAP1 POP DUP2 DUP2 SUB PUSH1 0x0 DUP4 ADD MSTORE PUSH2 0x25EA DUP2 PUSH2 0x22A5 JUMP JUMPDEST SWAP1 POP SWAP2 SWAP1 POP JUMP JUMPDEST PUSH1 0x0 PUSH1 0x20 DUP3 ADD SWAP1 POP DUP2 DUP2 SUB PUSH1 0x0 DUP4 ADD MSTORE PUSH2 0x260A DUP2 PUSH2 0x22C8 JUMP JUMPDEST SWAP1 POP SWAP2 SWAP1 POP JUMP JUMPDEST PUSH1 0x0 PUSH1 0x20 DUP3 ADD SWAP1 POP DUP2 DUP2 SUB PUSH1 0x0 DUP4 ADD MSTORE PUSH2 0x262A DUP2 PUSH2 0x22EB JUMP JUMPDEST SWAP1 POP SWAP2 SWAP1 POP JUMP JUMPDEST PUSH1 0x0 PUSH1 0x20 DUP3 ADD SWAP1 POP DUP2 DUP2 SUB PUSH1 0x0 DUP4 ADD MSTORE PUSH2 0x264A DUP2 PUSH2 0x230E JUMP JUMPDEST SWAP1 POP SWAP2 SWAP1 POP JUMP JUMPDEST PUSH1 0x0 PUSH1 0x20 DUP3 ADD SWAP1 POP DUP2 DUP2 SUB PUSH1 0x0 DUP4 ADD MSTORE PUSH2 0x266A DUP2 PUSH2 0x2331 JUMP JUMPDEST SWAP1 POP SWAP2 SWAP1 POP JUMP JUMPDEST PUSH1 0x0 PUSH1 0x20 DUP3 ADD SWAP1 POP DUP2 DUP2 SUB PUSH1 0x0 DUP4 ADD MSTORE PUSH2 0x268A DUP2 PUSH2 0x2354 JUMP JUMPDEST SWAP1 POP SWAP2 SWAP1 POP JUMP JUMPDEST PUSH1 0x0 PUSH1 0x20 DUP3 ADD SWAP1 POP PUSH2 0x26A6 PUSH1 0x0 DUP4 ADD DUP5 PUSH2 0x2386 JUMP JUMPDEST SWAP3 SWAP2 POP POP JUMP JUMPDEST PUSH1 0x0 PUSH1 0x40 DUP3 ADD SWAP1 POP PUSH2 0x26C1 PUSH1 0x0 DUP4 ADD DUP6 PUSH2 0x2386 JUMP JUMPDEST PUSH2 0x26CE PUSH1 0x20 DUP4 ADD DUP5 PUSH2 0x2386 JUMP JUMPDEST SWAP4 SWAP3 POP POP POP JUMP JUMPDEST PUSH1 0x0 PUSH2 0x26DF PUSH2 0x26F0 JUMP JUMPDEST SWAP1 POP PUSH2 0x26EB DUP3 DUP3 PUSH2 0x29B7 JUMP JUMPDEST SWAP2 SWAP1 POP JUMP JUMPDEST PUSH1 0x0 PUSH1 0x40 MLOAD SWAP1 POP SWAP1 JUMP JUMPDEST PUSH1 0x0 PUSH8 0xFFFFFFFFFFFFFFFF DUP3 GT ISZERO PUSH2 0x2715 JUMPI PUSH2 0x2714 PUSH2 0x2B1E JUMP JUMPDEST JUMPDEST PUSH1 0x20 DUP3 MUL SWAP1 POP PUSH1 0x20 DUP2 ADD SWAP1 POP SWAP2 SWAP1 POP JUMP JUMPDEST PUSH1 0x0 PUSH8 0xFFFFFFFFFFFFFFFF DUP3 GT ISZERO PUSH2 0x2741 JUMPI PUSH2 0x2740 PUSH2 0x2B1E JUMP JUMPDEST JUMPDEST PUSH1 0x20 DUP3 MUL SWAP1 POP PUSH1 0x20 DUP2 ADD SWAP1 POP SWAP2 SWAP1 POP JUMP JUMPDEST PUSH1 0x0 PUSH8 0xFFFFFFFFFFFFFFFF DUP3 GT ISZERO PUSH2 0x276D JUMPI PUSH2 0x276C PUSH2 0x2B1E JUMP JUMPDEST JUMPDEST PUSH2 0x2776 DUP3 PUSH2 0x2B88 JUMP JUMPDEST SWAP1 POP PUSH1 0x20 DUP2 ADD SWAP1 POP SWAP2 SWAP1 POP JUMP JUMPDEST PUSH1 0x0 DUP2 SWAP1 POP PUSH1 0x20 DUP3 ADD SWAP1 POP SWAP2 SWAP1 POP JUMP JUMPDEST PUSH1 0x0 DUP2 SWAP1 POP DUP2 PUSH1 0x0 MSTORE PUSH1 0x20 PUSH1 0x0 KECCAK256 SWAP1 POP SWAP2 SWAP1 POP JUMP JUMPDEST PUSH1 0x0 DUP2 MLOAD SWAP1 POP SWAP2 SWAP1 POP JUMP JUMPDEST PUSH1 0x0 DUP2 MLOAD SWAP1 POP SWAP2 SWAP1 POP JUMP JUMPDEST PUSH1 0x0 DUP2 MLOAD SWAP1 POP SWAP2 SWAP1 POP JUMP JUMPDEST PUSH1 0x0 PUSH1 0x20 DUP3 ADD SWAP1 POP SWAP2 SWAP1 POP JUMP JUMPDEST PUSH1 0x0 DUP3 DUP3 MSTORE PUSH1 0x20 DUP3 ADD SWAP1 POP SWAP3 SWAP2 POP POP JUMP JUMPDEST PUSH1 0x0 DUP3 DUP3 MSTORE PUSH1 0x20 DUP3 ADD SWAP1 POP SWAP3 SWAP2 POP POP JUMP JUMPDEST PUSH1 0x0 DUP3 DUP3 MSTORE PUSH1 0x20 DUP3 ADD SWAP1 POP SWAP3 SWAP2 POP POP JUMP JUMPDEST PUSH1 0x0 DUP2 SWAP1 POP SWAP3 SWAP2 POP POP JUMP JUMPDEST PUSH1 0x0 PUSH2 0x281F DUP3 PUSH2 0x2939 JUMP JUMPDEST SWAP2 POP PUSH2 0x282A DUP4 PUSH2 0x2939 JUMP JUMPDEST SWAP3 POP DUP3 PUSH32 0xFFFFFFFFFFFFFFFFFFFFFFFFFFFFFFFFFFFFFFFFFFFFFFFFFFFFFFFFFFFFFFFF SUB DUP3 GT ISZERO PUSH2 0x285F JUMPI PUSH2 0x285E PUSH2 0x2A62 JUMP JUMPDEST JUMPDEST DUP3 DUP3 ADD SWAP1 POP SWAP3 SWAP2 POP POP JUMP JUMPDEST PUSH1 0x0 PUSH2 0x2875 DUP3 PUSH2 0x2939 JUMP JUMPDEST SWAP2 POP PUSH2 0x2880 DUP4 PUSH2 0x2939 JUMP JUMPDEST SWAP3 POP DUP3 PUSH2 0x2890 JUMPI PUSH2 0x288F PUSH2 0x2A91 JUMP JUMPDEST JUMPDEST DUP3 DUP3 DIV SWAP1 POP SWAP3 SWAP2 POP POP JUMP JUMPDEST PUSH1 0x0 PUSH2 0x28A6 DUP3 PUSH2 0x2939 JUMP JUMPDEST SWAP2 POP PUSH2 0x28B1 DUP4 PUSH2 0x2939 JUMP JUMPDEST SWAP3 POP DUP3 DUP3 LT ISZERO PUSH2 0x28C4 JUMPI PUSH2 0x28C3 PUSH2 0x2A62 JUMP JUMPDEST JUMPDEST DUP3 DUP3 SUB SWAP1 POP SWAP3 SWAP2 POP POP JUMP JUMPDEST PUSH1 0x0 PUSH2 0x28DA DUP3 PUSH2 0x2919 JUMP JUMPDEST SWAP1 POP SWAP2 SWAP1 POP JUMP JUMPDEST PUSH1 0x0 DUP2 ISZERO ISZERO SWAP1 POP SWAP2 SWAP1 POP JUMP JUMPDEST PUSH1 0x0 PUSH32 0xFFFFFFFF00000000000000000000000000000000000000000000000000000000 DUP3 AND SWAP1 POP SWAP2 SWAP1 POP JUMP JUMPDEST PUSH1 0x0 PUSH20 0xFFFFFFFFFFFFFFFFFFFFFFFFFFFFFFFFFFFFFFFF DUP3 AND SWAP1 POP SWAP2 SWAP1 POP JUMP JUMPDEST PUSH1 0x0 DUP2 SWAP1 POP SWAP2 SWAP1 POP JUMP JUMPDEST DUP3 DUP2 DUP4 CALLDATACOPY PUSH1 0x0 DUP4 DUP4 ADD MSTORE POP POP POP JUMP JUMPDEST PUSH1 0x0 JUMPDEST DUP4 DUP2 LT ISZERO PUSH2 0x2970 JUMPI DUP1 DUP3 ADD MLOAD DUP2 DUP5 ADD MSTORE PUSH1 0x20 DUP2 ADD SWAP1 POP PUSH2 0x2955 JUMP JUMPDEST DUP4 DUP2 GT ISZERO PUSH2 0x297F JUMPI PUSH1 0x0 DUP5 DUP5 ADD MSTORE JUMPDEST POP POP POP POP JUMP JUMPDEST PUSH1 0x0 PUSH1 0x2 DUP3 DIV SWAP1 POP PUSH1 0x1 DUP3 AND DUP1 PUSH2 0x299D JUMPI PUSH1 0x7F DUP3 AND SWAP2 POP JUMPDEST PUSH1 0x20 DUP3 LT DUP2 EQ ISZERO PUSH2 0x29B1 JUMPI PUSH2 0x29B0 PUSH2 0x2AC0 JUMP JUMPDEST JUMPDEST POP SWAP2 SWAP1 POP JUMP JUMPDEST PUSH2 0x29C0 DUP3 PUSH2 0x2B88 JUMP JUMPDEST DUP2 ADD DUP2 DUP2 LT PUSH8 0xFFFFFFFFFFFFFFFF DUP3 GT OR ISZERO PUSH2 0x29DF JUMPI PUSH2 0x29DE PUSH2 0x2B1E JUMP JUMPDEST JUMPDEST DUP1 PUSH1 0x40 MSTORE POP POP POP JUMP JUMPDEST PUSH1 0x0 PUSH2 0x29F3 DUP3 PUSH2 0x2939 JUMP JUMPDEST SWAP2 POP PUSH32 0xFFFFFFFFFFFFFFFFFFFFFFFFFFFFFFFFFFFFFFFFFFFFFFFFFFFFFFFFFFFFFFFF DUP3 EQ ISZERO PUSH2 0x2A26 JUMPI PUSH2 0x2A25 PUSH2 0x2A62 JUMP JUMPDEST JUMPDEST PUSH1 0x1 DUP3 ADD SWAP1 POP SWAP2 SWAP1 POP JUMP JUMPDEST PUSH1 0x0 PUSH2 0x2A3C DUP3 PUSH2 0x2939 JUMP JUMPDEST SWAP2 POP PUSH2 0x2A47 DUP4 PUSH2 0x2939 JUMP JUMPDEST SWAP3 POP DUP3 PUSH2 0x2A57 JUMPI PUSH2 0x2A56 PUSH2 0x2A91 JUMP JUMPDEST JUMPDEST DUP3 DUP3 MOD SWAP1 POP SWAP3 SWAP2 POP POP JUMP JUMPDEST PUSH32 0x4E487B7100000000000000000000000000000000000000000000000000000000 PUSH1 0x0 MSTORE PUSH1 0x11 PUSH1 0x4 MSTORE PUSH1 0x24 PUSH1 0x0 REVERT JUMPDEST PUSH32 0x4E487B7100000000000000000000000000000000000000000000000000000000 PUSH1 0x0 MSTORE PUSH1 0x12 PUSH1 0x4 MSTORE PUSH1 0x24 PUSH1 0x0 REVERT JUMPDEST PUSH32 0x4E487B7100000000000000000000000000000000000000000000000000000000 PUSH1 0x0 MSTORE PUSH1 0x22 PUSH1 0x4 MSTORE PUSH1 0x24 PUSH1 0x0 REVERT JUMPDEST PUSH32 0x4E487B7100000000000000000000000000000000000000000000000000000000 PUSH1 0x0 MSTORE PUSH1 0x32 PUSH1 0x4 MSTORE PUSH1 0x24 PUSH1 0x0 REVERT JUMPDEST PUSH32 0x4E487B7100000000000000000000000000000000000000000000000000000000 PUSH1 0x0 MSTORE PUSH1 0x41 PUSH1 0x4 MSTORE PUSH1 0x24 PUSH1 0x0 REVERT JUMPDEST PUSH1 0x0 PUSH1 0x3 RETURNDATASIZE GT ISZERO PUSH2 0x2B6C JUMPI PUSH1 0x4 PUSH1 0x0 DUP1 RETURNDATACOPY PUSH2 0x2B69 PUSH1 0x0 MLOAD PUSH2 0x2B99 JUMP JUMPDEST SWAP1 POP JUMPDEST SWAP1 JUMP JUMPDEST PUSH1 0x0 DUP1 REVERT JUMPDEST PUSH1 0x0 DUP1 REVERT JUMPDEST PUSH1 0x0 DUP1 REVERT JUMPDEST PUSH1 0x0 DUP1 REVERT JUMPDEST PUSH1 0x0 DUP1 REVERT JUMPDEST PUSH1 0x0 PUSH1 0x1F NOT PUSH1 0x1F DUP4 ADD AND SWAP1 POP SWAP2 SWAP1 POP JUMP JUMPDEST PUSH1 0x0 DUP2 PUSH1 0xE0 SHR SWAP1 POP SWAP2 SWAP1 POP JUMP JUMPDEST PUSH32 0x455243313135353A207472616E7366657220746F206E6F6E2045524331313535 PUSH1 0x0 DUP3 ADD MSTORE PUSH32 0x526563656976657220696D706C656D656E746572000000000000000000000000 PUSH1 0x20 DUP3 ADD MSTORE POP JUMP JUMPDEST PUSH32 0x455243313135353A2063616C6C6572206973206E6F7420746F6B656E206F776E PUSH1 0x0 DUP3 ADD MSTORE PUSH32 0x6572206E6F7220617070726F7665640000000000000000000000000000000000 PUSH1 0x20 DUP3 ADD MSTORE POP JUMP JUMPDEST PUSH32 0x455243313135353A204552433131353552656365697665722072656A65637465 PUSH1 0x0 DUP3 ADD MSTORE PUSH32 0x6420746F6B656E73000000000000000000000000000000000000000000000000 PUSH1 0x20 DUP3 ADD MSTORE POP JUMP JUMPDEST PUSH32 0x455243313135353A206275726E20616D6F756E7420657863656564732062616C PUSH1 0x0 DUP3 ADD MSTORE PUSH32 0x616E636500000000000000000000000000000000000000000000000000000000 PUSH1 0x20 DUP3 ADD MSTORE POP JUMP JUMPDEST PUSH32 0x455243313135353A2061646472657373207A65726F206973206E6F7420612076 PUSH1 0x0 DUP3 ADD MSTORE PUSH32 0x616C6964206F776E657200000000000000000000000000000000000000000000 PUSH1 0x20 DUP3 ADD MSTORE POP JUMP JUMPDEST PUSH32 0x455243313135353A207472616E7366657220746F20746865207A65726F206164 PUSH1 0x0 DUP3 ADD MSTORE PUSH32 0x6472657373000000000000000000000000000000000000000000000000000000 PUSH1 0x20 DUP3 ADD MSTORE POP JUMP JUMPDEST PUSH32 0x455243313135353A206275726E2066726F6D20746865207A65726F2061646472 PUSH1 0x0 DUP3 ADD MSTORE PUSH32 0x6573730000000000000000000000000000000000000000000000000000000000 PUSH1 0x20 DUP3 ADD MSTORE POP JUMP JUMPDEST PUSH32 0x455243313135353A20696E73756666696369656E742062616C616E636520666F PUSH1 0x0 DUP3 ADD MSTORE PUSH32 0x72207472616E7366657200000000000000000000000000000000000000000000 PUSH1 0x20 DUP3 ADD MSTORE POP JUMP JUMPDEST PUSH32 0x455243313135353A2073657474696E6720617070726F76616C20737461747573 PUSH1 0x0 DUP3 ADD MSTORE PUSH32 0x20666F722073656C660000000000000000000000000000000000000000000000 PUSH1 0x20 DUP3 ADD MSTORE POP JUMP JUMPDEST PUSH32 0x455243313135353A206163636F756E747320616E6420696473206C656E677468 PUSH1 0x0 DUP3 ADD MSTORE PUSH32 0x206D69736D617463680000000000000000000000000000000000000000000000 PUSH1 0x20 DUP3 ADD MSTORE POP JUMP JUMPDEST PUSH32 0x455243313135353A2069647320616E6420616D6F756E7473206C656E67746820 PUSH1 0x0 DUP3 ADD MSTORE PUSH32 0x6D69736D61746368000000000000000000000000000000000000000000000000 PUSH1 0x20 DUP3 ADD MSTORE POP JUMP JUMPDEST PUSH32 0x455243313135353A206D696E7420746F20746865207A65726F20616464726573 PUSH1 0x0 DUP3 ADD MSTORE PUSH32 0x7300000000000000000000000000000000000000000000000000000000000000 PUSH1 0x20 DUP3 ADD MSTORE POP JUMP JUMPDEST PUSH1 0x0 PUSH1 0x44 RETURNDATASIZE LT ISZERO PUSH2 0x2F6A JUMPI PUSH2 0x2FED JUMP JUMPDEST PUSH2 0x2F72 PUSH2 0x26F0 JUMP JUMPDEST PUSH1 0x4 RETURNDATASIZE SUB PUSH1 0x4 DUP3 RETURNDATACOPY DUP1 MLOAD RETURNDATASIZE PUSH1 0x24 DUP3 ADD GT PUSH8 0xFFFFFFFFFFFFFFFF DUP3 GT OR ISZERO PUSH2 0x2F9A JUMPI POP POP PUSH2 0x2FED JUMP JUMPDEST DUP1 DUP3 ADD DUP1 MLOAD PUSH8 0xFFFFFFFFFFFFFFFF DUP2 GT ISZERO PUSH2 0x2FB8 JUMPI POP POP POP POP PUSH2 0x2FED JUMP JUMPDEST DUP1 PUSH1 0x20 DUP4 ADD ADD PUSH1 0x4 RETURNDATASIZE SUB DUP6 ADD DUP2 GT ISZERO PUSH2 0x2FD5 JUMPI POP POP POP POP POP PUSH2 0x2FED JUMP JUMPDEST PUSH2 0x2FE4 DUP3 PUSH1 0x20 ADD DUP6 ADD DUP7 PUSH2 0x29B7 JUMP JUMPDEST DUP3 SWAP6 POP POP POP POP POP POP JUMPDEST SWAP1 JUMP JUMPDEST PUSH2 0x2FF9 DUP2 PUSH2 0x28CF JUMP JUMPDEST DUP2 EQ PUSH2 0x3004 JUMPI PUSH1 0x0 DUP1 REVERT JUMPDEST POP JUMP JUMPDEST PUSH2 0x3010 DUP2 PUSH2 0x28E1 JUMP JUMPDEST DUP2 EQ PUSH2 0x301B JUMPI PUSH1 0x0 DUP1 REVERT JUMPDEST POP JUMP JUMPDEST PUSH2 0x3027 DUP2 PUSH2 0x28ED JUMP JUMPDEST DUP2 EQ PUSH2 0x3032 JUMPI PUSH1 0x0 DUP1 REVERT JUMPDEST POP JUMP JUMPDEST PUSH2 0x303E DUP2 PUSH2 0x2939 JUMP JUMPDEST DUP2 EQ PUSH2 0x3049 JUMPI PUSH1 0x0 DUP1 REVERT JUMPDEST POP JUMP INVALID LOG2 PUSH5 0x6970667358 0x22 SLT KECCAK256 0xD6 0xDD DUP13 CALLDATASIZE 0xBF SWAP1 CALLVALUE EXTCODEHASH 0xF 0x2E SELFDESTRUCT 0xFB PUSH2 0x736F SELFBALANCE 0x23 0xBA CALL BALANCE SHL 0xDD PUSH12 0xFA7E10E502843D563764736F PUSH13 0x63430008070033000000000000 "
				},
				"gasEstimates": {
					"creation": {
						"codeDepositCost": "2483600",
						"executionCost": "infinite",
						"totalCost": "infinite"
					},
					"external": {
						"balanceOf(address,uint256)": "infinite",
						"balanceOfBatch(address[],uint256[])": "infinite",
						"burn(address,uint256,uint256)": "infinite",
						"isApprovedForAll(address,address)": "infinite",
						"mint(address,uint256,uint256,bytes)": "infinite",
						"name()": "infinite",
						"safeBatchTransferFrom(address,address,uint256[],uint256[],bytes)": "infinite",
						"safeTransferFrom(address,address,uint256,uint256,bytes)": "infinite",
						"setApprovalForAll(address,bool)": "infinite",
						"supportsInterface(bytes4)": "796",
						"symbol()": "infinite",
						"uri(uint256)": "infinite"
					},
					"internal": {
						"_afterTokenTransfer(address,address,address,uint256[] memory,uint256[] memory,bytes memory)": "21",
						"_asSingletonArray(uint256)": "infinite",
						"_beforeTokenTransfer(address,address,address,uint256[] memory,uint256[] memory,bytes memory)": "21",
						"_burn(address,uint256,uint256)": "infinite",
						"_burnBatch(address,uint256[] memory,uint256[] memory)": "infinite",
						"_doSafeBatchTransferAcceptanceCheck(address,address,address,uint256[] memory,uint256[] memory,bytes memory)": "infinite",
						"_doSafeTransferAcceptanceCheck(address,address,address,uint256,uint256,bytes memory)": "infinite",
						"_mint(address,uint256,uint256,bytes memory)": "infinite",
						"_mintBatch(address,uint256[] memory,uint256[] memory,bytes memory)": "infinite",
						"_safeBatchTransferFrom(address,address,uint256[] memory,uint256[] memory,bytes memory)": "infinite",
						"_safeTransferFrom(address,address,uint256,uint256,bytes memory)": "infinite",
						"_setApprovalForAll(address,address,bool)": "infinite",
						"_setURI(string memory)": "infinite"
					}
				},
				"methodIdentifiers": {
					"balanceOf(address,uint256)": "00fdd58e",
					"balanceOfBatch(address[],uint256[])": "4e1273f4",
					"burn(address,uint256,uint256)": "f5298aca",
					"isApprovedForAll(address,address)": "e985e9c5",
					"mint(address,uint256,uint256,bytes)": "731133e9",
					"name()": "06fdde03",
					"safeBatchTransferFrom(address,address,uint256[],uint256[],bytes)": "2eb2c2d6",
					"safeTransferFrom(address,address,uint256,uint256,bytes)": "f242432a",
					"setApprovalForAll(address,bool)": "a22cb465",
					"supportsInterface(bytes4)": "01ffc9a7",
					"symbol()": "95d89b41",
					"uri(uint256)": "0e89341c"
				}
			},
			"storageLayout": {
				"storage": [
					{
						"astId": 374,
						"contract": "ERC1155.sol:ERC1155",
						"label": "name",
						"offset": 0,
						"slot": "0",
						"type": "t_string_storage"
					},
					{
						"astId": 376,
						"contract": "ERC1155.sol:ERC1155",
						"label": "symbol",
						"offset": 0,
						"slot": "1",
						"type": "t_string_storage"
					},
					{
						"astId": 382,
						"contract": "ERC1155.sol:ERC1155",
						"label": "_balances",
						"offset": 0,
						"slot": "2",
						"type": "t_mapping(t_uint256,t_mapping(t_address,t_uint256))"
					},
					{
						"astId": 388,
						"contract": "ERC1155.sol:ERC1155",
						"label": "_operatorApprovals",
						"offset": 0,
						"slot": "3",
						"type": "t_mapping(t_address,t_mapping(t_address,t_bool))"
					},
					{
						"astId": 390,
						"contract": "ERC1155.sol:ERC1155",
						"label": "_uri",
						"offset": 0,
						"slot": "4",
						"type": "t_string_storage"
					}
				],
				"types": {
					"t_address": {
						"encoding": "inplace",
						"label": "address",
						"numberOfBytes": "20"
					},
					"t_bool": {
						"encoding": "inplace",
						"label": "bool",
						"numberOfBytes": "1"
					},
					"t_mapping(t_address,t_bool)": {
						"encoding": "mapping",
						"key": "t_address",
						"label": "mapping(address => bool)",
						"numberOfBytes": "32",
						"value": "t_bool"
					},
					"t_mapping(t_address,t_mapping(t_address,t_bool))": {
						"encoding": "mapping",
						"key": "t_address",
						"label": "mapping(address => mapping(address => bool))",
						"numberOfBytes": "32",
						"value": "t_mapping(t_address,t_bool)"
					},
					"t_mapping(t_address,t_uint256)": {
						"encoding": "mapping",
						"key": "t_address",
						"label": "mapping(address => uint256)",
						"numberOfBytes": "32",
						"value": "t_uint256"
					},
					"t_mapping(t_uint256,t_mapping(t_address,t_uint256))": {
						"encoding": "mapping",
						"key": "t_uint256",
						"label": "mapping(uint256 => mapping(address => uint256))",
						"numberOfBytes": "32",
						"value": "t_mapping(t_address,t_uint256)"
					},
					"t_string_storage": {
						"encoding": "bytes",
						"label": "string",
						"numberOfBytes": "32"
					},
					"t_uint256": {
						"encoding": "inplace",
						"label": "uint256",
						"numberOfBytes": "32"
					}
				}
			},
			"userdoc": {
				"kind": "user",
				"methods": {},
				"version": 1
			}
		}
	}
}